{
  "contractName": "AddressWhitelist",
  "abi": [
    {
      "constant": false,
      "inputs": [],
      "name": "renounceOwnership",
      "outputs": [],
      "payable": false,
      "stateMutability": "nonpayable",
      "type": "function"
    },
    {
      "constant": true,
      "inputs": [],
      "name": "owner",
      "outputs": [
        {
          "name": "",
          "type": "address"
        }
      ],
      "payable": false,
      "stateMutability": "view",
      "type": "function"
    },
    {
      "constant": true,
      "inputs": [],
      "name": "isOwner",
      "outputs": [
        {
          "name": "",
          "type": "bool"
        }
      ],
      "payable": false,
      "stateMutability": "view",
      "type": "function"
    },
    {
      "constant": false,
      "inputs": [
        {
          "name": "newOwner",
          "type": "address"
        }
      ],
      "name": "transferOwnership",
      "outputs": [],
      "payable": false,
      "stateMutability": "nonpayable",
      "type": "function"
    },
    {
      "anonymous": false,
      "inputs": [
        {
          "indexed": true,
          "name": "addedAddress",
          "type": "address"
        }
      ],
      "name": "AddedToWhitelist",
      "type": "event"
    },
    {
      "anonymous": false,
      "inputs": [
        {
          "indexed": true,
          "name": "removedAddress",
          "type": "address"
        }
      ],
      "name": "RemovedFromWhitelist",
      "type": "event"
    },
    {
      "anonymous": false,
      "inputs": [
        {
          "indexed": true,
          "name": "previousOwner",
          "type": "address"
        },
        {
          "indexed": true,
          "name": "newOwner",
          "type": "address"
        }
      ],
      "name": "OwnershipTransferred",
      "type": "event"
    },
    {
      "constant": false,
      "inputs": [
        {
          "name": "newElement",
          "type": "address"
        }
      ],
      "name": "addToWhitelist",
      "outputs": [],
      "payable": false,
      "stateMutability": "nonpayable",
      "type": "function"
    },
    {
      "constant": false,
      "inputs": [
        {
          "name": "elementToRemove",
          "type": "address"
        }
      ],
      "name": "removeFromWhitelist",
      "outputs": [],
      "payable": false,
      "stateMutability": "nonpayable",
      "type": "function"
    },
    {
      "constant": true,
      "inputs": [
        {
          "name": "elementToCheck",
          "type": "address"
        }
      ],
      "name": "isOnWhitelist",
      "outputs": [
        {
          "name": "",
          "type": "bool"
        }
      ],
      "payable": false,
      "stateMutability": "view",
      "type": "function"
    },
    {
      "constant": true,
      "inputs": [],
      "name": "getWhitelist",
      "outputs": [
        {
          "name": "activeWhitelist",
          "type": "address[]"
        }
      ],
      "payable": false,
      "stateMutability": "view",
      "type": "function"
    }
  ],
  "bytecode": "0x6080604052336000806101000a81548173ffffffffffffffffffffffffffffffffffffffff021916908373ffffffffffffffffffffffffffffffffffffffff1602179055506000809054906101000a900473ffffffffffffffffffffffffffffffffffffffff1673ffffffffffffffffffffffffffffffffffffffff16600073ffffffffffffffffffffffffffffffffffffffff167f8be0079c531659141344cd1fd0a4f28419497f9722a3daafe3b4186f6b6457e060405160405180910390a3610ce2806100cf6000396000f3fe608060405234801561001057600080fd5b50600436106100885760003560e01c80638f32d59b1161005b5780638f32d59b14610181578063d01f63f5146101a3578063e43252d714610202578063f2fde38b1461024657610088565b80633a3ab6721461008d578063715018a6146100e95780638ab1d681146100f35780638da5cb5b14610137575b600080fd5b6100cf600480360360208110156100a357600080fd5b81019080803573ffffffffffffffffffffffffffffffffffffffff16906020019092919050505061028a565b604051808215151515815260200191505060405180910390f35b6100f16102f9565b005b6101356004803603602081101561010957600080fd5b81019080803573ffffffffffffffffffffffffffffffffffffffff169060200190929190505050610432565b005b61013f6105bd565b604051808273ffffffffffffffffffffffffffffffffffffffff1673ffffffffffffffffffffffffffffffffffffffff16815260200191505060405180910390f35b6101896105e6565b604051808215151515815260200191505060405180910390f35b6101ab61063d565b6040518080602001828103825283818151815260200191508051906020019060200280838360005b838110156101ee5780820151818401526020810190506101d3565b505050509050019250505060405180910390f35b6102446004803603602081101561021857600080fd5b81019080803573ffffffffffffffffffffffffffffffffffffffff169060200190929190505050610863565b005b6102886004803603602081101561025c57600080fd5b81019080803573ffffffffffffffffffffffffffffffffffffffff169060200190929190505050610ac6565b005b60006001600281111561029957fe5b600160008473ffffffffffffffffffffffffffffffffffffffff1673ffffffffffffffffffffffffffffffffffffffff16815260200190815260200160002060009054906101000a900460ff1660028111156102f157fe5b149050919050565b6103016105e6565b610373576040517f08c379a00000000000000000000000000000000000000000000000000000000081526004018080602001828103825260208152602001807f4f776e61626c653a2063616c6c6572206973206e6f7420746865206f776e657281525060200191505060405180910390fd5b600073ffffffffffffffffffffffffffffffffffffffff166000809054906101000a900473ffffffffffffffffffffffffffffffffffffffff1673ffffffffffffffffffffffffffffffffffffffff167f8be0079c531659141344cd1fd0a4f28419497f9722a3daafe3b4186f6b6457e060405160405180910390a360008060006101000a81548173ffffffffffffffffffffffffffffffffffffffff021916908373ffffffffffffffffffffffffffffffffffffffff160217905550565b61043a6105e6565b6104ac576040517f08c379a00000000000000000000000000000000000000000000000000000000081526004018080602001828103825260208152602001807f4f776e61626c653a2063616c6c6572206973206e6f7420746865206f776e657281525060200191505060405180910390fd5b6002808111156104b857fe5b600160008373ffffffffffffffffffffffffffffffffffffffff1673ffffffffffffffffffffffffffffffffffffffff16815260200190815260200160002060009054906101000a900460ff16600281111561051057fe5b146105ba576002600160008373ffffffffffffffffffffffffffffffffffffffff1673ffffffffffffffffffffffffffffffffffffffff16815260200190815260200160002060006101000a81548160ff0219169083600281111561057157fe5b02179055508073ffffffffffffffffffffffffffffffffffffffff167fcdd2e9b91a56913d370075169cefa1602ba36be5301664f752192bb1709df75760405160405180910390a25b50565b60008060009054906101000a900473ffffffffffffffffffffffffffffffffffffffff16905090565b60008060009054906101000a900473ffffffffffffffffffffffffffffffffffffffff1673ffffffffffffffffffffffffffffffffffffffff163373ffffffffffffffffffffffffffffffffffffffff1614905090565b6060600080905060008090505b60028054905081101561070f576001600281111561066457fe5b600160006002848154811061067557fe5b9060005260206000200160009054906101000a900473ffffffffffffffffffffffffffffffffffffffff1673ffffffffffffffffffffffffffffffffffffffff1673ffffffffffffffffffffffffffffffffffffffff16815260200190815260200160002060009054906101000a900460ff1660028111156106f357fe5b14156107025781806001019250505b808060010191505061064a565b508060405190808252806020026020018201604052801561073f5781602001602082028038833980820191505090505b5091506000905060008090505b60028054905081101561085e5760006002828154811061076857fe5b9060005260206000200160009054906101000a900473ffffffffffffffffffffffffffffffffffffffff169050600160028111156107a257fe5b600160008373ffffffffffffffffffffffffffffffffffffffff1673ffffffffffffffffffffffffffffffffffffffff16815260200190815260200160002060009054906101000a900460ff1660028111156107fa57fe5b1415610850578084848151811061080d57fe5b602002602001019073ffffffffffffffffffffffffffffffffffffffff16908173ffffffffffffffffffffffffffffffffffffffff168152505082806001019350505b50808060010191505061074c565b505090565b61086b6105e6565b6108dd576040517f08c379a00000000000000000000000000000000000000000000000000000000081526004018080602001828103825260208152602001807f4f776e61626c653a2063616c6c6572206973206e6f7420746865206f776e657281525060200191505060405180910390fd5b600160028111156108ea57fe5b600160008373ffffffffffffffffffffffffffffffffffffffff1673ffffffffffffffffffffffffffffffffffffffff16815260200190815260200160002060009054906101000a900460ff16600281111561094257fe5b141561094d57610ac3565b6000600281111561095a57fe5b600160008373ffffffffffffffffffffffffffffffffffffffff1673ffffffffffffffffffffffffffffffffffffffff16815260200190815260200160002060009054906101000a900460ff1660028111156109b257fe5b1415610a1f5760028190806001815401808255809150509060018203906000526020600020016000909192909190916101000a81548173ffffffffffffffffffffffffffffffffffffffff021916908373ffffffffffffffffffffffffffffffffffffffff160217905550505b60018060008373ffffffffffffffffffffffffffffffffffffffff1673ffffffffffffffffffffffffffffffffffffffff16815260200190815260200160002060006101000a81548160ff02191690836002811115610a7a57fe5b02179055508073ffffffffffffffffffffffffffffffffffffffff167fa850ae9193f515cbae8d35e8925bd2be26627fc91bce650b8652ed254e9cab0360405160405180910390a25b50565b610ace6105e6565b610b40576040517f08c379a00000000000000000000000000000000000000000000000000000000081526004018080602001828103825260208152602001807f4f776e61626c653a2063616c6c6572206973206e6f7420746865206f776e657281525060200191505060405180910390fd5b610b4981610b4c565b50565b600073ffffffffffffffffffffffffffffffffffffffff168173ffffffffffffffffffffffffffffffffffffffff161415610bd2576040517f08c379a0000000000000000000000000000000000000000000000000000000008152600401808060200182810382526026815260200180610c916026913960400191505060405180910390fd5b8073ffffffffffffffffffffffffffffffffffffffff166000809054906101000a900473ffffffffffffffffffffffffffffffffffffffff1673ffffffffffffffffffffffffffffffffffffffff167f8be0079c531659141344cd1fd0a4f28419497f9722a3daafe3b4186f6b6457e060405160405180910390a3806000806101000a81548173ffffffffffffffffffffffffffffffffffffffff021916908373ffffffffffffffffffffffffffffffffffffffff1602179055505056fe4f776e61626c653a206e6577206f776e657220697320746865207a65726f2061646472657373a165627a7a72305820b13d58a0c2d61b85584fc2ebc885e681d766e117058eccf05853389120bcc4dd0029",
  "source": "pragma solidity ^0.5.0;\n\nimport \"openzeppelin-solidity/contracts/ownership/Ownable.sol\";\n\n\n/**\n * @title A contract to track a whitelist of addresses.\n */\ncontract AddressWhitelist is Ownable {\n    enum Status { None, In, Out }\n    mapping(address => Status) private whitelist;\n\n    address[] private whitelistIndices;\n\n    /**\n     * @notice Adds an address to the whitelist.\n     */\n    function addToWhitelist(address newElement) external onlyOwner {\n        // Ignore if address is already included\n        if (whitelist[newElement] == Status.In) {\n            return;\n        }\n\n        // Only append new addresses to the array, never a duplicate\n        if (whitelist[newElement] == Status.None) {\n            whitelistIndices.push(newElement);\n        }\n\n        whitelist[newElement] = Status.In;\n\n        emit AddedToWhitelist(newElement);\n    }\n\n    /**\n     * @notice Removes an address from the whitelist.\n     */\n    function removeFromWhitelist(address elementToRemove) external onlyOwner {\n        if (whitelist[elementToRemove] != Status.Out) {\n            whitelist[elementToRemove] = Status.Out;\n            emit RemovedFromWhitelist(elementToRemove);\n        }\n    }\n\n    /**\n     * @notice Checks whether an address is on the whitelist.\n     */\n    function isOnWhitelist(address elementToCheck) external view returns (bool) {\n        return whitelist[elementToCheck] == Status.In;\n    }\n\n    /**\n     * @notice Gets all addresses that are currently included in the whitelist.\n     * @dev Note: This method skips over, but still iterates through addresses. It is possible for this call to run out\n     * of gas if a large number of addresses have been removed. To reduce the likelihood of this unlikely scenario, we\n     * can modify the implementation so that when addresses are removed, the last addresses in the array is moved to\n     * the empty index.\n     */\n    function getWhitelist() external view returns (address[] memory activeWhitelist) {\n        // Determine size of whitelist first\n        uint activeCount = 0;\n        for (uint i = 0; i < whitelistIndices.length; i++) {\n            if (whitelist[whitelistIndices[i]] == Status.In) {\n                activeCount++;\n            }\n        }\n\n        // Populate whitelist\n        activeWhitelist = new address[](activeCount);\n        activeCount = 0;\n        for (uint i = 0; i < whitelistIndices.length; i++) {\n            address addr = whitelistIndices[i];\n            if (whitelist[addr] == Status.In) {\n                activeWhitelist[activeCount] = addr;\n                activeCount++;\n            }\n        }\n    }\n\n    event AddedToWhitelist(address indexed addedAddress);\n    event RemovedFromWhitelist(address indexed removedAddress);\n}\n",
  "sourcePath": "/Users/kendrick/Development/Ethereum/defi-dy/contracts/uma/core/contracts/AddressWhitelist.sol",
  "compiler": {
    "name": "solc",
    "version": "0.5.8+commit.23d335f2.Emscripten.clang"
  },
  "schemaVersion": "3.0.10",
  "updatedAt": "2019-11-09T21:44:32.211Z",
  "devdoc": {
    "methods": {
      "getWhitelist()": {
        "details": "Note: This method skips over, but still iterates through addresses. It is possible for this call to run out of gas if a large number of addresses have been removed. To reduce the likelihood of this unlikely scenario, we can modify the implementation so that when addresses are removed, the last addresses in the array is moved to the empty index."
      },
      "isOwner()": {
        "details": "Returns true if the caller is the current owner."
      },
      "owner()": {
        "details": "Returns the address of the current owner."
      },
      "renounceOwnership()": {
        "details": "Leaves the contract without owner. It will not be possible to call `onlyOwner` functions anymore. Can only be called by the current owner.     * > Note: Renouncing ownership will leave the contract without an owner, thereby removing any functionality that is only available to the owner."
      },
      "transferOwnership(address)": {
        "details": "Transfers ownership of the contract to a new account (`newOwner`). Can only be called by the current owner."
      }
    },
    "title": "A contract to track a whitelist of addresses."
  },
  "userdoc": {
    "methods": {
      "addToWhitelist(address)": {
        "notice": "Adds an address to the whitelist."
      },
      "getWhitelist()": {
        "notice": "Gets all addresses that are currently included in the whitelist."
      },
      "isOnWhitelist(address)": {
        "notice": "Checks whether an address is on the whitelist."
      },
      "removeFromWhitelist(address)": {
        "notice": "Removes an address from the whitelist."
      }
    }
  }
}