{
  "contractName": "DesignatedVoting",
  "abi": [
    {
      "constant": false,
      "inputs": [
        {
          "name": "amount",
          "type": "uint256"
        }
      ],
      "name": "withdraw",
      "outputs": [],
      "payable": false,
      "stateMutability": "nonpayable",
      "type": "function"
    },
    {
      "constant": false,
      "inputs": [
        {
          "name": "roleId",
          "type": "uint256"
        },
        {
          "name": "memberToRemove",
          "type": "address"
        }
      ],
      "name": "removeMember",
      "outputs": [],
      "payable": false,
      "stateMutability": "nonpayable",
      "type": "function"
    },
    {
      "constant": false,
      "inputs": [
        {
          "name": "roleId",
          "type": "uint256"
        },
        {
          "name": "newMember",
          "type": "address"
        }
      ],
      "name": "addMember",
      "outputs": [],
      "payable": false,
      "stateMutability": "nonpayable",
      "type": "function"
    },
    {
      "constant": true,
      "inputs": [
        {
          "name": "roleId",
          "type": "uint256"
        },
        {
          "name": "memberToCheck",
          "type": "address"
        }
      ],
      "name": "holdsRole",
      "outputs": [
        {
          "name": "",
          "type": "bool"
        }
      ],
      "payable": false,
      "stateMutability": "view",
      "type": "function"
    },
    {
      "constant": true,
      "inputs": [
        {
          "name": "roleId",
          "type": "uint256"
        }
      ],
      "name": "getMember",
      "outputs": [
        {
          "name": "",
          "type": "address"
        }
      ],
      "payable": false,
      "stateMutability": "view",
      "type": "function"
    },
    {
      "constant": false,
      "inputs": [
        {
          "name": "erc20Address",
          "type": "address"
        },
        {
          "name": "amount",
          "type": "uint256"
        }
      ],
      "name": "withdrawErc20",
      "outputs": [],
      "payable": false,
      "stateMutability": "nonpayable",
      "type": "function"
    },
    {
      "constant": false,
      "inputs": [
        {
          "name": "roleId",
          "type": "uint256"
        },
        {
          "name": "newMember",
          "type": "address"
        }
      ],
      "name": "resetMember",
      "outputs": [],
      "payable": false,
      "stateMutability": "nonpayable",
      "type": "function"
    },
    {
      "inputs": [
        {
          "name": "finderAddress",
          "type": "address"
        }
      ],
      "payable": false,
      "stateMutability": "nonpayable",
      "type": "constructor"
    },
    {
      "constant": false,
      "inputs": [
        {
          "name": "identifier",
          "type": "bytes32"
        },
        {
          "name": "time",
          "type": "uint256"
        },
        {
          "name": "hash",
          "type": "bytes32"
        }
      ],
      "name": "commitVote",
      "outputs": [],
      "payable": false,
      "stateMutability": "nonpayable",
      "type": "function"
    },
    {
      "constant": false,
      "inputs": [
        {
          "name": "identifier",
          "type": "bytes32"
        },
        {
          "name": "time",
          "type": "uint256"
        },
        {
          "name": "price",
          "type": "int256"
        },
        {
          "name": "salt",
          "type": "int256"
        }
      ],
      "name": "revealVote",
      "outputs": [],
      "payable": false,
      "stateMutability": "nonpayable",
      "type": "function"
    },
    {
      "constant": false,
      "inputs": [],
      "name": "retrieveRewards",
      "outputs": [],
      "payable": false,
      "stateMutability": "nonpayable",
      "type": "function"
    }
  ],
  "bytecode": "0x60806040523480156200001157600080fd5b50604051602080620015f2833981018060405260208110156200003357600080fd5b810190808051906020019092919050505062000071600060018111156200005657fe5b600060018111156200006457fe5b336200010360201b60201c565b6200009d6001808111156200008257fe5b600060018111156200009057fe5b336200010360201b60201c565b620000bb60006001811115620000af57fe5b620002b560201b60201c565b80600260006101000a81548173ffffffffffffffffffffffffffffffffffffffff021916908373ffffffffffffffffffffffffffffffffffffffff16021790555050620003a4565b82600060028111156200011257fe5b60008083815260200190815260200160002060010160009054906101000a900460ff1660028111156200014157fe5b14620001b5576040517f08c379a000000000000000000000000000000000000000000000000000000000815260040180806020018281038252601e8152602001807f43616e6e6f74207573652061207072652d6578697374696e6720726f6c65000081525060200191505060405180910390fd5b6000806000868152602001908152602001600020905060018160010160006101000a81548160ff02191690836002811115620001ed57fe5b0217905550838160000181905550620002188382600201620002bf60201b620010e11790919060201c565b600060028111156200022657fe5b60008086815260200190815260200160002060010160009054906101000a900460ff1660028111156200025557fe5b1415620002ae576040517f08c379a000000000000000000000000000000000000000000000000000000000815260040180806020018281038252603c81526020018062001593603c913960400191505060405180910390fd5b5050505050565b8060018190555050565b620002d18282620002d560201b60201c565b5050565b600073ffffffffffffffffffffffffffffffffffffffff168173ffffffffffffffffffffffffffffffffffffffff1614156200035d576040517f08c379a0000000000000000000000000000000000000000000000000000000008152600401808060200182810382526023815260200180620015cf6023913960400191505060405180910390fd5b808260000160006101000a81548173ffffffffffffffffffffffffffffffffffffffff021916908373ffffffffffffffffffffffffffffffffffffffff1602179055505050565b6111df80620003b46000396000f3fe608060405234801561001057600080fd5b506004361061009e5760003560e01c80637cdc1cb9116100665780637cdc1cb9146101c3578063ab3545e514610229578063bd1f4b5214610297578063d8651ad0146102e5578063d97c05be146103275761009e565b80632e1a7d4d146100a35780634c7a2603146100d15780635b5671ea1461011d5780636be7658b1461012757806374d0a67614610175575b600080fd5b6100cf600480360360208110156100b957600080fd5b8101908080359060200190929190505050610375565b005b61011b600480360360808110156100e757600080fd5b8101908080359060200190929190803590602001909291908035906020019092919080359060200190929190505050610422565b005b61012561051e565b005b6101736004803603604081101561013d57600080fd5b8101908080359060200190929190803573ffffffffffffffffffffffffffffffffffffffff1690602001909291905050506105f3565b005b6101c16004803603604081101561018b57600080fd5b8101908080359060200190929190803573ffffffffffffffffffffffffffffffffffffffff169060200190929190505050610726565b005b61020f600480360360408110156101d957600080fd5b8101908080359060200190929190803573ffffffffffffffffffffffffffffffffffffffff169060200190929190505050610859565b604051808215151515815260200191505060405180910390f35b6102556004803603602081101561023f57600080fd5b8101908080359060200190929190505050610987565b604051808273ffffffffffffffffffffffffffffffffffffffff1673ffffffffffffffffffffffffffffffffffffffff16815260200191505060405180910390f35b6102e3600480360360408110156102ad57600080fd5b81019080803573ffffffffffffffffffffffffffffffffffffffff16906020019092919080359060200190929190505050610a40565b005b610325600480360360608110156102fb57600080fd5b81019080803590602001909291908035906020019092919080359060200190929190505050610b78565b005b6103736004803603604081101561033d57600080fd5b8101908080359060200190929190803573ffffffffffffffffffffffffffffffffffffffff169060200190929190505050610c6b565b005b6001546103828133610859565b6103d7576040517f08c379a000000000000000000000000000000000000000000000000000000000815260040180806020018281038252602281526020018061114b6022913960400191505060405180910390fd5b3373ffffffffffffffffffffffffffffffffffffffff166108fc839081150290604051600060405180830381858888f1935050505015801561041d573d6000803e3d6000fd5b505050565b60018081111561042e57fe5b6104388133610859565b61048d576040517f08c379a000000000000000000000000000000000000000000000000000000000815260040180806020018281038252602281526020018061114b6022913960400191505060405180910390fd5b610495610d9f565b73ffffffffffffffffffffffffffffffffffffffff16634c7a2603868686866040518563ffffffff1660e01b815260040180858152602001848152602001838152602001828152602001945050505050600060405180830381600087803b1580156104ff57600080fd5b505af1158015610513573d6000803e3d6000fd5b505050505050505050565b60018081111561052a57fe5b6105348133610859565b610589576040517f08c379a000000000000000000000000000000000000000000000000000000000815260040180806020018281038252602281526020018061114b6022913960400191505060405180910390fd5b610591610d9f565b73ffffffffffffffffffffffffffffffffffffffff16635b5671ea6040518163ffffffff1660e01b8152600401600060405180830381600087803b1580156105d857600080fd5b505af11580156105ec573d6000803e3d6000fd5b5050505050565b8160028081111561060057fe5b60008083815260200190815260200160002060010160009054906101000a900460ff16600281111561062e57fe5b14610684576040517f08c379a000000000000000000000000000000000000000000000000000000000815260040180806020018281038252602c81526020018061111f602c913960400191505060405180910390fd5b826106a46000808381526020019081526020016000206000015433610859565b6106f9576040517f08c379a00000000000000000000000000000000000000000000000000000000081526004018080602001828103825260248152602001806111906024913960400191505060405180910390fd5b61072083600080878152602001908152602001600020600301610e7490919063ffffffff16565b50505050565b8160028081111561073357fe5b60008083815260200190815260200160002060010160009054906101000a900460ff16600281111561076157fe5b146107b7576040517f08c379a000000000000000000000000000000000000000000000000000000000815260040180806020018281038252602c81526020018061111f602c913960400191505060405180910390fd5b826107d76000808381526020019081526020016000206000015433610859565b61082c576040517f08c379a00000000000000000000000000000000000000000000000000000000081526004018080602001828103825260248152602001806111906024913960400191505060405180910390fd5b61085383600080878152602001908152602001600020600301610ed290919063ffffffff16565b50505050565b60008060008085815260200190815260200160002090506001600281111561087d57fe5b8160010160009054906101000a900460ff16600281111561089a57fe5b14156108be576108b68382600201610f3090919063ffffffff16565b915050610981565b6002808111156108ca57fe5b8160010160009054906101000a900460ff1660028111156108e757fe5b141561090b576109038382600301610f8d90919063ffffffff16565b915050610981565b600061097f576040517f08c379a000000000000000000000000000000000000000000000000000000000815260040180806020018281038252600e8152602001807f496e76616c696420726f6c65496400000000000000000000000000000000000081525060200191505060405180910390fd5b505b92915050565b6000816001600281111561099757fe5b60008083815260200190815260200160002060010160009054906101000a900460ff1660028111156109c557fe5b14610a1b576040517f08c379a000000000000000000000000000000000000000000000000000000000815260040180806020018281038252602f8152602001806110f0602f913960400191505060405180910390fd5b610a38600080858152602001908152602001600020600201610fe6565b915050919050565b600154610a4d8133610859565b610aa2576040517f08c379a000000000000000000000000000000000000000000000000000000000815260040180806020018281038252602281526020018061114b6022913960400191505060405180910390fd5b60008390508073ffffffffffffffffffffffffffffffffffffffff1663a9059cbb33856040518363ffffffff1660e01b8152600401808373ffffffffffffffffffffffffffffffffffffffff1673ffffffffffffffffffffffffffffffffffffffff16815260200182815260200192505050602060405180830381600087803b158015610b2e57600080fd5b505af1158015610b42573d6000803e3d6000fd5b505050506040513d6020811015610b5857600080fd5b8101908080519060200190929190505050610b7257600080fd5b50505050565b600180811115610b8457fe5b610b8e8133610859565b610be3576040517f08c379a000000000000000000000000000000000000000000000000000000000815260040180806020018281038252602281526020018061114b6022913960400191505060405180910390fd5b610beb610d9f565b73ffffffffffffffffffffffffffffffffffffffff1663d8651ad08585856040518463ffffffff1660e01b8152600401808481526020018381526020018281526020019350505050600060405180830381600087803b158015610c4d57600080fd5b505af1158015610c61573d6000803e3d6000fd5b5050505050505050565b8160016002811115610c7957fe5b60008083815260200190815260200160002060010160009054906101000a900460ff166002811115610ca757fe5b14610cfd576040517f08c379a000000000000000000000000000000000000000000000000000000000815260040180806020018281038252602f8152602001806110f0602f913960400191505060405180910390fd5b82610d1d6000808381526020019081526020016000206000015433610859565b610d72576040517f08c379a00000000000000000000000000000000000000000000000000000000081526004018080602001828103825260248152602001806111906024913960400191505060405180910390fd5b610d998360008087815260200190815260200160002060020161101490919063ffffffff16565b50505050565b6000600260009054906101000a900473ffffffffffffffffffffffffffffffffffffffff1673ffffffffffffffffffffffffffffffffffffffff1663aafd5e406040518163ffffffff1660e01b815260040180807f4f7261636c650000000000000000000000000000000000000000000000000000815250602001905060206040518083038186803b158015610e3457600080fd5b505afa158015610e48573d6000803e3d6000fd5b505050506040513d6020811015610e5e57600080fd5b8101908080519060200190929190505050905090565b60008260000160008373ffffffffffffffffffffffffffffffffffffffff1673ffffffffffffffffffffffffffffffffffffffff16815260200190815260200160002060006101000a81548160ff0219169083151502179055505050565b60018260000160008373ffffffffffffffffffffffffffffffffffffffff1673ffffffffffffffffffffffffffffffffffffffff16815260200190815260200160002060006101000a81548160ff0219169083151502179055505050565b60008173ffffffffffffffffffffffffffffffffffffffff168360000160009054906101000a900473ffffffffffffffffffffffffffffffffffffffff1673ffffffffffffffffffffffffffffffffffffffff1614905092915050565b60008260000160008373ffffffffffffffffffffffffffffffffffffffff1673ffffffffffffffffffffffffffffffffffffffff16815260200190815260200160002060009054906101000a900460ff16905092915050565b60008160000160009054906101000a900473ffffffffffffffffffffffffffffffffffffffff169050919050565b600073ffffffffffffffffffffffffffffffffffffffff168173ffffffffffffffffffffffffffffffffffffffff16141561109a576040517f08c379a000000000000000000000000000000000000000000000000000000000815260040180806020018281038252602381526020018061116d6023913960400191505060405180910390fd5b808260000160006101000a81548173ffffffffffffffffffffffffffffffffffffffff021916908373ffffffffffffffffffffffffffffffffffffffff1602179055505050565b6110eb8282611014565b505056fe4d7573742062652063616c6c6564206f6e20616e20696e697469616c697a6564204578636c757369766520726f6c654d7573742062652063616c6c6564206f6e20616e20696e697469616c697a65642053686172656420726f6c6553656e64657220646f6573206e6f7420686f6c6420726571756972656420726f6c6543616e6e6f742073657420616e206578636c757369766520726f6c6520746f2030783043616e206f6e6c792062652063616c6c6564206279206120726f6c65206d616e61676572a165627a7a72305820aca0c4792c0f1d06a7fd709990a68855d322ce15fcd5e565a2c01b13d12b3e490029417474656d7074656420746f2075736520616e20696e76616c696420726f6c6520746f206d616e61676520616e206578636c757369766520726f6c6543616e6e6f742073657420616e206578636c757369766520726f6c6520746f20307830",
  "source": "pragma solidity ^0.5.0;\n\nimport \"./Finder.sol\";\nimport \"./MultiRole.sol\";\nimport \"./Withdrawable.sol\";\nimport \"./Voting.sol\";\n\n\n/**\n * @title Proxy to allow voting from another address\n * @dev Allows a UMA token holder to designate another address to vote on their behalf. Each voter must deploy their own\n * instance of this contract.\n */\ncontract DesignatedVoting is MultiRole, Withdrawable {\n\n    enum Roles {\n        // Can set the Voter and Withdrawer roles.\n        Owner,\n        // Can vote through this contract.\n        Voter\n    }\n\n    // Reference to the UMA Finder contract, allowing Voting upgrades to be performed without requiring any calls to\n    // this contract.\n    Finder private finder;\n\n    constructor(address finderAddress) public {\n        _createExclusiveRole(uint(Roles.Owner), uint(Roles.Owner), msg.sender);\n        _createExclusiveRole(uint(Roles.Voter), uint(Roles.Owner), msg.sender);\n        setWithdrawRole(uint(Roles.Owner));\n\n        finder = Finder(finderAddress);\n    }\n\n    /**\n     * @notice Forwards a commit to Voting.\n     */\n    function commitVote(bytes32 identifier, uint time, bytes32 hash) external onlyRoleHolder(uint(Roles.Voter)) {\n        _getVotingAddress().commitVote(identifier, time, hash);\n    }\n\n    /**\n     * @notice Forwards a reveal to Voting.\n     */\n    function revealVote(bytes32 identifier, uint time, int price, int salt) external onlyRoleHolder(uint(Roles.Voter)) {\n        _getVotingAddress().revealVote(identifier, time, price, salt);\n    }\n\n    /**\n     * @notice Forwards a reward retrieval to Voting.\n     */\n    function retrieveRewards() external onlyRoleHolder(uint(Roles.Voter)) {\n        _getVotingAddress().retrieveRewards();\n    }\n\n    function _getVotingAddress() private view returns (Voting) {\n        return Voting(finder.getImplementationAddress(\"Oracle\"));\n    }\n}\n",
  "sourcePath": "/Users/kendrick/Development/Ethereum/defi-dy/contracts/uma/core/contracts/DesignatedVoting.sol",
  "compiler": {
    "name": "solc",
    "version": "0.5.8+commit.23d335f2.Emscripten.clang"
  },
  "schemaVersion": "3.0.10",
  "updatedAt": "2019-11-09T13:45:25.511Z",
  "devdoc": {
    "details": "Allows a UMA token holder to designate another address to vote on their behalf. Each voter must deploy their own instance of this contract.",
    "methods": {
      "addMember(uint256,address)": {
        "details": "Reverts if `roleId` does not represent an initialized, shared role or if the caller is not a member of the managing role for `roleId`."
      },
      "getMember(uint256)": {
        "details": "Reverts if `roleId` does not represent an initialized, exclusive role."
      },
      "holdsRole(uint256,address)": {
        "details": "Reverts if roleId does not correspond to an initialized role."
      },
      "removeMember(uint256,address)": {
        "details": "Reverts if `roleId` does not represent an initialized, shared role or if the caller is not a member of the managing role for `roleId`."
      },
      "resetMember(uint256,address)": {
        "details": "Reverts if the caller is not a member of the managing role for `roleId` or if `roleId` is not an initialized, exclusive role."
      }
    },
    "title": "Proxy to allow voting from another address"
  },
  "userdoc": {
    "methods": {
      "addMember(uint256,address)": {
        "notice": "Adds `newMember` to the shared role, `roleId`."
      },
      "commitVote(bytes32,uint256,bytes32)": {
        "notice": "Forwards a commit to Voting."
      },
      "getMember(uint256)": {
        "notice": "Gets the current holder of the exclusive role, `roleId`."
      },
      "holdsRole(uint256,address)": {
        "notice": "Whether `memberToCheck` is a member of roleId."
      },
      "removeMember(uint256,address)": {
        "notice": "Removes `memberToRemove` from the shared role, `roleId`."
      },
      "resetMember(uint256,address)": {
        "notice": "Changes the exclusive role holder of `roleId` to `newMember`."
      },
      "retrieveRewards()": {
        "notice": "Forwards a reward retrieval to Voting."
      },
      "revealVote(bytes32,uint256,int256,int256)": {
        "notice": "Forwards a reveal to Voting."
      },
      "withdraw(uint256)": {
        "notice": "Withdraws ETH from the contract."
      },
      "withdrawErc20(address,uint256)": {
        "notice": "Withdraws ERC20 tokens from the contract."
      }
    }
  }
}