{
  "contractName": "EncryptedSender",
  "abi": [
    {
      "constant": false,
      "inputs": [
        {
          "name": "sender",
          "type": "address"
        }
      ],
      "name": "addAuthorizedSender",
      "outputs": [],
      "payable": false,
      "stateMutability": "nonpayable",
      "type": "function"
    },
    {
      "constant": false,
      "inputs": [
        {
          "name": "sender",
          "type": "address"
        }
      ],
      "name": "removeAuthorizedSender",
      "outputs": [],
      "payable": false,
      "stateMutability": "nonpayable",
      "type": "function"
    },
    {
      "constant": true,
      "inputs": [
        {
          "name": "recipient",
          "type": "address"
        },
        {
          "name": "topicHash",
          "type": "bytes32"
        }
      ],
      "name": "getMessage",
      "outputs": [
        {
          "name": "",
          "type": "bytes"
        }
      ],
      "payable": false,
      "stateMutability": "view",
      "type": "function"
    },
    {
      "constant": true,
      "inputs": [
        {
          "name": "recipient",
          "type": "address"
        },
        {
          "name": "topicHash",
          "type": "bytes32"
        }
      ],
      "name": "getPublicKey",
      "outputs": [
        {
          "name": "",
          "type": "bytes"
        }
      ],
      "payable": false,
      "stateMutability": "view",
      "type": "function"
    },
    {
      "constant": false,
      "inputs": [
        {
          "name": "recipient_",
          "type": "address"
        },
        {
          "name": "topicHash",
          "type": "bytes32"
        },
        {
          "name": "message",
          "type": "bytes"
        }
      ],
      "name": "sendMessage",
      "outputs": [],
      "payable": false,
      "stateMutability": "nonpayable",
      "type": "function"
    },
    {
      "constant": false,
      "inputs": [
        {
          "name": "recipient_",
          "type": "address"
        },
        {
          "name": "topicHash",
          "type": "bytes32"
        }
      ],
      "name": "removeMessage",
      "outputs": [],
      "payable": false,
      "stateMutability": "nonpayable",
      "type": "function"
    },
    {
      "constant": false,
      "inputs": [
        {
          "name": "publicKey",
          "type": "bytes"
        },
        {
          "name": "topicHash",
          "type": "bytes32"
        }
      ],
      "name": "setPublicKey",
      "outputs": [],
      "payable": false,
      "stateMutability": "nonpayable",
      "type": "function"
    },
    {
      "constant": true,
      "inputs": [
        {
          "name": "sender",
          "type": "address"
        },
        {
          "name": "recipient",
          "type": "address"
        }
      ],
      "name": "isAuthorizedSender",
      "outputs": [
        {
          "name": "",
          "type": "bool"
        }
      ],
      "payable": false,
      "stateMutability": "view",
      "type": "function"
    }
  ],
  "bytecode": "0x608060405234801561001057600080fd5b50610ce8806100206000396000f3fe608060405234801561001057600080fd5b50600436106100885760003560e01c8063cac42c991161005b578063cac42c9914610303578063cbd57967146103c8578063ef74e0ac1461040c578063fa7229ee146104d357610088565b80630cd7546a1461008d5780631904ff0e146101725780631bc9bf7d146101ee5780637cefdd5d1461023c575b600080fd5b610170600480360360608110156100a357600080fd5b81019080803573ffffffffffffffffffffffffffffffffffffffff16906020019092919080359060200190929190803590602001906401000000008111156100ea57600080fd5b8201836020820111156100fc57600080fd5b8035906020019184600183028401116401000000008311171561011e57600080fd5b91908080601f016020809104026020016040519081016040528093929190818152602001838380828437600081840152601f19601f820116905080830192505050505050509192919290505050610517565b005b6101d46004803603604081101561018857600080fd5b81019080803573ffffffffffffffffffffffffffffffffffffffff169060200190929190803573ffffffffffffffffffffffffffffffffffffffff1690602001909291905050506105eb565b604051808215151515815260200191505060405180910390f35b61023a6004803603604081101561020457600080fd5b81019080803573ffffffffffffffffffffffffffffffffffffffff169060200190929190803590602001909291905050506106b7565b005b6102886004803603604081101561025257600080fd5b81019080803573ffffffffffffffffffffffffffffffffffffffff1690602001909291908035906020019092919050505061079e565b6040518080602001828103825283818151815260200191508051906020019080838360005b838110156102c85780820151818401526020810190506102ad565b50505050905090810190601f1680156102f55780820380516001836020036101000a031916815260200191505b509250505060405180910390f35b6103c66004803603604081101561031957600080fd5b810190808035906020019064010000000081111561033657600080fd5b82018360208201111561034857600080fd5b8035906020019184600183028401116401000000008311171561036a57600080fd5b91908080601f016020809104026020016040519081016040528093929190818152602001838380828437600081840152601f19601f82011690508083019250505050505050919291929080359060200190929190505050610896565b005b61040a600480360360208110156103de57600080fd5b81019080803573ffffffffffffffffffffffffffffffffffffffff16906020019092919050505061097b565b005b6104586004803603604081101561042257600080fd5b81019080803573ffffffffffffffffffffffffffffffffffffffff16906020019092919080359060200190929190505050610a15565b6040518080602001828103825283818151815260200191508051906020019080838360005b8381101561049857808201518184015260208101905061047d565b50505050905090810190601f1680156104c55780820380516001836020036101000a031916815260200191505b509250505060405180910390f35b610515600480360360208110156104e957600080fd5b81019080803573ffffffffffffffffffffffffffffffffffffffff169060200190929190505050610b0d565b005b60008060008573ffffffffffffffffffffffffffffffffffffffff1673ffffffffffffffffffffffffffffffffffffffff168152602001908152602001600020905061056333856105eb565b6105b8576040517f08c379a0000000000000000000000000000000000000000000000000000000008152600401808060200182810382526028815260200180610c956028913960400191505060405180910390fd5b8181600001600085815260200190815260200160002060010190805190602001906105e4929190610ba7565b5050505050565b60008060008373ffffffffffffffffffffffffffffffffffffffff1673ffffffffffffffffffffffffffffffffffffffff16815260200190815260200160002060010160008473ffffffffffffffffffffffffffffffffffffffff1673ffffffffffffffffffffffffffffffffffffffff16815260200190815260200160002060009054906101000a900460ff16806106af57508273ffffffffffffffffffffffffffffffffffffffff168273ffffffffffffffffffffffffffffffffffffffff16145b905092915050565b60008060008473ffffffffffffffffffffffffffffffffffffffff1673ffffffffffffffffffffffffffffffffffffffff168152602001908152602001600020905061070333846105eb565b610775576040517f08c379a00000000000000000000000000000000000000000000000000000000081526004018080602001828103825260208152602001807f4e6f7420617574686f72697a656420746f2072656d6f7665206d65737361676581525060200191505060405180910390fd5b80600001600083815260200190815260200160002060010160006107999190610c27565b505050565b60606000808473ffffffffffffffffffffffffffffffffffffffff1673ffffffffffffffffffffffffffffffffffffffff16815260200190815260200160002060000160008381526020019081526020016000206000018054600181600116156101000203166002900480601f0160208091040260200160405190810160405280929190818152602001828054600181600116156101000203166002900480156108895780601f1061085e57610100808354040283529160200191610889565b820191906000526020600020905b81548152906001019060200180831161086c57829003601f168201915b5050505050905092915050565b604082511461090d576040517f08c379a000000000000000000000000000000000000000000000000000000000815260040180806020018281038252601e8152602001807f5075626c6963206b6579206973207468652077726f6e67206c656e677468000081525060200191505060405180910390fd5b816000803373ffffffffffffffffffffffffffffffffffffffff1673ffffffffffffffffffffffffffffffffffffffff16815260200190815260200160002060000160008381526020019081526020016000206000019080519060200190610976929190610ba7565b505050565b60008060003373ffffffffffffffffffffffffffffffffffffffff1673ffffffffffffffffffffffffffffffffffffffff16815260200190815260200160002060010160008373ffffffffffffffffffffffffffffffffffffffff1673ffffffffffffffffffffffffffffffffffffffff16815260200190815260200160002060006101000a81548160ff02191690831515021790555050565b60606000808473ffffffffffffffffffffffffffffffffffffffff1673ffffffffffffffffffffffffffffffffffffffff16815260200190815260200160002060000160008381526020019081526020016000206001018054600181600116156101000203166002900480601f016020809104026020016040519081016040528092919081815260200182805460018160011615610100020316600290048015610b005780601f10610ad557610100808354040283529160200191610b00565b820191906000526020600020905b815481529060010190602001808311610ae357829003601f168201915b5050505050905092915050565b60016000803373ffffffffffffffffffffffffffffffffffffffff1673ffffffffffffffffffffffffffffffffffffffff16815260200190815260200160002060010160008373ffffffffffffffffffffffffffffffffffffffff1673ffffffffffffffffffffffffffffffffffffffff16815260200190815260200160002060006101000a81548160ff02191690831515021790555050565b828054600181600116156101000203166002900490600052602060002090601f016020900481019282601f10610be857805160ff1916838001178555610c16565b82800160010185558215610c16579182015b82811115610c15578251825591602001919060010190610bfa565b5b509050610c239190610c6f565b5090565b50805460018160011615610100020316600290046000825580601f10610c4d5750610c6c565b601f016020900490600052602060002090810190610c6b9190610c6f565b5b50565b610c9191905b80821115610c8d576000816000905550600101610c75565b5090565b9056fe4e6f7420617574686f72697a656420746f2073656e6420746f207468697320726563697069656e74a165627a7a723058208390c8ccd405cebf4d6ab9e3b9f1fd22ae21cdc865d6f0cb035bbc0b8df9cea80029",
  "source": "pragma solidity ^0.5.0;\n\n\n/**\n * @title Contract for sending keyed encrypted messages via the EVM\n * @dev This contract uses topic hashes as keys and can store a single arbitrary encrypted message per topic at any\n * given time. Note: there's technically nothing that requires the topics hashed or for the messages to be encrypted.\n * This contract is built for the following specific use case:\n *\n * - The sender and recipient know the topics ahead of time. This can either be communicated elsewhere or be implicit.\n *\n * - Only one message per topic is stored at any given time.\n *\n * - Only addresses that are authorized by the recipient can send messages. These authorized parties can overwrite, but\n * not delete the previous message for a particular topic.\n */\ncontract EncryptedSender {\n    struct TopicData {\n        // An (optional) public key used to encrypt messages for this topic. This is only necessary if the sender will\n        // not have access to the public key offchain.\n        bytes publicKey;\n\n        // The encrypted message.\n        bytes message;\n    }\n\n    struct Recipient {\n        // This maps from a hash to the data for this topic.\n        // Note: the hash is a hash of the \"subject\" or \"topic\" of the message.\n        mapping(bytes32 => TopicData) topics;\n\n        // This contains the set of all authorized senders for this recipient.\n        mapping(address => bool) authorizedSenders;\n    }\n\n    mapping(address => Recipient) private recipients;\n\n    /**\n     * @notice Authorizes `sender` to send messages to the caller.\n     */\n    function addAuthorizedSender(address sender) external {\n        recipients[msg.sender].authorizedSenders[sender] = true;\n    }\n\n    /**\n     * @notice Revokes `sender`'s authorization to send messages to the caller.\n     */\n    function removeAuthorizedSender(address sender) external {\n        recipients[msg.sender].authorizedSenders[sender] = false;\n    }\n\n    /**\n     * @notice Gets the current stored message corresponding to `recipient` and `topicHash`.\n     * @dev To decrypt messages (this requires access to the recipient's private keys), use the decryptMessage()\n     * function in common/Crypto.js.\n     */\n    function getMessage(address recipient, bytes32 topicHash) external view returns (bytes memory) {\n        return recipients[recipient].topics[topicHash].message;\n    }\n\n    /**\n     * @notice Gets the stored public key for a particular `recipient` and `topicHash`. Return value will be 0 length\n     * if no public key has been set.\n     * @dev Senders may need this public key to encrypt messages that only the `recipient` can read. If the public key\n     * is communicated offchain, this field may be left empty.\n     */\n    function getPublicKey(address recipient, bytes32 topicHash) external view returns (bytes memory) {\n        return recipients[recipient].topics[topicHash].publicKey;\n    }\n\n    /**\n     * @notice Sends `message` to `recipient_` categorized by a particular `topicHash`. This will overwrite any\n     * previous messages sent to this `recipient` with this `topicHash`.\n     * @dev To construct an encrypted message, use the encryptMessage() in common/Crypto.js.\n     * The public key for the recipient can be obtained using the getPublicKey() method.\n     */\n    function sendMessage(address recipient_, bytes32 topicHash, bytes memory message) public {\n        Recipient storage recipient = recipients[recipient_];\n        require(isAuthorizedSender(msg.sender, recipient_), \"Not authorized to send to this recipient\");\n        recipient.topics[topicHash].message = message;\n    }\n\n    function removeMessage(address recipient_, bytes32 topicHash) public {\n        Recipient storage recipient = recipients[recipient_];\n        require(isAuthorizedSender(msg.sender, recipient_), \"Not authorized to remove message\");\n        delete recipient.topics[topicHash].message;\n    }\n\n    /**\n     * @notice Sets the public key for this caller and topicHash.\n     * @dev Note: setting the public key is optional - if the publicKey is communicated or can be derived offchain by\n     * the sender, there is no need to set it here. Because there are no specific requirements for the publicKey, there\n     * is also no verification of its validity other than its length.\n     */\n    function setPublicKey(bytes memory publicKey, bytes32 topicHash) public {\n        require(publicKey.length == 64, \"Public key is the wrong length\");\n        recipients[msg.sender].topics[topicHash].publicKey = publicKey;\n    }\n\n    /**\n     * @notice Returns true if the `sender` is authorized to send to the `recipient`.\n     */\n    function isAuthorizedSender(address sender, address recipient) public view returns (bool) {\n        // Note: the recipient is always authorized to send messages to themselves.\n        return recipients[recipient].authorizedSenders[sender] || recipient == sender;\n    }\n}\n",
  "sourcePath": "/Users/kendrick/Development/Ethereum/defi-dy/contracts/uma/core/contracts/EncryptedSender.sol",
  "compiler": {
    "name": "solc",
    "version": "0.5.8+commit.23d335f2.Emscripten.clang"
  },
  "schemaVersion": "3.0.10",
  "updatedAt": "2019-11-09T13:45:25.513Z",
  "devdoc": {
    "details": "This contract uses topic hashes as keys and can store a single arbitrary encrypted message per topic at any given time. Note: there's technically nothing that requires the topics hashed or for the messages to be encrypted. This contract is built for the following specific use case: * - The sender and recipient know the topics ahead of time. This can either be communicated elsewhere or be implicit. * - Only one message per topic is stored at any given time. * - Only addresses that are authorized by the recipient can send messages. These authorized parties can overwrite, but not delete the previous message for a particular topic.",
    "methods": {
      "getMessage(address,bytes32)": {
        "details": "To decrypt messages (this requires access to the recipient's private keys), use the decryptMessage() function in common/Crypto.js."
      },
      "getPublicKey(address,bytes32)": {
        "details": "Senders may need this public key to encrypt messages that only the `recipient` can read. If the public key is communicated offchain, this field may be left empty."
      },
      "sendMessage(address,bytes32,bytes)": {
        "details": "To construct an encrypted message, use the encryptMessage() in common/Crypto.js. The public key for the recipient can be obtained using the getPublicKey() method."
      },
      "setPublicKey(bytes,bytes32)": {
        "details": "Note: setting the public key is optional - if the publicKey is communicated or can be derived offchain by the sender, there is no need to set it here. Because there are no specific requirements for the publicKey, there is also no verification of its validity other than its length."
      }
    },
    "title": "Contract for sending keyed encrypted messages via the EVM"
  },
  "userdoc": {
    "methods": {
      "addAuthorizedSender(address)": {
        "notice": "Authorizes `sender` to send messages to the caller."
      },
      "getMessage(address,bytes32)": {
        "notice": "Gets the current stored message corresponding to `recipient` and `topicHash`."
      },
      "getPublicKey(address,bytes32)": {
        "notice": "Gets the stored public key for a particular `recipient` and `topicHash`. Return value will be 0 length if no public key has been set."
      },
      "isAuthorizedSender(address,address)": {
        "notice": "Returns true if the `sender` is authorized to send to the `recipient`."
      },
      "removeAuthorizedSender(address)": {
        "notice": "Revokes `sender`'s authorization to send messages to the caller."
      },
      "sendMessage(address,bytes32,bytes)": {
        "notice": "Sends `message` to `recipient_` categorized by a particular `topicHash`. This will overwrite any previous messages sent to this `recipient` with this `topicHash`."
      },
      "setPublicKey(bytes,bytes32)": {
        "notice": "Sets the public key for this caller and topicHash."
      }
    }
  }
}