{
  "contractName": "FinancialContractsAdmin",
  "abi": [
    {
      "constant": false,
      "inputs": [
        {
          "name": "roleId",
          "type": "uint256"
        },
        {
          "name": "memberToRemove",
          "type": "address"
        }
      ],
      "name": "removeMember",
      "outputs": [],
      "payable": false,
      "stateMutability": "nonpayable",
      "type": "function"
    },
    {
      "constant": false,
      "inputs": [
        {
          "name": "roleId",
          "type": "uint256"
        },
        {
          "name": "newMember",
          "type": "address"
        }
      ],
      "name": "addMember",
      "outputs": [],
      "payable": false,
      "stateMutability": "nonpayable",
      "type": "function"
    },
    {
      "constant": true,
      "inputs": [
        {
          "name": "roleId",
          "type": "uint256"
        },
        {
          "name": "memberToCheck",
          "type": "address"
        }
      ],
      "name": "holdsRole",
      "outputs": [
        {
          "name": "",
          "type": "bool"
        }
      ],
      "payable": false,
      "stateMutability": "view",
      "type": "function"
    },
    {
      "constant": true,
      "inputs": [
        {
          "name": "roleId",
          "type": "uint256"
        }
      ],
      "name": "getMember",
      "outputs": [
        {
          "name": "",
          "type": "address"
        }
      ],
      "payable": false,
      "stateMutability": "view",
      "type": "function"
    },
    {
      "constant": false,
      "inputs": [
        {
          "name": "roleId",
          "type": "uint256"
        },
        {
          "name": "newMember",
          "type": "address"
        }
      ],
      "name": "resetMember",
      "outputs": [],
      "payable": false,
      "stateMutability": "nonpayable",
      "type": "function"
    },
    {
      "inputs": [],
      "payable": false,
      "stateMutability": "nonpayable",
      "type": "constructor"
    },
    {
      "constant": false,
      "inputs": [
        {
          "name": "financialContract",
          "type": "address"
        }
      ],
      "name": "callEmergencyShutdown",
      "outputs": [],
      "payable": false,
      "stateMutability": "nonpayable",
      "type": "function"
    },
    {
      "constant": false,
      "inputs": [
        {
          "name": "financialContract",
          "type": "address"
        }
      ],
      "name": "callRemargin",
      "outputs": [],
      "payable": false,
      "stateMutability": "nonpayable",
      "type": "function"
    },
    {
      "constant": false,
      "inputs": [],
      "name": "initializeRolesOnce",
      "outputs": [],
      "payable": false,
      "stateMutability": "nonpayable",
      "type": "function"
    }
  ],
  "bytecode": "0x60806040523480156200001157600080fd5b50620000226200002860201b60201c565b62000653565b600160009054906101000a900460ff161562000090576040517f08c379a000000000000000000000000000000000000000000000000000000000815260040180806020018281038252602c81526020018062001974602c913960400191505060405180910390fd5b60018060006101000a81548160ff021916908315150217905550620000d760006002811115620000bc57fe5b60006002811115620000ca57fe5b336200016360201b60201c565b6200013560016002811115620000e957fe5b60006002811115620000f757fe5b6000604051908082528060200260200182016040528015620001285781602001602082028038833980820191505090505b506200031560201b60201c565b620001616002808111156200014657fe5b600060028111156200015457fe5b336200016360201b60201c565b565b82600060028111156200017257fe5b60008083815260200190815260200160002060010160009054906101000a900460ff166002811115620001a157fe5b1462000215576040517f08c379a000000000000000000000000000000000000000000000000000000000815260040180806020018281038252601e8152602001807f43616e6e6f74207573652061207072652d6578697374696e6720726f6c65000081525060200191505060405180910390fd5b6000806000868152602001908152602001600020905060018160010160006101000a81548160ff021916908360028111156200024d57fe5b0217905550838160000181905550620002788382600201620004c760201b620010d61790919060201c565b600060028111156200028657fe5b60008086815260200190815260200160002060010160009054906101000a900460ff166002811115620002b557fe5b14156200030e576040517f08c379a000000000000000000000000000000000000000000000000000000000815260040180806020018281038252603c81526020018062001915603c913960400191505060405180910390fd5b5050505050565b82600060028111156200032457fe5b60008083815260200190815260200160002060010160009054906101000a900460ff1660028111156200035357fe5b14620003c7576040517f08c379a000000000000000000000000000000000000000000000000000000000815260040180806020018281038252601e8152602001807f43616e6e6f74207573652061207072652d6578697374696e6720726f6c65000081525060200191505060405180910390fd5b6000806000868152602001908152602001600020905060028160010160006101000a81548160ff02191690836002811115620003ff57fe5b02179055508381600001819055506200042a8382600301620004dd60201b620010e41790919060201c565b600060028111156200043857fe5b60008086815260200190815260200160002060010160009054906101000a900460ff1660028111156200046757fe5b1415620004c0576040517f08c379a0000000000000000000000000000000000000000000000000000000008152600401808060200182810382526038815260200180620019a06038913960400191505060405180910390fd5b5050505050565b620004d982826200052660201b60201c565b5050565b60008090505b815181101562000521576200051383838381518110620004ff57fe5b6020026020010151620005f560201b60201c565b8080600101915050620004e3565b505050565b600073ffffffffffffffffffffffffffffffffffffffff168173ffffffffffffffffffffffffffffffffffffffff161415620005ae576040517f08c379a0000000000000000000000000000000000000000000000000000000008152600401808060200182810382526023815260200180620019516023913960400191505060405180910390fd5b808260000160006101000a81548173ffffffffffffffffffffffffffffffffffffffff021916908373ffffffffffffffffffffffffffffffffffffffff1602179055505050565b60018260000160008373ffffffffffffffffffffffffffffffffffffffff1673ffffffffffffffffffffffffffffffffffffffff16815260200190815260200160002060006101000a81548160ff0219169083151502179055505050565b6112b280620006636000396000f3fe608060405234801561001057600080fd5b50600436106100885760003560e01c806374d0a6761161005b57806374d0a6761461016d5780637cdc1cb9146101bb578063ab3545e514610221578063d97c05be1461028f57610088565b80630caf41211461008d57806315ed0f5b146100d1578063547e1c40146100db5780636be7658b1461011f575b600080fd5b6100cf600480360360208110156100a357600080fd5b81019080803573ffffffffffffffffffffffffffffffffffffffff1690602001909291905050506102dd565b005b6100d96103b2565b005b61011d600480360360208110156100f157600080fd5b81019080803573ffffffffffffffffffffffffffffffffffffffff1690602001909291905050506104cc565b005b61016b6004803603604081101561013557600080fd5b8101908080359060200190929190803573ffffffffffffffffffffffffffffffffffffffff1690602001909291905050506105a2565b005b6101b96004803603604081101561018357600080fd5b8101908080359060200190929190803573ffffffffffffffffffffffffffffffffffffffff1690602001909291905050506106d5565b005b610207600480360360408110156101d157600080fd5b8101908080359060200190929190803573ffffffffffffffffffffffffffffffffffffffff169060200190929190505050610808565b604051808215151515815260200191505060405180910390f35b61024d6004803603602081101561023757600080fd5b8101908080359060200190929190505050610936565b604051808273ffffffffffffffffffffffffffffffffffffffff1673ffffffffffffffffffffffffffffffffffffffff16815260200191505060405180910390f35b6102db600480360360408110156102a557600080fd5b8101908080359060200190929190803573ffffffffffffffffffffffffffffffffffffffff1690602001909291905050506109ef565b005b6002808111156102e957fe5b6102f38133610808565b610348576040517f08c379a000000000000000000000000000000000000000000000000000000000815260040180806020018281038252602281526020018061117e6022913960400191505060405180910390fd5b60008290508073ffffffffffffffffffffffffffffffffffffffff16633403c2fc6040518163ffffffff1660e01b8152600401600060405180830381600087803b15801561039557600080fd5b505af11580156103a9573d6000803e3d6000fd5b50505050505050565b600160009054906101000a900460ff1615610418576040517f08c379a000000000000000000000000000000000000000000000000000000000815260040180806020018281038252602c8152602001806111ff602c913960400191505060405180910390fd5b60018060006101000a81548160ff0219169083151502179055506104556000600281111561044257fe5b6000600281111561044f57fe5b33610b23565b6104a86001600281111561046557fe5b6000600281111561047257fe5b60006040519080825280602002602001820160405280156104a25781602001602082028038833980820191505090505b50610cc6565b6104ca6002808111156104b757fe5b600060028111156104c457fe5b33610b23565b565b600160028111156104d957fe5b6104e38133610808565b610538576040517f08c379a000000000000000000000000000000000000000000000000000000000815260040180806020018281038252602281526020018061117e6022913960400191505060405180910390fd5b60008290508073ffffffffffffffffffffffffffffffffffffffff1663bda02e776040518163ffffffff1660e01b8152600401600060405180830381600087803b15801561058557600080fd5b505af1158015610599573d6000803e3d6000fd5b50505050505050565b816002808111156105af57fe5b60008083815260200190815260200160002060010160009054906101000a900460ff1660028111156105dd57fe5b14610633576040517f08c379a000000000000000000000000000000000000000000000000000000000815260040180806020018281038252602c815260200180611152602c913960400191505060405180910390fd5b826106536000808381526020019081526020016000206000015433610808565b6106a8576040517f08c379a000000000000000000000000000000000000000000000000000000000815260040180806020018281038252602481526020018061122b6024913960400191505060405180910390fd5b6106cf83600080878152602001908152602001600020600301610e6990919063ffffffff16565b50505050565b816002808111156106e257fe5b60008083815260200190815260200160002060010160009054906101000a900460ff16600281111561071057fe5b14610766576040517f08c379a000000000000000000000000000000000000000000000000000000000815260040180806020018281038252602c815260200180611152602c913960400191505060405180910390fd5b826107866000808381526020019081526020016000206000015433610808565b6107db576040517f08c379a000000000000000000000000000000000000000000000000000000000815260040180806020018281038252602481526020018061122b6024913960400191505060405180910390fd5b61080283600080878152602001908152602001600020600301610ec790919063ffffffff16565b50505050565b60008060008085815260200190815260200160002090506001600281111561082c57fe5b8160010160009054906101000a900460ff16600281111561084957fe5b141561086d576108658382600201610f2590919063ffffffff16565b915050610930565b60028081111561087957fe5b8160010160009054906101000a900460ff16600281111561089657fe5b14156108ba576108b28382600301610f8290919063ffffffff16565b915050610930565b600061092e576040517f08c379a000000000000000000000000000000000000000000000000000000000815260040180806020018281038252600e8152602001807f496e76616c696420726f6c65496400000000000000000000000000000000000081525060200191505060405180910390fd5b505b92915050565b6000816001600281111561094657fe5b60008083815260200190815260200160002060010160009054906101000a900460ff16600281111561097457fe5b146109ca576040517f08c379a000000000000000000000000000000000000000000000000000000000815260040180806020018281038252602f815260200180611123602f913960400191505060405180910390fd5b6109e7600080858152602001908152602001600020600201610fdb565b915050919050565b81600160028111156109fd57fe5b60008083815260200190815260200160002060010160009054906101000a900460ff166002811115610a2b57fe5b14610a81576040517f08c379a000000000000000000000000000000000000000000000000000000000815260040180806020018281038252602f815260200180611123602f913960400191505060405180910390fd5b82610aa16000808381526020019081526020016000206000015433610808565b610af6576040517f08c379a000000000000000000000000000000000000000000000000000000000815260040180806020018281038252602481526020018061122b6024913960400191505060405180910390fd5b610b1d8360008087815260200190815260200160002060020161100990919063ffffffff16565b50505050565b8260006002811115610b3157fe5b60008083815260200190815260200160002060010160009054906101000a900460ff166002811115610b5f57fe5b14610bd2576040517f08c379a000000000000000000000000000000000000000000000000000000000815260040180806020018281038252601e8152602001807f43616e6e6f74207573652061207072652d6578697374696e6720726f6c65000081525060200191505060405180910390fd5b6000806000868152602001908152602001600020905060018160010160006101000a81548160ff02191690836002811115610c0957fe5b0217905550838160000181905550610c2d83826002016110d690919063ffffffff16565b60006002811115610c3a57fe5b60008086815260200190815260200160002060010160009054906101000a900460ff166002811115610c6857fe5b1415610cbf576040517f08c379a000000000000000000000000000000000000000000000000000000000815260040180806020018281038252603c8152602001806111a0603c913960400191505060405180910390fd5b5050505050565b8260006002811115610cd457fe5b60008083815260200190815260200160002060010160009054906101000a900460ff166002811115610d0257fe5b14610d75576040517f08c379a000000000000000000000000000000000000000000000000000000000815260040180806020018281038252601e8152602001807f43616e6e6f74207573652061207072652d6578697374696e6720726f6c65000081525060200191505060405180910390fd5b6000806000868152602001908152602001600020905060028160010160006101000a81548160ff02191690836002811115610dac57fe5b0217905550838160000181905550610dd083826003016110e490919063ffffffff16565b60006002811115610ddd57fe5b60008086815260200190815260200160002060010160009054906101000a900460ff166002811115610e0b57fe5b1415610e62576040517f08c379a000000000000000000000000000000000000000000000000000000000815260040180806020018281038252603881526020018061124f6038913960400191505060405180910390fd5b5050505050565b60008260000160008373ffffffffffffffffffffffffffffffffffffffff1673ffffffffffffffffffffffffffffffffffffffff16815260200190815260200160002060006101000a81548160ff0219169083151502179055505050565b60018260000160008373ffffffffffffffffffffffffffffffffffffffff1673ffffffffffffffffffffffffffffffffffffffff16815260200190815260200160002060006101000a81548160ff0219169083151502179055505050565b60008173ffffffffffffffffffffffffffffffffffffffff168360000160009054906101000a900473ffffffffffffffffffffffffffffffffffffffff1673ffffffffffffffffffffffffffffffffffffffff1614905092915050565b60008260000160008373ffffffffffffffffffffffffffffffffffffffff1673ffffffffffffffffffffffffffffffffffffffff16815260200190815260200160002060009054906101000a900460ff16905092915050565b60008160000160009054906101000a900473ffffffffffffffffffffffffffffffffffffffff169050919050565b600073ffffffffffffffffffffffffffffffffffffffff168173ffffffffffffffffffffffffffffffffffffffff16141561108f576040517f08c379a00000000000000000000000000000000000000000000000000000000081526004018080602001828103825260238152602001806111dc6023913960400191505060405180910390fd5b808260000160006101000a81548173ffffffffffffffffffffffffffffffffffffffff021916908373ffffffffffffffffffffffffffffffffffffffff1602179055505050565b6110e08282611009565b5050565b60008090505b815181101561111d576111108383838151811061110357fe5b6020026020010151610ec7565b80806001019150506110ea565b50505056fe4d7573742062652063616c6c6564206f6e20616e20696e697469616c697a6564204578636c757369766520726f6c654d7573742062652063616c6c6564206f6e20616e20696e697469616c697a65642053686172656420726f6c6553656e64657220646f6573206e6f7420686f6c6420726571756972656420726f6c65417474656d7074656420746f2075736520616e20696e76616c696420726f6c6520746f206d616e61676520616e206578636c757369766520726f6c6543616e6e6f742073657420616e206578636c757369766520726f6c6520746f203078304f6e6c792074686520636f6e7374727563746f722073686f756c642063616c6c2074686973206d6574686f6443616e206f6e6c792062652063616c6c6564206279206120726f6c65206d616e61676572417474656d7074656420746f2075736520616e20696e76616c696420726f6c6520746f206d616e61676520612073686172656420726f6c65a165627a7a723058207dd34a04c097804357c4f8fec30c0e36b5ac6b3a621fdbb7ad557c2a9a55d6b20029417474656d7074656420746f2075736520616e20696e76616c696420726f6c6520746f206d616e61676520616e206578636c757369766520726f6c6543616e6e6f742073657420616e206578636c757369766520726f6c6520746f203078304f6e6c792074686520636f6e7374727563746f722073686f756c642063616c6c2074686973206d6574686f64417474656d7074656420746f2075736520616e20696e76616c696420726f6c6520746f206d616e61676520612073686172656420726f6c65",
  "source": "pragma solidity ^0.5.0;\n\nimport \"./AdministrateeInterface.sol\";\nimport \"./MultiRole.sol\";\n\n\n/**\n * @title Admin for financial contracts in the UMA system.\n * @dev Allows appropriately permissioned admin roles to interact with financial contracts.\n */\ncontract FinancialContractsAdmin is MultiRole {\n\n    enum Roles {\n        // Can set the `Remargin` and `EmergencyShutdown` roles.\n        Governance,\n        // Is authorized to call `remargin()` on any financial contract in the system.\n        Remargin,\n        // Is authorized to shutdown any financial contract in the system.\n        EmergencyShutdown\n    }\n\n    bool private rolesInitialized;\n\n    constructor() public {\n        initializeRolesOnce();\n    }\n\n    /**\n     * @dev Calls emergency shutdown on the provided financial contract.\n     */\n    function callEmergencyShutdown(address financialContract) external onlyRoleHolder(uint(Roles.EmergencyShutdown)) {\n        AdministrateeInterface administratee = AdministrateeInterface(financialContract);\n        administratee.emergencyShutdown();\n    }\n\n    /**\n     * @dev Calls remargin on the provided financial contract.\n     */\n    function callRemargin(address financialContract) external onlyRoleHolder(uint(Roles.Remargin)) {\n        AdministrateeInterface administratee = AdministrateeInterface(financialContract);\n        administratee.remargin();\n    }\n\n    /*\n     * @notice Do not call this function externally.\n     * @dev Only called from the constructor, and only extracted to a separate method to make the coverage tool work.\n     * Will revert if called again.\n     */\n    function initializeRolesOnce() public {\n        require(!rolesInitialized, \"Only the constructor should call this method\");\n        rolesInitialized = true;\n        _createExclusiveRole(uint(Roles.Governance), uint(Roles.Governance), msg.sender);\n        _createSharedRole(uint(Roles.Remargin), uint(Roles.Governance), new address[](0));\n        _createExclusiveRole(uint(Roles.EmergencyShutdown), uint(Roles.Governance), msg.sender);\n    }\n}\n",
  "sourcePath": "/Users/kendrick/Development/Ethereum/defi-dy/contracts/uma/core/contracts/FinancialContractsAdmin.sol",
  "compiler": {
    "name": "solc",
    "version": "0.5.8+commit.23d335f2.Emscripten.clang"
  },
  "schemaVersion": "3.0.10",
  "updatedAt": "2019-11-09T21:37:55.353Z",
  "devdoc": {
    "details": "Allows appropriately permissioned admin roles to interact with financial contracts.",
    "methods": {
      "addMember(uint256,address)": {
        "details": "Reverts if `roleId` does not represent an initialized, shared role or if the caller is not a member of the managing role for `roleId`."
      },
      "callEmergencyShutdown(address)": {
        "details": "Calls emergency shutdown on the provided financial contract."
      },
      "callRemargin(address)": {
        "details": "Calls remargin on the provided financial contract."
      },
      "getMember(uint256)": {
        "details": "Reverts if `roleId` does not represent an initialized, exclusive role."
      },
      "holdsRole(uint256,address)": {
        "details": "Reverts if roleId does not correspond to an initialized role."
      },
      "removeMember(uint256,address)": {
        "details": "Reverts if `roleId` does not represent an initialized, shared role or if the caller is not a member of the managing role for `roleId`."
      },
      "resetMember(uint256,address)": {
        "details": "Reverts if the caller is not a member of the managing role for `roleId` or if `roleId` is not an initialized, exclusive role."
      }
    },
    "title": "Admin for financial contracts in the UMA system."
  },
  "userdoc": {
    "methods": {
      "addMember(uint256,address)": {
        "notice": "Adds `newMember` to the shared role, `roleId`."
      },
      "getMember(uint256)": {
        "notice": "Gets the current holder of the exclusive role, `roleId`."
      },
      "holdsRole(uint256,address)": {
        "notice": "Whether `memberToCheck` is a member of roleId."
      },
      "removeMember(uint256,address)": {
        "notice": "Removes `memberToRemove` from the shared role, `roleId`."
      },
      "resetMember(uint256,address)": {
        "notice": "Changes the exclusive role holder of `roleId` to `newMember`."
      }
    }
  }
}