{
  "contractName": "Finder",
  "abi": [
    {
      "constant": false,
      "inputs": [
        {
          "name": "roleId",
          "type": "uint256"
        },
        {
          "name": "memberToRemove",
          "type": "address"
        }
      ],
      "name": "removeMember",
      "outputs": [],
      "payable": false,
      "stateMutability": "nonpayable",
      "type": "function"
    },
    {
      "constant": false,
      "inputs": [
        {
          "name": "roleId",
          "type": "uint256"
        },
        {
          "name": "newMember",
          "type": "address"
        }
      ],
      "name": "addMember",
      "outputs": [],
      "payable": false,
      "stateMutability": "nonpayable",
      "type": "function"
    },
    {
      "constant": true,
      "inputs": [
        {
          "name": "roleId",
          "type": "uint256"
        },
        {
          "name": "memberToCheck",
          "type": "address"
        }
      ],
      "name": "holdsRole",
      "outputs": [
        {
          "name": "",
          "type": "bool"
        }
      ],
      "payable": false,
      "stateMutability": "view",
      "type": "function"
    },
    {
      "constant": true,
      "inputs": [
        {
          "name": "roleId",
          "type": "uint256"
        }
      ],
      "name": "getMember",
      "outputs": [
        {
          "name": "",
          "type": "address"
        }
      ],
      "payable": false,
      "stateMutability": "view",
      "type": "function"
    },
    {
      "constant": true,
      "inputs": [
        {
          "name": "",
          "type": "bytes32"
        }
      ],
      "name": "interfacesImplemented",
      "outputs": [
        {
          "name": "",
          "type": "address"
        }
      ],
      "payable": false,
      "stateMutability": "view",
      "type": "function"
    },
    {
      "constant": false,
      "inputs": [
        {
          "name": "roleId",
          "type": "uint256"
        },
        {
          "name": "newMember",
          "type": "address"
        }
      ],
      "name": "resetMember",
      "outputs": [],
      "payable": false,
      "stateMutability": "nonpayable",
      "type": "function"
    },
    {
      "inputs": [],
      "payable": false,
      "stateMutability": "nonpayable",
      "type": "constructor"
    },
    {
      "anonymous": false,
      "inputs": [
        {
          "indexed": true,
          "name": "interfaceName",
          "type": "bytes32"
        },
        {
          "indexed": true,
          "name": "newImplementationAddress",
          "type": "address"
        }
      ],
      "name": "InterfaceImplementationChanged",
      "type": "event"
    },
    {
      "constant": false,
      "inputs": [
        {
          "name": "interfaceName",
          "type": "bytes32"
        },
        {
          "name": "implementationAddress",
          "type": "address"
        }
      ],
      "name": "changeImplementationAddress",
      "outputs": [],
      "payable": false,
      "stateMutability": "nonpayable",
      "type": "function"
    },
    {
      "constant": true,
      "inputs": [
        {
          "name": "interfaceName",
          "type": "bytes32"
        }
      ],
      "name": "getImplementationAddress",
      "outputs": [
        {
          "name": "implementationAddress",
          "type": "address"
        }
      ],
      "payable": false,
      "stateMutability": "view",
      "type": "function"
    }
  ],
  "bytecode": "0x60806040523480156200001157600080fd5b506200003f600060018111156200002457fe5b600060018111156200003257fe5b336200007160201b60201c565b6200006b6001808111156200005057fe5b600060018111156200005e57fe5b336200007160201b60201c565b62000308565b82600060028111156200008057fe5b60008083815260200190815260200160002060010160009054906101000a900460ff166002811115620000af57fe5b1462000123576040517f08c379a000000000000000000000000000000000000000000000000000000000815260040180806020018281038252601e8152602001807f43616e6e6f74207573652061207072652d6578697374696e6720726f6c65000081525060200191505060405180910390fd5b6000806000868152602001908152602001600020905060018160010160006101000a81548160ff021916908360028111156200015b57fe5b02179055508381600001819055506200018683826002016200022360201b62000d5f1790919060201c565b600060028111156200019457fe5b60008086815260200190815260200160002060010160009054906101000a900460ff166002811115620001c357fe5b14156200021c576040517f08c379a000000000000000000000000000000000000000000000000000000000815260040180806020018281038252603c8152602001806200119a603c913960400191505060405180910390fd5b5050505050565b6200023582826200023960201b60201c565b5050565b600073ffffffffffffffffffffffffffffffffffffffff168173ffffffffffffffffffffffffffffffffffffffff161415620002c1576040517f08c379a0000000000000000000000000000000000000000000000000000000008152600401808060200182810382526023815260200180620011d66023913960400191505060405180910390fd5b808260000160006101000a81548173ffffffffffffffffffffffffffffffffffffffff021916908373ffffffffffffffffffffffffffffffffffffffff1602179055505050565b610e8280620003186000396000f3fe608060405234801561001057600080fd5b50600436106100885760003560e01c8063aafd5e401161005b578063aafd5e40146101dd578063ab3545e51461024b578063cc48f4db146102b9578063d97c05be1461032757610088565b806331f9665e1461008d5780636be7658b146100db57806374d0a676146101295780637cdc1cb914610177575b600080fd5b6100d9600480360360408110156100a357600080fd5b8101908080359060200190929190803573ffffffffffffffffffffffffffffffffffffffff169060200190929190505050610375565b005b610127600480360360408110156100f157600080fd5b8101908080359060200190929190803573ffffffffffffffffffffffffffffffffffffffff16906020019092919050505061047b565b005b6101756004803603604081101561013f57600080fd5b8101908080359060200190929190803573ffffffffffffffffffffffffffffffffffffffff1690602001909291905050506105ae565b005b6101c36004803603604081101561018d57600080fd5b8101908080359060200190929190803573ffffffffffffffffffffffffffffffffffffffff1690602001909291905050506106e1565b604051808215151515815260200191505060405180910390f35b610209600480360360208110156101f357600080fd5b810190808035906020019092919050505061080f565b604051808273ffffffffffffffffffffffffffffffffffffffff1673ffffffffffffffffffffffffffffffffffffffff16815260200191505060405180910390f35b6102776004803603602081101561026157600080fd5b81019080803590602001909291905050506108d2565b604051808273ffffffffffffffffffffffffffffffffffffffff1673ffffffffffffffffffffffffffffffffffffffff16815260200191505060405180910390f35b6102e5600480360360208110156102cf57600080fd5b810190808035906020019092919050505061098b565b604051808273ffffffffffffffffffffffffffffffffffffffff1673ffffffffffffffffffffffffffffffffffffffff16815260200191505060405180910390f35b6103736004803603604081101561033d57600080fd5b8101908080359060200190929190803573ffffffffffffffffffffffffffffffffffffffff1690602001909291905050506109be565b005b60018081111561038157fe5b61038b81336106e1565b6103e0576040517f08c379a0000000000000000000000000000000000000000000000000000000008152600401808060200182810382526022815260200180610dee6022913960400191505060405180910390fd5b816001600085815260200190815260200160002060006101000a81548173ffffffffffffffffffffffffffffffffffffffff021916908373ffffffffffffffffffffffffffffffffffffffff1602179055508173ffffffffffffffffffffffffffffffffffffffff16837fb29aa13e555039289e0513962835b00fcc6e4a265ae8f99e68e5b90d5406fe4860405160405180910390a3505050565b8160028081111561048857fe5b60008083815260200190815260200160002060010160009054906101000a900460ff1660028111156104b657fe5b1461050c576040517f08c379a000000000000000000000000000000000000000000000000000000000815260040180806020018281038252602c815260200180610dc2602c913960400191505060405180910390fd5b8261052c60008083815260200190815260200160002060000154336106e1565b610581576040517f08c379a0000000000000000000000000000000000000000000000000000000008152600401808060200182810382526024815260200180610e336024913960400191505060405180910390fd5b6105a883600080878152602001908152602001600020600301610af290919063ffffffff16565b50505050565b816002808111156105bb57fe5b60008083815260200190815260200160002060010160009054906101000a900460ff1660028111156105e957fe5b1461063f576040517f08c379a000000000000000000000000000000000000000000000000000000000815260040180806020018281038252602c815260200180610dc2602c913960400191505060405180910390fd5b8261065f60008083815260200190815260200160002060000154336106e1565b6106b4576040517f08c379a0000000000000000000000000000000000000000000000000000000008152600401808060200182810382526024815260200180610e336024913960400191505060405180910390fd5b6106db83600080878152602001908152602001600020600301610b5090919063ffffffff16565b50505050565b60008060008085815260200190815260200160002090506001600281111561070557fe5b8160010160009054906101000a900460ff16600281111561072257fe5b14156107465761073e8382600201610bae90919063ffffffff16565b915050610809565b60028081111561075257fe5b8160010160009054906101000a900460ff16600281111561076f57fe5b14156107935761078b8382600301610c0b90919063ffffffff16565b915050610809565b6000610807576040517f08c379a000000000000000000000000000000000000000000000000000000000815260040180806020018281038252600e8152602001807f496e76616c696420726f6c65496400000000000000000000000000000000000081525060200191505060405180910390fd5b505b92915050565b60006001600083815260200190815260200160002060009054906101000a900473ffffffffffffffffffffffffffffffffffffffff169050600073ffffffffffffffffffffffffffffffffffffffff168173ffffffffffffffffffffffffffffffffffffffff1614156108cd576040517f08c379a0000000000000000000000000000000000000000000000000000000008152600401808060200182810382526025815260200180610d9d6025913960400191505060405180910390fd5b919050565b600081600160028111156108e257fe5b60008083815260200190815260200160002060010160009054906101000a900460ff16600281111561091057fe5b14610966576040517f08c379a000000000000000000000000000000000000000000000000000000000815260040180806020018281038252602f815260200180610d6e602f913960400191505060405180910390fd5b610983600080858152602001908152602001600020600201610c64565b915050919050565b60016020528060005260406000206000915054906101000a900473ffffffffffffffffffffffffffffffffffffffff1681565b81600160028111156109cc57fe5b60008083815260200190815260200160002060010160009054906101000a900460ff1660028111156109fa57fe5b14610a50576040517f08c379a000000000000000000000000000000000000000000000000000000000815260040180806020018281038252602f815260200180610d6e602f913960400191505060405180910390fd5b82610a7060008083815260200190815260200160002060000154336106e1565b610ac5576040517f08c379a0000000000000000000000000000000000000000000000000000000008152600401808060200182810382526024815260200180610e336024913960400191505060405180910390fd5b610aec83600080878152602001908152602001600020600201610c9290919063ffffffff16565b50505050565b60008260000160008373ffffffffffffffffffffffffffffffffffffffff1673ffffffffffffffffffffffffffffffffffffffff16815260200190815260200160002060006101000a81548160ff0219169083151502179055505050565b60018260000160008373ffffffffffffffffffffffffffffffffffffffff1673ffffffffffffffffffffffffffffffffffffffff16815260200190815260200160002060006101000a81548160ff0219169083151502179055505050565b60008173ffffffffffffffffffffffffffffffffffffffff168360000160009054906101000a900473ffffffffffffffffffffffffffffffffffffffff1673ffffffffffffffffffffffffffffffffffffffff1614905092915050565b60008260000160008373ffffffffffffffffffffffffffffffffffffffff1673ffffffffffffffffffffffffffffffffffffffff16815260200190815260200160002060009054906101000a900460ff16905092915050565b60008160000160009054906101000a900473ffffffffffffffffffffffffffffffffffffffff169050919050565b600073ffffffffffffffffffffffffffffffffffffffff168173ffffffffffffffffffffffffffffffffffffffff161415610d18576040517f08c379a0000000000000000000000000000000000000000000000000000000008152600401808060200182810382526023815260200180610e106023913960400191505060405180910390fd5b808260000160006101000a81548173ffffffffffffffffffffffffffffffffffffffff021916908373ffffffffffffffffffffffffffffffffffffffff1602179055505050565b610d698282610c92565b505056fe4d7573742062652063616c6c6564206f6e20616e20696e697469616c697a6564204578636c757369766520726f6c654e6f20696d706c656d656e746174696f6e20666f7220696e7465726661636520666f756e644d7573742062652063616c6c6564206f6e20616e20696e697469616c697a65642053686172656420726f6c6553656e64657220646f6573206e6f7420686f6c6420726571756972656420726f6c6543616e6e6f742073657420616e206578636c757369766520726f6c6520746f2030783043616e206f6e6c792062652063616c6c6564206279206120726f6c65206d616e61676572a165627a7a72305820406c394e2361b45ccb6d8d13ad8a0c164bbf87f65589fd9ce99caee36b6fb6480029417474656d7074656420746f2075736520616e20696e76616c696420726f6c6520746f206d616e61676520616e206578636c757369766520726f6c6543616e6e6f742073657420616e206578636c757369766520726f6c6520746f20307830",
  "source": "pragma solidity ^0.5.0;\n\nimport \"./MultiRole.sol\";\n\n\n/**\n * @title Provides addresses of the live contracts implementing certain interfaces. \n * @dev Examples are the Oracle or Store interfaces.\n */\ncontract Finder is MultiRole {\n\n    enum Roles {\n        // Can set the writer.\n        Governance,\n        // Can update/write the addresses which implement a given interface.\n        Writer\n    }\n\n    mapping(bytes32 => address) public interfacesImplemented;\n\n    constructor() public {\n        _createExclusiveRole(uint(Roles.Governance), uint(Roles.Governance), msg.sender);\n        _createExclusiveRole(uint(Roles.Writer), uint(Roles.Governance), msg.sender);\n    }\n\n    /**\n     * @dev Updates the address of the contract that implements `interfaceName`.\n     */\n    function changeImplementationAddress(bytes32 interfaceName, address implementationAddress)\n        external\n        onlyRoleHolder(uint(Roles.Writer))\n    {\n        interfacesImplemented[interfaceName] = implementationAddress;\n        emit InterfaceImplementationChanged(interfaceName, implementationAddress);\n    }\n    \n    /**\n     * @dev Gets the address of the contract that implements the given `interfaceName`.\n     */\n    function getImplementationAddress(bytes32 interfaceName)\n        external\n        view\n        returns (address implementationAddress)\n    {\n        implementationAddress = interfacesImplemented[interfaceName];\n        require(implementationAddress != address(0x0), \"No implementation for interface found\");\n    }\n\n    event InterfaceImplementationChanged(bytes32 indexed interfaceName, address indexed newImplementationAddress);\n}\n",
  "sourcePath": "/Users/kendrick/Development/Ethereum/defi-dy/contracts/uma/core/contracts/Finder.sol",
  "compiler": {
    "name": "solc",
    "version": "0.5.8+commit.23d335f2.Emscripten.clang"
  },
  "schemaVersion": "3.0.10",
  "updatedAt": "2019-11-09T21:40:57.580Z",
  "devdoc": {
    "details": "Examples are the Oracle or Store interfaces.",
    "methods": {
      "addMember(uint256,address)": {
        "details": "Reverts if `roleId` does not represent an initialized, shared role or if the caller is not a member of the managing role for `roleId`."
      },
      "changeImplementationAddress(bytes32,address)": {
        "details": "Updates the address of the contract that implements `interfaceName`."
      },
      "getImplementationAddress(bytes32)": {
        "details": "Gets the address of the contract that implements the given `interfaceName`."
      },
      "getMember(uint256)": {
        "details": "Reverts if `roleId` does not represent an initialized, exclusive role."
      },
      "holdsRole(uint256,address)": {
        "details": "Reverts if roleId does not correspond to an initialized role."
      },
      "removeMember(uint256,address)": {
        "details": "Reverts if `roleId` does not represent an initialized, shared role or if the caller is not a member of the managing role for `roleId`."
      },
      "resetMember(uint256,address)": {
        "details": "Reverts if the caller is not a member of the managing role for `roleId` or if `roleId` is not an initialized, exclusive role."
      }
    },
    "title": "Provides addresses of the live contracts implementing certain interfaces. "
  },
  "userdoc": {
    "methods": {
      "addMember(uint256,address)": {
        "notice": "Adds `newMember` to the shared role, `roleId`."
      },
      "getMember(uint256)": {
        "notice": "Gets the current holder of the exclusive role, `roleId`."
      },
      "holdsRole(uint256,address)": {
        "notice": "Whether `memberToCheck` is a member of roleId."
      },
      "removeMember(uint256,address)": {
        "notice": "Removes `memberToRemove` from the shared role, `roleId`."
      },
      "resetMember(uint256,address)": {
        "notice": "Changes the exclusive role holder of `roleId` to `newMember`."
      }
    }
  }
}