{
  "contractName": "FixedPointTest",
  "abi": [
    {
      "constant": true,
      "inputs": [
        {
          "name": "a",
          "type": "uint256"
        }
      ],
      "name": "wrapFromUnscaledUint",
      "outputs": [
        {
          "name": "",
          "type": "uint256"
        }
      ],
      "payable": false,
      "stateMutability": "pure",
      "type": "function"
    },
    {
      "constant": true,
      "inputs": [
        {
          "name": "a",
          "type": "uint256"
        },
        {
          "name": "b",
          "type": "uint256"
        }
      ],
      "name": "wrapIsGreaterThan",
      "outputs": [
        {
          "name": "",
          "type": "bool"
        }
      ],
      "payable": false,
      "stateMutability": "pure",
      "type": "function"
    },
    {
      "constant": true,
      "inputs": [
        {
          "name": "a",
          "type": "uint256"
        },
        {
          "name": "b",
          "type": "uint256"
        }
      ],
      "name": "wrapMixedIsGreaterThan",
      "outputs": [
        {
          "name": "",
          "type": "bool"
        }
      ],
      "payable": false,
      "stateMutability": "pure",
      "type": "function"
    },
    {
      "constant": true,
      "inputs": [
        {
          "name": "a",
          "type": "uint256"
        },
        {
          "name": "b",
          "type": "uint256"
        }
      ],
      "name": "wrapMixedIsGreaterThanOpposite",
      "outputs": [
        {
          "name": "",
          "type": "bool"
        }
      ],
      "payable": false,
      "stateMutability": "pure",
      "type": "function"
    },
    {
      "constant": true,
      "inputs": [
        {
          "name": "a",
          "type": "uint256"
        },
        {
          "name": "b",
          "type": "uint256"
        }
      ],
      "name": "wrapIsLessThan",
      "outputs": [
        {
          "name": "",
          "type": "bool"
        }
      ],
      "payable": false,
      "stateMutability": "pure",
      "type": "function"
    },
    {
      "constant": true,
      "inputs": [
        {
          "name": "a",
          "type": "uint256"
        },
        {
          "name": "b",
          "type": "uint256"
        }
      ],
      "name": "wrapMixedIsLessThan",
      "outputs": [
        {
          "name": "",
          "type": "bool"
        }
      ],
      "payable": false,
      "stateMutability": "pure",
      "type": "function"
    },
    {
      "constant": true,
      "inputs": [
        {
          "name": "a",
          "type": "uint256"
        },
        {
          "name": "b",
          "type": "uint256"
        }
      ],
      "name": "wrapMixedIsLessThanOpposite",
      "outputs": [
        {
          "name": "",
          "type": "bool"
        }
      ],
      "payable": false,
      "stateMutability": "pure",
      "type": "function"
    },
    {
      "constant": true,
      "inputs": [
        {
          "name": "a",
          "type": "uint256"
        },
        {
          "name": "b",
          "type": "uint256"
        }
      ],
      "name": "wrapAdd",
      "outputs": [
        {
          "name": "",
          "type": "uint256"
        }
      ],
      "payable": false,
      "stateMutability": "pure",
      "type": "function"
    },
    {
      "constant": true,
      "inputs": [
        {
          "name": "a",
          "type": "uint256"
        },
        {
          "name": "b",
          "type": "uint256"
        }
      ],
      "name": "wrapMixedAdd",
      "outputs": [
        {
          "name": "",
          "type": "uint256"
        }
      ],
      "payable": false,
      "stateMutability": "pure",
      "type": "function"
    },
    {
      "constant": true,
      "inputs": [
        {
          "name": "a",
          "type": "uint256"
        },
        {
          "name": "b",
          "type": "uint256"
        }
      ],
      "name": "wrapSub",
      "outputs": [
        {
          "name": "",
          "type": "uint256"
        }
      ],
      "payable": false,
      "stateMutability": "pure",
      "type": "function"
    },
    {
      "constant": true,
      "inputs": [
        {
          "name": "a",
          "type": "uint256"
        },
        {
          "name": "b",
          "type": "uint256"
        }
      ],
      "name": "wrapMixedSub",
      "outputs": [
        {
          "name": "",
          "type": "uint256"
        }
      ],
      "payable": false,
      "stateMutability": "pure",
      "type": "function"
    },
    {
      "constant": true,
      "inputs": [
        {
          "name": "a",
          "type": "uint256"
        },
        {
          "name": "b",
          "type": "uint256"
        }
      ],
      "name": "wrapMixedSubOpposite",
      "outputs": [
        {
          "name": "",
          "type": "uint256"
        }
      ],
      "payable": false,
      "stateMutability": "pure",
      "type": "function"
    },
    {
      "constant": true,
      "inputs": [
        {
          "name": "a",
          "type": "uint256"
        },
        {
          "name": "b",
          "type": "uint256"
        }
      ],
      "name": "wrapMul",
      "outputs": [
        {
          "name": "",
          "type": "uint256"
        }
      ],
      "payable": false,
      "stateMutability": "pure",
      "type": "function"
    },
    {
      "constant": true,
      "inputs": [
        {
          "name": "a",
          "type": "uint256"
        },
        {
          "name": "b",
          "type": "uint256"
        }
      ],
      "name": "wrapMixedMul",
      "outputs": [
        {
          "name": "",
          "type": "uint256"
        }
      ],
      "payable": false,
      "stateMutability": "pure",
      "type": "function"
    },
    {
      "constant": true,
      "inputs": [
        {
          "name": "a",
          "type": "uint256"
        },
        {
          "name": "b",
          "type": "uint256"
        }
      ],
      "name": "wrapDiv",
      "outputs": [
        {
          "name": "",
          "type": "uint256"
        }
      ],
      "payable": false,
      "stateMutability": "pure",
      "type": "function"
    },
    {
      "constant": true,
      "inputs": [
        {
          "name": "a",
          "type": "uint256"
        },
        {
          "name": "b",
          "type": "uint256"
        }
      ],
      "name": "wrapMixedDiv",
      "outputs": [
        {
          "name": "",
          "type": "uint256"
        }
      ],
      "payable": false,
      "stateMutability": "pure",
      "type": "function"
    },
    {
      "constant": true,
      "inputs": [
        {
          "name": "a",
          "type": "uint256"
        },
        {
          "name": "b",
          "type": "uint256"
        }
      ],
      "name": "wrapMixedDivOpposite",
      "outputs": [
        {
          "name": "",
          "type": "uint256"
        }
      ],
      "payable": false,
      "stateMutability": "pure",
      "type": "function"
    },
    {
      "constant": true,
      "inputs": [
        {
          "name": "a",
          "type": "uint256"
        },
        {
          "name": "b",
          "type": "uint256"
        }
      ],
      "name": "wrapPow",
      "outputs": [
        {
          "name": "",
          "type": "uint256"
        }
      ],
      "payable": false,
      "stateMutability": "pure",
      "type": "function"
    }
  ],
  "bytecode": "0x608060405234801561001057600080fd5b50610f9f806100206000396000f3fe608060405234801561001057600080fd5b50600436106101165760003560e01c8063785baba7116100a2578063928d9cf411610071578063928d9cf4146104f9578063a9ad4e6714610545578063b0c6619514610591578063de27b9ba146105e1578063e9f798ed1461063157610116565b8063785baba7146103c557806384ea84041461041557806385ec2dc1146104615780638b257fde146104ad57610116565b80634e55787f116100e95780634e55787f1461024f5780635f2d4b641461029b5780636361b81b146102eb5780636e1c91ac1461032d5780636f486eee1461037957610116565b806316f0a5fd1461011b578063308a1af8146101675780633d5dbce2146101b75780634038dc1c14610203575b600080fd5b6101516004803603604081101561013157600080fd5b810190808035906020019092919080359060200190929190505050610681565b6040518082815260200191505060405180910390f35b61019d6004803603604081101561017d57600080fd5b8101908080359060200190929190803590602001909291905050506106b0565b604051808215151515815260200191505060405180910390f35b6101ed600480360360408110156101cd57600080fd5b8101908080359060200190929190803590602001909291905050506106db565b6040518082815260200191505060405180910390f35b6102396004803603604081101561021957600080fd5b810190808035906020019092919080359060200190929190505050610718565b6040518082815260200191505060405180910390f35b6102856004803603604081101561026557600080fd5b810190808035906020019092919080359060200190929190505050610747565b6040518082815260200191505060405180910390f35b6102d1600480360360408110156102b157600080fd5b810190808035906020019092919080359060200190929190505050610776565b604051808215151515815260200191505060405180910390f35b6103176004803603602081101561030157600080fd5b81019080803590602001909291905050506107af565b6040518082815260200191505060405180910390f35b6103636004803603604081101561034357600080fd5b8101908080359060200190929190803590602001909291905050506107c5565b6040518082815260200191505060405180910390f35b6103af6004803603604081101561038f57600080fd5b8101908080359060200190929190803590602001909291905050506107f4565b6040518082815260200191505060405180910390f35b6103fb600480360360408110156103db57600080fd5b810190808035906020019092919080359060200190929190505050610831565b604051808215151515815260200191505060405180910390f35b61044b6004803603604081101561042b57600080fd5b81019080803590602001909291908035906020019092919050505061085c565b6040518082815260200191505060405180910390f35b6104976004803603604081101561047757600080fd5b81019080803590602001909291908035906020019092919050505061088b565b6040518082815260200191505060405180910390f35b6104e3600480360360408110156104c357600080fd5b8101908080359060200190929190803590602001909291905050506108c8565b6040518082815260200191505060405180910390f35b61052f6004803603604081101561050f57600080fd5b8101908080359060200190929190803590602001909291905050506108f7565b6040518082815260200191505060405180910390f35b61057b6004803603604081101561055b57600080fd5b810190808035906020019092919080359060200190929190505050610934565b6040518082815260200191505060405180910390f35b6105c7600480360360408110156105a757600080fd5b810190808035906020019092919080359060200190929190505050610963565b604051808215151515815260200191505060405180910390f35b610617600480360360408110156105f757600080fd5b81019080803590602001909291908035906020019092919050505061099c565b604051808215151515815260200191505060405180910390f35b6106676004803603604081101561064757600080fd5b8101908080359060200190929190803590602001909291905050506109c7565b604051808215151515815260200191505060405180910390f35b60006106a4604051806020016040528084815250846109f290919063ffffffff16565b60000151905092915050565b60006106d360405180602001604052808481525084610a1490919063ffffffff16565b905092915050565b600061070c604051806020016040528084815250604051806020016040528086815250610a3190919063ffffffff16565b60000151905092915050565b600061073b82604051806020016040528086815250610a8490919063ffffffff16565b60000151905092915050565b600061076a82604051806020016040528086815250610ad490919063ffffffff16565b60000151905092915050565b60006107a7604051806020016040528084815250604051806020016040528086815250610b0990919063ffffffff16565b905092915050565b60006107ba82610b1e565b600001519050919050565b60006107e882604051806020016040528086815250610b5690919063ffffffff16565b60000151905092915050565b6000610825604051806020016040528084815250604051806020016040528086815250610b8b90919063ffffffff16565b60000151905092915050565b600061085460405180602001604052808481525084610bd590919063ffffffff16565b905092915050565b600061087f82604051806020016040528086815250610bf290919063ffffffff16565b60000151905092915050565b60006108bc604051806020016040528084815250604051806020016040528086815250610c1490919063ffffffff16565b60000151905092915050565b60006108eb82604051806020016040528086815250610c4d90919063ffffffff16565b60000151905092915050565b6000610928604051806020016040528084815250604051806020016040528086815250610c6f90919063ffffffff16565b60000151905092915050565b600061095760405180602001604052808481525084610ca890919063ffffffff16565b60000151905092915050565b6000610994604051806020016040528084815250604051806020016040528086815250610cca90919063ffffffff16565b905092915050565b60006109bf82604051806020016040528086815250610cdf90919063ffffffff16565b905092915050565b60006109ea82604051806020016040528086815250610cfc90919063ffffffff16565b905092915050565b6109fa610f3f565b610a0c610a0684610b1e565b83610a31565b905092915050565b60008160000151610a2484610b1e565b6000015111905092915050565b610a39610f3f565b6040518060200160405280610a798460000151610a6b670de0b6b3a76400008860000151610d1990919063ffffffff16565b610d9f90919063ffffffff16565b815250905092915050565b610a8c610f3f565b610a966001610b1e565b905060008090505b82811015610acd57610ab08285610b8b565b9150610ac6600182610e2e90919063ffffffff16565b9050610a9e565b5092915050565b610adc610f3f565b6040518060200160405280610afe848660000151610d1990919063ffffffff16565b815250905092915050565b60008160000151836000015110905092915050565b610b26610f3f565b6040518060200160405280610b4c670de0b6b3a764000085610d1990919063ffffffff16565b8152509050919050565b610b5e610f3f565b6040518060200160405280610b80848660000151610d9f90919063ffffffff16565b815250905092915050565b610b93610f3f565b6040518060200160405280670de0b6b3a7640000610bc285600001518760000151610d1990919063ffffffff16565b81610bc957fe5b04815250905092915050565b60008160000151610be584610b1e565b6000015110905092915050565b610bfa610f3f565b610c0c83610c0784610b1e565b610c14565b905092915050565b610c1c610f3f565b6040518060200160405280610c4284600001518660000151610e2e90919063ffffffff16565b815250905092915050565b610c55610f3f565b610c6783610c6284610b1e565b610c6f565b905092915050565b610c77610f3f565b6040518060200160405280610c9d84600001518660000151610eb690919063ffffffff16565b815250905092915050565b610cb0610f3f565b610cc2610cbc84610b1e565b83610c6f565b905092915050565b60008160000151836000015111905092915050565b6000610cea82610b1e565b60000151836000015111905092915050565b6000610d0782610b1e565b60000151836000015110905092915050565b600080831415610d2c5760009050610d99565b6000828402905082848281610d3d57fe5b0414610d94576040517f08c379a0000000000000000000000000000000000000000000000000000000008152600401808060200182810382526021815260200180610f536021913960400191505060405180910390fd5b809150505b92915050565b6000808211610e16576040517f08c379a000000000000000000000000000000000000000000000000000000000815260040180806020018281038252601a8152602001807f536166654d6174683a206469766973696f6e206279207a65726f00000000000081525060200191505060405180910390fd5b6000828481610e2157fe5b0490508091505092915050565b600080828401905083811015610eac576040517f08c379a000000000000000000000000000000000000000000000000000000000815260040180806020018281038252601b8152602001807f536166654d6174683a206164646974696f6e206f766572666c6f77000000000081525060200191505060405180910390fd5b8091505092915050565b600082821115610f2e576040517f08c379a000000000000000000000000000000000000000000000000000000000815260040180806020018281038252601e8152602001807f536166654d6174683a207375627472616374696f6e206f766572666c6f77000081525060200191505060405180910390fd5b600082840390508091505092915050565b604051806020016040528060008152509056fe536166654d6174683a206d756c7469706c69636174696f6e206f766572666c6f77a165627a7a723058209d640b4ee83ae8f6263ba138312c18041c3aae359c40819d4649c07a64ffe6260029",
  "source": "pragma solidity ^0.5.0;\n\nimport \"../FixedPoint.sol\";\n\n\n// Wraps the FixedPoint library for testing purposes.\ncontract FixedPointTest {\n    using FixedPoint for FixedPoint.Unsigned;\n    using FixedPoint for uint;\n    using SafeMath for uint;\n\n    function wrapFromUnscaledUint(uint a) external pure returns (uint) {\n        return FixedPoint.fromUnscaledUint(a).rawValue;\n    }\n\n    function wrapIsGreaterThan(uint a, uint b) external pure returns (bool) {\n        return FixedPoint.Unsigned(a).isGreaterThan(FixedPoint.Unsigned(b));\n    }\n\n    function wrapMixedIsGreaterThan(uint a, uint b) external pure returns (bool) {\n        return FixedPoint.Unsigned(a).isGreaterThan(b);\n    }\n\n    function wrapMixedIsGreaterThanOpposite(uint a, uint b) external pure returns (bool) {\n        return a.isGreaterThan(FixedPoint.Unsigned(b));\n    }\n\n    function wrapIsLessThan(uint a, uint b) external pure returns (bool) {\n        return FixedPoint.Unsigned(a).isLessThan(FixedPoint.Unsigned(b));\n    }\n\n    function wrapMixedIsLessThan(uint a, uint b) external pure returns (bool) {\n        return FixedPoint.Unsigned(a).isLessThan(b);\n    }\n\n    function wrapMixedIsLessThanOpposite(uint a, uint b) external pure returns (bool) {\n        return a.isLessThan(FixedPoint.Unsigned(b));\n    }\n\n    function wrapAdd(uint a, uint b) external pure returns (uint) {\n        return FixedPoint.Unsigned(a).add(FixedPoint.Unsigned(b)).rawValue;\n    }\n\n    // The first uint is interpreted with a scaling factor and is converted to an `Unsigned` directly.\n    function wrapMixedAdd(uint a, uint b) external pure returns (uint) {\n        return FixedPoint.Unsigned(a).add(b).rawValue;\n    }\n\n    function wrapSub(uint a, uint b) external pure returns (uint) {\n        return FixedPoint.Unsigned(a).sub(FixedPoint.Unsigned(b)).rawValue;\n    }\n\n    // The first uint is interpreted with a scaling factor and is converted to an `Unsigned` directly.\n    function wrapMixedSub(uint a, uint b) external pure returns (uint) {\n        return FixedPoint.Unsigned(a).sub(b).rawValue;\n    }\n\n    // The second uint is interpreted with a scaling factor and is converted to an `Unsigned` directly.\n    function wrapMixedSubOpposite(uint a, uint b) external pure returns (uint) {\n        return a.sub(FixedPoint.Unsigned(b)).rawValue;\n    }\n\n    function wrapMul(uint a, uint b) external pure returns (uint) {\n        return FixedPoint.Unsigned(a).mul(FixedPoint.Unsigned(b)).rawValue;\n    }\n\n    // The first uint is interpreted with a scaling factor and is converted to an `Unsigned` directly.\n    function wrapMixedMul(uint a, uint b) external pure returns (uint) {\n        return FixedPoint.Unsigned(a).mul(b).rawValue;\n    }\n\n    function wrapDiv(uint a, uint b) external pure returns (uint) {\n        return FixedPoint.Unsigned(a).div(FixedPoint.Unsigned(b)).rawValue;\n    }\n\n    // The first uint is interpreted with a scaling factor and is converted to an `Unsigned` directly.\n    function wrapMixedDiv(uint a, uint b) external pure returns (uint) {\n        return FixedPoint.Unsigned(a).div(b).rawValue;\n    }\n\n    // The second uint is interpreted with a scaling factor and is converted to an `Unsigned` directly.\n    function wrapMixedDivOpposite(uint a, uint b) external pure returns (uint) {\n        return a.div(FixedPoint.Unsigned(b)).rawValue;\n    }\n\n    // The first uint is interpreted with a scaling factor and is converted to an `Unsigned` directly.\n    function wrapPow(uint a, uint b) external pure returns (uint) {\n        return FixedPoint.Unsigned(a).pow(b).rawValue;\n    }\n}\n",
  "sourcePath": "/Users/kendrick/Development/Ethereum/defi-dy/contracts/uma/core/contracts/test/FixedPointTest.sol",
  "compiler": {
    "name": "solc",
    "version": "0.5.8+commit.23d335f2.Emscripten.clang"
  },
  "schemaVersion": "3.0.10",
  "updatedAt": "2019-11-09T13:45:25.736Z",
  "devdoc": {
    "methods": {}
  },
  "userdoc": {
    "methods": {}
  }
}