{
  "contractName": "LeveragedReturnCalculatorTest",
  "abi": [
    {
      "constant": true,
      "inputs": [],
      "name": "leverage",
      "outputs": [
        {
          "name": "_leverage",
          "type": "int256"
        }
      ],
      "payable": false,
      "stateMutability": "view",
      "type": "function"
    },
    {
      "constant": false,
      "inputs": [
        {
          "name": "amount",
          "type": "uint256"
        }
      ],
      "name": "withdraw",
      "outputs": [],
      "payable": false,
      "stateMutability": "nonpayable",
      "type": "function"
    },
    {
      "constant": true,
      "inputs": [
        {
          "name": "oldPrice",
          "type": "int256"
        },
        {
          "name": "newPrice",
          "type": "int256"
        }
      ],
      "name": "computeReturn",
      "outputs": [
        {
          "name": "assetReturn",
          "type": "int256"
        }
      ],
      "payable": false,
      "stateMutability": "view",
      "type": "function"
    },
    {
      "constant": false,
      "inputs": [
        {
          "name": "roleId",
          "type": "uint256"
        },
        {
          "name": "memberToRemove",
          "type": "address"
        }
      ],
      "name": "removeMember",
      "outputs": [],
      "payable": false,
      "stateMutability": "nonpayable",
      "type": "function"
    },
    {
      "constant": false,
      "inputs": [
        {
          "name": "roleId",
          "type": "uint256"
        },
        {
          "name": "newMember",
          "type": "address"
        }
      ],
      "name": "addMember",
      "outputs": [],
      "payable": false,
      "stateMutability": "nonpayable",
      "type": "function"
    },
    {
      "constant": true,
      "inputs": [
        {
          "name": "roleId",
          "type": "uint256"
        },
        {
          "name": "memberToCheck",
          "type": "address"
        }
      ],
      "name": "holdsRole",
      "outputs": [
        {
          "name": "",
          "type": "bool"
        }
      ],
      "payable": false,
      "stateMutability": "view",
      "type": "function"
    },
    {
      "constant": true,
      "inputs": [
        {
          "name": "roleId",
          "type": "uint256"
        }
      ],
      "name": "getMember",
      "outputs": [
        {
          "name": "",
          "type": "address"
        }
      ],
      "payable": false,
      "stateMutability": "view",
      "type": "function"
    },
    {
      "constant": false,
      "inputs": [
        {
          "name": "erc20Address",
          "type": "address"
        },
        {
          "name": "amount",
          "type": "uint256"
        }
      ],
      "name": "withdrawErc20",
      "outputs": [],
      "payable": false,
      "stateMutability": "nonpayable",
      "type": "function"
    },
    {
      "constant": false,
      "inputs": [
        {
          "name": "roleId",
          "type": "uint256"
        },
        {
          "name": "newMember",
          "type": "address"
        }
      ],
      "name": "resetMember",
      "outputs": [],
      "payable": false,
      "stateMutability": "nonpayable",
      "type": "function"
    },
    {
      "inputs": [
        {
          "name": "_leverageMultiplier",
          "type": "int256"
        }
      ],
      "payable": false,
      "stateMutability": "nonpayable",
      "type": "constructor"
    },
    {
      "constant": false,
      "inputs": [
        {
          "name": "oldPrice",
          "type": "int256"
        },
        {
          "name": "newPrice",
          "type": "int256"
        }
      ],
      "name": "storeReturn",
      "outputs": [],
      "payable": false,
      "stateMutability": "nonpayable",
      "type": "function"
    },
    {
      "constant": true,
      "inputs": [],
      "name": "echidna_signage",
      "outputs": [
        {
          "name": "",
          "type": "bool"
        }
      ],
      "payable": false,
      "stateMutability": "view",
      "type": "function"
    }
  ],
  "bytecode": "0x60806040523480156200001157600080fd5b50604051602080620017ce833981018060405260208110156200003357600080fd5b81019080805190602001909291905050508060008114156200005457600080fd5b8060028190555062000088600060018111156200006d57fe5b600060018111156200007b57fe5b33620000bc60201b60201c565b620000b46001808111156200009957fe5b60006001811115620000a757fe5b336200026e60201b60201c565b505062000372565b8260006002811115620000cb57fe5b60008083815260200190815260200160002060010160009054906101000a900460ff166002811115620000fa57fe5b146200016e576040517f08c379a000000000000000000000000000000000000000000000000000000000815260040180806020018281038252601e8152602001807f43616e6e6f74207573652061207072652d6578697374696e6720726f6c65000081525060200191505060405180910390fd5b6000806000868152602001908152602001600020905060018160010160006101000a81548160ff02191690836002811115620001a657fe5b0217905550838160000181905550620001d183826002016200028d60201b620012831790919060201c565b60006002811115620001df57fe5b60008086815260200190815260200160002060010160009054906101000a900460ff1660028111156200020e57fe5b141562000267576040517f08c379a000000000000000000000000000000000000000000000000000000000815260040180806020018281038252603c8152602001806200176f603c913960400191505060405180910390fd5b5050505050565b8260018190555062000288838383620000bc60201b60201c565b505050565b6200029f8282620002a360201b60201c565b5050565b600073ffffffffffffffffffffffffffffffffffffffff168173ffffffffffffffffffffffffffffffffffffffff1614156200032b576040517f08c379a0000000000000000000000000000000000000000000000000000000008152600401808060200182810382526023815260200180620017ab6023913960400191505060405180910390fd5b808260000160006101000a81548173ffffffffffffffffffffffffffffffffffffffff021916908373ffffffffffffffffffffffffffffffffffffffff1602179055505050565b6113ed80620003826000396000f3fe608060405234801561001057600080fd5b50600436106100a95760003560e01c806374d0a6761161007157806374d0a676146101cc5780637cdc1cb91461021a578063ab3545e514610280578063bd1f4b52146102ee578063c3cf41bc1461033c578063d97c05be1461035e576100a9565b80632c86d98e146100ae5780632e1a7d4d146100cc578063377eb02a146100fa57806355e59682146101325780636be7658b1461017e575b600080fd5b6100b66103ac565b6040518082815260200191505060405180910390f35b6100f8600480360360208110156100e257600080fd5b81019080803590602001909291905050506103b6565b005b6101306004803603604081101561011057600080fd5b810190808035906020019092919080359060200190929190505050610463565b005b6101686004803603604081101561014857600080fd5b810190808035906020019092919080359060200190929190505050610515565b6040518082815260200191505060405180910390f35b6101ca6004803603604081101561019457600080fd5b8101908080359060200190929190803573ffffffffffffffffffffffffffffffffffffffff1690602001909291905050506105d1565b005b610218600480360360408110156101e257600080fd5b8101908080359060200190929190803573ffffffffffffffffffffffffffffffffffffffff169060200190929190505050610704565b005b6102666004803603604081101561023057600080fd5b8101908080359060200190929190803573ffffffffffffffffffffffffffffffffffffffff169060200190929190505050610837565b604051808215151515815260200191505060405180910390f35b6102ac6004803603602081101561029657600080fd5b8101908080359060200190929190505050610965565b604051808273ffffffffffffffffffffffffffffffffffffffff1673ffffffffffffffffffffffffffffffffffffffff16815260200191505060405180910390f35b61033a6004803603604081101561030457600080fd5b81019080803573ffffffffffffffffffffffffffffffffffffffff16906020019092919080359060200190929190505050610a1e565b005b610344610b56565b604051808215151515815260200191505060405180910390f35b6103aa6004803603604081101561037457600080fd5b8101908080359060200190929190803573ffffffffffffffffffffffffffffffffffffffff169060200190929190505050610bf6565b005b6000600254905090565b6001546103c38133610837565b610418576040517f08c379a000000000000000000000000000000000000000000000000000000000815260040180806020018281038252602281526020018061130e6022913960400191505060405180910390fd5b3373ffffffffffffffffffffffffffffffffffffffff166108fc839081150290604051600060405180830381858888f1935050505015801561045e573d6000803e3d6000fd5b505050565b60003073ffffffffffffffffffffffffffffffffffffffff166355e5968284846040518363ffffffff1660e01b8152600401808381526020018281526020019250505060206040518083038186803b1580156104be57600080fd5b505afa1580156104d2573d6000803e3d6000fd5b505050506040513d60208110156104e857600080fd5b81019080805190602001909291905050509050826003819055508160048190555080600581905550505050565b60008083141561052857600090506105cb565b600061055784610549670de0b6b3a764000086610d2a90919063ffffffff16565b610e5490919063ffffffff16565b905061058860025461057a670de0b6b3a764000084610f8890919063ffffffff16565b610d2a90919063ffffffff16565b915060008412156105c9576105c67fffffffffffffffffffffffffffffffffffffffffffffffffffffffffffffffff83610d2a90919063ffffffff16565b91505b505b92915050565b816002808111156105de57fe5b60008083815260200190815260200160002060010160009054906101000a900460ff16600281111561060c57fe5b14610662576040517f08c379a000000000000000000000000000000000000000000000000000000000815260040180806020018281038252602c8152602001806112c1602c913960400191505060405180910390fd5b826106826000808381526020019081526020016000206000015433610837565b6106d7576040517f08c379a000000000000000000000000000000000000000000000000000000000815260040180806020018281038252602481526020018061137a6024913960400191505060405180910390fd5b6106fe8360008087815260200190815260200160002060030161101690919063ffffffff16565b50505050565b8160028081111561071157fe5b60008083815260200190815260200160002060010160009054906101000a900460ff16600281111561073f57fe5b14610795576040517f08c379a000000000000000000000000000000000000000000000000000000000815260040180806020018281038252602c8152602001806112c1602c913960400191505060405180910390fd5b826107b56000808381526020019081526020016000206000015433610837565b61080a576040517f08c379a000000000000000000000000000000000000000000000000000000000815260040180806020018281038252602481526020018061137a6024913960400191505060405180910390fd5b6108318360008087815260200190815260200160002060030161107490919063ffffffff16565b50505050565b60008060008085815260200190815260200160002090506001600281111561085b57fe5b8160010160009054906101000a900460ff16600281111561087857fe5b141561089c5761089483826002016110d290919063ffffffff16565b91505061095f565b6002808111156108a857fe5b8160010160009054906101000a900460ff1660028111156108c557fe5b14156108e9576108e1838260030161112f90919063ffffffff16565b91505061095f565b600061095d576040517f08c379a000000000000000000000000000000000000000000000000000000000815260040180806020018281038252600e8152602001807f496e76616c696420726f6c65496400000000000000000000000000000000000081525060200191505060405180910390fd5b505b92915050565b6000816001600281111561097557fe5b60008083815260200190815260200160002060010160009054906101000a900460ff1660028111156109a357fe5b146109f9576040517f08c379a000000000000000000000000000000000000000000000000000000000815260040180806020018281038252602f815260200180611292602f913960400191505060405180910390fd5b610a16600080858152602001908152602001600020600201611188565b915050919050565b600154610a2b8133610837565b610a80576040517f08c379a000000000000000000000000000000000000000000000000000000000815260040180806020018281038252602281526020018061130e6022913960400191505060405180910390fd5b60008390508073ffffffffffffffffffffffffffffffffffffffff1663a9059cbb33856040518363ffffffff1660e01b8152600401808373ffffffffffffffffffffffffffffffffffffffff1673ffffffffffffffffffffffffffffffffffffffff16815260200182815260200192505050602060405180830381600087803b158015610b0c57600080fd5b505af1158015610b20573d6000803e3d6000fd5b505050506040513d6020811015610b3657600080fd5b8101908080519060200190929190505050610b5057600080fd5b50505050565b6000806003541415610b6f576000600554149050610bf3565b600160025412610b9f5760035460045412610b9257600060055412159050610bf3565b6000600554129050610bf3565b7fffffffffffffffffffffffffffffffffffffffffffffffffffffffffffffffff60025413610bee5760035460045412610be157600060055413159050610bf3565b6000600554139050610bf3565b600090505b90565b8160016002811115610c0457fe5b60008083815260200190815260200160002060010160009054906101000a900460ff166002811115610c3257fe5b14610c88576040517f08c379a000000000000000000000000000000000000000000000000000000000815260040180806020018281038252602f815260200180611292602f913960400191505060405180910390fd5b82610ca86000808381526020019081526020016000206000015433610837565b610cfd576040517f08c379a000000000000000000000000000000000000000000000000000000000815260040180806020018281038252602481526020018061137a6024913960400191505060405180910390fd5b610d24836000808781526020019081526020016000206002016111b690919063ffffffff16565b50505050565b600080831415610d3d5760009050610e4e565b7fffffffffffffffffffffffffffffffffffffffffffffffffffffffffffffffff83148015610d8b57507f800000000000000000000000000000000000000000000000000000000000000082145b15610de1576040517f08c379a00000000000000000000000000000000000000000000000000000000081526004018080602001828103825260278152602001806113306027913960400191505060405180910390fd5b6000828402905082848281610df257fe5b0514610e49576040517f08c379a00000000000000000000000000000000000000000000000000000000081526004018080602001828103825260278152602001806113306027913960400191505060405180910390fd5b809150505b92915050565b600080821415610ecc576040517f08c379a00000000000000000000000000000000000000000000000000000000081526004018080602001828103825260208152602001807f5369676e6564536166654d6174683a206469766973696f6e206279207a65726f81525060200191505060405180910390fd5b7fffffffffffffffffffffffffffffffffffffffffffffffffffffffffffffffff82148015610f1a57507f800000000000000000000000000000000000000000000000000000000000000083145b15610f70576040517f08c379a00000000000000000000000000000000000000000000000000000000081526004018080602001828103825260218152602001806112ed6021913960400191505060405180910390fd5b6000828481610f7b57fe5b0590508091505092915050565b600080828403905060008312158015610fa15750838113155b80610fb75750600083128015610fb657508381135b5b61100c576040517f08c379a000000000000000000000000000000000000000000000000000000000815260040180806020018281038252602481526020018061139e6024913960400191505060405180910390fd5b8091505092915050565b60008260000160008373ffffffffffffffffffffffffffffffffffffffff1673ffffffffffffffffffffffffffffffffffffffff16815260200190815260200160002060006101000a81548160ff0219169083151502179055505050565b60018260000160008373ffffffffffffffffffffffffffffffffffffffff1673ffffffffffffffffffffffffffffffffffffffff16815260200190815260200160002060006101000a81548160ff0219169083151502179055505050565b60008173ffffffffffffffffffffffffffffffffffffffff168360000160009054906101000a900473ffffffffffffffffffffffffffffffffffffffff1673ffffffffffffffffffffffffffffffffffffffff1614905092915050565b60008260000160008373ffffffffffffffffffffffffffffffffffffffff1673ffffffffffffffffffffffffffffffffffffffff16815260200190815260200160002060009054906101000a900460ff16905092915050565b60008160000160009054906101000a900473ffffffffffffffffffffffffffffffffffffffff169050919050565b600073ffffffffffffffffffffffffffffffffffffffff168173ffffffffffffffffffffffffffffffffffffffff16141561123c576040517f08c379a00000000000000000000000000000000000000000000000000000000081526004018080602001828103825260238152602001806113576023913960400191505060405180910390fd5b808260000160006101000a81548173ffffffffffffffffffffffffffffffffffffffff021916908373ffffffffffffffffffffffffffffffffffffffff1602179055505050565b61128d82826111b6565b505056fe4d7573742062652063616c6c6564206f6e20616e20696e697469616c697a6564204578636c757369766520726f6c654d7573742062652063616c6c6564206f6e20616e20696e697469616c697a65642053686172656420726f6c655369676e6564536166654d6174683a206469766973696f6e206f766572666c6f7753656e64657220646f6573206e6f7420686f6c6420726571756972656420726f6c655369676e6564536166654d6174683a206d756c7469706c69636174696f6e206f766572666c6f7743616e6e6f742073657420616e206578636c757369766520726f6c6520746f2030783043616e206f6e6c792062652063616c6c6564206279206120726f6c65206d616e616765725369676e6564536166654d6174683a207375627472616374696f6e206f766572666c6f77a165627a7a72305820dc3573cdf3970856b6b3fd802e6fe4c8a44e9f3f5fb0366194c0713da72cfd4c0029417474656d7074656420746f2075736520616e20696e76616c696420726f6c6520746f206d616e61676520616e206578636c757369766520726f6c6543616e6e6f742073657420616e206578636c757369766520726f6c6520746f20307830",
  "source": "/*\n  Leveraged Return Calculator Echidna Tests.\n*/\npragma solidity ^0.5.0;\n\nimport \"../LeveragedReturnCalculator.sol\";\n\n\ncontract LeveragedReturnCalculatorTest is LeveragedReturnCalculator {\n    // Store in/out for computeReturn().\n    int private oldPriceInput;\n    int private newPriceInput;\n    int private returnOutput;\n\n    // solhint-disable-next-line no-empty-blocks\n    constructor(int _leverageMultiplier) public LeveragedReturnCalculator(_leverageMultiplier) {}\n\n    function storeReturn(int oldPrice, int newPrice) external {\n        int assetReturn = this.computeReturn(oldPrice, newPrice);\n        oldPriceInput = oldPrice;\n        newPriceInput = newPrice;\n        returnOutput = assetReturn;\n    }\n\n    // solhint-disable-next-line func-name-mixedcase\n    function echidna_signage() external view returns (bool) {\n        if (oldPriceInput == 0) {\n            // Special case.\n            return returnOutput == 0;\n        }\n\n        if (leverageMultiplier >= 1) {\n            // Positive leverage means that the price difference should be in the same direction as the return.\n            if (newPriceInput >= oldPriceInput) {\n                return returnOutput >= 0;\n            } else {\n                return returnOutput < 0;\n            }\n        } else if (leverageMultiplier <= -1) {\n            // Negative leverage means the price difference should be in the opposite direction of the return.\n            if (newPriceInput >= oldPriceInput) {\n                return returnOutput <= 0;\n            } else {\n                return returnOutput > 0;\n            }\n        } else {\n            // Leverage == 0.\n            // Should not be possible.\n            return false;\n        }\n    }\n}\n\n\n// Instantiations of different leverage tests.\n/* solhint-disable no-empty-blocks, two-lines-top-level-separator */\ncontract Leveraged1xTest is LeveragedReturnCalculatorTest(1) {}\ncontract Leveraged4xTest is LeveragedReturnCalculatorTest(4) {}\ncontract LeveragedShort1xTest is LeveragedReturnCalculatorTest(-1) {}\ncontract LeveragedShort3xTest is LeveragedReturnCalculatorTest(-3) {}\n",
  "sourcePath": "/Users/kendrick/Development/Ethereum/defi-dy/contracts/uma/core/contracts/echidna_tests/LeveragedReturnCalculatorTest.sol",
  "compiler": {
    "name": "solc",
    "version": "0.5.8+commit.23d335f2.Emscripten.clang"
  },
  "schemaVersion": "3.0.10",
  "updatedAt": "2019-11-09T13:45:25.732Z",
  "devdoc": {
    "methods": {
      "addMember(uint256,address)": {
        "details": "Reverts if `roleId` does not represent an initialized, shared role or if the caller is not a member of the managing role for `roleId`."
      },
      "getMember(uint256)": {
        "details": "Reverts if `roleId` does not represent an initialized, exclusive role."
      },
      "holdsRole(uint256,address)": {
        "details": "Reverts if roleId does not correspond to an initialized role."
      },
      "removeMember(uint256,address)": {
        "details": "Reverts if `roleId` does not represent an initialized, shared role or if the caller is not a member of the managing role for `roleId`."
      },
      "resetMember(uint256,address)": {
        "details": "Reverts if the caller is not a member of the managing role for `roleId` or if `roleId` is not an initialized, exclusive role."
      }
    }
  },
  "userdoc": {
    "methods": {
      "addMember(uint256,address)": {
        "notice": "Adds `newMember` to the shared role, `roleId`."
      },
      "getMember(uint256)": {
        "notice": "Gets the current holder of the exclusive role, `roleId`."
      },
      "holdsRole(uint256,address)": {
        "notice": "Whether `memberToCheck` is a member of roleId."
      },
      "removeMember(uint256,address)": {
        "notice": "Removes `memberToRemove` from the shared role, `roleId`."
      },
      "resetMember(uint256,address)": {
        "notice": "Changes the exclusive role holder of `roleId` to `newMember`."
      },
      "withdraw(uint256)": {
        "notice": "Withdraws ETH from the contract."
      },
      "withdrawErc20(address,uint256)": {
        "notice": "Withdraws ERC20 tokens from the contract."
      }
    }
  }
}