{
  "contractName": "LeveragedReturnCalculator",
  "abi": [
    {
      "constant": false,
      "inputs": [
        {
          "name": "amount",
          "type": "uint256"
        }
      ],
      "name": "withdraw",
      "outputs": [],
      "payable": false,
      "stateMutability": "nonpayable",
      "type": "function"
    },
    {
      "constant": false,
      "inputs": [
        {
          "name": "roleId",
          "type": "uint256"
        },
        {
          "name": "memberToRemove",
          "type": "address"
        }
      ],
      "name": "removeMember",
      "outputs": [],
      "payable": false,
      "stateMutability": "nonpayable",
      "type": "function"
    },
    {
      "constant": false,
      "inputs": [
        {
          "name": "roleId",
          "type": "uint256"
        },
        {
          "name": "newMember",
          "type": "address"
        }
      ],
      "name": "addMember",
      "outputs": [],
      "payable": false,
      "stateMutability": "nonpayable",
      "type": "function"
    },
    {
      "constant": true,
      "inputs": [
        {
          "name": "roleId",
          "type": "uint256"
        },
        {
          "name": "memberToCheck",
          "type": "address"
        }
      ],
      "name": "holdsRole",
      "outputs": [
        {
          "name": "",
          "type": "bool"
        }
      ],
      "payable": false,
      "stateMutability": "view",
      "type": "function"
    },
    {
      "constant": true,
      "inputs": [
        {
          "name": "roleId",
          "type": "uint256"
        }
      ],
      "name": "getMember",
      "outputs": [
        {
          "name": "",
          "type": "address"
        }
      ],
      "payable": false,
      "stateMutability": "view",
      "type": "function"
    },
    {
      "constant": false,
      "inputs": [
        {
          "name": "erc20Address",
          "type": "address"
        },
        {
          "name": "amount",
          "type": "uint256"
        }
      ],
      "name": "withdrawErc20",
      "outputs": [],
      "payable": false,
      "stateMutability": "nonpayable",
      "type": "function"
    },
    {
      "constant": false,
      "inputs": [
        {
          "name": "roleId",
          "type": "uint256"
        },
        {
          "name": "newMember",
          "type": "address"
        }
      ],
      "name": "resetMember",
      "outputs": [],
      "payable": false,
      "stateMutability": "nonpayable",
      "type": "function"
    },
    {
      "inputs": [
        {
          "name": "_leverageMultiplier",
          "type": "int256"
        }
      ],
      "payable": false,
      "stateMutability": "nonpayable",
      "type": "constructor"
    },
    {
      "constant": true,
      "inputs": [
        {
          "name": "oldPrice",
          "type": "int256"
        },
        {
          "name": "newPrice",
          "type": "int256"
        }
      ],
      "name": "computeReturn",
      "outputs": [
        {
          "name": "assetReturn",
          "type": "int256"
        }
      ],
      "payable": false,
      "stateMutability": "view",
      "type": "function"
    },
    {
      "constant": true,
      "inputs": [],
      "name": "leverage",
      "outputs": [
        {
          "name": "_leverage",
          "type": "int256"
        }
      ],
      "payable": false,
      "stateMutability": "view",
      "type": "function"
    }
  ],
  "bytecode": "0x60806040523480156200001157600080fd5b506040516020806200160a833981018060405260208110156200003357600080fd5b810190808051906020019092919050505060008114156200005357600080fd5b8060028190555062000087600060018111156200006c57fe5b600060018111156200007a57fe5b33620000ba60201b60201c565b620000b36001808111156200009857fe5b60006001811115620000a657fe5b336200026c60201b60201c565b5062000370565b8260006002811115620000c957fe5b60008083815260200190815260200160002060010160009054906101000a900460ff166002811115620000f857fe5b146200016c576040517f08c379a000000000000000000000000000000000000000000000000000000000815260040180806020018281038252601e8152602001807f43616e6e6f74207573652061207072652d6578697374696e6720726f6c65000081525060200191505060405180910390fd5b6000806000868152602001908152602001600020905060018160010160006101000a81548160ff02191690836002811115620001a457fe5b0217905550838160000181905550620001cf83826002016200028b60201b620010c11790919060201c565b60006002811115620001dd57fe5b60008086815260200190815260200160002060010160009054906101000a900460ff1660028111156200020c57fe5b141562000265576040517f08c379a000000000000000000000000000000000000000000000000000000000815260040180806020018281038252603c815260200180620015ab603c913960400191505060405180910390fd5b5050505050565b8260018190555062000286838383620000ba60201b60201c565b505050565b6200029d8282620002a160201b60201c565b5050565b600073ffffffffffffffffffffffffffffffffffffffff168173ffffffffffffffffffffffffffffffffffffffff16141562000329576040517f08c379a0000000000000000000000000000000000000000000000000000000008152600401808060200182810382526023815260200180620015e76023913960400191505060405180910390fd5b808260000160006101000a81548173ffffffffffffffffffffffffffffffffffffffff021916908373ffffffffffffffffffffffffffffffffffffffff1602179055505050565b61122b80620003806000396000f3fe608060405234801561001057600080fd5b50600436106100935760003560e01c806374d0a6761161006657806374d0a6761461017e5780637cdc1cb9146101cc578063ab3545e514610232578063bd1f4b52146102a0578063d97c05be146102ee57610093565b80632c86d98e146100985780632e1a7d4d146100b657806355e59682146100e45780636be7658b14610130575b600080fd5b6100a061033c565b6040518082815260200191505060405180910390f35b6100e2600480360360208110156100cc57600080fd5b8101908080359060200190929190505050610346565b005b61011a600480360360408110156100fa57600080fd5b8101908080359060200190929190803590602001909291905050506103f3565b6040518082815260200191505060405180910390f35b61017c6004803603604081101561014657600080fd5b8101908080359060200190929190803573ffffffffffffffffffffffffffffffffffffffff1690602001909291905050506104af565b005b6101ca6004803603604081101561019457600080fd5b8101908080359060200190929190803573ffffffffffffffffffffffffffffffffffffffff1690602001909291905050506105e2565b005b610218600480360360408110156101e257600080fd5b8101908080359060200190929190803573ffffffffffffffffffffffffffffffffffffffff169060200190929190505050610715565b604051808215151515815260200191505060405180910390f35b61025e6004803603602081101561024857600080fd5b8101908080359060200190929190505050610843565b604051808273ffffffffffffffffffffffffffffffffffffffff1673ffffffffffffffffffffffffffffffffffffffff16815260200191505060405180910390f35b6102ec600480360360408110156102b657600080fd5b81019080803573ffffffffffffffffffffffffffffffffffffffff169060200190929190803590602001909291905050506108fc565b005b61033a6004803603604081101561030457600080fd5b8101908080359060200190929190803573ffffffffffffffffffffffffffffffffffffffff169060200190929190505050610a34565b005b6000600254905090565b6001546103538133610715565b6103a8576040517f08c379a000000000000000000000000000000000000000000000000000000000815260040180806020018281038252602281526020018061114c6022913960400191505060405180910390fd5b3373ffffffffffffffffffffffffffffffffffffffff166108fc839081150290604051600060405180830381858888f193505050501580156103ee573d6000803e3d6000fd5b505050565b60008083141561040657600090506104a9565b600061043584610427670de0b6b3a764000086610b6890919063ffffffff16565b610c9290919063ffffffff16565b9050610466600254610458670de0b6b3a764000084610dc690919063ffffffff16565b610b6890919063ffffffff16565b915060008412156104a7576104a47fffffffffffffffffffffffffffffffffffffffffffffffffffffffffffffffff83610b6890919063ffffffff16565b91505b505b92915050565b816002808111156104bc57fe5b60008083815260200190815260200160002060010160009054906101000a900460ff1660028111156104ea57fe5b14610540576040517f08c379a000000000000000000000000000000000000000000000000000000000815260040180806020018281038252602c8152602001806110ff602c913960400191505060405180910390fd5b826105606000808381526020019081526020016000206000015433610715565b6105b5576040517f08c379a00000000000000000000000000000000000000000000000000000000081526004018080602001828103825260248152602001806111b86024913960400191505060405180910390fd5b6105dc83600080878152602001908152602001600020600301610e5490919063ffffffff16565b50505050565b816002808111156105ef57fe5b60008083815260200190815260200160002060010160009054906101000a900460ff16600281111561061d57fe5b14610673576040517f08c379a000000000000000000000000000000000000000000000000000000000815260040180806020018281038252602c8152602001806110ff602c913960400191505060405180910390fd5b826106936000808381526020019081526020016000206000015433610715565b6106e8576040517f08c379a00000000000000000000000000000000000000000000000000000000081526004018080602001828103825260248152602001806111b86024913960400191505060405180910390fd5b61070f83600080878152602001908152602001600020600301610eb290919063ffffffff16565b50505050565b60008060008085815260200190815260200160002090506001600281111561073957fe5b8160010160009054906101000a900460ff16600281111561075657fe5b141561077a576107728382600201610f1090919063ffffffff16565b91505061083d565b60028081111561078657fe5b8160010160009054906101000a900460ff1660028111156107a357fe5b14156107c7576107bf8382600301610f6d90919063ffffffff16565b91505061083d565b600061083b576040517f08c379a000000000000000000000000000000000000000000000000000000000815260040180806020018281038252600e8152602001807f496e76616c696420726f6c65496400000000000000000000000000000000000081525060200191505060405180910390fd5b505b92915050565b6000816001600281111561085357fe5b60008083815260200190815260200160002060010160009054906101000a900460ff16600281111561088157fe5b146108d7576040517f08c379a000000000000000000000000000000000000000000000000000000000815260040180806020018281038252602f8152602001806110d0602f913960400191505060405180910390fd5b6108f4600080858152602001908152602001600020600201610fc6565b915050919050565b6001546109098133610715565b61095e576040517f08c379a000000000000000000000000000000000000000000000000000000000815260040180806020018281038252602281526020018061114c6022913960400191505060405180910390fd5b60008390508073ffffffffffffffffffffffffffffffffffffffff1663a9059cbb33856040518363ffffffff1660e01b8152600401808373ffffffffffffffffffffffffffffffffffffffff1673ffffffffffffffffffffffffffffffffffffffff16815260200182815260200192505050602060405180830381600087803b1580156109ea57600080fd5b505af11580156109fe573d6000803e3d6000fd5b505050506040513d6020811015610a1457600080fd5b8101908080519060200190929190505050610a2e57600080fd5b50505050565b8160016002811115610a4257fe5b60008083815260200190815260200160002060010160009054906101000a900460ff166002811115610a7057fe5b14610ac6576040517f08c379a000000000000000000000000000000000000000000000000000000000815260040180806020018281038252602f8152602001806110d0602f913960400191505060405180910390fd5b82610ae66000808381526020019081526020016000206000015433610715565b610b3b576040517f08c379a00000000000000000000000000000000000000000000000000000000081526004018080602001828103825260248152602001806111b86024913960400191505060405180910390fd5b610b6283600080878152602001908152602001600020600201610ff490919063ffffffff16565b50505050565b600080831415610b7b5760009050610c8c565b7fffffffffffffffffffffffffffffffffffffffffffffffffffffffffffffffff83148015610bc957507f800000000000000000000000000000000000000000000000000000000000000082145b15610c1f576040517f08c379a000000000000000000000000000000000000000000000000000000000815260040180806020018281038252602781526020018061116e6027913960400191505060405180910390fd5b6000828402905082848281610c3057fe5b0514610c87576040517f08c379a000000000000000000000000000000000000000000000000000000000815260040180806020018281038252602781526020018061116e6027913960400191505060405180910390fd5b809150505b92915050565b600080821415610d0a576040517f08c379a00000000000000000000000000000000000000000000000000000000081526004018080602001828103825260208152602001807f5369676e6564536166654d6174683a206469766973696f6e206279207a65726f81525060200191505060405180910390fd5b7fffffffffffffffffffffffffffffffffffffffffffffffffffffffffffffffff82148015610d5857507f800000000000000000000000000000000000000000000000000000000000000083145b15610dae576040517f08c379a000000000000000000000000000000000000000000000000000000000815260040180806020018281038252602181526020018061112b6021913960400191505060405180910390fd5b6000828481610db957fe5b0590508091505092915050565b600080828403905060008312158015610ddf5750838113155b80610df55750600083128015610df457508381135b5b610e4a576040517f08c379a00000000000000000000000000000000000000000000000000000000081526004018080602001828103825260248152602001806111dc6024913960400191505060405180910390fd5b8091505092915050565b60008260000160008373ffffffffffffffffffffffffffffffffffffffff1673ffffffffffffffffffffffffffffffffffffffff16815260200190815260200160002060006101000a81548160ff0219169083151502179055505050565b60018260000160008373ffffffffffffffffffffffffffffffffffffffff1673ffffffffffffffffffffffffffffffffffffffff16815260200190815260200160002060006101000a81548160ff0219169083151502179055505050565b60008173ffffffffffffffffffffffffffffffffffffffff168360000160009054906101000a900473ffffffffffffffffffffffffffffffffffffffff1673ffffffffffffffffffffffffffffffffffffffff1614905092915050565b60008260000160008373ffffffffffffffffffffffffffffffffffffffff1673ffffffffffffffffffffffffffffffffffffffff16815260200190815260200160002060009054906101000a900460ff16905092915050565b60008160000160009054906101000a900473ffffffffffffffffffffffffffffffffffffffff169050919050565b600073ffffffffffffffffffffffffffffffffffffffff168173ffffffffffffffffffffffffffffffffffffffff16141561107a576040517f08c379a00000000000000000000000000000000000000000000000000000000081526004018080602001828103825260238152602001806111956023913960400191505060405180910390fd5b808260000160006101000a81548173ffffffffffffffffffffffffffffffffffffffff021916908373ffffffffffffffffffffffffffffffffffffffff1602179055505050565b6110cb8282610ff4565b505056fe4d7573742062652063616c6c6564206f6e20616e20696e697469616c697a6564204578636c757369766520726f6c654d7573742062652063616c6c6564206f6e20616e20696e697469616c697a65642053686172656420726f6c655369676e6564536166654d6174683a206469766973696f6e206f766572666c6f7753656e64657220646f6573206e6f7420686f6c6420726571756972656420726f6c655369676e6564536166654d6174683a206d756c7469706c69636174696f6e206f766572666c6f7743616e6e6f742073657420616e206578636c757369766520726f6c6520746f2030783043616e206f6e6c792062652063616c6c6564206279206120726f6c65206d616e616765725369676e6564536166654d6174683a207375627472616374696f6e206f766572666c6f77a165627a7a723058208d3b2421a9f2d496faf0915f455510031d39dfa8b558975ec47e8975b31ed21d0029417474656d7074656420746f2075736520616e20696e76616c696420726f6c6520746f206d616e61676520616e206578636c757369766520726f6c6543616e6e6f742073657420616e206578636c757369766520726f6c6520746f20307830",
  "source": "pragma solidity ^0.5.0;\n\nimport \"./ReturnCalculatorInterface.sol\";\nimport \"./Withdrawable.sol\";\nimport \"openzeppelin-solidity/contracts/drafts/SignedSafeMath.sol\";\n\n\n/**\n * @title Computes return values based on a fixed leverage.\n */\ncontract LeveragedReturnCalculator is ReturnCalculatorInterface, Withdrawable {\n    using SignedSafeMath for int;\n\n    // Leverage value. Negative values return the leveraged short return.\n    // Examples:\n    // 1 -> unlevered long\n    // 2 -> 2x levered long\n    // -1 -> unlevered short\n    // -2 -> 2x levered short\n    int internal leverageMultiplier;\n    int private constant FP_SCALING_FACTOR = 10**18;\n\n    enum Roles {\n        Governance,\n        Withdraw\n    }\n\n    constructor(int _leverageMultiplier) public {\n        require(_leverageMultiplier != 0);\n        leverageMultiplier = _leverageMultiplier;\n        _createExclusiveRole(uint(Roles.Governance), uint(Roles.Governance), msg.sender);\n        createWithdrawRole(uint(Roles.Withdraw), uint(Roles.Governance), msg.sender);\n    }\n\n    function computeReturn(int oldPrice, int newPrice) external view returns (int assetReturn) {\n        if (oldPrice == 0) {\n            // To avoid a divide-by-zero, just return 0 instead of hitting an exception.\n            return 0;\n        }\n\n        // Compute the underlying asset return: +1% would be 1.01 (* 1 ether).\n        int underlyingAssetReturn = newPrice.mul(FP_SCALING_FACTOR).div(oldPrice);\n\n        // Compute the RoR of the underlying asset and multiply by leverageMultiplier to get the modified return.\n        assetReturn = underlyingAssetReturn.sub(FP_SCALING_FACTOR).mul(leverageMultiplier);\n\n\n        // If oldPrice is < 0, we need to flip the sign to keep returns positively correlated with\n        // leverageMultiplier * price diffs.\n        if (oldPrice < 0) {\n            assetReturn = assetReturn.mul(-1);\n        }\n    }\n\n    function leverage() external view returns (int _leverage) {\n        return leverageMultiplier;\n    }\n}\n",
  "sourcePath": "/Users/kendrick/Development/Ethereum/defi-dy/contracts/uma/core/contracts/LeveragedReturnCalculator.sol",
  "compiler": {
    "name": "solc",
    "version": "0.5.8+commit.23d335f2.Emscripten.clang"
  },
  "schemaVersion": "3.0.10",
  "updatedAt": "2019-11-09T21:44:32.205Z",
  "devdoc": {
    "methods": {
      "addMember(uint256,address)": {
        "details": "Reverts if `roleId` does not represent an initialized, shared role or if the caller is not a member of the managing role for `roleId`."
      },
      "getMember(uint256)": {
        "details": "Reverts if `roleId` does not represent an initialized, exclusive role."
      },
      "holdsRole(uint256,address)": {
        "details": "Reverts if roleId does not correspond to an initialized role."
      },
      "removeMember(uint256,address)": {
        "details": "Reverts if `roleId` does not represent an initialized, shared role or if the caller is not a member of the managing role for `roleId`."
      },
      "resetMember(uint256,address)": {
        "details": "Reverts if the caller is not a member of the managing role for `roleId` or if `roleId` is not an initialized, exclusive role."
      }
    },
    "title": "Computes return values based on a fixed leverage."
  },
  "userdoc": {
    "methods": {
      "addMember(uint256,address)": {
        "notice": "Adds `newMember` to the shared role, `roleId`."
      },
      "getMember(uint256)": {
        "notice": "Gets the current holder of the exclusive role, `roleId`."
      },
      "holdsRole(uint256,address)": {
        "notice": "Whether `memberToCheck` is a member of roleId."
      },
      "removeMember(uint256,address)": {
        "notice": "Removes `memberToRemove` from the shared role, `roleId`."
      },
      "resetMember(uint256,address)": {
        "notice": "Changes the exclusive role holder of `roleId` to `newMember`."
      },
      "withdraw(uint256)": {
        "notice": "Withdraws ETH from the contract."
      },
      "withdrawErc20(address,uint256)": {
        "notice": "Withdraws ERC20 tokens from the contract."
      }
    }
  }
}