{
  "contractName": "ManualPriceFeed",
  "abi": [
    {
      "constant": false,
      "inputs": [
        {
          "name": "_time",
          "type": "uint256"
        }
      ],
      "name": "setCurrentTime",
      "outputs": [],
      "payable": false,
      "stateMutability": "nonpayable",
      "type": "function"
    },
    {
      "constant": true,
      "inputs": [],
      "name": "getCurrentTime",
      "outputs": [
        {
          "name": "",
          "type": "uint256"
        }
      ],
      "payable": false,
      "stateMutability": "view",
      "type": "function"
    },
    {
      "constant": false,
      "inputs": [
        {
          "name": "amount",
          "type": "uint256"
        }
      ],
      "name": "withdraw",
      "outputs": [],
      "payable": false,
      "stateMutability": "nonpayable",
      "type": "function"
    },
    {
      "constant": false,
      "inputs": [
        {
          "name": "roleId",
          "type": "uint256"
        },
        {
          "name": "memberToRemove",
          "type": "address"
        }
      ],
      "name": "removeMember",
      "outputs": [],
      "payable": false,
      "stateMutability": "nonpayable",
      "type": "function"
    },
    {
      "constant": false,
      "inputs": [
        {
          "name": "roleId",
          "type": "uint256"
        },
        {
          "name": "newMember",
          "type": "address"
        }
      ],
      "name": "addMember",
      "outputs": [],
      "payable": false,
      "stateMutability": "nonpayable",
      "type": "function"
    },
    {
      "constant": true,
      "inputs": [
        {
          "name": "roleId",
          "type": "uint256"
        },
        {
          "name": "memberToCheck",
          "type": "address"
        }
      ],
      "name": "holdsRole",
      "outputs": [
        {
          "name": "",
          "type": "bool"
        }
      ],
      "payable": false,
      "stateMutability": "view",
      "type": "function"
    },
    {
      "constant": true,
      "inputs": [],
      "name": "isTest",
      "outputs": [
        {
          "name": "",
          "type": "bool"
        }
      ],
      "payable": false,
      "stateMutability": "view",
      "type": "function"
    },
    {
      "constant": true,
      "inputs": [
        {
          "name": "roleId",
          "type": "uint256"
        }
      ],
      "name": "getMember",
      "outputs": [
        {
          "name": "",
          "type": "address"
        }
      ],
      "payable": false,
      "stateMutability": "view",
      "type": "function"
    },
    {
      "constant": false,
      "inputs": [
        {
          "name": "erc20Address",
          "type": "address"
        },
        {
          "name": "amount",
          "type": "uint256"
        }
      ],
      "name": "withdrawErc20",
      "outputs": [],
      "payable": false,
      "stateMutability": "nonpayable",
      "type": "function"
    },
    {
      "constant": false,
      "inputs": [
        {
          "name": "roleId",
          "type": "uint256"
        },
        {
          "name": "newMember",
          "type": "address"
        }
      ],
      "name": "resetMember",
      "outputs": [],
      "payable": false,
      "stateMutability": "nonpayable",
      "type": "function"
    },
    {
      "inputs": [
        {
          "name": "_isTest",
          "type": "bool"
        }
      ],
      "payable": false,
      "stateMutability": "nonpayable",
      "type": "constructor"
    },
    {
      "anonymous": false,
      "inputs": [
        {
          "indexed": true,
          "name": "identifier",
          "type": "bytes32"
        },
        {
          "indexed": true,
          "name": "time",
          "type": "uint256"
        },
        {
          "indexed": false,
          "name": "price",
          "type": "int256"
        }
      ],
      "name": "PriceUpdated",
      "type": "event"
    },
    {
      "constant": true,
      "inputs": [
        {
          "name": "identifier",
          "type": "bytes32"
        }
      ],
      "name": "isIdentifierSupported",
      "outputs": [
        {
          "name": "isSupported",
          "type": "bool"
        }
      ],
      "payable": false,
      "stateMutability": "view",
      "type": "function"
    },
    {
      "constant": true,
      "inputs": [
        {
          "name": "identifier",
          "type": "bytes32"
        }
      ],
      "name": "latestPrice",
      "outputs": [
        {
          "name": "publishTime",
          "type": "uint256"
        },
        {
          "name": "price",
          "type": "int256"
        }
      ],
      "payable": false,
      "stateMutability": "view",
      "type": "function"
    }
  ],
  "bytecode": "0x60806040523480156200001157600080fd5b5060405160208062001426833981018060405260208110156200003357600080fd5b81019080805190602001909291905050508080600260006101000a81548160ff02191690831515021790555080156200006e57426003819055505b506200009c600060028111156200008157fe5b600060028111156200008f57fe5b33620000fc60201b60201c565b620000c960016002811115620000ae57fe5b60006002811115620000bc57fe5b33620000fc60201b60201c565b620000f5600280811115620000da57fe5b60006002811115620000e857fe5b33620002ae60201b60201c565b50620003b2565b82600060028111156200010b57fe5b60008083815260200190815260200160002060010160009054906101000a900460ff1660028111156200013a57fe5b14620001ae576040517f08c379a000000000000000000000000000000000000000000000000000000000815260040180806020018281038252601e8152602001807f43616e6e6f74207573652061207072652d6578697374696e6720726f6c65000081525060200191505060405180910390fd5b6000806000868152602001908152602001600020905060018160010160006101000a81548160ff02191690836002811115620001e657fe5b0217905550838160000181905550620002118382600201620002cd60201b62000f071790919060201c565b600060028111156200021f57fe5b60008086815260200190815260200160002060010160009054906101000a900460ff1660028111156200024e57fe5b1415620002a7576040517f08c379a000000000000000000000000000000000000000000000000000000000815260040180806020018281038252603c815260200180620013c7603c913960400191505060405180910390fd5b5050505050565b82600181905550620002c8838383620000fc60201b60201c565b505050565b620002df8282620002e360201b60201c565b5050565b600073ffffffffffffffffffffffffffffffffffffffff168173ffffffffffffffffffffffffffffffffffffffff1614156200036b576040517f08c379a0000000000000000000000000000000000000000000000000000000008152600401808060200182810382526023815260200180620014036023913960400191505060405180910390fd5b808260000160006101000a81548173ffffffffffffffffffffffffffffffffffffffff021916908373ffffffffffffffffffffffffffffffffffffffff1602179055505050565b61100580620003c26000396000f3fe608060405234801561001057600080fd5b50600436106100b45760003560e01c80637cdc1cb9116100715780637cdc1cb91461021857806390978d1b1461027e5780639381a345146102c4578063ab3545e5146102e6578063bd1f4b5214610354578063d97c05be146103a2576100b4565b806322f8e566146100b957806329cb924d146100e75780632e1a7d4d146101055780634eec7c2b146101335780636be7658b1461017c57806374d0a676146101ca575b600080fd5b6100e5600480360360208110156100cf57600080fd5b81019080803590602001909291905050506103f0565b005b6100ef610413565b6040518082815260200191505060405180910390f35b6101316004803603602081101561011b57600080fd5b810190808035906020019092919050505061043b565b005b61015f6004803603602081101561014957600080fd5b81019080803590602001909291905050506104e8565b604051808381526020018281526020019250505060405180910390f35b6101c86004803603604081101561019257600080fd5b8101908080359060200190929190803573ffffffffffffffffffffffffffffffffffffffff1690602001909291905050506105a9565b005b610216600480360360408110156101e057600080fd5b8101908080359060200190929190803573ffffffffffffffffffffffffffffffffffffffff1690602001909291905050506106dc565b005b6102646004803603604081101561022e57600080fd5b8101908080359060200190929190803573ffffffffffffffffffffffffffffffffffffffff16906020019092919050505061080f565b604051808215151515815260200191505060405180910390f35b6102aa6004803603602081101561029457600080fd5b810190808035906020019092919050505061093d565b604051808215151515815260200191505060405180910390f35b6102cc61094f565b604051808215151515815260200191505060405180910390f35b610312600480360360208110156102fc57600080fd5b8101908080359060200190929190505050610962565b604051808273ffffffffffffffffffffffffffffffffffffffff1673ffffffffffffffffffffffffffffffffffffffff16815260200191505060405180910390f35b6103a06004803603604081101561036a57600080fd5b81019080803573ffffffffffffffffffffffffffffffffffffffff16906020019092919080359060200190929190505050610a1b565b005b6103ee600480360360408110156103b857600080fd5b8101908080359060200190929190803573ffffffffffffffffffffffffffffffffffffffff169060200190929190505050610b53565b005b600260009054906101000a900460ff1661040957600080fd5b8060038190555050565b6000600260009054906101000a900460ff1615610434576003549050610438565b4290505b90565b600154610448813361080f565b61049d576040517f08c379a0000000000000000000000000000000000000000000000000000000008152600401808060200182810382526022815260200180610f716022913960400191505060405180910390fd5b3373ffffffffffffffffffffffffffffffffffffffff166108fc839081150290604051600060405180830381858888f193505050501580156104e3573d6000803e3d6000fd5b505050565b6000806104f483610c87565b6104fd57600080fd5b610505610413565b91506000738ec03a8990b9aa278c8fc3b5bbf765c4bd1b84a990508073ffffffffffffffffffffffffffffffffffffffff16634faf47916040518163ffffffff1660e01b815260040160206040518083038186803b15801561056657600080fd5b505afa15801561057a573d6000803e3d6000fd5b505050506040513d602081101561059057600080fd5b8101908080519060200190929190505050915050915091565b816002808111156105b657fe5b60008083815260200190815260200160002060010160009054906101000a900460ff1660028111156105e457fe5b1461063a576040517f08c379a000000000000000000000000000000000000000000000000000000000815260040180806020018281038252602c815260200180610f45602c913960400191505060405180910390fd5b8261065a600080838152602001908152602001600020600001543361080f565b6106af576040517f08c379a0000000000000000000000000000000000000000000000000000000008152600401808060200182810382526024815260200180610fb66024913960400191505060405180910390fd5b6106d683600080878152602001908152602001600020600301610c9a90919063ffffffff16565b50505050565b816002808111156106e957fe5b60008083815260200190815260200160002060010160009054906101000a900460ff16600281111561071757fe5b1461076d576040517f08c379a000000000000000000000000000000000000000000000000000000000815260040180806020018281038252602c815260200180610f45602c913960400191505060405180910390fd5b8261078d600080838152602001908152602001600020600001543361080f565b6107e2576040517f08c379a0000000000000000000000000000000000000000000000000000000008152600401808060200182810382526024815260200180610fb66024913960400191505060405180910390fd5b61080983600080878152602001908152602001600020600301610cf890919063ffffffff16565b50505050565b60008060008085815260200190815260200160002090506001600281111561083357fe5b8160010160009054906101000a900460ff16600281111561085057fe5b14156108745761086c8382600201610d5690919063ffffffff16565b915050610937565b60028081111561088057fe5b8160010160009054906101000a900460ff16600281111561089d57fe5b14156108c1576108b98382600301610db390919063ffffffff16565b915050610937565b6000610935576040517f08c379a000000000000000000000000000000000000000000000000000000000815260040180806020018281038252600e8152602001807f496e76616c696420726f6c65496400000000000000000000000000000000000081525060200191505060405180910390fd5b505b92915050565b600061094882610c87565b9050919050565b600260009054906101000a900460ff1681565b6000816001600281111561097257fe5b60008083815260200190815260200160002060010160009054906101000a900460ff1660028111156109a057fe5b146109f6576040517f08c379a000000000000000000000000000000000000000000000000000000000815260040180806020018281038252602f815260200180610f16602f913960400191505060405180910390fd5b610a13600080858152602001908152602001600020600201610e0c565b915050919050565b600154610a28813361080f565b610a7d576040517f08c379a0000000000000000000000000000000000000000000000000000000008152600401808060200182810382526022815260200180610f716022913960400191505060405180910390fd5b60008390508073ffffffffffffffffffffffffffffffffffffffff1663a9059cbb33856040518363ffffffff1660e01b8152600401808373ffffffffffffffffffffffffffffffffffffffff1673ffffffffffffffffffffffffffffffffffffffff16815260200182815260200192505050602060405180830381600087803b158015610b0957600080fd5b505af1158015610b1d573d6000803e3d6000fd5b505050506040513d6020811015610b3357600080fd5b8101908080519060200190929190505050610b4d57600080fd5b50505050565b8160016002811115610b6157fe5b60008083815260200190815260200160002060010160009054906101000a900460ff166002811115610b8f57fe5b14610be5576040517f08c379a000000000000000000000000000000000000000000000000000000000815260040180806020018281038252602f815260200180610f16602f913960400191505060405180910390fd5b82610c05600080838152602001908152602001600020600001543361080f565b610c5a576040517f08c379a0000000000000000000000000000000000000000000000000000000008152600401808060200182810382526024815260200180610fb66024913960400191505060405180910390fd5b610c8183600080878152602001908152602001600020600201610e3a90919063ffffffff16565b50505050565b600080610c92610413565b119050919050565b60008260000160008373ffffffffffffffffffffffffffffffffffffffff1673ffffffffffffffffffffffffffffffffffffffff16815260200190815260200160002060006101000a81548160ff0219169083151502179055505050565b60018260000160008373ffffffffffffffffffffffffffffffffffffffff1673ffffffffffffffffffffffffffffffffffffffff16815260200190815260200160002060006101000a81548160ff0219169083151502179055505050565b60008173ffffffffffffffffffffffffffffffffffffffff168360000160009054906101000a900473ffffffffffffffffffffffffffffffffffffffff1673ffffffffffffffffffffffffffffffffffffffff1614905092915050565b60008260000160008373ffffffffffffffffffffffffffffffffffffffff1673ffffffffffffffffffffffffffffffffffffffff16815260200190815260200160002060009054906101000a900460ff16905092915050565b60008160000160009054906101000a900473ffffffffffffffffffffffffffffffffffffffff169050919050565b600073ffffffffffffffffffffffffffffffffffffffff168173ffffffffffffffffffffffffffffffffffffffff161415610ec0576040517f08c379a0000000000000000000000000000000000000000000000000000000008152600401808060200182810382526023815260200180610f936023913960400191505060405180910390fd5b808260000160006101000a81548173ffffffffffffffffffffffffffffffffffffffff021916908373ffffffffffffffffffffffffffffffffffffffff1602179055505050565b610f118282610e3a565b505056fe4d7573742062652063616c6c6564206f6e20616e20696e697469616c697a6564204578636c757369766520726f6c654d7573742062652063616c6c6564206f6e20616e20696e697469616c697a65642053686172656420726f6c6553656e64657220646f6573206e6f7420686f6c6420726571756972656420726f6c6543616e6e6f742073657420616e206578636c757369766520726f6c6520746f2030783043616e206f6e6c792062652063616c6c6564206279206120726f6c65206d616e61676572a165627a7a723058209db08e94f9f4c5527eda9e8ef17b2b65cb2a08e8b34d01bdac44926ba29f15150029417474656d7074656420746f2075736520616e20696e76616c696420726f6c6520746f206d616e61676520616e206578636c757369766520726f6c6543616e6e6f742073657420616e206578636c757369766520726f6c6520746f20307830",
  "source": "pragma solidity ^0.5.0;\n\nimport \"openzeppelin-solidity/contracts/math/SafeMath.sol\";\nimport \"openzeppelin-solidity/contracts/ownership/Ownable.sol\";\nimport \"./PriceFeedInterface.sol\";\nimport \"./Testable.sol\";\nimport \"./Withdrawable.sol\";\n\ninterface DefiDyMaths {\n  function exchangeVal() external view returns (int);\n}\n\n/**\n * @title Implementation of PriceFeedInterface with the ability to manually push prices.\n */\ncontract ManualPriceFeed is PriceFeedInterface, Withdrawable, Testable {\n\n    using SafeMath for uint;\n\n    // A single price update.\n    struct PriceTick {\n        uint timestamp;\n        int price;\n    }\n\n    // Ethereum timestamp tolerance.\n    // Note: this is technically the amount of time that a block timestamp can be *ahead* of the current time. However,\n    // we are assuming that blocks will never get more than this amount *behind* the current time. The only requirement\n    // limiting how early the timestamp can be is that it must have a later timestamp than its parent. However,\n    // this bound will probably work reasonably well in both directions.\n    uint constant private BLOCK_TIMESTAMP_TOLERANCE = 900;\n\n    enum Roles {\n        Governance,\n        Writer,\n        Withdraw\n    }\n\n    constructor(bool _isTest) public Testable(_isTest) {\n        _createExclusiveRole(uint(Roles.Governance), uint(Roles.Governance), msg.sender);\n        _createExclusiveRole(uint(Roles.Writer), uint(Roles.Governance), msg.sender);\n        createWithdrawRole(uint(Roles.Withdraw), uint(Roles.Governance), msg.sender);\n    }\n\n    /**\n     * @notice Whether this feed has ever published any prices for this identifier.\n     */\n    function isIdentifierSupported(bytes32 identifier) external view returns (bool isSupported) {\n        isSupported = _isIdentifierSupported(identifier);\n    }\n\n    function latestPrice(bytes32 identifier) external view returns (uint publishTime, int price) {\n        require(_isIdentifierSupported(identifier));\n        // CDai borrowRatePerBlock\n        publishTime = getCurrentTime(); // prices[identifier].timestamp;\n        DefiDyMaths defidy = DefiDyMaths(0x8eC03A8990b9aA278c8fC3b5bBF765C4bd1B84a9);\n        price = defidy.exchangeVal();\n    }\n\n    function _isIdentifierSupported(bytes32 identifier) private view returns (bool isSupported) {\n        isSupported = getCurrentTime() > 0;\n    }\n}\n",
  "sourcePath": "/Users/kendrick/Development/Ethereum/defi-dy/contracts/uma/core/contracts/ManualPriceFeed.sol",
  "compiler": {
    "name": "solc",
    "version": "0.5.8+commit.23d335f2.Emscripten.clang"
  },
  "schemaVersion": "3.0.10",
  "updatedAt": "2019-11-09T21:37:05.972Z",
  "devdoc": {
    "methods": {
      "addMember(uint256,address)": {
        "details": "Reverts if `roleId` does not represent an initialized, shared role or if the caller is not a member of the managing role for `roleId`."
      },
      "getMember(uint256)": {
        "details": "Reverts if `roleId` does not represent an initialized, exclusive role."
      },
      "holdsRole(uint256,address)": {
        "details": "Reverts if roleId does not correspond to an initialized role."
      },
      "removeMember(uint256,address)": {
        "details": "Reverts if `roleId` does not represent an initialized, shared role or if the caller is not a member of the managing role for `roleId`."
      },
      "resetMember(uint256,address)": {
        "details": "Reverts if the caller is not a member of the managing role for `roleId` or if `roleId` is not an initialized, exclusive role."
      },
      "setCurrentTime(uint256)": {
        "details": "Will revert if not running in test mode."
      }
    },
    "title": "Implementation of PriceFeedInterface with the ability to manually push prices."
  },
  "userdoc": {
    "methods": {
      "addMember(uint256,address)": {
        "notice": "Adds `newMember` to the shared role, `roleId`."
      },
      "getCurrentTime()": {
        "notice": "Gets the current time. Will return the last time set in `setCurrentTime` if running in test mode. Otherwise, it will return the block timestamp."
      },
      "getMember(uint256)": {
        "notice": "Gets the current holder of the exclusive role, `roleId`."
      },
      "holdsRole(uint256,address)": {
        "notice": "Whether `memberToCheck` is a member of roleId."
      },
      "isIdentifierSupported(bytes32)": {
        "notice": "Whether this feed has ever published any prices for this identifier."
      },
      "removeMember(uint256,address)": {
        "notice": "Removes `memberToRemove` from the shared role, `roleId`."
      },
      "resetMember(uint256,address)": {
        "notice": "Changes the exclusive role holder of `roleId` to `newMember`."
      },
      "setCurrentTime(uint256)": {
        "notice": "Sets the current time."
      },
      "withdraw(uint256)": {
        "notice": "Withdraws ETH from the contract."
      },
      "withdrawErc20(address,uint256)": {
        "notice": "Withdraws ERC20 tokens from the contract."
      }
    }
  }
}