{
  "contractName": "MockAdministratee",
  "abi": [
    {
      "constant": true,
      "inputs": [],
      "name": "timesEmergencyShutdown",
      "outputs": [
        {
          "name": "",
          "type": "uint256"
        }
      ],
      "payable": false,
      "stateMutability": "view",
      "type": "function"
    },
    {
      "constant": true,
      "inputs": [],
      "name": "timesRemargined",
      "outputs": [
        {
          "name": "",
          "type": "uint256"
        }
      ],
      "payable": false,
      "stateMutability": "view",
      "type": "function"
    },
    {
      "constant": false,
      "inputs": [],
      "name": "remargin",
      "outputs": [],
      "payable": false,
      "stateMutability": "nonpayable",
      "type": "function"
    },
    {
      "constant": false,
      "inputs": [],
      "name": "emergencyShutdown",
      "outputs": [],
      "payable": false,
      "stateMutability": "nonpayable",
      "type": "function"
    }
  ],
  "bytecode": "0x608060405234801561001057600080fd5b5060f28061001f6000396000f3fe6080604052348015600f57600080fd5b506004361060465760003560e01c80633403c2fc14604b5780635d21f153146053578063bda02e7714606f578063bea002bc146077575b600080fd5b60516093565b005b605960a7565b6040518082815260200191505060405180910390f35b607560ad565b005b607d60c0565b6040518082815260200191505060405180910390f35b600160008154809291906001019190505550565b60015481565b6000808154809291906001019190505550565b6000548156fea165627a7a723058206aff77c008ad5fa552f2b03e29035a1d83c1f033898ca1b818c42b6414cc3f640029",
  "source": "pragma solidity ^0.5.0;\n\nimport \"../AdministrateeInterface.sol\";\n\n\n// A mock implementation of AdministrateeInterface, taking the place of a financial contract.\ncontract MockAdministratee is AdministrateeInterface {\n\n    uint public timesRemargined;\n    uint public timesEmergencyShutdown;\n\n    function remargin() external {\n        timesRemargined++;\n    }\n\n    function emergencyShutdown() external {\n        timesEmergencyShutdown++;\n    }\n}\n",
  "sourcePath": "/Users/kendrick/Development/Ethereum/defi-dy/contracts/uma/core/contracts/test/MockAdministratee.sol",
  "compiler": {
    "name": "solc",
    "version": "0.5.8+commit.23d335f2.Emscripten.clang"
  },
  "schemaVersion": "3.0.10",
  "updatedAt": "2019-11-09T13:45:25.741Z",
  "devdoc": {
    "methods": {}
  },
  "userdoc": {
    "methods": {}
  }
}