{
  "contractName": "MultiRoleTest",
  "abi": [
    {
      "constant": false,
      "inputs": [
        {
          "name": "roleId",
          "type": "uint256"
        },
        {
          "name": "memberToRemove",
          "type": "address"
        }
      ],
      "name": "removeMember",
      "outputs": [],
      "payable": false,
      "stateMutability": "nonpayable",
      "type": "function"
    },
    {
      "constant": false,
      "inputs": [
        {
          "name": "roleId",
          "type": "uint256"
        },
        {
          "name": "newMember",
          "type": "address"
        }
      ],
      "name": "addMember",
      "outputs": [],
      "payable": false,
      "stateMutability": "nonpayable",
      "type": "function"
    },
    {
      "constant": true,
      "inputs": [
        {
          "name": "roleId",
          "type": "uint256"
        },
        {
          "name": "memberToCheck",
          "type": "address"
        }
      ],
      "name": "holdsRole",
      "outputs": [
        {
          "name": "",
          "type": "bool"
        }
      ],
      "payable": false,
      "stateMutability": "view",
      "type": "function"
    },
    {
      "constant": true,
      "inputs": [
        {
          "name": "roleId",
          "type": "uint256"
        }
      ],
      "name": "getMember",
      "outputs": [
        {
          "name": "",
          "type": "address"
        }
      ],
      "payable": false,
      "stateMutability": "view",
      "type": "function"
    },
    {
      "constant": false,
      "inputs": [
        {
          "name": "roleId",
          "type": "uint256"
        },
        {
          "name": "newMember",
          "type": "address"
        }
      ],
      "name": "resetMember",
      "outputs": [],
      "payable": false,
      "stateMutability": "nonpayable",
      "type": "function"
    },
    {
      "constant": false,
      "inputs": [
        {
          "name": "roleId",
          "type": "uint256"
        },
        {
          "name": "managingRoleId",
          "type": "uint256"
        },
        {
          "name": "initialMembers",
          "type": "address[]"
        }
      ],
      "name": "createSharedRole",
      "outputs": [],
      "payable": false,
      "stateMutability": "nonpayable",
      "type": "function"
    },
    {
      "constant": false,
      "inputs": [
        {
          "name": "roleId",
          "type": "uint256"
        },
        {
          "name": "managingRoleId",
          "type": "uint256"
        },
        {
          "name": "initialMember",
          "type": "address"
        }
      ],
      "name": "createExclusiveRole",
      "outputs": [],
      "payable": false,
      "stateMutability": "nonpayable",
      "type": "function"
    },
    {
      "constant": true,
      "inputs": [
        {
          "name": "roleId",
          "type": "uint256"
        }
      ],
      "name": "revertIfNotHoldingRole",
      "outputs": [],
      "payable": false,
      "stateMutability": "view",
      "type": "function"
    }
  ],
  "bytecode": "0x608060405234801561001057600080fd5b50611108806100206000396000f3fe608060405234801561001057600080fd5b50600436106100885760003560e01c80637cdc1cb91161005b5780637cdc1cb9146101e4578063ab3545e51461024a578063d97c05be146102b8578063e2ad8db91461030657610088565b806319fefdf01461008d57806352b34d491461011a5780636be7658b1461014857806374d0a67614610196575b600080fd5b610118600480360360608110156100a357600080fd5b810190808035906020019092919080359060200190929190803590602001906401000000008111156100d457600080fd5b8201836020820111156100e657600080fd5b8035906020019184602083028401116401000000008311171561010857600080fd5b909192939192939050505061035e565b005b6101466004803603602081101561013057600080fd5b81019080803590602001909291905050506103b0565b005b6101946004803603604081101561015e57600080fd5b8101908080359060200190929190803573ffffffffffffffffffffffffffffffffffffffff169060200190929190505050610414565b005b6101e2600480360360408110156101ac57600080fd5b8101908080359060200190929190803573ffffffffffffffffffffffffffffffffffffffff169060200190929190505050610547565b005b610230600480360360408110156101fa57600080fd5b8101908080359060200190929190803573ffffffffffffffffffffffffffffffffffffffff16906020019092919050505061067a565b604051808215151515815260200191505060405180910390f35b6102766004803603602081101561026057600080fd5b81019080803590602001909291905050506107a8565b604051808273ffffffffffffffffffffffffffffffffffffffff1673ffffffffffffffffffffffffffffffffffffffff16815260200191505060405180910390f35b610304600480360360408110156102ce57600080fd5b8101908080359060200190929190803573ffffffffffffffffffffffffffffffffffffffff169060200190929190505050610861565b005b61035c6004803603606081101561031c57600080fd5b810190808035906020019092919080359060200190929190803573ffffffffffffffffffffffffffffffffffffffff169060200190929190505050610995565b005b6103aa8484848480806020026020016040519081016040528093929190818152602001838360200280828437600081840152601f19601f820116905080830192505050505050506109a5565b50505050565b806103bb813361067a565b610410576040517f08c379a00000000000000000000000000000000000000000000000000000000081526004018080602001828103825260228152602001806110006022913960400191505060405180910390fd5b5050565b8160028081111561042157fe5b60008083815260200190815260200160002060010160009054906101000a900460ff16600281111561044f57fe5b146104a5576040517f08c379a000000000000000000000000000000000000000000000000000000000815260040180806020018281038252602c815260200180610fd4602c913960400191505060405180910390fd5b826104c5600080838152602001908152602001600020600001543361067a565b61051a576040517f08c379a00000000000000000000000000000000000000000000000000000000081526004018080602001828103825260248152602001806110816024913960400191505060405180910390fd5b61054183600080878152602001908152602001600020600301610b4890919063ffffffff16565b50505050565b8160028081111561055457fe5b60008083815260200190815260200160002060010160009054906101000a900460ff16600281111561058257fe5b146105d8576040517f08c379a000000000000000000000000000000000000000000000000000000000815260040180806020018281038252602c815260200180610fd4602c913960400191505060405180910390fd5b826105f8600080838152602001908152602001600020600001543361067a565b61064d576040517f08c379a00000000000000000000000000000000000000000000000000000000081526004018080602001828103825260248152602001806110816024913960400191505060405180910390fd5b61067483600080878152602001908152602001600020600301610ba690919063ffffffff16565b50505050565b60008060008085815260200190815260200160002090506001600281111561069e57fe5b8160010160009054906101000a900460ff1660028111156106bb57fe5b14156106df576106d78382600201610c0490919063ffffffff16565b9150506107a2565b6002808111156106eb57fe5b8160010160009054906101000a900460ff16600281111561070857fe5b141561072c576107248382600301610c6190919063ffffffff16565b9150506107a2565b60006107a0576040517f08c379a000000000000000000000000000000000000000000000000000000000815260040180806020018281038252600e8152602001807f496e76616c696420726f6c65496400000000000000000000000000000000000081525060200191505060405180910390fd5b505b92915050565b600081600160028111156107b857fe5b60008083815260200190815260200160002060010160009054906101000a900460ff1660028111156107e657fe5b1461083c576040517f08c379a000000000000000000000000000000000000000000000000000000000815260040180806020018281038252602f815260200180610fa5602f913960400191505060405180910390fd5b610859600080858152602001908152602001600020600201610cba565b915050919050565b816001600281111561086f57fe5b60008083815260200190815260200160002060010160009054906101000a900460ff16600281111561089d57fe5b146108f3576040517f08c379a000000000000000000000000000000000000000000000000000000000815260040180806020018281038252602f815260200180610fa5602f913960400191505060405180910390fd5b82610913600080838152602001908152602001600020600001543361067a565b610968576040517f08c379a00000000000000000000000000000000000000000000000000000000081526004018080602001828103825260248152602001806110816024913960400191505060405180910390fd5b61098f83600080878152602001908152602001600020600201610ce890919063ffffffff16565b50505050565b6109a0838383610db5565b505050565b82600060028111156109b357fe5b60008083815260200190815260200160002060010160009054906101000a900460ff1660028111156109e157fe5b14610a54576040517f08c379a000000000000000000000000000000000000000000000000000000000815260040180806020018281038252601e8152602001807f43616e6e6f74207573652061207072652d6578697374696e6720726f6c65000081525060200191505060405180910390fd5b6000806000868152602001908152602001600020905060028160010160006101000a81548160ff02191690836002811115610a8b57fe5b0217905550838160000181905550610aaf8382600301610f5890919063ffffffff16565b60006002811115610abc57fe5b60008086815260200190815260200160002060010160009054906101000a900460ff166002811115610aea57fe5b1415610b41576040517f08c379a00000000000000000000000000000000000000000000000000000000081526004018080602001828103825260388152602001806110a56038913960400191505060405180910390fd5b5050505050565b60008260000160008373ffffffffffffffffffffffffffffffffffffffff1673ffffffffffffffffffffffffffffffffffffffff16815260200190815260200160002060006101000a81548160ff0219169083151502179055505050565b60018260000160008373ffffffffffffffffffffffffffffffffffffffff1673ffffffffffffffffffffffffffffffffffffffff16815260200190815260200160002060006101000a81548160ff0219169083151502179055505050565b60008173ffffffffffffffffffffffffffffffffffffffff168360000160009054906101000a900473ffffffffffffffffffffffffffffffffffffffff1673ffffffffffffffffffffffffffffffffffffffff1614905092915050565b60008260000160008373ffffffffffffffffffffffffffffffffffffffff1673ffffffffffffffffffffffffffffffffffffffff16815260200190815260200160002060009054906101000a900460ff16905092915050565b60008160000160009054906101000a900473ffffffffffffffffffffffffffffffffffffffff169050919050565b600073ffffffffffffffffffffffffffffffffffffffff168173ffffffffffffffffffffffffffffffffffffffff161415610d6e576040517f08c379a000000000000000000000000000000000000000000000000000000000815260040180806020018281038252602381526020018061105e6023913960400191505060405180910390fd5b808260000160006101000a81548173ffffffffffffffffffffffffffffffffffffffff021916908373ffffffffffffffffffffffffffffffffffffffff1602179055505050565b8260006002811115610dc357fe5b60008083815260200190815260200160002060010160009054906101000a900460ff166002811115610df157fe5b14610e64576040517f08c379a000000000000000000000000000000000000000000000000000000000815260040180806020018281038252601e8152602001807f43616e6e6f74207573652061207072652d6578697374696e6720726f6c65000081525060200191505060405180910390fd5b6000806000868152602001908152602001600020905060018160010160006101000a81548160ff02191690836002811115610e9b57fe5b0217905550838160000181905550610ebf8382600201610f9690919063ffffffff16565b60006002811115610ecc57fe5b60008086815260200190815260200160002060010160009054906101000a900460ff166002811115610efa57fe5b1415610f51576040517f08c379a000000000000000000000000000000000000000000000000000000000815260040180806020018281038252603c815260200180611022603c913960400191505060405180910390fd5b5050505050565b60008090505b8151811015610f9157610f8483838381518110610f7757fe5b6020026020010151610ba6565b8080600101915050610f5e565b505050565b610fa08282610ce8565b505056fe4d7573742062652063616c6c6564206f6e20616e20696e697469616c697a6564204578636c757369766520726f6c654d7573742062652063616c6c6564206f6e20616e20696e697469616c697a65642053686172656420726f6c6553656e64657220646f6573206e6f7420686f6c6420726571756972656420726f6c65417474656d7074656420746f2075736520616e20696e76616c696420726f6c6520746f206d616e61676520616e206578636c757369766520726f6c6543616e6e6f742073657420616e206578636c757369766520726f6c6520746f2030783043616e206f6e6c792062652063616c6c6564206279206120726f6c65206d616e61676572417474656d7074656420746f2075736520616e20696e76616c696420726f6c6520746f206d616e61676520612073686172656420726f6c65a165627a7a72305820d1f47dde9c4a57c1f4d355cfe7bf683dc89e7949a56b5fdcae2b8c993c8940fa0029",
  "source": "/*\n  MultiRoleTest contract.\n*/\n\npragma solidity ^0.5.0;\n\nimport \"../MultiRole.sol\";\n\n\n// The purpose of this contract is to make the MultiRole creation methods externally callable for testing purposes.\ncontract MultiRoleTest is MultiRole {\n    function createSharedRole(uint roleId, uint managingRoleId, address[] calldata initialMembers)\n        external\n    {\n        _createSharedRole(roleId, managingRoleId, initialMembers);\n    }\n\n    function createExclusiveRole(uint roleId, uint managingRoleId, address initialMember)\n        external\n    {\n        _createExclusiveRole(roleId, managingRoleId, initialMember);\n    }\n\n    // solhint-disable-next-line no-empty-blocks\n    function revertIfNotHoldingRole(uint roleId) external view onlyRoleHolder(roleId) {}\n}\n",
  "sourcePath": "/Users/kendrick/Development/Ethereum/defi-dy/contracts/uma/core/contracts/test/MultiRoleTest.sol",
  "compiler": {
    "name": "solc",
    "version": "0.5.8+commit.23d335f2.Emscripten.clang"
  },
  "schemaVersion": "3.0.10",
  "updatedAt": "2019-11-09T13:45:25.745Z",
  "devdoc": {
    "methods": {
      "addMember(uint256,address)": {
        "details": "Reverts if `roleId` does not represent an initialized, shared role or if the caller is not a member of the managing role for `roleId`."
      },
      "getMember(uint256)": {
        "details": "Reverts if `roleId` does not represent an initialized, exclusive role."
      },
      "holdsRole(uint256,address)": {
        "details": "Reverts if roleId does not correspond to an initialized role."
      },
      "removeMember(uint256,address)": {
        "details": "Reverts if `roleId` does not represent an initialized, shared role or if the caller is not a member of the managing role for `roleId`."
      },
      "resetMember(uint256,address)": {
        "details": "Reverts if the caller is not a member of the managing role for `roleId` or if `roleId` is not an initialized, exclusive role."
      }
    }
  },
  "userdoc": {
    "methods": {
      "addMember(uint256,address)": {
        "notice": "Adds `newMember` to the shared role, `roleId`."
      },
      "getMember(uint256)": {
        "notice": "Gets the current holder of the exclusive role, `roleId`."
      },
      "holdsRole(uint256,address)": {
        "notice": "Whether `memberToCheck` is a member of roleId."
      },
      "removeMember(uint256,address)": {
        "notice": "Removes `memberToRemove` from the shared role, `roleId`."
      },
      "resetMember(uint256,address)": {
        "notice": "Changes the exclusive role holder of `roleId` to `newMember`."
      }
    }
  }
}