{
  "contractName": "Registry",
  "abi": [
    {
      "constant": false,
      "inputs": [
        {
          "name": "roleId",
          "type": "uint256"
        },
        {
          "name": "memberToRemove",
          "type": "address"
        }
      ],
      "name": "removeMember",
      "outputs": [],
      "payable": false,
      "stateMutability": "nonpayable",
      "type": "function"
    },
    {
      "constant": false,
      "inputs": [
        {
          "name": "roleId",
          "type": "uint256"
        },
        {
          "name": "newMember",
          "type": "address"
        }
      ],
      "name": "addMember",
      "outputs": [],
      "payable": false,
      "stateMutability": "nonpayable",
      "type": "function"
    },
    {
      "constant": true,
      "inputs": [
        {
          "name": "roleId",
          "type": "uint256"
        },
        {
          "name": "memberToCheck",
          "type": "address"
        }
      ],
      "name": "holdsRole",
      "outputs": [
        {
          "name": "",
          "type": "bool"
        }
      ],
      "payable": false,
      "stateMutability": "view",
      "type": "function"
    },
    {
      "constant": true,
      "inputs": [
        {
          "name": "roleId",
          "type": "uint256"
        }
      ],
      "name": "getMember",
      "outputs": [
        {
          "name": "",
          "type": "address"
        }
      ],
      "payable": false,
      "stateMutability": "view",
      "type": "function"
    },
    {
      "constant": false,
      "inputs": [
        {
          "name": "roleId",
          "type": "uint256"
        },
        {
          "name": "newMember",
          "type": "address"
        }
      ],
      "name": "resetMember",
      "outputs": [],
      "payable": false,
      "stateMutability": "nonpayable",
      "type": "function"
    },
    {
      "inputs": [],
      "payable": false,
      "stateMutability": "nonpayable",
      "type": "constructor"
    },
    {
      "anonymous": false,
      "inputs": [
        {
          "indexed": true,
          "name": "derivativeAddress",
          "type": "address"
        },
        {
          "indexed": false,
          "name": "parties",
          "type": "address[]"
        }
      ],
      "name": "NewDerivativeRegistered",
      "type": "event"
    },
    {
      "constant": false,
      "inputs": [
        {
          "name": "parties",
          "type": "address[]"
        },
        {
          "name": "derivativeAddress",
          "type": "address"
        }
      ],
      "name": "registerDerivative",
      "outputs": [],
      "payable": false,
      "stateMutability": "nonpayable",
      "type": "function"
    },
    {
      "constant": true,
      "inputs": [
        {
          "name": "derivative",
          "type": "address"
        }
      ],
      "name": "isDerivativeRegistered",
      "outputs": [
        {
          "name": "isRegistered",
          "type": "bool"
        }
      ],
      "payable": false,
      "stateMutability": "view",
      "type": "function"
    },
    {
      "constant": true,
      "inputs": [
        {
          "name": "party",
          "type": "address"
        }
      ],
      "name": "getRegisteredDerivatives",
      "outputs": [
        {
          "components": [
            {
              "name": "derivativeAddress",
              "type": "address"
            },
            {
              "name": "derivativeCreator",
              "type": "address"
            }
          ],
          "name": "derivatives",
          "type": "tuple[]"
        }
      ],
      "payable": false,
      "stateMutability": "view",
      "type": "function"
    },
    {
      "constant": true,
      "inputs": [],
      "name": "getAllRegisteredDerivatives",
      "outputs": [
        {
          "components": [
            {
              "name": "derivativeAddress",
              "type": "address"
            },
            {
              "name": "derivativeCreator",
              "type": "address"
            }
          ],
          "name": "derivatives",
          "type": "tuple[]"
        }
      ],
      "payable": false,
      "stateMutability": "view",
      "type": "function"
    },
    {
      "constant": false,
      "inputs": [],
      "name": "initializeRolesOnce",
      "outputs": [],
      "payable": false,
      "stateMutability": "nonpayable",
      "type": "function"
    }
  ],
  "bytecode": "0x60806040523480156200001157600080fd5b50620000226200002860201b60201c565b6200083b565b600460009054906101000a900460ff16156200007b576040517f08c379a00000000000000000000000000000000000000000000000000000000081526004016200007290620007e6565b60405180910390fd5b6001600460006101000a81548160ff021916908315150217905550620000c360006002811115620000a857fe5b60006002811115620000b657fe5b336200014f60201b60201c565b620000f060016002811115620000d557fe5b60006002811115620000e357fe5b336200014f60201b60201c565b6200014d6002808111156200010157fe5b600160028111156200010f57fe5b6000604051908082528060200260200182016040528015620001405781602001602082028038833980820191505090505b50620002bb60201b60201c565b565b82600060028111156200015e57fe5b60008083815260200190815260200160002060010160009054906101000a900460ff1660028111156200018d57fe5b14620001d0576040517f08c379a0000000000000000000000000000000000000000000000000000000008152600401620001c790620007a2565b60405180910390fd5b6000806000868152602001908152602001600020905060018160010160006101000a81548160ff021916908360028111156200020857fe5b02179055508381600001819055506200023383826002016200042760201b6200157e1790919060201c565b600060028111156200024157fe5b60008086815260200190815260200160002060010160009054906101000a900460ff1660028111156200027057fe5b1415620002b4576040517f08c379a0000000000000000000000000000000000000000000000000000000008152600401620002ab9062000780565b60405180910390fd5b5050505050565b8260006002811115620002ca57fe5b60008083815260200190815260200160002060010160009054906101000a900460ff166002811115620002f957fe5b146200033c576040517f08c379a00000000000000000000000000000000000000000000000000000000081526004016200033390620007a2565b60405180910390fd5b6000806000868152602001908152602001600020905060028160010160006101000a81548160ff021916908360028111156200037457fe5b02179055508381600001819055506200039f83826003016200043d60201b6200158c1790919060201c565b60006002811115620003ad57fe5b60008086815260200190815260200160002060010160009054906101000a900460ff166002811115620003dc57fe5b141562000420576040517f08c379a0000000000000000000000000000000000000000000000000000000008152600401620004179062000808565b60405180910390fd5b5050505050565b6200043982826200048660201b60201c565b5050565b60008090505b8151811015620004815762000473838383815181106200045f57fe5b60200260200101516200054060201b60201c565b808060010191505062000443565b505050565b600073ffffffffffffffffffffffffffffffffffffffff168173ffffffffffffffffffffffffffffffffffffffff161415620004f9576040517f08c379a0000000000000000000000000000000000000000000000000000000008152600401620004f090620007c4565b60405180910390fd5b808260000160006101000a81548173ffffffffffffffffffffffffffffffffffffffff021916908373ffffffffffffffffffffffffffffffffffffffff1602179055505050565b60018260000160008373ffffffffffffffffffffffffffffffffffffffff1673ffffffffffffffffffffffffffffffffffffffff16815260200190815260200160002060006101000a81548160ff0219169083151502179055505050565b6000620005ad603c836200082a565b91507f417474656d7074656420746f2075736520616e20696e76616c696420726f6c6560008301527f20746f206d616e61676520616e206578636c757369766520726f6c65000000006020830152604082019050919050565b600062000615601e836200082a565b91507f43616e6e6f74207573652061207072652d6578697374696e6720726f6c6500006000830152602082019050919050565b6000620006576023836200082a565b91507f43616e6e6f742073657420616e206578636c757369766520726f6c6520746f2060008301527f30783000000000000000000000000000000000000000000000000000000000006020830152604082019050919050565b6000620006bf602c836200082a565b91507f4f6e6c792074686520636f6e7374727563746f722073686f756c642063616c6c60008301527f2074686973206d6574686f6400000000000000000000000000000000000000006020830152604082019050919050565b6000620007276038836200082a565b91507f417474656d7074656420746f2075736520616e20696e76616c696420726f6c6560008301527f20746f206d616e61676520612073686172656420726f6c6500000000000000006020830152604082019050919050565b600060208201905081810360008301526200079b816200059e565b9050919050565b60006020820190508181036000830152620007bd8162000606565b9050919050565b60006020820190508181036000830152620007df8162000648565b9050919050565b600060208201905081810360008301526200080181620006b0565b9050919050565b60006020820190508181036000830152620008238162000718565b9050919050565b600082825260208201905092915050565b612009806200084b6000396000f3fe608060405234801561001057600080fd5b506004361061009e5760003560e01c80637cdc1cb9116100665780637cdc1cb9146101335780638014b1dc146101635780638a3ca36b1461017f578063ab3545e5146101af578063d97c05be146101df5761009e565b806315ed0f5b146100a357806335a027a0146100ad578063647fcf18146100dd5780636be7658b146100fb57806374d0a67614610117575b600080fd5b6100ab6101fb565b005b6100c760048036036100c29190810190611684565b610300565b6040516100d49190611d1f565b60405180910390f35b6100e56105ce565b6040516100f29190611d1f565b60405180910390f35b6101156004803603610110919081019061172e565b6106d9565b005b610131600480360361012c919081019061172e565b6107e0565b005b61014d6004803603610148919081019061172e565b6108e7565b60405161015a9190611d41565b60405180910390f35b61017d600480360361017891908101906116ad565b6109e2565b005b61019960048036036101949190810190611684565b610dac565b6040516101a69190611d41565b60405180910390f35b6101c960048036036101c49190810190611705565b610e1d565b6040516101d69190611ce2565b60405180910390f35b6101f960048036036101f4919081019061172e565b610ec0565b005b600460009054906101000a900460ff161561024b576040517f08c379a000000000000000000000000000000000000000000000000000000000815260040161024290611e5c565b60405180910390fd5b6001600460006101000a81548160ff0219169083151502179055506102896000600281111561027657fe5b6000600281111561028357fe5b33610fc8565b6102ac6001600281111561029957fe5b600060028111156102a657fe5b33610fc8565b6102fe6002808111156102bb57fe5b600160028111156102c857fe5b60006040519080825280602002602001820160405280156102f85781602001602082028038833980820191505090505b50611122565b565b60608060018054905060405190808252806020026020018201604052801561034257816020015b61032f6115ca565b8152602001906001900390816103275790505b509050600080905060008090505b6001805490508110156105345760006001828154811061036c57fe5b90600052602060002090600202019050600360008260000160009054906101000a900473ffffffffffffffffffffffffffffffffffffffff1673ffffffffffffffffffffffffffffffffffffffff1673ffffffffffffffffffffffffffffffffffffffff16815260200190815260200160002060000160008773ffffffffffffffffffffffffffffffffffffffff1673ffffffffffffffffffffffffffffffffffffffff16815260200190815260200160002060009054906101000a900460ff161561051857806040518060400160405290816000820160009054906101000a900473ffffffffffffffffffffffffffffffffffffffff1673ffffffffffffffffffffffffffffffffffffffff1673ffffffffffffffffffffffffffffffffffffffff1681526020016001820160009054906101000a900473ffffffffffffffffffffffffffffffffffffffff1673ffffffffffffffffffffffffffffffffffffffff1673ffffffffffffffffffffffffffffffffffffffff16815250508484815181106104f657fe5b602002602001018190525061051560018461127c90919063ffffffff16565b92505b5061052d60018261127c90919063ffffffff16565b9050610350565b508060405190808252806020026020018201604052801561056f57816020015b61055c6115ca565b8152602001906001900390816105545790505b50925060008090505b818110156105c65782818151811061058c57fe5b60200260200101518482815181106105a057fe5b60200260200101819052506105bf60018261127c90919063ffffffff16565b9050610578565b505050919050565b60606001805480602002602001604051908101604052809291908181526020016000905b828210156106d057838290600052602060002090600202016040518060400160405290816000820160009054906101000a900473ffffffffffffffffffffffffffffffffffffffff1673ffffffffffffffffffffffffffffffffffffffff1673ffffffffffffffffffffffffffffffffffffffff1681526020016001820160009054906101000a900473ffffffffffffffffffffffffffffffffffffffff1673ffffffffffffffffffffffffffffffffffffffff1673ffffffffffffffffffffffffffffffffffffffff1681525050815260200190600101906105f2565b50505050905090565b816002808111156106e657fe5b60008083815260200190815260200160002060010160009054906101000a900460ff16600281111561071457fe5b14610754576040517f08c379a000000000000000000000000000000000000000000000000000000000815260040161074b90611dbc565b60405180910390fd5b8261077460008083815260200190815260200160002060000154336108e7565b6107b3576040517f08c379a00000000000000000000000000000000000000000000000000000000081526004016107aa90611e7c565b60405180910390fd5b6107da836000808781526020019081526020016000206003016112d190919063ffffffff16565b50505050565b816002808111156107ed57fe5b60008083815260200190815260200160002060010160009054906101000a900460ff16600281111561081b57fe5b1461085b576040517f08c379a000000000000000000000000000000000000000000000000000000000815260040161085290611dbc565b60405180910390fd5b8261087b60008083815260200190815260200160002060000154336108e7565b6108ba576040517f08c379a00000000000000000000000000000000000000000000000000000000081526004016108b190611e7c565b60405180910390fd5b6108e18360008087815260200190815260200160002060030161132f90919063ffffffff16565b50505050565b60008060008085815260200190815260200160002090506001600281111561090b57fe5b8160010160009054906101000a900460ff16600281111561092857fe5b141561094c57610944838260020161138d90919063ffffffff16565b9150506109dc565b60028081111561095857fe5b8160010160009054906101000a900460ff16600281111561097557fe5b14156109995761099183826003016113ea90919063ffffffff16565b9150506109dc565b60006109da576040517f08c379a00000000000000000000000000000000000000000000000000000000081526004016109d190611e9c565b60405180910390fd5b505b92915050565b6002808111156109ee57fe5b6109f881336108e7565b610a37576040517f08c379a0000000000000000000000000000000000000000000000000000000008152600401610a2e90611ddc565b60405180910390fd5b6000600260008473ffffffffffffffffffffffffffffffffffffffff1673ffffffffffffffffffffffffffffffffffffffff168152602001908152602001600020905060006001811115610a8757fe5b8160000160009054906101000a900460ff166001811115610aa457fe5b14610aae57600080fd5b60018160000160006101000a81548160ff02191690836001811115610acf57fe5b0217905550600160405180604001604052808573ffffffffffffffffffffffffffffffffffffffff1681526020013373ffffffffffffffffffffffffffffffffffffffff168152509080600181540180825580915050906001820390600052602060002090600202016000909192909190915060008201518160000160006101000a81548173ffffffffffffffffffffffffffffffffffffffff021916908373ffffffffffffffffffffffffffffffffffffffff16021790555060208201518160010160006101000a81548173ffffffffffffffffffffffffffffffffffffffff021916908373ffffffffffffffffffffffffffffffffffffffff160217905550505050610beb6001808054905061144390919063ffffffff16565b8160000160016101000a8154816fffffffffffffffffffffffffffffffff02191690836fffffffffffffffffffffffffffffffff1602179055506000600360008573ffffffffffffffffffffffffffffffffffffffff1673ffffffffffffffffffffffffffffffffffffffff168152602001908152602001600020905060008090505b86869050811015610d0e576001826000016000898985818110610c8d57fe5b9050602002016020610ca29190810190611684565b73ffffffffffffffffffffffffffffffffffffffff1673ffffffffffffffffffffffffffffffffffffffff16815260200190815260200160002060006101000a81548160ff021916908315150217905550610d0760018261127c90919063ffffffff16565b9050610c6e565b506060868680806020026020016040519081016040528093929190818152602001838360200280828437600081840152601f19601f8201169050808301925050505050505090508473ffffffffffffffffffffffffffffffffffffffff167f3c9a95db69d040dd58824943e68236c0adf4b014d11d6c24c513533888f939eb82604051610d9b9190611cfd565b60405180910390a250505050505050565b6000600180811115610dba57fe5b600260008473ffffffffffffffffffffffffffffffffffffffff1673ffffffffffffffffffffffffffffffffffffffff16815260200190815260200160002060000160009054906101000a900460ff166001811115610e1557fe5b149050919050565b60008160016002811115610e2d57fe5b60008083815260200190815260200160002060010160009054906101000a900460ff166002811115610e5b57fe5b14610e9b576040517f08c379a0000000000000000000000000000000000000000000000000000000008152600401610e9290611d7c565b60405180910390fd5b610eb8600080858152602001908152602001600020600201611499565b915050919050565b8160016002811115610ece57fe5b60008083815260200190815260200160002060010160009054906101000a900460ff166002811115610efc57fe5b14610f3c576040517f08c379a0000000000000000000000000000000000000000000000000000000008152600401610f3390611d7c565b60405180910390fd5b82610f5c60008083815260200190815260200160002060000154336108e7565b610f9b576040517f08c379a0000000000000000000000000000000000000000000000000000000008152600401610f9290611e7c565b60405180910390fd5b610fc2836000808781526020019081526020016000206002016114c790919063ffffffff16565b50505050565b8260006002811115610fd657fe5b60008083815260200190815260200160002060010160009054906101000a900460ff16600281111561100457fe5b14611044576040517f08c379a000000000000000000000000000000000000000000000000000000000815260040161103b90611e1c565b60405180910390fd5b6000806000868152602001908152602001600020905060018160010160006101000a81548160ff0219169083600281111561107b57fe5b021790555083816000018190555061109f838260020161157e90919063ffffffff16565b600060028111156110ac57fe5b60008086815260200190815260200160002060010160009054906101000a900460ff1660028111156110da57fe5b141561111b576040517f08c379a000000000000000000000000000000000000000000000000000000000815260040161111290611dfc565b60405180910390fd5b5050505050565b826000600281111561113057fe5b60008083815260200190815260200160002060010160009054906101000a900460ff16600281111561115e57fe5b1461119e576040517f08c379a000000000000000000000000000000000000000000000000000000000815260040161119590611e1c565b60405180910390fd5b6000806000868152602001908152602001600020905060028160010160006101000a81548160ff021916908360028111156111d557fe5b02179055508381600001819055506111f9838260030161158c90919063ffffffff16565b6000600281111561120657fe5b60008086815260200190815260200160002060010160009054906101000a900460ff16600281111561123457fe5b1415611275576040517f08c379a000000000000000000000000000000000000000000000000000000000815260040161126c90611ebc565b60405180910390fd5b5050505050565b6000808284019050838110156112c7576040517f08c379a00000000000000000000000000000000000000000000000000000000081526004016112be90611d5c565b60405180910390fd5b8091505092915050565b60008260000160008373ffffffffffffffffffffffffffffffffffffffff1673ffffffffffffffffffffffffffffffffffffffff16815260200190815260200160002060006101000a81548160ff0219169083151502179055505050565b60018260000160008373ffffffffffffffffffffffffffffffffffffffff1673ffffffffffffffffffffffffffffffffffffffff16815260200190815260200160002060006101000a81548160ff0219169083151502179055505050565b60008173ffffffffffffffffffffffffffffffffffffffff168360000160009054906101000a900473ffffffffffffffffffffffffffffffffffffffff1673ffffffffffffffffffffffffffffffffffffffff1614905092915050565b60008260000160008373ffffffffffffffffffffffffffffffffffffffff1673ffffffffffffffffffffffffffffffffffffffff16815260200190815260200160002060009054906101000a900460ff16905092915050565b600082821115611488576040517f08c379a000000000000000000000000000000000000000000000000000000000815260040161147f90611d9c565b60405180910390fd5b600082840390508091505092915050565b60008160000160009054906101000a900473ffffffffffffffffffffffffffffffffffffffff169050919050565b600073ffffffffffffffffffffffffffffffffffffffff168173ffffffffffffffffffffffffffffffffffffffff161415611537576040517f08c379a000000000000000000000000000000000000000000000000000000000815260040161152e90611e3c565b60405180910390fd5b808260000160006101000a81548173ffffffffffffffffffffffffffffffffffffffff021916908373ffffffffffffffffffffffffffffffffffffffff1602179055505050565b61158882826114c7565b5050565b60008090505b81518110156115c5576115b8838383815181106115ab57fe5b602002602001015161132f565b8080600101915050611592565b505050565b6040518060400160405280600073ffffffffffffffffffffffffffffffffffffffff168152602001600073ffffffffffffffffffffffffffffffffffffffff1681525090565b60008135905061161f81611fa1565b92915050565b60008083601f84011261163757600080fd5b8235905067ffffffffffffffff81111561165057600080fd5b60208301915083602082028301111561166857600080fd5b9250929050565b60008135905061167e81611fb8565b92915050565b60006020828403121561169657600080fd5b60006116a484828501611610565b91505092915050565b6000806000604084860312156116c257600080fd5b600084013567ffffffffffffffff8111156116dc57600080fd5b6116e886828701611625565b935093505060206116fb86828701611610565b9150509250925092565b60006020828403121561171757600080fd5b60006117258482850161166f565b91505092915050565b6000806040838503121561174157600080fd5b600061174f8582860161166f565b925050602061176085828601611610565b9150509250929050565b6000611776838361179a565b60208301905092915050565b600061178e8383611cb3565b60408301905092915050565b6117a381611f59565b82525050565b6117b281611f59565b82525050565b60006117c382611ef6565b6117cd8185611f26565b93506117d883611edc565b8060005b838110156118095781516117f0888261176a565b97506117fb83611f0c565b9250506001810190506117dc565b5085935050505092915050565b600061182182611f01565b61182b8185611f37565b935061183683611ee9565b8060005b8381101561186757815161184e8882611782565b975061185983611f19565b92505060018101905061183a565b5085935050505092915050565b61187d81611f6b565b82525050565b6000611890601b83611f48565b91507f536166654d6174683a206164646974696f6e206f766572666c6f7700000000006000830152602082019050919050565b60006118d0602f83611f48565b91507f4d7573742062652063616c6c6564206f6e20616e20696e697469616c697a656460008301527f204578636c757369766520726f6c6500000000000000000000000000000000006020830152604082019050919050565b6000611936601e83611f48565b91507f536166654d6174683a207375627472616374696f6e206f766572666c6f7700006000830152602082019050919050565b6000611976602c83611f48565b91507f4d7573742062652063616c6c6564206f6e20616e20696e697469616c697a656460008301527f2053686172656420726f6c6500000000000000000000000000000000000000006020830152604082019050919050565b60006119dc602283611f48565b91507f53656e64657220646f6573206e6f7420686f6c6420726571756972656420726f60008301527f6c650000000000000000000000000000000000000000000000000000000000006020830152604082019050919050565b6000611a42603c83611f48565b91507f417474656d7074656420746f2075736520616e20696e76616c696420726f6c6560008301527f20746f206d616e61676520616e206578636c757369766520726f6c65000000006020830152604082019050919050565b6000611aa8601e83611f48565b91507f43616e6e6f74207573652061207072652d6578697374696e6720726f6c6500006000830152602082019050919050565b6000611ae8602383611f48565b91507f43616e6e6f742073657420616e206578636c757369766520726f6c6520746f2060008301527f30783000000000000000000000000000000000000000000000000000000000006020830152604082019050919050565b6000611b4e602c83611f48565b91507f4f6e6c792074686520636f6e7374727563746f722073686f756c642063616c6c60008301527f2074686973206d6574686f6400000000000000000000000000000000000000006020830152604082019050919050565b6000611bb4602483611f48565b91507f43616e206f6e6c792062652063616c6c6564206279206120726f6c65206d616e60008301527f61676572000000000000000000000000000000000000000000000000000000006020830152604082019050919050565b6000611c1a600e83611f48565b91507f496e76616c696420726f6c6549640000000000000000000000000000000000006000830152602082019050919050565b6000611c5a603883611f48565b91507f417474656d7074656420746f2075736520616e20696e76616c696420726f6c6560008301527f20746f206d616e61676520612073686172656420726f6c6500000000000000006020830152604082019050919050565b604082016000820151611cc9600085018261179a565b506020820151611cdc602085018261179a565b50505050565b6000602082019050611cf760008301846117a9565b92915050565b60006020820190508181036000830152611d1781846117b8565b905092915050565b60006020820190508181036000830152611d398184611816565b905092915050565b6000602082019050611d566000830184611874565b92915050565b60006020820190508181036000830152611d7581611883565b9050919050565b60006020820190508181036000830152611d95816118c3565b9050919050565b60006020820190508181036000830152611db581611929565b9050919050565b60006020820190508181036000830152611dd581611969565b9050919050565b60006020820190508181036000830152611df5816119cf565b9050919050565b60006020820190508181036000830152611e1581611a35565b9050919050565b60006020820190508181036000830152611e3581611a9b565b9050919050565b60006020820190508181036000830152611e5581611adb565b9050919050565b60006020820190508181036000830152611e7581611b41565b9050919050565b60006020820190508181036000830152611e9581611ba7565b9050919050565b60006020820190508181036000830152611eb581611c0d565b9050919050565b60006020820190508181036000830152611ed581611c4d565b9050919050565b6000602082019050919050565b6000602082019050919050565b600081519050919050565b600081519050919050565b6000602082019050919050565b6000602082019050919050565b600082825260208201905092915050565b600082825260208201905092915050565b600082825260208201905092915050565b6000611f6482611f77565b9050919050565b60008115159050919050565b600073ffffffffffffffffffffffffffffffffffffffff82169050919050565b6000819050919050565b611faa81611f59565b8114611fb557600080fd5b50565b611fc181611f97565b8114611fcc57600080fd5b5056fea265627a7a72305820ad691cdf3414e208ef47ba6f221cfe89a40d62159f0cb55f975c1e27d505b1246c6578706572696d656e74616cf50037",
  "source": "pragma solidity ^0.5.0;\n\nimport \"./MultiRole.sol\";\nimport \"./RegistryInterface.sol\";\n\nimport \"openzeppelin-solidity/contracts/math/SafeMath.sol\";\n\npragma experimental ABIEncoderV2;\n\n\n/**\n * @title Registry for derivatives and approved derivative creators.\n * @dev Maintains a whitelist of derivative creators that are allowed to register new derivatives.\n */\ncontract Registry is RegistryInterface, MultiRole {\n\n    using SafeMath for uint;\n\n    enum Roles {\n        // The ultimate owner-type role that can change the writer.\n        Governance,\n        // Can add or remove DerivativeCreators.\n        Writer,\n        // Can register derivatives.\n        DerivativeCreator\n    }\n\n    // Array of all registeredDerivatives that are approved to use the UMA Oracle.\n    RegisteredDerivative[] private registeredDerivatives;\n\n    // This enum is required because a WasValid state is required to ensure that derivatives cannot be re-registered.\n    enum PointerValidity {\n        Invalid,\n        Valid\n    }\n\n    struct Pointer {\n        PointerValidity valid;\n        uint128 index;\n    }\n\n    // Maps from derivative address to a pointer that refers to that RegisteredDerivative in registeredDerivatives.\n    mapping(address => Pointer) private derivativePointers;\n\n    // Note: this must be stored outside of the RegisteredDerivative because mappings cannot be deleted and copied\n    // like normal data. This could be stored in the Pointer struct, but storing it there would muddy the purpose\n    // of the Pointer struct and break separation of concern between referential data and data.\n    struct PartiesMap {\n        mapping(address => bool) parties;\n    }\n\n    // Maps from derivative address to the set of parties that are involved in that derivative.\n    mapping(address => PartiesMap) private derivativesToParties;\n\n    // TODO(ptare): Used to make doubly sure that roles are initialized only once. Figure out what's going wrong with\n    // coverage to necessitate this hack.\n    bool private rolesInitialized;\n\n    constructor() public {\n        initializeRolesOnce();\n    }\n\n    function registerDerivative(address[] calldata parties, address derivativeAddress)\n        external\n        onlyRoleHolder(uint(Roles.DerivativeCreator))\n    {\n        // Create derivative pointer.\n        Pointer storage pointer = derivativePointers[derivativeAddress];\n\n        // Ensure that the pointer was not valid in the past (derivatives cannot be re-registered or double\n        // registered).\n        require(pointer.valid == PointerValidity.Invalid);\n        pointer.valid = PointerValidity.Valid;\n\n        registeredDerivatives.push(RegisteredDerivative(derivativeAddress, msg.sender));\n\n        // No length check necessary because we should never hit (2^127 - 1) derivatives.\n        pointer.index = uint128(registeredDerivatives.length.sub(1));\n\n        // Set up PartiesMap for this derivative.\n        PartiesMap storage partiesMap = derivativesToParties[derivativeAddress];\n        for (uint i = 0; i < parties.length; i = i.add(1)) {\n            partiesMap.parties[parties[i]] = true;\n        }\n\n        address[] memory partiesForEvent = parties;\n        emit NewDerivativeRegistered(derivativeAddress, partiesForEvent);\n    }\n\n    function isDerivativeRegistered(address derivative) external view returns (bool isRegistered) {\n        return derivativePointers[derivative].valid == PointerValidity.Valid;\n    }\n\n    function getRegisteredDerivatives(address party) external view returns (RegisteredDerivative[] memory derivatives) {\n        // This is not ideal - we must statically allocate memory arrays. To be safe, we make a temporary array as long\n        // as registeredDerivatives. We populate it with any derivatives that involve the provided party. Then, we copy\n        // the array over to the return array, which is allocated using the correct size. Note: this is done by double\n        // copying each value rather than storing some referential info (like indices) in memory to reduce the number\n        // of storage reads. This is because storage reads are far more expensive than extra memory space (~100:1).\n        RegisteredDerivative[] memory tmpDerivativeArray = new RegisteredDerivative[](registeredDerivatives.length);\n        uint outputIndex = 0;\n        for (uint i = 0; i < registeredDerivatives.length; i = i.add(1)) {\n            RegisteredDerivative storage derivative = registeredDerivatives[i];\n            if (derivativesToParties[derivative.derivativeAddress].parties[party]) {\n                // Copy selected derivative to the temporary array.\n                tmpDerivativeArray[outputIndex] = derivative;\n                outputIndex = outputIndex.add(1);\n            }\n        }\n\n        // Copy the temp array to the return array that is set to the correct size.\n        derivatives = new RegisteredDerivative[](outputIndex);\n        for (uint j = 0; j < outputIndex; j = j.add(1)) {\n            derivatives[j] = tmpDerivativeArray[j];\n        }\n    }\n\n    function getAllRegisteredDerivatives() external view returns (RegisteredDerivative[] memory derivatives) {\n        return registeredDerivatives;\n    }\n\n    /*\n     * @notice Do not call this function externally.\n     * @dev Only called from the constructor, and only extracted to a separate method to make the coverage tool work.\n     * Will revert if called again.\n     */\n    function initializeRolesOnce() public {\n        require(!rolesInitialized, \"Only the constructor should call this method\");\n        rolesInitialized = true;\n        _createExclusiveRole(uint(Roles.Governance), uint(Roles.Governance), msg.sender);\n        _createExclusiveRole(uint(Roles.Writer), uint(Roles.Governance), msg.sender);\n        // Start with no derivative creators registered.\n        _createSharedRole(uint(Roles.DerivativeCreator), uint(Roles.Writer), new address[](0));\n    }\n\n    event NewDerivativeRegistered(address indexed derivativeAddress, address[] parties);\n}\n",
  "sourcePath": "/Users/kendrick/Development/Ethereum/defi-dy/contracts/uma/core/contracts/Registry.sol",
  "compiler": {
    "name": "solc",
    "version": "0.5.8+commit.23d335f2.Emscripten.clang"
  },
  "schemaVersion": "3.0.10",
  "updatedAt": "2019-11-09T21:42:12.308Z",
  "devdoc": {
    "details": "Maintains a whitelist of derivative creators that are allowed to register new derivatives.",
    "methods": {
      "addMember(uint256,address)": {
        "details": "Reverts if `roleId` does not represent an initialized, shared role or if the caller is not a member of the managing role for `roleId`."
      },
      "getMember(uint256)": {
        "details": "Reverts if `roleId` does not represent an initialized, exclusive role."
      },
      "holdsRole(uint256,address)": {
        "details": "Reverts if roleId does not correspond to an initialized role."
      },
      "removeMember(uint256,address)": {
        "details": "Reverts if `roleId` does not represent an initialized, shared role or if the caller is not a member of the managing role for `roleId`."
      },
      "resetMember(uint256,address)": {
        "details": "Reverts if the caller is not a member of the managing role for `roleId` or if `roleId` is not an initialized, exclusive role."
      }
    },
    "title": "Registry for derivatives and approved derivative creators."
  },
  "userdoc": {
    "methods": {
      "addMember(uint256,address)": {
        "notice": "Adds `newMember` to the shared role, `roleId`."
      },
      "getMember(uint256)": {
        "notice": "Gets the current holder of the exclusive role, `roleId`."
      },
      "holdsRole(uint256,address)": {
        "notice": "Whether `memberToCheck` is a member of roleId."
      },
      "removeMember(uint256,address)": {
        "notice": "Removes `memberToRemove` from the shared role, `roleId`."
      },
      "resetMember(uint256,address)": {
        "notice": "Changes the exclusive role holder of `roleId` to `newMember`."
      }
    }
  }
}