{
  "contractName": "Store",
  "abi": [
    {
      "constant": false,
      "inputs": [
        {
          "name": "amount",
          "type": "uint256"
        }
      ],
      "name": "withdraw",
      "outputs": [],
      "payable": false,
      "stateMutability": "nonpayable",
      "type": "function"
    },
    {
      "constant": false,
      "inputs": [
        {
          "name": "roleId",
          "type": "uint256"
        },
        {
          "name": "memberToRemove",
          "type": "address"
        }
      ],
      "name": "removeMember",
      "outputs": [],
      "payable": false,
      "stateMutability": "nonpayable",
      "type": "function"
    },
    {
      "constant": false,
      "inputs": [
        {
          "name": "roleId",
          "type": "uint256"
        },
        {
          "name": "newMember",
          "type": "address"
        }
      ],
      "name": "addMember",
      "outputs": [],
      "payable": false,
      "stateMutability": "nonpayable",
      "type": "function"
    },
    {
      "constant": true,
      "inputs": [
        {
          "name": "roleId",
          "type": "uint256"
        },
        {
          "name": "memberToCheck",
          "type": "address"
        }
      ],
      "name": "holdsRole",
      "outputs": [
        {
          "name": "",
          "type": "bool"
        }
      ],
      "payable": false,
      "stateMutability": "view",
      "type": "function"
    },
    {
      "constant": true,
      "inputs": [
        {
          "name": "roleId",
          "type": "uint256"
        }
      ],
      "name": "getMember",
      "outputs": [
        {
          "name": "",
          "type": "address"
        }
      ],
      "payable": false,
      "stateMutability": "view",
      "type": "function"
    },
    {
      "constant": false,
      "inputs": [
        {
          "name": "erc20Address",
          "type": "address"
        },
        {
          "name": "amount",
          "type": "uint256"
        }
      ],
      "name": "withdrawErc20",
      "outputs": [],
      "payable": false,
      "stateMutability": "nonpayable",
      "type": "function"
    },
    {
      "constant": false,
      "inputs": [
        {
          "name": "roleId",
          "type": "uint256"
        },
        {
          "name": "newMember",
          "type": "address"
        }
      ],
      "name": "resetMember",
      "outputs": [],
      "payable": false,
      "stateMutability": "nonpayable",
      "type": "function"
    },
    {
      "inputs": [],
      "payable": false,
      "stateMutability": "nonpayable",
      "type": "constructor"
    },
    {
      "anonymous": false,
      "inputs": [
        {
          "components": [
            {
              "name": "rawValue",
              "type": "uint256"
            }
          ],
          "indexed": false,
          "name": "newOracleFee",
          "type": "tuple"
        }
      ],
      "name": "NewFixedOracleFeePerSecond",
      "type": "event"
    },
    {
      "constant": false,
      "inputs": [],
      "name": "payOracleFees",
      "outputs": [],
      "payable": true,
      "stateMutability": "payable",
      "type": "function"
    },
    {
      "constant": false,
      "inputs": [
        {
          "name": "erc20Address",
          "type": "address"
        }
      ],
      "name": "payOracleFeesErc20",
      "outputs": [],
      "payable": false,
      "stateMutability": "nonpayable",
      "type": "function"
    },
    {
      "constant": true,
      "inputs": [
        {
          "name": "startTime",
          "type": "uint256"
        },
        {
          "name": "endTime",
          "type": "uint256"
        },
        {
          "components": [
            {
              "name": "rawValue",
              "type": "uint256"
            }
          ],
          "name": "pfc",
          "type": "tuple"
        }
      ],
      "name": "computeRegularFee",
      "outputs": [
        {
          "components": [
            {
              "name": "rawValue",
              "type": "uint256"
            }
          ],
          "name": "regularFee",
          "type": "tuple"
        },
        {
          "components": [
            {
              "name": "rawValue",
              "type": "uint256"
            }
          ],
          "name": "latePenalty",
          "type": "tuple"
        }
      ],
      "payable": false,
      "stateMutability": "view",
      "type": "function"
    },
    {
      "constant": true,
      "inputs": [
        {
          "name": "currency",
          "type": "address"
        }
      ],
      "name": "computeFinalFee",
      "outputs": [
        {
          "components": [
            {
              "name": "rawValue",
              "type": "uint256"
            }
          ],
          "name": "finalFee",
          "type": "tuple"
        }
      ],
      "payable": false,
      "stateMutability": "view",
      "type": "function"
    },
    {
      "constant": false,
      "inputs": [
        {
          "components": [
            {
              "name": "rawValue",
              "type": "uint256"
            }
          ],
          "name": "newOracleFee",
          "type": "tuple"
        }
      ],
      "name": "setFixedOracleFeePerSecond",
      "outputs": [],
      "payable": false,
      "stateMutability": "nonpayable",
      "type": "function"
    },
    {
      "constant": false,
      "inputs": [
        {
          "components": [
            {
              "name": "rawValue",
              "type": "uint256"
            }
          ],
          "name": "newWeeklyDelayFee",
          "type": "tuple"
        }
      ],
      "name": "setWeeklyDelayFee",
      "outputs": [],
      "payable": false,
      "stateMutability": "nonpayable",
      "type": "function"
    },
    {
      "constant": false,
      "inputs": [
        {
          "name": "currency",
          "type": "address"
        },
        {
          "components": [
            {
              "name": "rawValue",
              "type": "uint256"
            }
          ],
          "name": "finalFee",
          "type": "tuple"
        }
      ],
      "name": "setFinalFee",
      "outputs": [],
      "payable": false,
      "stateMutability": "nonpayable",
      "type": "function"
    },
    {
      "constant": false,
      "inputs": [],
      "name": "initializeRolesOnce",
      "outputs": [],
      "payable": false,
      "stateMutability": "nonpayable",
      "type": "function"
    }
  ],
  "bytecode": "0x60806040523480156200001157600080fd5b50620000226200002860201b60201c565b62000512565b600560009054906101000a900460ff16156200007b576040517f08c379a00000000000000000000000000000000000000000000000000000000081526004016200007290620004df565b60405180910390fd5b6001600560006101000a81548160ff021916908315150217905550620000c1600080811115620000a757fe5b600080811115620000b457fe5b33620000c360201b60201c565b565b8260006002811115620000d257fe5b60008083815260200190815260200160002060010160009054906101000a900460ff1660028111156200010157fe5b1462000144576040517f08c379a00000000000000000000000000000000000000000000000000000000081526004016200013b906200049b565b60405180910390fd5b6000806000868152602001908152602001600020905060018160010160006101000a81548160ff021916908360028111156200017c57fe5b0217905550838160000181905550620001a783826002016200022f60201b6200139b1790919060201c565b60006002811115620001b557fe5b60008086815260200190815260200160002060010160009054906101000a900460ff166002811115620001e457fe5b141562000228576040517f08c379a00000000000000000000000000000000000000000000000000000000081526004016200021f9062000479565b60405180910390fd5b5050505050565b6200024182826200024560201b60201c565b5050565b600073ffffffffffffffffffffffffffffffffffffffff168173ffffffffffffffffffffffffffffffffffffffff161415620002b8576040517f08c379a0000000000000000000000000000000000000000000000000000000008152600401620002af90620004bd565b60405180910390fd5b808260000160006101000a81548173ffffffffffffffffffffffffffffffffffffffff021916908373ffffffffffffffffffffffffffffffffffffffff1602179055505050565b60006200030e603c8362000501565b91507f417474656d7074656420746f2075736520616e20696e76616c696420726f6c6560008301527f20746f206d616e61676520616e206578636c757369766520726f6c65000000006020830152604082019050919050565b600062000376601e8362000501565b91507f43616e6e6f74207573652061207072652d6578697374696e6720726f6c6500006000830152602082019050919050565b6000620003b860238362000501565b91507f43616e6e6f742073657420616e206578636c757369766520726f6c6520746f2060008301527f30783000000000000000000000000000000000000000000000000000000000006020830152604082019050919050565b600062000420602c8362000501565b91507f4f6e6c792074686520636f6e7374727563746f722073686f756c642063616c6c60008301527f2074686973206d6574686f6400000000000000000000000000000000000000006020830152604082019050919050565b600060208201905081810360008301526200049481620002ff565b9050919050565b60006020820190508181036000830152620004b68162000367565b9050919050565b60006020820190508181036000830152620004d881620003a9565b9050919050565b60006020820190508181036000830152620004fa8162000411565b9050919050565b600082825260208201905092915050565b611f3080620005226000396000f3fe6080604052600436106100e85760003560e01c806374d0a6761161008a578063ab3545e511610059578063ab3545e5146102db578063bd1f4b5214610318578063cd3a9b2414610341578063d97c05be1461034b576100e8565b806374d0a676146102235780637684e0001461024c5780637cdc1cb9146102755780637e7e591d146102b2576100e8565b80634933a887116100c65780634933a887146101565780635b97aadd1461017f5780636be7658b146101bc57806374201feb146101e5576100e8565b806315ed0f5b146100ed5780632e1a7d4d1461010457806334a9eff41461012d575b600080fd5b3480156100f957600080fd5b50610102610374565b005b34801561011057600080fd5b5061012b600480360361012691908101906115fe565b610402565b005b34801561013957600080fd5b50610154600480360361014f91908101906115d5565b610499565b005b34801561016257600080fd5b5061017d6004803603610178919081019061150b565b610502565b005b34801561018b57600080fd5b506101a660048036036101a1919081019061150b565b610640565b6040516101b39190611db1565b60405180910390f35b3480156101c857600080fd5b506101e360048036036101de9190810190611650565b6106a3565b005b3480156101f157600080fd5b5061020c6004803603610207919081019061168c565b6107aa565b60405161021a929190611dcc565b60405180910390f35b34801561022f57600080fd5b5061024a60048036036102459190810190611650565b61088f565b005b34801561025857600080fd5b50610273600480360361026e91908101906115d5565b610996565b005b34801561028157600080fd5b5061029c60048036036102979190810190611650565b610a53565b6040516102a99190611c16565b60405180910390f35b3480156102be57600080fd5b506102d960048036036102d49190810190611534565b610b4e565b005b3480156102e757600080fd5b5061030260048036036102fd91908101906115fe565b610bf5565b60405161030f9190611b72565b60405180910390f35b34801561032457600080fd5b5061033f600480360361033a9190810190611570565b610c98565b005b610349610d85565b005b34801561035757600080fd5b50610372600480360361036d9190810190611650565b610d94565b005b600560009054906101000a900460ff16156103c4576040517f08c379a00000000000000000000000000000000000000000000000000000000081526004016103bb90611d51565b60405180910390fd5b6001600560006101000a81548160ff0219169083151502179055506104006000808111156103ee57fe5b6000808111156103fa57fe5b33610e9c565b565b60015461040f8133610a53565b61044e576040517f08c379a000000000000000000000000000000000000000000000000000000000815260040161044590611cb1565b60405180910390fd5b3373ffffffffffffffffffffffffffffffffffffffff166108fc839081150290604051600060405180830381858888f19350505050158015610494573d6000803e3d6000fd5b505050565b6000808111156104a557fe5b6104af8133610a53565b6104ee576040517f08c379a00000000000000000000000000000000000000000000000000000000081526004016104e590611cb1565b60405180910390fd5b816003600082015181600001559050505050565b600081905060008173ffffffffffffffffffffffffffffffffffffffff1663dd62ed3e33306040518363ffffffff1660e01b8152600401610544929190611b8d565b60206040518083038186803b15801561055c57600080fd5b505afa158015610570573d6000803e3d6000fd5b505050506040513d601f19601f820116820180604052506105949190810190611627565b9050600081116105a357600080fd5b8173ffffffffffffffffffffffffffffffffffffffff166323b872dd3330846040518463ffffffff1660e01b81526004016105e093929190611bb6565b602060405180830381600087803b1580156105fa57600080fd5b505af115801561060e573d6000803e3d6000fd5b505050506040513d601f19601f8201168201806040525061063291908101906115ac565b61063b57600080fd5b505050565b610648611451565b600460008373ffffffffffffffffffffffffffffffffffffffff1673ffffffffffffffffffffffffffffffffffffffff1681526020019081526020016000206040518060200160405290816000820154815250509050919050565b816002808111156106b057fe5b60008083815260200190815260200160002060010160009054906101000a900460ff1660028111156106de57fe5b1461071e576040517f08c379a000000000000000000000000000000000000000000000000000000000815260040161071590611c91565b60405180910390fd5b8261073e6000808381526020019081526020016000206000015433610a53565b61077d576040517f08c379a000000000000000000000000000000000000000000000000000000000815260040161077490611d71565b60405180910390fd5b6107a483600080878152602001908152602001600020600301610ff690919063ffffffff16565b50505050565b6107b2611451565b6107ba611451565b60006107cf868661105490919063ffffffff16565b905061081c600260405180602001604052908160008201548152505061080e838780360361080091908101906115d5565b6110aa90919063ffffffff16565b6110df90919063ffffffff16565b925061087e61085f61083a62093a808461112990919063ffffffff16565b60036040518060200160405290816000820154815250506110aa90919063ffffffff16565b8580360361087091908101906115d5565b6110df90919063ffffffff16565b915082829250925050935093915050565b8160028081111561089c57fe5b60008083815260200190815260200160002060010160009054906101000a900460ff1660028111156108ca57fe5b1461090a576040517f08c379a000000000000000000000000000000000000000000000000000000000815260040161090190611c91565b60405180910390fd5b8261092a6000808381526020019081526020016000206000015433610a53565b610969576040517f08c379a000000000000000000000000000000000000000000000000000000000815260040161096090611d71565b60405180910390fd5b6109908360008087815260200190815260200160002060030161118590919063ffffffff16565b50505050565b6000808111156109a257fe5b6109ac8133610a53565b6109eb576040517f08c379a00000000000000000000000000000000000000000000000000000000081526004016109e290611cb1565b60405180910390fd5b6109ff6001836111e390919063ffffffff16565b610a0857600080fd5b816002600082015181600001559050507fce0ae2865efa0c92fb74c1e33121795dc95cc78d86412a5b8f20be139857f38682604051610a479190611db1565b60405180910390a15050565b600080600080858152602001908152602001600020905060016002811115610a7757fe5b8160010160009054906101000a900460ff166002811115610a9457fe5b1415610ab857610ab0838260020161120090919063ffffffff16565b915050610b48565b600280811115610ac457fe5b8160010160009054906101000a900460ff166002811115610ae157fe5b1415610b0557610afd838260030161125d90919063ffffffff16565b915050610b48565b6000610b46576040517f08c379a0000000000000000000000000000000000000000000000000000000008152600401610b3d90611d91565b60405180910390fd5b505b92915050565b600080811115610b5a57fe5b610b648133610a53565b610ba3576040517f08c379a0000000000000000000000000000000000000000000000000000000008152600401610b9a90611cb1565b60405180910390fd5b81600460008573ffffffffffffffffffffffffffffffffffffffff1673ffffffffffffffffffffffffffffffffffffffff16815260200190815260200160002060008201518160000155905050505050565b60008160016002811115610c0557fe5b60008083815260200190815260200160002060010160009054906101000a900460ff166002811115610c3357fe5b14610c73576040517f08c379a0000000000000000000000000000000000000000000000000000000008152600401610c6a90611c31565b60405180910390fd5b610c906000808581526020019081526020016000206002016112b6565b915050919050565b600154610ca58133610a53565b610ce4576040517f08c379a0000000000000000000000000000000000000000000000000000000008152600401610cdb90611cb1565b60405180910390fd5b60008390508073ffffffffffffffffffffffffffffffffffffffff1663a9059cbb33856040518363ffffffff1660e01b8152600401610d24929190611bed565b602060405180830381600087803b158015610d3e57600080fd5b505af1158015610d52573d6000803e3d6000fd5b505050506040513d601f19601f82011682018060405250610d7691908101906115ac565b610d7f57600080fd5b50505050565b60003411610d9257600080fd5b565b8160016002811115610da257fe5b60008083815260200190815260200160002060010160009054906101000a900460ff166002811115610dd057fe5b14610e10576040517f08c379a0000000000000000000000000000000000000000000000000000000008152600401610e0790611c31565b60405180910390fd5b82610e306000808381526020019081526020016000206000015433610a53565b610e6f576040517f08c379a0000000000000000000000000000000000000000000000000000000008152600401610e6690611d71565b60405180910390fd5b610e96836000808781526020019081526020016000206002016112e490919063ffffffff16565b50505050565b8260006002811115610eaa57fe5b60008083815260200190815260200160002060010160009054906101000a900460ff166002811115610ed857fe5b14610f18576040517f08c379a0000000000000000000000000000000000000000000000000000000008152600401610f0f90611d11565b60405180910390fd5b6000806000868152602001908152602001600020905060018160010160006101000a81548160ff02191690836002811115610f4f57fe5b0217905550838160000181905550610f73838260020161139b90919063ffffffff16565b60006002811115610f8057fe5b60008086815260200190815260200160002060010160009054906101000a900460ff166002811115610fae57fe5b1415610fef576040517f08c379a0000000000000000000000000000000000000000000000000000000008152600401610fe690611cd1565b60405180910390fd5b5050505050565b60008260000160008373ffffffffffffffffffffffffffffffffffffffff1673ffffffffffffffffffffffffffffffffffffffff16815260200190815260200160002060006101000a81548160ff0219169083151502179055505050565b600082821115611099576040517f08c379a000000000000000000000000000000000000000000000000000000000815260040161109090611c51565b60405180910390fd5b600082840390508091505092915050565b6110b2611451565b60405180602001604052806110d48486600001516113a990919063ffffffff16565b815250905092915050565b6110e7611451565b6040518060200160405280670de0b6b3a7640000611116856000015187600001516113a990919063ffffffff16565b8161111d57fe5b04815250905092915050565b600080821161116d576040517f08c379a000000000000000000000000000000000000000000000000000000000815260040161116490611c71565b60405180910390fd5b600082848161117857fe5b0490508091505092915050565b60018260000160008373ffffffffffffffffffffffffffffffffffffffff1673ffffffffffffffffffffffffffffffffffffffff16815260200190815260200160002060006101000a81548160ff0219169083151502179055505050565b60006111ee82611419565b60000151836000015110905092915050565b60008173ffffffffffffffffffffffffffffffffffffffff168360000160009054906101000a900473ffffffffffffffffffffffffffffffffffffffff1673ffffffffffffffffffffffffffffffffffffffff1614905092915050565b60008260000160008373ffffffffffffffffffffffffffffffffffffffff1673ffffffffffffffffffffffffffffffffffffffff16815260200190815260200160002060009054906101000a900460ff16905092915050565b60008160000160009054906101000a900473ffffffffffffffffffffffffffffffffffffffff169050919050565b600073ffffffffffffffffffffffffffffffffffffffff168173ffffffffffffffffffffffffffffffffffffffff161415611354576040517f08c379a000000000000000000000000000000000000000000000000000000000815260040161134b90611d31565b60405180910390fd5b808260000160006101000a81548173ffffffffffffffffffffffffffffffffffffffff021916908373ffffffffffffffffffffffffffffffffffffffff1602179055505050565b6113a582826112e4565b5050565b6000808314156113bc5760009050611413565b60008284029050828482816113cd57fe5b041461140e576040517f08c379a000000000000000000000000000000000000000000000000000000000815260040161140590611cf1565b60405180910390fd5b809150505b92915050565b611421611451565b6040518060200160405280611447670de0b6b3a7640000856113a990919063ffffffff16565b8152509050919050565b6040518060200160405280600081525090565b60008135905061147381611eb1565b92915050565b60008151905061148881611ec8565b92915050565b6000602082840312156114a057600080fd5b81905092915050565b6000602082840312156114bb57600080fd5b6114c56020611df5565b905060006114d5848285016114e1565b60008301525092915050565b6000813590506114f081611edf565b92915050565b60008151905061150581611edf565b92915050565b60006020828403121561151d57600080fd5b600061152b84828501611464565b91505092915050565b6000806040838503121561154757600080fd5b600061155585828601611464565b9250506020611566858286016114a9565b9150509250929050565b6000806040838503121561158357600080fd5b600061159185828601611464565b92505060206115a2858286016114e1565b9150509250929050565b6000602082840312156115be57600080fd5b60006115cc84828501611479565b91505092915050565b6000602082840312156115e757600080fd5b60006115f5848285016114a9565b91505092915050565b60006020828403121561161057600080fd5b600061161e848285016114e1565b91505092915050565b60006020828403121561163957600080fd5b6000611647848285016114f6565b91505092915050565b6000806040838503121561166357600080fd5b6000611671858286016114e1565b925050602061168285828601611464565b9150509250929050565b6000806000606084860312156116a157600080fd5b60006116af868287016114e1565b93505060206116c0868287016114e1565b92505060406116d18682870161148e565b9150509250925092565b6116e481611e7b565b82525050565b6116f381611e33565b82525050565b61170281611e45565b82525050565b6000611715602f83611e22565b91507f4d7573742062652063616c6c6564206f6e20616e20696e697469616c697a656460008301527f204578636c757369766520726f6c6500000000000000000000000000000000006020830152604082019050919050565b600061177b601e83611e22565b91507f536166654d6174683a207375627472616374696f6e206f766572666c6f7700006000830152602082019050919050565b60006117bb601a83611e22565b91507f536166654d6174683a206469766973696f6e206279207a65726f0000000000006000830152602082019050919050565b60006117fb602c83611e22565b91507f4d7573742062652063616c6c6564206f6e20616e20696e697469616c697a656460008301527f2053686172656420726f6c6500000000000000000000000000000000000000006020830152604082019050919050565b6000611861602283611e22565b91507f53656e64657220646f6573206e6f7420686f6c6420726571756972656420726f60008301527f6c650000000000000000000000000000000000000000000000000000000000006020830152604082019050919050565b60006118c7603c83611e22565b91507f417474656d7074656420746f2075736520616e20696e76616c696420726f6c6560008301527f20746f206d616e61676520616e206578636c757369766520726f6c65000000006020830152604082019050919050565b600061192d602183611e22565b91507f536166654d6174683a206d756c7469706c69636174696f6e206f766572666c6f60008301527f77000000000000000000000000000000000000000000000000000000000000006020830152604082019050919050565b6000611993601e83611e22565b91507f43616e6e6f74207573652061207072652d6578697374696e6720726f6c6500006000830152602082019050919050565b60006119d3602383611e22565b91507f43616e6e6f742073657420616e206578636c757369766520726f6c6520746f2060008301527f30783000000000000000000000000000000000000000000000000000000000006020830152604082019050919050565b6000611a39602c83611e22565b91507f4f6e6c792074686520636f6e7374727563746f722073686f756c642063616c6c60008301527f2074686973206d6574686f6400000000000000000000000000000000000000006020830152604082019050919050565b6000611a9f602483611e22565b91507f43616e206f6e6c792062652063616c6c6564206279206120726f6c65206d616e60008301527f61676572000000000000000000000000000000000000000000000000000000006020830152604082019050919050565b6000611b05600e83611e22565b91507f496e76616c696420726f6c6549640000000000000000000000000000000000006000830152602082019050919050565b602082016000820151611b4e6000850182611b54565b50505050565b611b5d81611e71565b82525050565b611b6c81611e71565b82525050565b6000602082019050611b8760008301846116ea565b92915050565b6000604082019050611ba260008301856116db565b611baf60208301846116ea565b9392505050565b6000606082019050611bcb60008301866116db565b611bd860208301856116ea565b611be56040830184611b63565b949350505050565b6000604082019050611c0260008301856116db565b611c0f6020830184611b63565b9392505050565b6000602082019050611c2b60008301846116f9565b92915050565b60006020820190508181036000830152611c4a81611708565b9050919050565b60006020820190508181036000830152611c6a8161176e565b9050919050565b60006020820190508181036000830152611c8a816117ae565b9050919050565b60006020820190508181036000830152611caa816117ee565b9050919050565b60006020820190508181036000830152611cca81611854565b9050919050565b60006020820190508181036000830152611cea816118ba565b9050919050565b60006020820190508181036000830152611d0a81611920565b9050919050565b60006020820190508181036000830152611d2a81611986565b9050919050565b60006020820190508181036000830152611d4a816119c6565b9050919050565b60006020820190508181036000830152611d6a81611a2c565b9050919050565b60006020820190508181036000830152611d8a81611a92565b9050919050565b60006020820190508181036000830152611daa81611af8565b9050919050565b6000602082019050611dc66000830184611b38565b92915050565b6000604082019050611de16000830185611b38565b611dee6020830184611b38565b9392505050565b6000604051905081810181811067ffffffffffffffff82111715611e1857600080fd5b8060405250919050565b600082825260208201905092915050565b6000611e3e82611e51565b9050919050565b60008115159050919050565b600073ffffffffffffffffffffffffffffffffffffffff82169050919050565b6000819050919050565b6000611e8682611e8d565b9050919050565b6000611e9882611e9f565b9050919050565b6000611eaa82611e51565b9050919050565b611eba81611e33565b8114611ec557600080fd5b50565b611ed181611e45565b8114611edc57600080fd5b50565b611ee881611e71565b8114611ef357600080fd5b5056fea265627a7a72305820190b625704ad80fe3f8b5dbfd222c8941a9c0e2196d58cfc8a2a62e40ce2ab0a6c6578706572696d656e74616cf50037",
  "source": "pragma solidity ^0.5.0;\npragma experimental ABIEncoderV2;\n\nimport \"openzeppelin-solidity/contracts/math/SafeMath.sol\";\nimport \"./StoreInterface.sol\";\nimport \"./Withdrawable.sol\";\nimport \"./FixedPoint.sol\";\nimport \"./MultiRole.sol\";\n\n\n/** \n * @title An implementation of StoreInterface that can accept Oracle fees in ETH or any arbitrary ERC20 token.\n */\ncontract Store is StoreInterface, MultiRole, Withdrawable {\n\n    using SafeMath for uint;\n    using FixedPoint for FixedPoint.Unsigned;\n    using FixedPoint for uint;\n\n    enum Roles {\n        Governance\n    }\n\n    FixedPoint.Unsigned private fixedOracleFeePerSecond; // Percentage of 1 E.g., .1 is 10% Oracle fee.\n\n    FixedPoint.Unsigned private weeklyDelayFee; // Percentage of 1 E.g., .1 is 10% weekly delay fee.\n    mapping(address => FixedPoint.Unsigned) private finalFees;\n    uint private constant SECONDS_PER_WEEK = 604800;\n\n    // TODO(roz): Used to make doubly sure that roles are initialized only once. \n    // Figure out what's going wrong with coverage to necessitate this hack.\n    bool private rolesInitialized;\n\n    constructor() public {\n        initializeRolesOnce();\n    }\n\n    function payOracleFees() external payable {\n        require(msg.value > 0);\n    }\n\n    function payOracleFeesErc20(address erc20Address) external {\n        IERC20 erc20 = IERC20(erc20Address);\n        uint authorizedAmount = erc20.allowance(msg.sender, address(this));\n        require(authorizedAmount > 0);\n        require(erc20.transferFrom(msg.sender, address(this), authorizedAmount));\n    }\n\n    function computeRegularFee(uint startTime, uint endTime, FixedPoint.Unsigned calldata pfc) \n        external \n        view \n        returns (FixedPoint.Unsigned memory regularFee, FixedPoint.Unsigned memory latePenalty) \n    {\n        uint timeDiff = endTime.sub(startTime);\n\n        // Multiply by the unscaled `timeDiff` first, to get more accurate results.\n        regularFee = pfc.mul(timeDiff).mul(fixedOracleFeePerSecond);\n        // `weeklyDelayFee` is already scaled up.\n        latePenalty = pfc.mul(weeklyDelayFee.mul(timeDiff.div(SECONDS_PER_WEEK)));\n\n        return (regularFee, latePenalty);\n    }\n\n    function computeFinalFee(address currency) \n        external \n        view \n        returns (FixedPoint.Unsigned memory finalFee) \n    {\n        finalFee = finalFees[currency];\n    }\n\n    /**\n     * @dev Sets a new oracle fee per second\n     */ \n    function setFixedOracleFeePerSecond(FixedPoint.Unsigned memory newOracleFee) \n        public \n        onlyRoleHolder(uint(Roles.Governance)) \n    {\n        // Oracle fees at or over 100% don't make sense.\n        require(newOracleFee.isLessThan(1));\n        fixedOracleFeePerSecond = newOracleFee;\n        emit NewFixedOracleFeePerSecond(newOracleFee);\n    }\n\n    /**\n     * @dev Sets a new weekly delay fee\n     */ \n    function setWeeklyDelayFee(FixedPoint.Unsigned memory newWeeklyDelayFee) \n        public \n        onlyRoleHolder(uint(Roles.Governance)) \n    {\n        weeklyDelayFee = newWeeklyDelayFee;\n    }\n\n    /**\n     * @dev Sets a new final fee for a particular currency\n     */ \n    function setFinalFee(address currency, FixedPoint.Unsigned memory finalFee) \n        public \n        onlyRoleHolder(uint(Roles.Governance))\n    {\n        finalFees[currency] = finalFee;\n    }\n    \n    /**\n     * @notice Do not call this function externally.\n     * @dev Only called from the constructor, and only extracted to a separate method to make the coverage tool work.\n     * Will revert if called again.\n     */\n    function initializeRolesOnce() public {\n        require(!rolesInitialized, \"Only the constructor should call this method\");\n        rolesInitialized = true;\n        _createExclusiveRole(uint(Roles.Governance), uint(Roles.Governance), msg.sender);\n    }\n\n    event NewFixedOracleFeePerSecond(FixedPoint.Unsigned newOracleFee);\n\n}\n",
  "sourcePath": "/Users/kendrick/Development/Ethereum/defi-dy/contracts/uma/core/contracts/Store.sol",
  "compiler": {
    "name": "solc",
    "version": "0.5.8+commit.23d335f2.Emscripten.clang"
  },
  "schemaVersion": "3.0.10",
  "updatedAt": "2019-11-09T21:38:38.814Z",
  "devdoc": {
    "methods": {
      "addMember(uint256,address)": {
        "details": "Reverts if `roleId` does not represent an initialized, shared role or if the caller is not a member of the managing role for `roleId`."
      },
      "getMember(uint256)": {
        "details": "Reverts if `roleId` does not represent an initialized, exclusive role."
      },
      "holdsRole(uint256,address)": {
        "details": "Reverts if roleId does not correspond to an initialized role."
      },
      "initializeRolesOnce()": {
        "details": "Only called from the constructor, and only extracted to a separate method to make the coverage tool work. Will revert if called again."
      },
      "removeMember(uint256,address)": {
        "details": "Reverts if `roleId` does not represent an initialized, shared role or if the caller is not a member of the managing role for `roleId`."
      },
      "resetMember(uint256,address)": {
        "details": "Reverts if the caller is not a member of the managing role for `roleId` or if `roleId` is not an initialized, exclusive role."
      },
      "setFinalFee(address,(uint256))": {
        "details": "Sets a new final fee for a particular currency"
      },
      "setFixedOracleFeePerSecond((uint256))": {
        "details": "Sets a new oracle fee per second"
      },
      "setWeeklyDelayFee((uint256))": {
        "details": "Sets a new weekly delay fee"
      }
    },
    "title": "An implementation of StoreInterface that can accept Oracle fees in ETH or any arbitrary ERC20 token."
  },
  "userdoc": {
    "methods": {
      "addMember(uint256,address)": {
        "notice": "Adds `newMember` to the shared role, `roleId`."
      },
      "getMember(uint256)": {
        "notice": "Gets the current holder of the exclusive role, `roleId`."
      },
      "holdsRole(uint256,address)": {
        "notice": "Whether `memberToCheck` is a member of roleId."
      },
      "initializeRolesOnce()": {
        "notice": "Do not call this function externally."
      },
      "removeMember(uint256,address)": {
        "notice": "Removes `memberToRemove` from the shared role, `roleId`."
      },
      "resetMember(uint256,address)": {
        "notice": "Changes the exclusive role holder of `roleId` to `newMember`."
      },
      "withdraw(uint256)": {
        "notice": "Withdraws ETH from the contract."
      },
      "withdrawErc20(address,uint256)": {
        "notice": "Withdraws ERC20 tokens from the contract."
      }
    }
  }
}