{
  "contractName": "TestableTest",
  "abi": [
    {
      "constant": false,
      "inputs": [
        {
          "name": "_time",
          "type": "uint256"
        }
      ],
      "name": "setCurrentTime",
      "outputs": [],
      "payable": false,
      "stateMutability": "nonpayable",
      "type": "function"
    },
    {
      "constant": true,
      "inputs": [],
      "name": "getCurrentTime",
      "outputs": [
        {
          "name": "",
          "type": "uint256"
        }
      ],
      "payable": false,
      "stateMutability": "view",
      "type": "function"
    },
    {
      "constant": true,
      "inputs": [],
      "name": "isTest",
      "outputs": [
        {
          "name": "",
          "type": "bool"
        }
      ],
      "payable": false,
      "stateMutability": "view",
      "type": "function"
    },
    {
      "inputs": [
        {
          "name": "_isTest",
          "type": "bool"
        }
      ],
      "payable": false,
      "stateMutability": "nonpayable",
      "type": "constructor"
    },
    {
      "constant": true,
      "inputs": [],
      "name": "getTestableTimeAndBlockTime",
      "outputs": [
        {
          "name": "testableTime",
          "type": "uint256"
        },
        {
          "name": "blockTime",
          "type": "uint256"
        }
      ],
      "payable": false,
      "stateMutability": "view",
      "type": "function"
    }
  ],
  "bytecode": "0x608060405234801561001057600080fd5b506040516020806101f98339810180604052602081101561003057600080fd5b810190808051906020019092919050505080806000806101000a81548160ff021916908315150217905550801561006957426001819055505b505061017f8061007a6000396000f3fe608060405234801561001057600080fd5b506004361061004c5760003560e01c806322f8e5661461005157806329cb924d1461007f5780639381a3451461009d578063dc6ff7bd146100bf575b600080fd5b61007d6004803603602081101561006757600080fd5b81019080803590602001909291905050506100e4565b005b610087610106565b6040518082815260200191505060405180910390f35b6100a561012d565b604051808215151515815260200191505060405180910390f35b6100c761013f565b604051808381526020018281526020019250505060405180910390f35b6000809054906101000a900460ff166100fc57600080fd5b8060018190555050565b60008060009054906101000a900460ff161561012657600154905061012a565b4290505b90565b6000809054906101000a900460ff1681565b60008061014a610106565b4291509150909156fea165627a7a7230582057a6a976d2dccbea57e5ac37e0f55a6ffbfa501342e8e43a5b20e3295654bac70029",
  "source": "pragma solidity ^0.5.0;\n\nimport \"../Testable.sol\";\n\n\n// TestableTest is derived from the abstract contract Testable for testing purposes.\ncontract TestableTest is Testable {\n    // solhint-disable-next-line no-empty-blocks\n    constructor(bool _isTest) public Testable(_isTest) {}\n\n    function getTestableTimeAndBlockTime() external view returns (uint testableTime, uint blockTime) {\n        // solhint-disable-next-line not-rely-on-time\n        return (getCurrentTime(), now);\n    }\n}\n",
  "sourcePath": "/Users/kendrick/Development/Ethereum/defi-dy/contracts/uma/core/contracts/test/TestableTest.sol",
  "compiler": {
    "name": "solc",
    "version": "0.5.8+commit.23d335f2.Emscripten.clang"
  },
  "schemaVersion": "3.0.10",
  "updatedAt": "2019-11-09T13:45:25.746Z",
  "devdoc": {
    "methods": {
      "setCurrentTime(uint256)": {
        "details": "Will revert if not running in test mode."
      }
    }
  },
  "userdoc": {
    "methods": {
      "getCurrentTime()": {
        "notice": "Gets the current time. Will return the last time set in `setCurrentTime` if running in test mode. Otherwise, it will return the block timestamp."
      },
      "setCurrentTime(uint256)": {
        "notice": "Sets the current time."
      }
    }
  }
}