{
  "contractName": "TokenizedDerivativeCreator",
  "abi": [
    {
      "constant": false,
      "inputs": [
        {
          "name": "_time",
          "type": "uint256"
        }
      ],
      "name": "setCurrentTime",
      "outputs": [],
      "payable": false,
      "stateMutability": "nonpayable",
      "type": "function"
    },
    {
      "constant": true,
      "inputs": [],
      "name": "getCurrentTime",
      "outputs": [
        {
          "name": "",
          "type": "uint256"
        }
      ],
      "payable": false,
      "stateMutability": "view",
      "type": "function"
    },
    {
      "constant": true,
      "inputs": [],
      "name": "marginCurrencyWhitelist",
      "outputs": [
        {
          "name": "",
          "type": "address"
        }
      ],
      "payable": false,
      "stateMutability": "view",
      "type": "function"
    },
    {
      "constant": true,
      "inputs": [],
      "name": "isTest",
      "outputs": [
        {
          "name": "",
          "type": "bool"
        }
      ],
      "payable": false,
      "stateMutability": "view",
      "type": "function"
    },
    {
      "constant": true,
      "inputs": [],
      "name": "returnCalculatorWhitelist",
      "outputs": [
        {
          "name": "",
          "type": "address"
        }
      ],
      "payable": false,
      "stateMutability": "view",
      "type": "function"
    },
    {
      "inputs": [
        {
          "name": "_finderAddress",
          "type": "address"
        },
        {
          "name": "_returnCalculatorWhitelist",
          "type": "address"
        },
        {
          "name": "_marginCurrencyWhitelist",
          "type": "address"
        },
        {
          "name": "_isTest",
          "type": "bool"
        }
      ],
      "payable": false,
      "stateMutability": "nonpayable",
      "type": "constructor"
    },
    {
      "anonymous": false,
      "inputs": [
        {
          "indexed": false,
          "name": "contractAddress",
          "type": "address"
        }
      ],
      "name": "CreatedTokenizedDerivative",
      "type": "event"
    },
    {
      "constant": false,
      "inputs": [
        {
          "components": [
            {
              "name": "priceFeedAddress",
              "type": "address"
            },
            {
              "name": "defaultPenalty",
              "type": "uint256"
            },
            {
              "name": "supportedMove",
              "type": "uint256"
            },
            {
              "name": "product",
              "type": "bytes32"
            },
            {
              "name": "fixedYearlyFee",
              "type": "uint256"
            },
            {
              "name": "disputeDeposit",
              "type": "uint256"
            },
            {
              "name": "returnCalculator",
              "type": "address"
            },
            {
              "name": "startingTokenPrice",
              "type": "uint256"
            },
            {
              "name": "expiry",
              "type": "uint256"
            },
            {
              "name": "marginCurrency",
              "type": "address"
            },
            {
              "name": "withdrawLimit",
              "type": "uint256"
            },
            {
              "name": "returnType",
              "type": "uint8"
            },
            {
              "name": "startingUnderlyingPrice",
              "type": "uint256"
            },
            {
              "name": "name",
              "type": "string"
            },
            {
              "name": "symbol",
              "type": "string"
            }
          ],
          "name": "params",
          "type": "tuple"
        }
      ],
      "name": "createTokenizedDerivative",
      "outputs": [
        {
          "name": "derivativeAddress",
          "type": "address"
        }
      ],
      "payable": false,
      "stateMutability": "nonpayable",
      "type": "function"
    }
  ],
  "bytecode": "0x60806040523480156200001157600080fd5b5060405160808062004d1983398101806040526200003391908101906200015a565b8084806000806101000a81548173ffffffffffffffffffffffffffffffffffffffff021916908373ffffffffffffffffffffffffffffffffffffffff1602179055505080600060146101000a81548160ff02191690831515021790555080156200009f57426001819055505b5082600260006101000a81548173ffffffffffffffffffffffffffffffffffffffff021916908373ffffffffffffffffffffffffffffffffffffffff16021790555081600360006101000a81548173ffffffffffffffffffffffffffffffffffffffff021916908373ffffffffffffffffffffffffffffffffffffffff160217905550505050506200023a565b6000815190506200013d8162000206565b92915050565b600081519050620001548162000220565b92915050565b600080600080608085870312156200017157600080fd5b600062000181878288016200012c565b945050602062000194878288016200012c565b9350506040620001a7878288016200012c565b9250506060620001ba8782880162000143565b91505092959194509250565b6000620001d382620001e6565b9050919050565b60008115159050919050565b600073ffffffffffffffffffffffffffffffffffffffff82169050919050565b6200021181620001c6565b81146200021d57600080fd5b50565b6200022b81620001da565b81146200023757600080fd5b50565b614acf806200024a6000396000f3fe60806040523480156200001157600080fd5b50600436106200006a5760003560e01c806322f8e566146200006f57806329cb924d146200008f578063415b725114620000b15780639381a34514620000d3578063966a67dd14620000f5578063aec238491462000117575b600080fd5b6200008d600480360362000087919081019062000c4a565b6200014d565b005b6200009962000171565b604051620000a8919062001034565b60405180910390f35b620000bb6200019a565b604051620000ca919062000fc9565b60405180910390f35b620000dd620001c0565b604051620000ec919062000f8f565b60405180910390f35b620000ff620001d3565b6040516200010e919062000fc9565b60405180910390f35b6200013560048036036200012f919081019062000c05565b620001f9565b60405162000144919062000f3e565b60405180910390f35b600060149054906101000a900460ff166200016757600080fd5b8060018190555050565b60008060149054906101000a900460ff16156200019357600154905062000197565b4290505b90565b600360009054906101000a900473ffffffffffffffffffffffffffffffffffffffff1681565b600060149054906101000a900460ff1681565b600260009054906101000a900473ffffffffffffffffffffffffffffffffffffffff1681565b60008062000207836200031d565b836101a00151846101c0015160405162000221906200080c565b6200022f9392919062000fe6565b604051809103906000f0801580156200024c573d6000803e3d6000fd5b50905060606001604051908082528060200260200182016040528015620002825781602001602082028038833980820191505090505b50905033816000815181106200029457fe5b602002602001019073ffffffffffffffffffffffffffffffffffffffff16908173ffffffffffffffffffffffffffffffffffffffff1681525050620002da8183620006b6565b7ff662f8b1426e949f451eda394771fcd3d09da20372cd77bfc715e2dc6affbf92826040516200030b919062000f3e565b60405180910390a18192505050919050565b620003276200081a565b33816000019073ffffffffffffffffffffffffffffffffffffffff16908173ffffffffffffffffffffffffffffffffffffffff1681525050600260009054906101000a900473ffffffffffffffffffffffffffffffffffffffff1673ffffffffffffffffffffffffffffffffffffffff16633a3ab6728360c001516040518263ffffffff1660e01b8152600401620003c0919062000f3e565b60206040518083038186803b158015620003d957600080fd5b505afa158015620003ee573d6000803e3d6000fd5b505050506040513d601f19601f8201168201806040525062000414919081019062000bd9565b6200041e57600080fd5b8160c0015181610100019073ffffffffffffffffffffffffffffffffffffffff16908173ffffffffffffffffffffffffffffffffffffffff1681525050600360009054906101000a900473ffffffffffffffffffffffffffffffffffffffff1673ffffffffffffffffffffffffffffffffffffffff16633a3ab6728361012001516040518263ffffffff1660e01b8152600401620004bd919062000f3e565b60206040518083038186803b158015620004d657600080fd5b505afa158015620004eb573d6000803e3d6000fd5b505050506040513d601f19601f8201168201806040525062000511919081019062000bd9565b6200051b57600080fd5b81610120015181610160019073ffffffffffffffffffffffffffffffffffffffff16908173ffffffffffffffffffffffffffffffffffffffff16815250508160000151816040019073ffffffffffffffffffffffffffffffffffffffff16908173ffffffffffffffffffffffffffffffffffffffff16815250508160200151816060018181525050816040015181608001818152505081606001518160a001818152505081608001518160c00181815250508160a001518160e00181815250508160e00151816101200181815250508161010001518161014001818152505081610140015181610180018181525050816101600151816101a0019060018111156200062257fe5b908160018111156200063057fe5b81525050816101800151816101c00181815250506000809054906101000a900473ffffffffffffffffffffffffffffffffffffffff16816020019073ffffffffffffffffffffffffffffffffffffffff16908173ffffffffffffffffffffffffffffffffffffffff1681525050620006a762000171565b816101e0018181525050919050565b60008060009054906101000a900473ffffffffffffffffffffffffffffffffffffffff16905060007f5265676973747279000000000000000000000000000000000000000000000000905060008273ffffffffffffffffffffffffffffffffffffffff1663aafd5e40836040518263ffffffff1660e01b81526004016200073e919062000fac565b60206040518083038186803b1580156200075757600080fd5b505afa1580156200076c573d6000803e3d6000fd5b505050506040513d601f19601f8201168201806040525062000792919081019062000bad565b90508073ffffffffffffffffffffffffffffffffffffffff16638014b1dc86866040518363ffffffff1660e01b8152600401620007d192919062000f5b565b600060405180830381600087803b158015620007ec57600080fd5b505af115801562000801573d6000803e3d6000fd5b505050505050505050565b613815806200128183390190565b604051806102000160405280600073ffffffffffffffffffffffffffffffffffffffff168152602001600073ffffffffffffffffffffffffffffffffffffffff168152602001600073ffffffffffffffffffffffffffffffffffffffff1681526020016000815260200160008152602001600080191681526020016000815260200160008152602001600073ffffffffffffffffffffffffffffffffffffffff1681526020016000815260200160008152602001600073ffffffffffffffffffffffffffffffffffffffff16815260200160008152602001600060018111156200090057fe5b815260200160008152602001600081525090565b600081359050620009258162001207565b92915050565b6000815190506200093c8162001207565b92915050565b600081519050620009538162001221565b92915050565b6000813590506200096a816200123b565b92915050565b600081359050620009818162001255565b92915050565b600082601f8301126200099957600080fd5b8135620009b0620009aa826200107f565b62001051565b91508082526020830160208301858383011115620009cd57600080fd5b620009da838284620011a3565b50505092915050565b60006101e08284031215620009f757600080fd5b62000a046101e062001051565b9050600062000a168482850162000914565b600083015250602062000a2c8482850162000b96565b602083015250604062000a428482850162000b96565b604083015250606062000a588482850162000959565b606083015250608062000a6e8482850162000b96565b60808301525060a062000a848482850162000b96565b60a08301525060c062000a9a8482850162000914565b60c08301525060e062000ab08482850162000b96565b60e08301525061010062000ac78482850162000b96565b6101008301525061012062000adf8482850162000914565b6101208301525061014062000af78482850162000b96565b6101408301525061016062000b0f8482850162000970565b6101608301525061018062000b278482850162000b96565b610180830152506101a082013567ffffffffffffffff81111562000b4a57600080fd5b62000b588482850162000987565b6101a0830152506101c082013567ffffffffffffffff81111562000b7b57600080fd5b62000b898482850162000987565b6101c08301525092915050565b60008135905062000ba78162001266565b92915050565b60006020828403121562000bc057600080fd5b600062000bd0848285016200092b565b91505092915050565b60006020828403121562000bec57600080fd5b600062000bfc8482850162000942565b91505092915050565b60006020828403121562000c1857600080fd5b600082013567ffffffffffffffff81111562000c3357600080fd5b62000c4184828501620009e3565b91505092915050565b60006020828403121562000c5d57600080fd5b600062000c6d8482850162000b96565b91505092915050565b600062000c84838362000c90565b60208301905092915050565b62000c9b81620010fe565b82525050565b62000cac81620010fe565b82525050565b600062000cbf82620010b9565b62000ccb8185620010dc565b935062000cd883620010ac565b8060005b8381101562000d0f57815162000cf3888262000c76565b975062000d0083620010cf565b92505060018101905062000cdc565b5085935050505092915050565b62000d278162001112565b82525050565b62000d38816200111e565b82525050565b62000d49816200111e565b82525050565b62000d5a8162001167565b82525050565b62000d6b816200118f565b82525050565b600062000d7e82620010c4565b62000d8a8185620010ed565b935062000d9c818560208601620011b2565b62000da781620011e8565b840191505092915050565b6102008201600082015162000dcb600085018262000c90565b50602082015162000de0602085018262000c90565b50604082015162000df5604085018262000c90565b50606082015162000e0a606085018262000f1c565b50608082015162000e1f608085018262000f1c565b5060a082015162000e3460a085018262000d2d565b5060c082015162000e4960c085018262000f1c565b5060e082015162000e5e60e085018262000f1c565b5061010082015162000e7561010085018262000c90565b5061012082015162000e8c61012085018262000f1c565b5061014082015162000ea361014085018262000f1c565b5061016082015162000eba61016085018262000c90565b5061018082015162000ed161018085018262000f1c565b506101a082015162000ee86101a085018262000d60565b506101c082015162000eff6101c085018262000f1c565b506101e082015162000f166101e085018262000f1c565b50505050565b62000f27816200115d565b82525050565b62000f38816200115d565b82525050565b600060208201905062000f55600083018462000ca1565b92915050565b6000604082019050818103600083015262000f77818562000cb2565b905062000f88602083018462000ca1565b9392505050565b600060208201905062000fa6600083018462000d1c565b92915050565b600060208201905062000fc3600083018462000d3e565b92915050565b600060208201905062000fe0600083018462000d4f565b92915050565b60006102408201905062000ffe600083018662000db2565b81810361020083015262001013818562000d71565b90508181036102208301526200102a818462000d71565b9050949350505050565b60006020820190506200104b600083018462000f2d565b92915050565b6000604051905081810181811067ffffffffffffffff821117156200107557600080fd5b8060405250919050565b600067ffffffffffffffff8211156200109757600080fd5b601f19601f8301169050602081019050919050565b6000602082019050919050565b600081519050919050565b600081519050919050565b6000602082019050919050565b600082825260208201905092915050565b600082825260208201905092915050565b60006200110b826200113d565b9050919050565b60008115159050919050565b6000819050919050565b60008190506200113882620011f9565b919050565b600073ffffffffffffffffffffffffffffffffffffffff82169050919050565b6000819050919050565b600062001174826200117b565b9050919050565b600062001188826200113d565b9050919050565b60006200119c8262001128565b9050919050565b82818337600083830152505050565b60005b83811015620011d2578082015181840152602081019050620011b5565b83811115620011e2576000848401525b50505050565b6000601f19601f8301169050919050565b600281106200120457fe5b50565b6200121281620010fe565b81146200121e57600080fd5b50565b6200122c8162001112565b81146200123857600080fd5b50565b62001246816200111e565b81146200125257600080fd5b50565b600281106200126357600080fd5b50565b62001271816200115d565b81146200127d57600080fd5b5056fe60806040523480156200001157600080fd5b5060405162003815380380620038158339810180604052620000379190810190620003e4565b81600390805190602001906200004f929190620000e4565b50806004908051906020019062000068929190620000e4565b50600573__TokenizedDerivativeUtils______________63c5cfad68909185846040518463ffffffff1660e01b8152600401620000a99392919062000665565b60006040518083038186803b158015620000c257600080fd5b505af4158015620000d7573d6000803e3d6000fd5b5050505050505062000847565b828054600181600116156101000203166002900490600052602060002090601f016020900481019282601f106200012757805160ff191683800117855562000158565b8280016001018555821562000158579182015b82811115620001575782518255916020019190600101906200013a565b5b5090506200016791906200016b565b5090565b6200019091905b808211156200018c57600081600090555060010162000172565b5090565b90565b600081519050620001a481620007e8565b92915050565b600081519050620001bb8162000802565b92915050565b600081519050620001d2816200081c565b92915050565b600082601f830112620001ea57600080fd5b815162000201620001fb82620006d9565b620006ab565b915080825260208301602083018583830111156200021e57600080fd5b6200022b83828462000793565b50505092915050565b600061020082840312156200024857600080fd5b62000255610200620006ab565b90506000620002678482850162000193565b60008301525060206200027d8482850162000193565b6020830152506040620002938482850162000193565b6040830152506060620002a984828501620003cd565b6060830152506080620002bf84828501620003cd565b60808301525060a0620002d584828501620001aa565b60a08301525060c0620002eb84828501620003cd565b60c08301525060e06200030184828501620003cd565b60e083015250610100620003188482850162000193565b610100830152506101206200033084828501620003cd565b610120830152506101406200034884828501620003cd565b61014083015250610160620003608482850162000193565b610160830152506101806200037884828501620003cd565b610180830152506101a06200039084828501620001c1565b6101a0830152506101c0620003a884828501620003cd565b6101c0830152506101e0620003c084828501620003cd565b6101e08301525092915050565b600081519050620003de816200082d565b92915050565b60008060006102408486031215620003fb57600080fd5b60006200040b8682870162000234565b93505061020084015167ffffffffffffffff8111156200042a57600080fd5b6200043886828701620001d8565b92505061022084015167ffffffffffffffff8111156200045757600080fd5b6200046586828701620001d8565b9150509250925092565b6200047a8162000722565b82525050565b6200048b8162000736565b82525050565b6200049c816200077f565b82525050565b6000620004af8262000706565b620004bb818562000711565b9350620004cd81856020860162000793565b620004d881620007c9565b840191505092915050565b61020082016000820151620004fc60008501826200046f565b5060208201516200051160208501826200046f565b5060408201516200052660408501826200046f565b5060608201516200053b606085018262000654565b50608082015162000550608085018262000654565b5060a08201516200056560a085018262000480565b5060c08201516200057a60c085018262000654565b5060e08201516200058f60e085018262000654565b50610100820151620005a66101008501826200046f565b50610120820151620005bd61012085018262000654565b50610140820151620005d461014085018262000654565b50610160820151620005eb6101608501826200046f565b506101808201516200060261018085018262000654565b506101a0820151620006196101a085018262000491565b506101c0820151620006306101c085018262000654565b506101e0820151620006476101e085018262000654565b50505050565b8082525050565b6200065f8162000775565b82525050565b6000610240820190506200067d60008301866200064d565b6200068c6020830185620004e3565b818103610220830152620006a18184620004a2565b9050949350505050565b6000604051905081810181811067ffffffffffffffff82111715620006cf57600080fd5b8060405250919050565b600067ffffffffffffffff821115620006f157600080fd5b601f19601f8301169050602081019050919050565b600081519050919050565b600082825260208201905092915050565b60006200072f8262000755565b9050919050565b6000819050919050565b60008190506200075082620007da565b919050565b600073ffffffffffffffffffffffffffffffffffffffff82169050919050565b6000819050919050565b60006200078c8262000740565b9050919050565b60005b83811015620007b357808201518184015260208101905062000796565b83811115620007c3576000848401525b50505050565b6000601f19601f8301169050919050565b60028110620007e557fe5b50565b620007f38162000722565b8114620007ff57600080fd5b50565b6200080d8162000736565b81146200081957600080fd5b50565b600281106200082a57600080fd5b50565b620008388162000775565b81146200084457600080fd5b50565b612fbe80620008576000396000f3fe6080604052600436106101ee5760003560e01c806342966c681161010d578063b6b55f25116100a0578063c7af29a91161006f578063c7af29a91461069a578063dd62ed3e146106c5578063e14e42da14610702578063e39dd93a1461072e578063f3f75c0614610759576101ee565b8063b6b55f2514610622578063b82b9ff61461063e578063bda02e771461065a578063c596481714610671576101ee565b806395d89b41116100dc57806395d89b4114610554578063a457c2d71461057f578063a6e158f8146105bc578063a9059cbb146105e5576101ee565b806342966c68146104a75780636074785a146104d057806370a08231146104fb57806386d6282c14610538576101ee565b80632e1a7d4d11610185578063395093511161015457806339509351146103db5780633c6ee392146104185780633e1700a71461043457806340c10f191461046a576101ee565b80632e1a7d4d14610345578063313ce5671461036e5780633327570b146103995780633403c2fc146103c4576101ee565b806318160ddd116101c157806318160ddd146102895780631c93cd75146102b4578063211339f8146102dd57806323b872dd14610308576101ee565b806306fdde03146101f3578063095ea7b31461021e57806311da60b41461025b578063156c87fb14610272575b600080fd5b3480156101ff57600080fd5b50610208610784565b6040516102159190612a61565b60405180910390f35b34801561022a57600080fd5b50610245600480360361024091908101906122b7565b610822565b6040516102529190612a02565b60405180910390f35b34801561026757600080fd5b50610270610839565b005b34801561027e57600080fd5b506102876108a5565b005b34801561029557600080fd5b5061029e610911565b6040516102ab9190612d24565b60405180910390f35b3480156102c057600080fd5b506102db60048036036102d69190810190612203565b61091b565b005b3480156102e957600080fd5b506102f261098a565b6040516102ff9190612a1d565b60405180910390f35b34801561031457600080fd5b5061032f600480360361032a9190810190612268565b610a1b565b60405161033c9190612a02565b60405180910390f35b34801561035157600080fd5b5061036c60048036036103679190810190612381565b610acc565b005b34801561037a57600080fd5b50610383610b3b565b6040516103909190612d3f565b60405180910390f35b3480156103a557600080fd5b506103ae610b40565b6040516103bb9190612a1d565b60405180910390f35b3480156103d057600080fd5b506103d9610bd1565b005b3480156103e757600080fd5b5061040260048036036103fd91908101906122b7565b610c3d565b60405161040f9190612a02565b60405180910390f35b610432600480360361042d91908101906123aa565b610ce2565b005b34801561044057600080fd5b50610449610d54565b6040516104619c9b9a99989796959493929190612b83565b60405180910390f35b34801561047657600080fd5b50610491600480360361048c91908101906122b7565b611173565b60405161049e9190612a02565b60405180910390f35b3480156104b357600080fd5b506104ce60048036036104c99190810190612381565b6111c1565b005b3480156104dc57600080fd5b506104e5611206565b6040516104f29190612a1d565b60405180910390f35b34801561050757600080fd5b50610522600480360361051d9190810190612203565b611297565b60405161052f9190612d24565b60405180910390f35b610552600480360361054d9190810190612381565b6112df565b005b34801561056057600080fd5b5061056961134e565b6040516105769190612a61565b60405180910390f35b34801561058b57600080fd5b506105a660048036036105a191908101906122b7565b6113ec565b6040516105b39190612a02565b60405180910390f35b3480156105c857600080fd5b506105e360048036036105de9190810190612381565b611491565b005b3480156105f157600080fd5b5061060c600480360361060791908101906122b7565b611500565b6040516106199190612a02565b60405180910390f35b61063c60048036036106379190810190612381565b611517565b005b610658600480360361065391908101906123aa565b611586565b005b34801561066657600080fd5b5061066f6115f8565b005b34801561067d57600080fd5b50610698600480360361069391908101906122b7565b611664565b005b3480156106a657600080fd5b506106af6116d6565b6040516106bc9190612a1d565b60405180910390f35b3480156106d157600080fd5b506106ec60048036036106e7919081019061222c565b611767565b6040516106f99190612d24565b60405180910390f35b34801561070e57600080fd5b506107176117ee565b604051610725929190612a38565b60405180910390f35b34801561073a57600080fd5b50610743611882565b6040516107509190612a1d565b60405180910390f35b34801561076557600080fd5b5061076e611913565b60405161077b9190612a02565b60405180910390f35b60038054600181600116156101000203166002900480601f01602080910402602001604051908101604052809291908181526020018280546001816001161561010002031660029004801561081a5780601f106107ef5761010080835404028352916020019161081a565b820191906000526020600020905b8154815290600101906020018083116107fd57829003601f168201915b505050505081565b600061082f3384846119a4565b6001905092915050565b600573__TokenizedDerivativeUtils______________639f3f1bde90916040518263ffffffff1660e01b81526004016108739190612c49565b60006040518083038186803b15801561088b57600080fd5b505af415801561089f573d6000803e3d6000fd5b50505050565b600573__TokenizedDerivativeUtils______________63d658d7ea90916040518263ffffffff1660e01b81526004016108df9190612c49565b60006040518083038186803b1580156108f757600080fd5b505af415801561090b573d6000803e3d6000fd5b50505050565b6000600254905090565b600573__TokenizedDerivativeUtils______________63e11e62579091836040518363ffffffff1660e01b8152600401610957929190612c64565b60006040518083038186803b15801561096f57600080fd5b505af4158015610983573d6000803e3d6000fd5b5050505050565b6000600573__TokenizedDerivativeUtils______________634b26eb4690916040518263ffffffff1660e01b81526004016109c69190612c49565b60206040518083038186803b1580156109de57600080fd5b505af41580156109f2573d6000803e3d6000fd5b505050506040513d601f19601f82011682018060405250610a16919081019061231c565b905090565b6000610a28848484611b6f565b610ac18433610abc85600160008a73ffffffffffffffffffffffffffffffffffffffff1673ffffffffffffffffffffffffffffffffffffffff16815260200190815260200160002060003373ffffffffffffffffffffffffffffffffffffffff1673ffffffffffffffffffffffffffffffffffffffff16815260200190815260200160002054611ddf90919063ffffffff16565b6119a4565b600190509392505050565b600573__TokenizedDerivativeUtils______________63360215799091836040518363ffffffff1660e01b8152600401610b08929190612cc4565b60006040518083038186803b158015610b2057600080fd5b505af4158015610b34573d6000803e3d6000fd5b5050505050565b601281565b6000600573__TokenizedDerivativeUtils______________636663de9690916040518263ffffffff1660e01b8152600401610b7c9190612c49565b60206040518083038186803b158015610b9457600080fd5b505af4158015610ba8573d6000803e3d6000fd5b505050506040513d601f19601f82011682018060405250610bcc919081019061231c565b905090565b600573__TokenizedDerivativeUtils______________6324477be890916040518263ffffffff1660e01b8152600401610c0b9190612c49565b60006040518083038186803b158015610c2357600080fd5b505af4158015610c37573d6000803e3d6000fd5b50505050565b6000610cd83384610cd385600160003373ffffffffffffffffffffffffffffffffffffffff1673ffffffffffffffffffffffffffffffffffffffff16815260200190815260200160002060008973ffffffffffffffffffffffffffffffffffffffff1673ffffffffffffffffffffffffffffffffffffffff16815260200190815260200160002054611e3590919063ffffffff16565b6119a4565b6001905092915050565b600573__TokenizedDerivativeUtils______________630a4a5b76909184846040518463ffffffff1660e01b8152600401610d2093929190612ced565b60006040518083038186803b158015610d3857600080fd5b505af4158015610d4c573d6000803e3d6000fd5b505050505050565b600580600001604051806101400160405290816000820154815260200160018201548152602001600282015481526020016003820154815260200160048201548152602001600582015481526020016006820160009054906101000a900460ff166001811115610dc057fe5b6001811115610dcb57fe5b81526020016007820154815260200160088201548152602001600982018054600181600116156101000203166002900480601f016020809104026020016040519081016040528092919081815260200182805460018160011615610100020316600290048015610e7c5780601f10610e5157610100808354040283529160200191610e7c565b820191906000526020600020905b815481529060010190602001808311610e5f57829003601f168201915b5050505050815250509080600a016040518060c00160405290816000820160009054906101000a900473ffffffffffffffffffffffffffffffffffffffff1673ffffffffffffffffffffffffffffffffffffffff1673ffffffffffffffffffffffffffffffffffffffff1681526020016001820160009054906101000a900473ffffffffffffffffffffffffffffffffffffffff1673ffffffffffffffffffffffffffffffffffffffff1673ffffffffffffffffffffffffffffffffffffffff1681526020016002820160009054906101000a900473ffffffffffffffffffffffffffffffffffffffff1673ffffffffffffffffffffffffffffffffffffffff1673ffffffffffffffffffffffffffffffffffffffff1681526020016003820160009054906101000a900473ffffffffffffffffffffffffffffffffffffffff1673ffffffffffffffffffffffffffffffffffffffff1673ffffffffffffffffffffffffffffffffffffffff1681526020016004820160009054906101000a900473ffffffffffffffffffffffffffffffffffffffff1673ffffffffffffffffffffffffffffffffffffffff1673ffffffffffffffffffffffffffffffffffffffff1681526020016005820160009054906101000a900473ffffffffffffffffffffffffffffffffffffffff1673ffffffffffffffffffffffffffffffffffffffff1673ffffffffffffffffffffffffffffffffffffffff1681525050908060100154908060110154908060120160009054906101000a900460ff1690806013015490806014016040518060600160405290816000820154815260200160018201548152602001600282015481525050908060170160405180606001604052908160008201548152602001600182015481526020016002820154815250509080601a01549080601b01604051806040016040529081600082015481526020016001820154815250509080601d01549080601e016040518060400160405290816000820154815260200160018201548152505090508c565b60003073ffffffffffffffffffffffffffffffffffffffff163373ffffffffffffffffffffffffffffffffffffffff16146111ad57600080fd5b6111b78383611e8a565b6001905092915050565b3073ffffffffffffffffffffffffffffffffffffffff163373ffffffffffffffffffffffffffffffffffffffff16146111f957600080fd5b6112033382612012565b50565b6000600573__TokenizedDerivativeUtils______________639545a37e90916040518263ffffffff1660e01b81526004016112429190612c49565b60206040518083038186803b15801561125a57600080fd5b505af415801561126e573d6000803e3d6000fd5b505050506040513d601f19601f82011682018060405250611292919081019061231c565b905090565b60008060008373ffffffffffffffffffffffffffffffffffffffff1673ffffffffffffffffffffffffffffffffffffffff168152602001908152602001600020549050919050565b600573__TokenizedDerivativeUtils______________630806c1939091836040518363ffffffff1660e01b815260040161131b929190612cc4565b60006040518083038186803b15801561133357600080fd5b505af4158015611347573d6000803e3d6000fd5b5050505050565b60048054600181600116156101000203166002900480601f0160208091040260200160405190810160405280929190818152602001828054600181600116156101000203166002900480156113e45780601f106113b9576101008083540402835291602001916113e4565b820191906000526020600020905b8154815290600101906020018083116113c757829003601f168201915b505050505081565b6000611487338461148285600160003373ffffffffffffffffffffffffffffffffffffffff1673ffffffffffffffffffffffffffffffffffffffff16815260200190815260200160002060008973ffffffffffffffffffffffffffffffffffffffff1673ffffffffffffffffffffffffffffffffffffffff16815260200190815260200160002054611ddf90919063ffffffff16565b6119a4565b6001905092915050565b600573__TokenizedDerivativeUtils______________630a5c47099091836040518363ffffffff1660e01b81526004016114cd929190612cc4565b60006040518083038186803b1580156114e557600080fd5b505af41580156114f9573d6000803e3d6000fd5b5050505050565b600061150d338484611b6f565b6001905092915050565b600573__TokenizedDerivativeUtils______________63db2fa4249091836040518363ffffffff1660e01b8152600401611553929190612cc4565b60006040518083038186803b15801561156b57600080fd5b505af415801561157f573d6000803e3d6000fd5b5050505050565b600573__TokenizedDerivativeUtils______________63c31671ff909184846040518463ffffffff1660e01b81526004016115c493929190612ced565b60006040518083038186803b1580156115dc57600080fd5b505af41580156115f0573d6000803e3d6000fd5b505050505050565b600573__TokenizedDerivativeUtils______________633cd450dd90916040518263ffffffff1660e01b81526004016116329190612c49565b60006040518083038186803b15801561164a57600080fd5b505af415801561165e573d6000803e3d6000fd5b50505050565b600573__TokenizedDerivativeUtils______________63c866ede8909184846040518463ffffffff1660e01b81526004016116a293929190612c8d565b60006040518083038186803b1580156116ba57600080fd5b505af41580156116ce573d6000803e3d6000fd5b505050505050565b6000600573__TokenizedDerivativeUtils______________6355108c0290916040518263ffffffff1660e01b81526004016117129190612c49565b60206040518083038186803b15801561172a57600080fd5b505af415801561173e573d6000803e3d6000fd5b505050506040513d601f19601f82011682018060405250611762919081019061231c565b905090565b6000600160008473ffffffffffffffffffffffffffffffffffffffff1673ffffffffffffffffffffffffffffffffffffffff16815260200190815260200160002060008373ffffffffffffffffffffffffffffffffffffffff1673ffffffffffffffffffffffffffffffffffffffff16815260200190815260200160002054905092915050565b600080600573__TokenizedDerivativeUtils______________638ce27c3f90916040518263ffffffff1660e01b815260040161182b9190612c49565b604080518083038186803b15801561184257600080fd5b505af4158015611856573d6000803e3d6000fd5b505050506040513d601f19601f8201168201806040525061187a9190810190612345565b915091509091565b6000600573__TokenizedDerivativeUtils______________637dfedadb90916040518263ffffffff1660e01b81526004016118be9190612c49565b60206040518083038186803b1580156118d657600080fd5b505af41580156118ea573d6000803e3d6000fd5b505050506040513d601f19601f8201168201806040525061190e919081019061231c565b905090565b6000600573__TokenizedDerivativeUtils______________632bf6109490916040518263ffffffff1660e01b815260040161194f9190612c49565b60206040518083038186803b15801561196757600080fd5b505af415801561197b573d6000803e3d6000fd5b505050506040513d601f19601f8201168201806040525061199f91908101906122f3565b905090565b600073ffffffffffffffffffffffffffffffffffffffff168373ffffffffffffffffffffffffffffffffffffffff161415611a14576040517f08c379a0000000000000000000000000000000000000000000000000000000008152600401611a0b90612b43565b60405180910390fd5b600073ffffffffffffffffffffffffffffffffffffffff168273ffffffffffffffffffffffffffffffffffffffff161415611a84576040517f08c379a0000000000000000000000000000000000000000000000000000000008152600401611a7b90612aa3565b60405180910390fd5b80600160008573ffffffffffffffffffffffffffffffffffffffff1673ffffffffffffffffffffffffffffffffffffffff16815260200190815260200160002060008473ffffffffffffffffffffffffffffffffffffffff1673ffffffffffffffffffffffffffffffffffffffff168152602001908152602001600020819055508173ffffffffffffffffffffffffffffffffffffffff168373ffffffffffffffffffffffffffffffffffffffff167f8c5be1e5ebec7d5bd14f71427d1e84f3dd0314c0f7b2291e5b200ac8c7c3b92583604051611b629190612d24565b60405180910390a3505050565b600073ffffffffffffffffffffffffffffffffffffffff168373ffffffffffffffffffffffffffffffffffffffff161415611bdf576040517f08c379a0000000000000000000000000000000000000000000000000000000008152600401611bd690612b23565b60405180910390fd5b600073ffffffffffffffffffffffffffffffffffffffff168273ffffffffffffffffffffffffffffffffffffffff161415611c4f576040517f08c379a0000000000000000000000000000000000000000000000000000000008152600401611c4690612a83565b60405180910390fd5b611ca0816000808673ffffffffffffffffffffffffffffffffffffffff1673ffffffffffffffffffffffffffffffffffffffff16815260200190815260200160002054611ddf90919063ffffffff16565b6000808573ffffffffffffffffffffffffffffffffffffffff1673ffffffffffffffffffffffffffffffffffffffff16815260200190815260200160002081905550611d33816000808573ffffffffffffffffffffffffffffffffffffffff1673ffffffffffffffffffffffffffffffffffffffff16815260200190815260200160002054611e3590919063ffffffff16565b6000808473ffffffffffffffffffffffffffffffffffffffff1673ffffffffffffffffffffffffffffffffffffffff168152602001908152602001600020819055508173ffffffffffffffffffffffffffffffffffffffff168373ffffffffffffffffffffffffffffffffffffffff167fddf252ad1be2c89b69c2b068fc378daa952ba7f163c4a11628f55a4df523b3ef83604051611dd29190612d24565b60405180910390a3505050565b600082821115611e24576040517f08c379a0000000000000000000000000000000000000000000000000000000008152600401611e1b90612ae3565b60405180910390fd5b600082840390508091505092915050565b600080828401905083811015611e80576040517f08c379a0000000000000000000000000000000000000000000000000000000008152600401611e7790612ac3565b60405180910390fd5b8091505092915050565b600073ffffffffffffffffffffffffffffffffffffffff168273ffffffffffffffffffffffffffffffffffffffff161415611efa576040517f08c379a0000000000000000000000000000000000000000000000000000000008152600401611ef190612b63565b60405180910390fd5b611f0f81600254611e3590919063ffffffff16565b600281905550611f66816000808573ffffffffffffffffffffffffffffffffffffffff1673ffffffffffffffffffffffffffffffffffffffff16815260200190815260200160002054611e3590919063ffffffff16565b6000808473ffffffffffffffffffffffffffffffffffffffff1673ffffffffffffffffffffffffffffffffffffffff168152602001908152602001600020819055508173ffffffffffffffffffffffffffffffffffffffff16600073ffffffffffffffffffffffffffffffffffffffff167fddf252ad1be2c89b69c2b068fc378daa952ba7f163c4a11628f55a4df523b3ef836040516120069190612d24565b60405180910390a35050565b600073ffffffffffffffffffffffffffffffffffffffff168273ffffffffffffffffffffffffffffffffffffffff161415612082576040517f08c379a000000000000000000000000000000000000000000000000000000000815260040161207990612b03565b60405180910390fd5b61209781600254611ddf90919063ffffffff16565b6002819055506120ee816000808573ffffffffffffffffffffffffffffffffffffffff1673ffffffffffffffffffffffffffffffffffffffff16815260200190815260200160002054611ddf90919063ffffffff16565b6000808473ffffffffffffffffffffffffffffffffffffffff1673ffffffffffffffffffffffffffffffffffffffff16815260200190815260200160002081905550600073ffffffffffffffffffffffffffffffffffffffff168273ffffffffffffffffffffffffffffffffffffffff167fddf252ad1be2c89b69c2b068fc378daa952ba7f163c4a11628f55a4df523b3ef8360405161218e9190612d24565b60405180910390a35050565b6000813590506121a981612f28565b92915050565b6000815190506121be81612f3f565b92915050565b6000815190506121d381612f56565b92915050565b6000813590506121e881612f6d565b92915050565b6000815190506121fd81612f6d565b92915050565b60006020828403121561221557600080fd5b60006122238482850161219a565b91505092915050565b6000806040838503121561223f57600080fd5b600061224d8582860161219a565b925050602061225e8582860161219a565b9150509250929050565b60008060006060848603121561227d57600080fd5b600061228b8682870161219a565b935050602061229c8682870161219a565b92505060406122ad868287016121d9565b9150509250925092565b600080604083850312156122ca57600080fd5b60006122d88582860161219a565b92505060206122e9858286016121d9565b9150509250929050565b60006020828403121561230557600080fd5b6000612313848285016121af565b91505092915050565b60006020828403121561232e57600080fd5b600061233c848285016121c4565b91505092915050565b6000806040838503121561235857600080fd5b6000612366858286016121c4565b9250506020612377858286016121ee565b9150509250929050565b60006020828403121561239357600080fd5b60006123a1848285016121d9565b91505092915050565b600080604083850312156123bd57600080fd5b60006123cb858286016121d9565b92505060206123dc858286016121d9565b9150509250929050565b6123ef81612d87565b82525050565b6123fe81612d87565b82525050565b61240d81612d99565b82525050565b61241c81612da5565b82525050565b61242b81612e16565b82525050565b61243a81612e3a565b82525050565b61244981612e5e565b82525050565b61245881612e82565b82525050565b61246781612ea6565b82525050565b61247681612eb8565b82525050565b61248581612dd5565b82525050565b61249481612dd5565b82525050565b60006124a582612d5a565b6124af8185612d65565b93506124bf818560208601612eca565b6124c881612efd565b840191505092915050565b60006124de82612d5a565b6124e88185612d76565b93506124f8818560208601612eca565b61250181612efd565b840191505092915050565b6000612519602383612d76565b91507f45524332303a207472616e7366657220746f20746865207a65726f206164647260008301527f65737300000000000000000000000000000000000000000000000000000000006020830152604082019050919050565b600061257f602283612d76565b91507f45524332303a20617070726f766520746f20746865207a65726f20616464726560008301527f73730000000000000000000000000000000000000000000000000000000000006020830152604082019050919050565b60006125e5601b83612d76565b91507f536166654d6174683a206164646974696f6e206f766572666c6f7700000000006000830152602082019050919050565b6000612625601e83612d76565b91507f536166654d6174683a207375627472616374696f6e206f766572666c6f7700006000830152602082019050919050565b6000612665602183612d76565b91507f45524332303a206275726e2066726f6d20746865207a65726f2061646472657360008301527f73000000000000000000000000000000000000000000000000000000000000006020830152604082019050919050565b60006126cb602583612d76565b91507f45524332303a207472616e736665722066726f6d20746865207a65726f20616460008301527f64726573730000000000000000000000000000000000000000000000000000006020830152604082019050919050565b6000612731602483612d76565b91507f45524332303a20617070726f76652066726f6d20746865207a65726f2061646460008301527f72657373000000000000000000000000000000000000000000000000000000006020830152604082019050919050565b6000612797601f83612d76565b91507f45524332303a206d696e7420746f20746865207a65726f2061646472657373006000830152602082019050919050565b6040820160008201516127e0600085018261247c565b5060208201516127f360208501826129c6565b50505050565b60c08201600082015161280f60008501826123e6565b50602082015161282260208501826123e6565b5060408201516128356040850182612422565b5060608201516128486060850182612440565b50608082015161285b608085018261244f565b5060a082015161286e60a0850182612431565b50505050565b60006101408301600083015161288d60008601826129c6565b5060208301516128a060208601826129c6565b5060408301516128b360408601826129c6565b5060608301516128c660608601826129c6565b5060808301516128d960808601826129c6565b5060a08301516128ec60a0860182612413565b5060c08301516128ff60c086018261245e565b5060e083015161291260e08601826129c6565b506101008301516129276101008601826129c6565b50610120830151848203610120860152612941828261249a565b9150508091505092915050565b8082525050565b60608201600082015161296b600085018261247c565b50602082015161297e602085018261247c565b50604082015161299160408501826129c6565b50505050565b6040820160008201516129ad60008501826129c6565b5060208201516129c060208501826129c6565b50505050565b6129cf81612dff565b82525050565b6129de81612dff565b82525050565b6129ed81612dff565b82525050565b6129fc81612e09565b82525050565b6000602082019050612a176000830184612404565b92915050565b6000602082019050612a32600083018461248b565b92915050565b6000604082019050612a4d600083018561248b565b612a5a60208301846129d5565b9392505050565b60006020820190508181036000830152612a7b81846124d3565b905092915050565b60006020820190508181036000830152612a9c8161250c565b9050919050565b60006020820190508181036000830152612abc81612572565b9050919050565b60006020820190508181036000830152612adc816125d8565b9050919050565b60006020820190508181036000830152612afc81612618565b9050919050565b60006020820190508181036000830152612b1c81612658565b9050919050565b60006020820190508181036000830152612b3c816126be565b9050919050565b60006020820190508181036000830152612b5c81612724565b9050919050565b60006020820190508181036000830152612b7c8161278a565b9050919050565b60006102e0820190508181036000830152612b9e818f612874565b9050612bad602083018e6127f9565b612bba60e083018d61248b565b612bc861010083018c61248b565b612bd661012083018b61246d565b612be461014083018a6129d5565b612bf2610160830189612955565b612c006101c0830188612955565b612c0e61022083018761248b565b612c1c6102408301866127ca565b612c2a61028083018561248b565b612c386102a0830184612997565b9d9c50505050505050505050505050565b6000602082019050612c5e600083018461294e565b92915050565b6000604082019050612c79600083018561294e565b612c8660208301846123f5565b9392505050565b6000606082019050612ca2600083018661294e565b612caf60208301856123f5565b612cbc60408301846129e4565b949350505050565b6000604082019050612cd9600083018561294e565b612ce660208301846129e4565b9392505050565b6000606082019050612d02600083018661294e565b612d0f60208301856129e4565b612d1c60408301846129e4565b949350505050565b6000602082019050612d3960008301846129d5565b92915050565b6000602082019050612d5460008301846129f3565b92915050565b600081519050919050565b600082825260208201905092915050565b600082825260208201905092915050565b6000612d9282612ddf565b9050919050565b60008115159050919050565b6000819050919050565b6000819050612dbd82612f0e565b919050565b6000819050612dd082612f1b565b919050565b6000819050919050565b600073ffffffffffffffffffffffffffffffffffffffff82169050919050565b6000819050919050565b600060ff82169050919050565b6000612e2182612e28565b9050919050565b6000612e3382612ddf565b9050919050565b6000612e4582612e4c565b9050919050565b6000612e5782612ddf565b9050919050565b6000612e6982612e70565b9050919050565b6000612e7b82612ddf565b9050919050565b6000612e8d82612e94565b9050919050565b6000612e9f82612ddf565b9050919050565b6000612eb182612daf565b9050919050565b6000612ec382612dc2565b9050919050565b60005b83811015612ee8578082015181840152602081019050612ecd565b83811115612ef7576000848401525b50505050565b6000601f19601f8301169050919050565b60028110612f1857fe5b50565b60068110612f2557fe5b50565b612f3181612d87565b8114612f3c57600080fd5b50565b612f4881612d99565b8114612f5357600080fd5b50565b612f5f81612dd5565b8114612f6a57600080fd5b50565b612f7681612dff565b8114612f8157600080fd5b5056fea265627a7a72305820c448e59f8bb817754c2affc1b8f46095570af2a002da13ce3dca0806b5e324fd6c6578706572696d656e74616cf50037a265627a7a72305820fc8b3a200e02121eee89f663b96761163a81d4fbd02789bad90b6ed38fcd50076c6578706572696d656e74616cf50037",
  "source": "pragma solidity ^0.5.0;\n\npragma experimental ABIEncoderV2;\n\nimport \"./AddressWhitelist.sol\";\nimport \"./ContractCreator.sol\";\nimport \"./TokenizedDerivative.sol\";\nimport \"./Testable.sol\";\n\n\n/**\n * @title Contract creator for TokenizedDerivative.\n */\ncontract TokenizedDerivativeCreator is ContractCreator, Testable {\n    struct Params {\n        address priceFeedAddress;\n        uint defaultPenalty; // Percentage of mergin requirement * 10^18\n        uint supportedMove; // Expected percentage move in the underlying that the long is protected against.\n        bytes32 product;\n        uint fixedYearlyFee; // Percentage of nav * 10^18\n        uint disputeDeposit; // Percentage of mergin requirement * 10^18\n        address returnCalculator;\n        uint startingTokenPrice;\n        uint expiry;\n        address marginCurrency;\n        uint withdrawLimit; // Percentage of shortBalance * 10^18\n        TokenizedDerivativeParams.ReturnType returnType;\n        uint startingUnderlyingPrice;\n        string name;\n        string symbol;\n    }\n\n    AddressWhitelist public returnCalculatorWhitelist;\n    AddressWhitelist public marginCurrencyWhitelist;\n\n    constructor(\n        address _finderAddress,\n        address _returnCalculatorWhitelist,\n        address _marginCurrencyWhitelist,\n        bool _isTest\n    ) public ContractCreator(_finderAddress) Testable(_isTest) {\n        returnCalculatorWhitelist = AddressWhitelist(_returnCalculatorWhitelist);\n        marginCurrencyWhitelist = AddressWhitelist(_marginCurrencyWhitelist);\n    }\n\n    /**\n     * @notice Creates a new instance of `TokenizedDerivative` with the provided `params`.\n     */\n    function createTokenizedDerivative(Params memory params)\n        public\n        returns (address derivativeAddress)\n    {\n        TokenizedDerivative derivative = new TokenizedDerivative(_convertParams(params), params.name, params.symbol);\n\n        address[] memory parties = new address[](1);\n        parties[0] = msg.sender;\n\n        _registerContract(parties, address(derivative));\n\n        emit CreatedTokenizedDerivative(address(derivative));\n\n        return address(derivative);\n    }\n\n    // Converts createTokenizedDerivative params to TokenizedDerivative constructor params.\n    function _convertParams(Params memory params)\n        private\n        view\n        returns (TokenizedDerivativeParams.ConstructorParams memory constructorParams)\n    {\n        // Copy and verify externally provided variables.\n        constructorParams.sponsor = msg.sender;\n\n        require(returnCalculatorWhitelist.isOnWhitelist(params.returnCalculator));\n        constructorParams.returnCalculator = params.returnCalculator;\n\n        require(marginCurrencyWhitelist.isOnWhitelist(params.marginCurrency));\n        constructorParams.marginCurrency = params.marginCurrency;\n\n        constructorParams.priceFeedAddress = params.priceFeedAddress;\n        constructorParams.defaultPenalty = params.defaultPenalty;\n        constructorParams.supportedMove = params.supportedMove;\n        constructorParams.product = params.product;\n        constructorParams.fixedYearlyFee = params.fixedYearlyFee;\n        constructorParams.disputeDeposit = params.disputeDeposit;\n        constructorParams.startingTokenPrice = params.startingTokenPrice;\n        constructorParams.expiry = params.expiry;\n        constructorParams.withdrawLimit = params.withdrawLimit;\n        constructorParams.returnType = params.returnType;\n        constructorParams.startingUnderlyingPrice = params.startingUnderlyingPrice;\n\n        // Copy internal variables.\n        constructorParams.finderAddress = finderAddress;\n        constructorParams.creationTime = getCurrentTime();\n    }\n\n    event CreatedTokenizedDerivative(address contractAddress);\n}\n",
  "sourcePath": "/Users/kendrick/Development/Ethereum/defi-dy/contracts/uma/core/contracts/TokenizedDerivativeCreator.sol",
  "compiler": {
    "name": "solc",
    "version": "0.5.8+commit.23d335f2.Emscripten.clang"
  },
  "schemaVersion": "3.0.10",
  "updatedAt": "2019-11-09T21:44:32.221Z",
  "devdoc": {
    "methods": {
      "setCurrentTime(uint256)": {
        "details": "Will revert if not running in test mode."
      }
    },
    "title": "Contract creator for TokenizedDerivative."
  },
  "userdoc": {
    "methods": {
      "createTokenizedDerivative((address,uint256,uint256,bytes32,uint256,uint256,address,uint256,uint256,address,uint256,uint8,uint256,string,string))": {
        "notice": "Creates a new instance of `TokenizedDerivative` with the provided `params`."
      },
      "getCurrentTime()": {
        "notice": "Gets the current time. Will return the last time set in `setCurrentTime` if running in test mode. Otherwise, it will return the block timestamp."
      },
      "setCurrentTime(uint256)": {
        "notice": "Sets the current time."
      }
    }
  }
}