{
  "contractName": "TokenMigrator",
  "abi": [
    {
      "constant": true,
      "inputs": [],
      "name": "rate",
      "outputs": [
        {
          "name": "rawValue",
          "type": "uint256"
        }
      ],
      "payable": false,
      "stateMutability": "view",
      "type": "function"
    },
    {
      "constant": true,
      "inputs": [],
      "name": "snapshotId",
      "outputs": [
        {
          "name": "",
          "type": "uint256"
        }
      ],
      "payable": false,
      "stateMutability": "view",
      "type": "function"
    },
    {
      "constant": true,
      "inputs": [],
      "name": "oldToken",
      "outputs": [
        {
          "name": "",
          "type": "address"
        }
      ],
      "payable": false,
      "stateMutability": "view",
      "type": "function"
    },
    {
      "constant": true,
      "inputs": [],
      "name": "newToken",
      "outputs": [
        {
          "name": "",
          "type": "address"
        }
      ],
      "payable": false,
      "stateMutability": "view",
      "type": "function"
    },
    {
      "constant": true,
      "inputs": [
        {
          "name": "",
          "type": "address"
        }
      ],
      "name": "hasMigrated",
      "outputs": [
        {
          "name": "",
          "type": "bool"
        }
      ],
      "payable": false,
      "stateMutability": "view",
      "type": "function"
    },
    {
      "inputs": [
        {
          "components": [
            {
              "name": "rawValue",
              "type": "uint256"
            }
          ],
          "name": "_rate",
          "type": "tuple"
        },
        {
          "name": "_oldToken",
          "type": "address"
        },
        {
          "name": "_newToken",
          "type": "address"
        }
      ],
      "payable": false,
      "stateMutability": "nonpayable",
      "type": "constructor"
    },
    {
      "constant": false,
      "inputs": [
        {
          "name": "tokenHolder",
          "type": "address"
        }
      ],
      "name": "migrateTokens",
      "outputs": [],
      "payable": false,
      "stateMutability": "nonpayable",
      "type": "function"
    }
  ],
  "bytecode": "0x60806040523480156200001157600080fd5b5060405160608062000d988339810180604052620000339190810190620001e3565b8260036000820151816000015590505080600160006101000a81548173ffffffffffffffffffffffffffffffffffffffff021916908373ffffffffffffffffffffffffffffffffffffffff160217905550816000806101000a81548173ffffffffffffffffffffffffffffffffffffffff021916908373ffffffffffffffffffffffffffffffffffffffff1602179055506000809054906101000a900473ffffffffffffffffffffffffffffffffffffffff1673ffffffffffffffffffffffffffffffffffffffff16639711715a6040518163ffffffff1660e01b8152600401602060405180830381600087803b1580156200012e57600080fd5b505af115801562000143573d6000803e3d6000fd5b505050506040513d601f19601f8201168201806040525062000169919081019062000239565b60028190555050505062000305565b6000815190506200018981620002d1565b92915050565b600060208284031215620001a257600080fd5b620001ae602062000265565b90506000620001c084828501620001cc565b60008301525092915050565b600081519050620001dd81620002eb565b92915050565b600080600060608486031215620001f957600080fd5b600062000209868287016200018f565b93505060206200021c8682870162000178565b92505060406200022f8682870162000178565b9150509250925092565b6000602082840312156200024c57600080fd5b60006200025c84828501620001cc565b91505092915050565b6000604051905081810181811067ffffffffffffffff821117156200028957600080fd5b8060405250919050565b6000620002a082620002a7565b9050919050565b600073ffffffffffffffffffffffffffffffffffffffff82169050919050565b6000819050919050565b620002dc8162000293565b8114620002e857600080fd5b50565b620002f681620002c7565b81146200030257600080fd5b50565b610a8380620003156000396000f3fe608060405234801561001057600080fd5b50600436106100625760003560e01c80632c4e722e146100675780632ddc79b714610085578063b31c710a146100a3578063c1684711146100c1578063c42bd05a146100dd578063d7625c88146100fb575b600080fd5b61006f61012b565b60405161007c9190610948565b60405180910390f35b61008d610137565b60405161009a9190610948565b60405180910390f35b6100ab61013d565b6040516100b89190610892565b60405180910390f35b6100db60048036036100d69190810190610662565b610162565b005b6100e5610456565b6040516100f291906108ad565b60405180910390f35b61011560048036036101109190810190610662565b61047c565b6040516101229190610877565b60405180910390f35b60038060000154905081565b60025481565b6000809054906101000a900473ffffffffffffffffffffffffffffffffffffffff1681565b600460008273ffffffffffffffffffffffffffffffffffffffff1673ffffffffffffffffffffffffffffffffffffffff16815260200190815260200160002060009054906101000a900460ff16156101ef576040517f08c379a00000000000000000000000000000000000000000000000000000000081526004016101e690610928565b60405180910390fd5b6001600460008373ffffffffffffffffffffffffffffffffffffffff1673ffffffffffffffffffffffffffffffffffffffff16815260200190815260200160002060006101000a81548160ff02191690831515021790555061024f610610565b60405180602001604052806000809054906101000a900473ffffffffffffffffffffffffffffffffffffffff1673ffffffffffffffffffffffffffffffffffffffff16634ee2cd7e856002546040518363ffffffff1660e01b81526004016102b892919061084e565b60206040518083038186803b1580156102d057600080fd5b505afa1580156102e4573d6000803e3d6000fd5b505050506040513d601f19601f8201168201806040525061030891908101906106b4565b815250905061032160008261049c90919063ffffffff16565b61032b5750610453565b610333610610565b61035c6003604051806020016040529081600082015481525050836104b990919063ffffffff16565b9050600160009054906101000a900473ffffffffffffffffffffffffffffffffffffffff1673ffffffffffffffffffffffffffffffffffffffff166340c10f198483600001516040518363ffffffff1660e01b81526004016103bf92919061084e565b602060405180830381600087803b1580156103d957600080fd5b505af11580156103ed573d6000803e3d6000fd5b505050506040513d601f19601f82011682018060405250610411919081019061068b565b610450576040517f08c379a0000000000000000000000000000000000000000000000000000000008152600401610447906108c8565b60405180910390fd5b50505b50565b600160009054906101000a900473ffffffffffffffffffffffffffffffffffffffff1681565b60046020528060005260406000206000915054906101000a900460ff1681565b60006104a78261050c565b60000151836000015111905092915050565b6104c1610610565b604051806020016040528061050184600001516104f3670de0b6b3a7640000886000015161054490919063ffffffff16565b6105b490919063ffffffff16565b815250905092915050565b610514610610565b604051806020016040528061053a670de0b6b3a76400008561054490919063ffffffff16565b8152509050919050565b60008083141561055757600090506105ae565b600082840290508284828161056857fe5b04146105a9576040517f08c379a00000000000000000000000000000000000000000000000000000000081526004016105a090610908565b60405180910390fd5b809150505b92915050565b60008082116105f8576040517f08c379a00000000000000000000000000000000000000000000000000000000081526004016105ef906108e8565b60405180910390fd5b600082848161060357fe5b0490508091505092915050565b6040518060200160405280600081525090565b60008135905061063281610a04565b92915050565b60008151905061064781610a1b565b92915050565b60008151905061065c81610a32565b92915050565b60006020828403121561067457600080fd5b600061068284828501610623565b91505092915050565b60006020828403121561069d57600080fd5b60006106ab84828501610638565b91505092915050565b6000602082840312156106c657600080fd5b60006106d48482850161064d565b91505092915050565b6106e681610974565b82525050565b6106f581610986565b82525050565b610704816109bc565b82525050565b610713816109e0565b82525050565b6000610726600b83610963565b91507f4d696e74206661696c65640000000000000000000000000000000000000000006000830152602082019050919050565b6000610766601a83610963565b91507f536166654d6174683a206469766973696f6e206279207a65726f0000000000006000830152602082019050919050565b60006107a6602183610963565b91507f536166654d6174683a206d756c7469706c69636174696f6e206f766572666c6f60008301527f77000000000000000000000000000000000000000000000000000000000000006020830152604082019050919050565b600061080c601783610963565b91507f416c7265616479206d6967726174656420746f6b656e730000000000000000006000830152602082019050919050565b610848816109b2565b82525050565b600060408201905061086360008301856106dd565b610870602083018461083f565b9392505050565b600060208201905061088c60008301846106ec565b92915050565b60006020820190506108a760008301846106fb565b92915050565b60006020820190506108c2600083018461070a565b92915050565b600060208201905081810360008301526108e181610719565b9050919050565b6000602082019050818103600083015261090181610759565b9050919050565b6000602082019050818103600083015261092181610799565b9050919050565b60006020820190508181036000830152610941816107ff565b9050919050565b600060208201905061095d600083018461083f565b92915050565b600082825260208201905092915050565b600061097f82610992565b9050919050565b60008115159050919050565b600073ffffffffffffffffffffffffffffffffffffffff82169050919050565b6000819050919050565b60006109c7826109ce565b9050919050565b60006109d982610992565b9050919050565b60006109eb826109f2565b9050919050565b60006109fd82610992565b9050919050565b610a0d81610974565b8114610a1857600080fd5b50565b610a2481610986565b8114610a2f57600080fd5b50565b610a3b816109b2565b8114610a4657600080fd5b5056fea265627a7a723058203a9e55785ab4d69f8495deec1d1637d29d2b5bf09e5d2e2f1eede2bf2a735c0e6c6578706572696d656e74616cf50037",
  "source": "pragma solidity ^0.5.0;\n\npragma experimental ABIEncoderV2;\n\nimport \"./ExpandedIERC20.sol\";\nimport \"./FixedPoint.sol\";\nimport \"openzeppelin-solidity/contracts/drafts/ERC20Snapshot.sol\";\n\n\n/**\n * @title Migration contract for VotingTokens.\n * @dev Handles migrating token holders from one token to the next.\n */\ncontract TokenMigrator {\n    using FixedPoint for FixedPoint.Unsigned;\n\n    ERC20Snapshot public oldToken;\n    ExpandedIERC20 public newToken;\n    uint public snapshotId;\n    FixedPoint.Unsigned public rate;\n    mapping(address => bool) public hasMigrated;\n\n    /**\n     * @notice Construct the TokenMigrator contract.\n     * @dev This function triggers the snapshot upon which all migrations will be based.\n     * @param _rate the number of old tokens it takes to generate one new token.\n     * @param _oldToken the address of the token being migrated from.\n     * @param _newToken the address of the token being migrated to.\n     */\n    constructor(FixedPoint.Unsigned memory _rate, address _oldToken, address _newToken) public {\n        rate = _rate;\n        newToken = ExpandedIERC20(_newToken);\n        oldToken = ERC20Snapshot(_oldToken);\n        snapshotId = oldToken.snapshot();\n    }\n\n    /**\n     * @notice Migrates the tokenHolder's old tokens to new tokens.\n     * @dev This function can only be called once per `tokenHolder`. Anyone can call this method on behalf of any other\n     * token holder since there is no disadvantage to receiving the tokens earlier.\n     */\n    function migrateTokens(address tokenHolder) external {\n        require(!hasMigrated[tokenHolder], \"Already migrated tokens\");\n        hasMigrated[tokenHolder] = true;\n\n        FixedPoint.Unsigned memory oldBalance = FixedPoint.Unsigned(oldToken.balanceOfAt(tokenHolder, snapshotId));\n\n        if (!oldBalance.isGreaterThan(0)) {\n            return;\n        }\n\n        FixedPoint.Unsigned memory newBalance = oldBalance.div(rate);\n        require(newToken.mint(tokenHolder, newBalance.rawValue), \"Mint failed\");\n    }\n}\n",
  "sourcePath": "/Users/kendrick/Development/Ethereum/defi-dy/contracts/uma/core/contracts/TokenMigrator.sol",
  "compiler": {
    "name": "solc",
    "version": "0.5.8+commit.23d335f2.Emscripten.clang"
  },
  "schemaVersion": "3.0.10",
  "updatedAt": "2019-11-09T21:34:17.633Z",
  "devdoc": {
    "details": "Handles migrating token holders from one token to the next.",
    "methods": {
      "constructor": {
        "details": "This function triggers the snapshot upon which all migrations will be based.",
        "params": {
          "_newToken": "the address of the token being migrated to.",
          "_oldToken": "the address of the token being migrated from.",
          "_rate": "the number of old tokens it takes to generate one new token."
        }
      },
      "migrateTokens(address)": {
        "details": "This function can only be called once per `tokenHolder`. Anyone can call this method on behalf of any other token holder since there is no disadvantage to receiving the tokens earlier."
      }
    },
    "title": "Migration contract for VotingTokens."
  },
  "userdoc": {
    "methods": {
      "constructor": "Construct the TokenMigrator contract.",
      "migrateTokens(address)": {
        "notice": "Migrates the tokenHolder's old tokens to new tokens."
      }
    }
  }
}