{
  "contractName": "TokenSale",
  "abi": [
    {
      "constant": true,
      "inputs": [],
      "name": "tokenSold",
      "outputs": [
        {
          "name": "",
          "type": "uint256"
        }
      ],
      "payable": false,
      "stateMutability": "view",
      "type": "function"
    },
    {
      "constant": true,
      "inputs": [],
      "name": "tokenContract",
      "outputs": [
        {
          "name": "",
          "type": "address"
        }
      ],
      "payable": false,
      "stateMutability": "view",
      "type": "function"
    },
    {
      "constant": true,
      "inputs": [],
      "name": "price",
      "outputs": [
        {
          "name": "",
          "type": "uint256"
        }
      ],
      "payable": false,
      "stateMutability": "view",
      "type": "function"
    },
    {
      "inputs": [
        {
          "name": "_tokenContract",
          "type": "address"
        },
        {
          "name": "_price",
          "type": "uint256"
        }
      ],
      "payable": false,
      "stateMutability": "nonpayable",
      "type": "constructor"
    },
    {
      "anonymous": false,
      "inputs": [
        {
          "indexed": false,
          "name": "buyer",
          "type": "address"
        },
        {
          "indexed": false,
          "name": "amount",
          "type": "uint256"
        }
      ],
      "name": "Sold",
      "type": "event"
    },
    {
      "constant": false,
      "inputs": [
        {
          "name": "numberOfTokens",
          "type": "uint256"
        }
      ],
      "name": "buyTokens",
      "outputs": [],
      "payable": true,
      "stateMutability": "payable",
      "type": "function"
    },
    {
      "constant": false,
      "inputs": [],
      "name": "endSale",
      "outputs": [],
      "payable": false,
      "stateMutability": "nonpayable",
      "type": "function"
    }
  ],
  "bytecode": "0x608060405234801561001057600080fd5b5060405160408061086e8339810180604052604081101561003057600080fd5b81019080805190602001909291908051906020019092919050505033600260006101000a81548173ffffffffffffffffffffffffffffffffffffffff021916908373ffffffffffffffffffffffffffffffffffffffff160217905550816000806101000a81548173ffffffffffffffffffffffffffffffffffffffff021916908373ffffffffffffffffffffffffffffffffffffffff16021790555080600181905550505061078a806100e46000396000f3fe60806040526004361061004a5760003560e01c80633610724e1461004f578063380d831b1461007d578063519ee19e1461009457806355a373d6146100bf578063a035b1fe14610116575b600080fd5b61007b6004803603602081101561006557600080fd5b8101908080359060200190929190505050610141565b005b34801561008957600080fd5b50610092610458565b005b3480156100a057600080fd5b506100a96106f6565b6040518082815260200191505060405180910390f35b3480156100cb57600080fd5b506100d46106fc565b604051808273ffffffffffffffffffffffffffffffffffffffff1673ffffffffffffffffffffffffffffffffffffffff16815260200191505060405180910390f35b34801561012257600080fd5b5061012b610721565b6040518082815260200191505060405180910390f35b61014d81600154610727565b341461015857600080fd5b6000610208826000809054906101000a900473ffffffffffffffffffffffffffffffffffffffff1673ffffffffffffffffffffffffffffffffffffffff1663313ce5676040518163ffffffff1660e01b815260040160206040518083038186803b1580156101c557600080fd5b505afa1580156101d9573d6000803e3d6000fd5b505050506040513d60208110156101ef57600080fd5b8101908080519060200190929190505050600a0a610727565b9050806000809054906101000a900473ffffffffffffffffffffffffffffffffffffffff1673ffffffffffffffffffffffffffffffffffffffff166370a08231306040518263ffffffff1660e01b8152600401808273ffffffffffffffffffffffffffffffffffffffff1673ffffffffffffffffffffffffffffffffffffffff16815260200191505060206040518083038186803b1580156102a957600080fd5b505afa1580156102bd573d6000803e3d6000fd5b505050506040513d60208110156102d357600080fd5b810190808051906020019092919050505010156102ef57600080fd5b7fae92ab4b6f8f401ead768d3273e6bb937a13e39827d19c6376e8fd4512a05d9a3383604051808373ffffffffffffffffffffffffffffffffffffffff1673ffffffffffffffffffffffffffffffffffffffff1681526020018281526020019250505060405180910390a1816003600082825401925050819055506000809054906101000a900473ffffffffffffffffffffffffffffffffffffffff1673ffffffffffffffffffffffffffffffffffffffff1663a9059cbb33836040518363ffffffff1660e01b8152600401808373ffffffffffffffffffffffffffffffffffffffff1673ffffffffffffffffffffffffffffffffffffffff1681526020018281526020019250505060206040518083038186803b15801561041057600080fd5b505afa158015610424573d6000803e3d6000fd5b505050506040513d602081101561043a57600080fd5b810190808051906020019092919050505061045457600080fd5b5050565b600260009054906101000a900473ffffffffffffffffffffffffffffffffffffffff1673ffffffffffffffffffffffffffffffffffffffff163373ffffffffffffffffffffffffffffffffffffffff16146104b257600080fd5b6000809054906101000a900473ffffffffffffffffffffffffffffffffffffffff1673ffffffffffffffffffffffffffffffffffffffff1663a9059cbb600260009054906101000a900473ffffffffffffffffffffffffffffffffffffffff166000809054906101000a900473ffffffffffffffffffffffffffffffffffffffff1673ffffffffffffffffffffffffffffffffffffffff166370a08231306040518263ffffffff1660e01b8152600401808273ffffffffffffffffffffffffffffffffffffffff1673ffffffffffffffffffffffffffffffffffffffff16815260200191505060206040518083038186803b1580156105b057600080fd5b505afa1580156105c4573d6000803e3d6000fd5b505050506040513d60208110156105da57600080fd5b81019080805190602001909291905050506040518363ffffffff1660e01b8152600401808373ffffffffffffffffffffffffffffffffffffffff1673ffffffffffffffffffffffffffffffffffffffff1681526020018281526020019250505060206040518083038186803b15801561065257600080fd5b505afa158015610666573d6000803e3d6000fd5b505050506040513d602081101561067c57600080fd5b810190808051906020019092919050505061069657600080fd5b3373ffffffffffffffffffffffffffffffffffffffff166108fc3073ffffffffffffffffffffffffffffffffffffffff16319081150290604051600060405180830381858888f193505050501580156106f3573d6000803e3d6000fd5b50565b60035481565b6000809054906101000a900473ffffffffffffffffffffffffffffffffffffffff1681565b60015481565b60008083141561073a5760009050610758565b600082840290508284828161074b57fe5b041461075357fe5b809150505b9291505056fea165627a7a72305820c44c716e36bcf3692aacea7aa601c74ae5b412f208d0e88830e83920e94843740029",
  "source": "pragma solidity 0.5.8;\n\ninterface IERC20Token {\n  function balanceOf(address owner) external view returns (uint256);\n  function transfer(address to, uint256 amount) external view returns (bool);\n  function decimals() external view returns (uint256);\n}\n\ncontract TokenSale {\n  IERC20Token public tokenContract;  // the token being sold\n  uint256 public price;              // the price, in wei, per token\n  address owner;\n\n  uint256 public tokenSold;\n\n  event Sold(address buyer, uint256 amount);\n\n  constructor(IERC20Token _tokenContract, uint256 _price) public {\n    owner = msg.sender;\n    tokenContract = _tokenContract;\n    price = _price;\n  }\n\n  // Guards against integer overflows\n  function safeMultiply(uint256 a, uint256 b) internal pure returns (uint256) {\n    if (a == 0) {\n        return 0;\n    } else {\n      uint256 c = a * b;\n      assert(c / a == b);\n      return c;\n    }\n  }\n\n  function buyTokens(uint256 numberOfTokens) public payable {\n    require(msg.value == safeMultiply(numberOfTokens, price));\n\n    uint256 scaledAmount = safeMultiply(numberOfTokens,\n      uint256(10) ** tokenContract.decimals());\n\n    require(tokenContract.balanceOf(address(this)) >= scaledAmount);\n\n    emit Sold(msg.sender, numberOfTokens);\n    tokenSold += numberOfTokens;\n\n    require(tokenContract.transfer(msg.sender, scaledAmount));\n  }\n\n  function endSale() public {\n    require(msg.sender == owner);\n\n    // Send unsold tokens to the owner.\n    require(tokenContract.transfer(owner, tokenContract.balanceOf(address(this))));\n\n    msg.sender.transfer(address(this).balance);\n  }\n}\n",
  "sourcePath": "/Users/kendrick/Development/Ethereum/defi-dy/contracts/uma/core/contracts/TokenSale.sol",
  "compiler": {
    "name": "solc",
    "version": "0.5.8+commit.23d335f2.Emscripten.clang"
  },
  "schemaVersion": "3.0.10",
  "updatedAt": "2019-11-09T21:04:26.756Z",
  "devdoc": {
    "methods": {}
  },
  "userdoc": {
    "methods": {}
  }
}