{
  "contractName": "VoteTimingTest",
  "abi": [
    {
      "constant": true,
      "inputs": [],
      "name": "voteTiming",
      "outputs": [
        {
          "name": "roundId",
          "type": "uint256"
        },
        {
          "name": "roundStartTime",
          "type": "uint256"
        },
        {
          "name": "phaseLength",
          "type": "uint256"
        }
      ],
      "payable": false,
      "stateMutability": "view",
      "type": "function"
    },
    {
      "inputs": [
        {
          "name": "phaseLength",
          "type": "uint256"
        }
      ],
      "payable": false,
      "stateMutability": "nonpayable",
      "type": "constructor"
    },
    {
      "constant": false,
      "inputs": [
        {
          "name": "currentTime",
          "type": "uint256"
        }
      ],
      "name": "wrapUpdateRoundId",
      "outputs": [],
      "payable": false,
      "stateMutability": "nonpayable",
      "type": "function"
    },
    {
      "constant": true,
      "inputs": [],
      "name": "wrapGetLastUpdatedRoundId",
      "outputs": [
        {
          "name": "",
          "type": "uint256"
        }
      ],
      "payable": false,
      "stateMutability": "view",
      "type": "function"
    },
    {
      "constant": true,
      "inputs": [
        {
          "name": "currentTime",
          "type": "uint256"
        }
      ],
      "name": "wrapShouldUpdateRoundId",
      "outputs": [
        {
          "name": "",
          "type": "bool"
        }
      ],
      "payable": false,
      "stateMutability": "view",
      "type": "function"
    },
    {
      "constant": true,
      "inputs": [
        {
          "name": "currentTime",
          "type": "uint256"
        }
      ],
      "name": "wrapComputeCurrentRoundId",
      "outputs": [
        {
          "name": "",
          "type": "uint256"
        }
      ],
      "payable": false,
      "stateMutability": "view",
      "type": "function"
    },
    {
      "constant": true,
      "inputs": [
        {
          "name": "currentTime",
          "type": "uint256"
        }
      ],
      "name": "wrapComputeCurrentPhase",
      "outputs": [
        {
          "name": "",
          "type": "uint8"
        }
      ],
      "payable": false,
      "stateMutability": "view",
      "type": "function"
    },
    {
      "constant": true,
      "inputs": [
        {
          "name": "roundId",
          "type": "uint256"
        }
      ],
      "name": "wrapComputeEstimatedRoundEndTime",
      "outputs": [
        {
          "name": "",
          "type": "uint256"
        }
      ],
      "payable": false,
      "stateMutability": "view",
      "type": "function"
    },
    {
      "constant": false,
      "inputs": [
        {
          "name": "phaseLength",
          "type": "uint256"
        }
      ],
      "name": "wrapInit",
      "outputs": [],
      "payable": false,
      "stateMutability": "nonpayable",
      "type": "function"
    }
  ],
  "bytecode": "0x608060405234801561001057600080fd5b506040516020806108a78339810180604052602081101561003057600080fd5b81019080805190602001909291905050506100508161005660201b60201c565b50610092565b61006e81600061007160201b6103ad1790919060201c565b50565b80826002018190555060018260000181905550600082600101819055505050565b610806806100a16000396000f3fe608060405234801561001057600080fd5b50600436106100885760003560e01c80635272ab7b1161005b5780635272ab7b1461015d57806371b7db53146101a35780639e4d8447146101cf578063d9336ea4146101fd57610088565b80630f24c0801461008d57806329e4b013146100cf57806344d8ce9a14610111578063504bac5d1461013f575b600080fd5b6100b9600480360360208110156100a357600080fd5b810190808035906020019092919050505061024d565b6040518082815260200191505060405180910390f35b6100fb600480360360208110156100e557600080fd5b810190808035906020019092919050505061026a565b6040518082815260200191505060405180910390f35b61013d6004803603602081101561012757600080fd5b8101908080359060200190929190505050610287565b005b61014761029e565b6040518082815260200191505060405180910390f35b6101896004803603602081101561017357600080fd5b81019080803590602001909291905050506102af565b604051808215151515815260200191505060405180910390f35b6101ab6102cc565b60405180848152602001838152602001828152602001935050505060405180910390f35b6101fb600480360360208110156101e557600080fd5b81019080803590602001909291905050506102e4565b005b6102296004803603602081101561021357600080fd5b81019080803590602001909291905050506102fb565b6040518082600181111561023957fe5b60ff16815260200191505060405180910390f35b600061026382600061031890919063ffffffff16565b9050919050565b600061028082600061039690919063ffffffff16565b9050919050565b61029b8160006103ad90919063ffffffff16565b50565b60006102aa60006103ce565b905090565b60006102c58260006103dc90919063ffffffff16565b9050919050565b60008060000154908060010154908060020154905083565b6102f88160006103fd90919063ffffffff16565b50565b600061031182600061042390919063ffffffff16565b9050919050565b600080610345600161033786600001548661046290919063ffffffff16565b6104eb90919063ffffffff16565b905060006103616002866002015461057390919063ffffffff16565b905061038c610379828461057390919063ffffffff16565b86600101546104eb90919063ffffffff16565b9250505092915050565b60006103a283836105f9565b508091505092915050565b80826002018190555060018260000181905550600082600101819055505050565b600081600001549050919050565b6000806103e984846105f9565b509050808460000154141591505092915050565b61040782826105f9565b8360000160008560010160008491905055839190505550505050565b600061044f60026104418560020154856106a090919063ffffffff16565b61072f90919063ffffffff16565b600181111561045a57fe5b905092915050565b6000828211156104da576040517f08c379a000000000000000000000000000000000000000000000000000000000815260040180806020018281038252601e8152602001807f536166654d6174683a207375627472616374696f6e206f766572666c6f77000081525060200191505060405180910390fd5b600082840390508091505092915050565b600080828401905083811015610569576040517f08c379a000000000000000000000000000000000000000000000000000000000815260040180806020018281038252601b8152602001807f536166654d6174683a206164646974696f6e206f766572666c6f77000000000081525060200191505060405180910390fd5b8091505092915050565b60008083141561058657600090506105f3565b600082840290508284828161059757fe5b04146105ee576040517f08c379a00000000000000000000000000000000000000000000000000000000081526004018080602001828103825260218152602001806107ba6021913960400191505060405180910390fd5b809150505b92915050565b6000806000846001015490508460010154841161062457846000015485600101549250925050610699565b600061063e6002876002015461057390919063ffffffff16565b90506106658161065783886106a090919063ffffffff16565b61057390919063ffffffff16565b92508183111561068e57610687600187600001546104eb90919063ffffffff16565b9350610696565b856000015493505b50505b9250929050565b6000808211610717576040517f08c379a000000000000000000000000000000000000000000000000000000000815260040180806020018281038252601a8152602001807f536166654d6174683a206469766973696f6e206279207a65726f00000000000081525060200191505060405180910390fd5b600082848161072257fe5b0490508091505092915050565b6000808214156107a7576040517f08c379a00000000000000000000000000000000000000000000000000000000081526004018080602001828103825260188152602001807f536166654d6174683a206d6f64756c6f206279207a65726f000000000000000081525060200191505060405180910390fd5b8183816107b057fe5b0690509291505056fe536166654d6174683a206d756c7469706c69636174696f6e206f766572666c6f77a165627a7a72305820744488f329767c46600ad3a88332a7c98755b3ba81af6473e91fedf58d9d0ca30029",
  "source": "pragma solidity ^0.5.0;\n\nimport \"../VoteTiming.sol\";\n\n\n // Wraps the library VoteTiming for testing purposes.\ncontract VoteTimingTest {\n    using VoteTiming for VoteTiming.Data;\n\n    VoteTiming.Data public voteTiming;\n\n    constructor(uint phaseLength) public {\n        wrapInit(phaseLength);\n    }\n\n    function wrapUpdateRoundId(uint currentTime) external {\n        voteTiming.updateRoundId(currentTime);\n    }\n\n    function wrapGetLastUpdatedRoundId() external view returns (uint) {\n        return voteTiming.getLastUpdatedRoundId();\n    }\n\n    function wrapShouldUpdateRoundId(uint currentTime) external view returns (bool) {\n        return voteTiming.shouldUpdateRoundId(currentTime);\n    }\n\n    function wrapComputeCurrentRoundId(uint currentTime) external view returns (uint) {\n        return voteTiming.computeCurrentRoundId(currentTime);\n    }\n\n    function wrapComputeCurrentPhase(uint currentTime) external view returns (VoteTiming.Phase) {\n        return voteTiming.computeCurrentPhase(currentTime);\n    }\n\n    function wrapComputeEstimatedRoundEndTime(uint roundId) external view returns (uint) {\n        return voteTiming.computeEstimatedRoundEndTime(roundId);\n    }\n\n    function wrapInit(uint phaseLength) public {\n        voteTiming.init(phaseLength);\n    }\n}\n",
  "sourcePath": "/Users/kendrick/Development/Ethereum/defi-dy/contracts/uma/core/contracts/test/VoteTimingTest.sol",
  "compiler": {
    "name": "solc",
    "version": "0.5.8+commit.23d335f2.Emscripten.clang"
  },
  "schemaVersion": "3.0.10",
  "updatedAt": "2019-11-09T13:45:25.747Z",
  "devdoc": {
    "methods": {}
  },
  "userdoc": {
    "methods": {}
  }
}