{
  "contractName": "Voting",
  "abi": [
    {
      "constant": false,
      "inputs": [
        {
          "name": "recipient_",
          "type": "address"
        },
        {
          "name": "topicHash",
          "type": "bytes32"
        },
        {
          "name": "message",
          "type": "bytes"
        }
      ],
      "name": "sendMessage",
      "outputs": [],
      "payable": false,
      "stateMutability": "nonpayable",
      "type": "function"
    },
    {
      "constant": true,
      "inputs": [
        {
          "name": "sender",
          "type": "address"
        },
        {
          "name": "recipient",
          "type": "address"
        }
      ],
      "name": "isAuthorizedSender",
      "outputs": [
        {
          "name": "",
          "type": "bool"
        }
      ],
      "payable": false,
      "stateMutability": "view",
      "type": "function"
    },
    {
      "constant": false,
      "inputs": [
        {
          "name": "recipient_",
          "type": "address"
        },
        {
          "name": "topicHash",
          "type": "bytes32"
        }
      ],
      "name": "removeMessage",
      "outputs": [],
      "payable": false,
      "stateMutability": "nonpayable",
      "type": "function"
    },
    {
      "constant": false,
      "inputs": [
        {
          "name": "_time",
          "type": "uint256"
        }
      ],
      "name": "setCurrentTime",
      "outputs": [],
      "payable": false,
      "stateMutability": "nonpayable",
      "type": "function"
    },
    {
      "constant": true,
      "inputs": [],
      "name": "getCurrentTime",
      "outputs": [
        {
          "name": "",
          "type": "uint256"
        }
      ],
      "payable": false,
      "stateMutability": "view",
      "type": "function"
    },
    {
      "constant": false,
      "inputs": [
        {
          "name": "roleId",
          "type": "uint256"
        },
        {
          "name": "memberToRemove",
          "type": "address"
        }
      ],
      "name": "removeMember",
      "outputs": [],
      "payable": false,
      "stateMutability": "nonpayable",
      "type": "function"
    },
    {
      "constant": false,
      "inputs": [
        {
          "name": "roleId",
          "type": "uint256"
        },
        {
          "name": "newMember",
          "type": "address"
        }
      ],
      "name": "addMember",
      "outputs": [],
      "payable": false,
      "stateMutability": "nonpayable",
      "type": "function"
    },
    {
      "constant": true,
      "inputs": [
        {
          "name": "roleId",
          "type": "uint256"
        },
        {
          "name": "memberToCheck",
          "type": "address"
        }
      ],
      "name": "holdsRole",
      "outputs": [
        {
          "name": "",
          "type": "bool"
        }
      ],
      "payable": false,
      "stateMutability": "view",
      "type": "function"
    },
    {
      "constant": true,
      "inputs": [
        {
          "name": "recipient",
          "type": "address"
        },
        {
          "name": "topicHash",
          "type": "bytes32"
        }
      ],
      "name": "getPublicKey",
      "outputs": [
        {
          "name": "",
          "type": "bytes"
        }
      ],
      "payable": false,
      "stateMutability": "view",
      "type": "function"
    },
    {
      "constant": true,
      "inputs": [],
      "name": "isTest",
      "outputs": [
        {
          "name": "",
          "type": "bool"
        }
      ],
      "payable": false,
      "stateMutability": "view",
      "type": "function"
    },
    {
      "constant": true,
      "inputs": [
        {
          "name": "roleId",
          "type": "uint256"
        }
      ],
      "name": "getMember",
      "outputs": [
        {
          "name": "",
          "type": "address"
        }
      ],
      "payable": false,
      "stateMutability": "view",
      "type": "function"
    },
    {
      "constant": false,
      "inputs": [
        {
          "name": "publicKey",
          "type": "bytes"
        },
        {
          "name": "topicHash",
          "type": "bytes32"
        }
      ],
      "name": "setPublicKey",
      "outputs": [],
      "payable": false,
      "stateMutability": "nonpayable",
      "type": "function"
    },
    {
      "constant": false,
      "inputs": [
        {
          "name": "sender",
          "type": "address"
        }
      ],
      "name": "removeAuthorizedSender",
      "outputs": [],
      "payable": false,
      "stateMutability": "nonpayable",
      "type": "function"
    },
    {
      "constant": false,
      "inputs": [
        {
          "name": "roleId",
          "type": "uint256"
        },
        {
          "name": "newMember",
          "type": "address"
        }
      ],
      "name": "resetMember",
      "outputs": [],
      "payable": false,
      "stateMutability": "nonpayable",
      "type": "function"
    },
    {
      "constant": true,
      "inputs": [
        {
          "name": "recipient",
          "type": "address"
        },
        {
          "name": "topicHash",
          "type": "bytes32"
        }
      ],
      "name": "getMessage",
      "outputs": [
        {
          "name": "",
          "type": "bytes"
        }
      ],
      "payable": false,
      "stateMutability": "view",
      "type": "function"
    },
    {
      "constant": false,
      "inputs": [
        {
          "name": "sender",
          "type": "address"
        }
      ],
      "name": "addAuthorizedSender",
      "outputs": [],
      "payable": false,
      "stateMutability": "nonpayable",
      "type": "function"
    },
    {
      "inputs": [
        {
          "name": "phaseLength",
          "type": "uint256"
        },
        {
          "components": [
            {
              "name": "rawValue",
              "type": "uint256"
            }
          ],
          "name": "_gatPercentage",
          "type": "tuple"
        },
        {
          "components": [
            {
              "name": "rawValue",
              "type": "uint256"
            }
          ],
          "name": "_inflationRate",
          "type": "tuple"
        },
        {
          "name": "_votingToken",
          "type": "address"
        },
        {
          "name": "_finder",
          "type": "address"
        },
        {
          "name": "_isTest",
          "type": "bool"
        }
      ],
      "payable": false,
      "stateMutability": "nonpayable",
      "type": "constructor"
    },
    {
      "anonymous": false,
      "inputs": [
        {
          "indexed": true,
          "name": "voter",
          "type": "address"
        },
        {
          "indexed": true,
          "name": "roundId",
          "type": "uint256"
        },
        {
          "indexed": true,
          "name": "identifier",
          "type": "bytes32"
        },
        {
          "indexed": false,
          "name": "time",
          "type": "uint256"
        }
      ],
      "name": "VoteCommitted",
      "type": "event"
    },
    {
      "anonymous": false,
      "inputs": [
        {
          "indexed": true,
          "name": "voter",
          "type": "address"
        },
        {
          "indexed": true,
          "name": "roundId",
          "type": "uint256"
        },
        {
          "indexed": true,
          "name": "identifier",
          "type": "bytes32"
        },
        {
          "indexed": false,
          "name": "time",
          "type": "uint256"
        },
        {
          "indexed": false,
          "name": "price",
          "type": "int256"
        },
        {
          "indexed": false,
          "name": "numTokens",
          "type": "uint256"
        }
      ],
      "name": "VoteRevealed",
      "type": "event"
    },
    {
      "anonymous": false,
      "inputs": [
        {
          "indexed": true,
          "name": "voter",
          "type": "address"
        },
        {
          "indexed": true,
          "name": "rewardsRoundId",
          "type": "uint256"
        },
        {
          "indexed": false,
          "name": "numTokens",
          "type": "uint256"
        }
      ],
      "name": "RewardsRetrieved",
      "type": "event"
    },
    {
      "anonymous": false,
      "inputs": [
        {
          "indexed": true,
          "name": "votingRoundId",
          "type": "uint256"
        },
        {
          "indexed": true,
          "name": "identifier",
          "type": "bytes32"
        },
        {
          "indexed": false,
          "name": "time",
          "type": "uint256"
        }
      ],
      "name": "PriceRequestAdded",
      "type": "event"
    },
    {
      "anonymous": false,
      "inputs": [
        {
          "indexed": true,
          "name": "newRoundId",
          "type": "uint256"
        },
        {
          "indexed": true,
          "name": "identifier",
          "type": "bytes32"
        },
        {
          "indexed": false,
          "name": "time",
          "type": "uint256"
        }
      ],
      "name": "PriceRequestRolledOver",
      "type": "event"
    },
    {
      "anonymous": false,
      "inputs": [
        {
          "indexed": true,
          "name": "resolutionRoundId",
          "type": "uint256"
        },
        {
          "indexed": true,
          "name": "identifier",
          "type": "bytes32"
        },
        {
          "indexed": false,
          "name": "time",
          "type": "uint256"
        },
        {
          "indexed": false,
          "name": "price",
          "type": "int256"
        }
      ],
      "name": "PriceResolved",
      "type": "event"
    },
    {
      "anonymous": false,
      "inputs": [
        {
          "indexed": true,
          "name": "identifier",
          "type": "bytes32"
        }
      ],
      "name": "SupportedIdentifierAdded",
      "type": "event"
    },
    {
      "constant": false,
      "inputs": [
        {
          "name": "identifier",
          "type": "bytes32"
        },
        {
          "name": "time",
          "type": "uint256"
        }
      ],
      "name": "requestPrice",
      "outputs": [
        {
          "name": "expectedTime",
          "type": "uint256"
        }
      ],
      "payable": false,
      "stateMutability": "nonpayable",
      "type": "function"
    },
    {
      "constant": false,
      "inputs": [
        {
          "components": [
            {
              "name": "identifier",
              "type": "bytes32"
            },
            {
              "name": "time",
              "type": "uint256"
            },
            {
              "name": "hash",
              "type": "bytes32"
            },
            {
              "name": "encryptedVote",
              "type": "bytes"
            }
          ],
          "name": "commits",
          "type": "tuple[]"
        }
      ],
      "name": "batchCommit",
      "outputs": [],
      "payable": false,
      "stateMutability": "nonpayable",
      "type": "function"
    },
    {
      "constant": false,
      "inputs": [
        {
          "components": [
            {
              "name": "identifier",
              "type": "bytes32"
            },
            {
              "name": "time",
              "type": "uint256"
            },
            {
              "name": "price",
              "type": "int256"
            },
            {
              "name": "salt",
              "type": "int256"
            }
          ],
          "name": "reveals",
          "type": "tuple[]"
        }
      ],
      "name": "batchReveal",
      "outputs": [],
      "payable": false,
      "stateMutability": "nonpayable",
      "type": "function"
    },
    {
      "constant": false,
      "inputs": [
        {
          "name": "identifier",
          "type": "bytes32"
        }
      ],
      "name": "addSupportedIdentifier",
      "outputs": [],
      "payable": false,
      "stateMutability": "nonpayable",
      "type": "function"
    },
    {
      "constant": true,
      "inputs": [
        {
          "name": "identifier",
          "type": "bytes32"
        }
      ],
      "name": "isIdentifierSupported",
      "outputs": [
        {
          "name": "",
          "type": "bool"
        }
      ],
      "payable": false,
      "stateMutability": "view",
      "type": "function"
    },
    {
      "constant": true,
      "inputs": [
        {
          "name": "identifier",
          "type": "bytes32"
        },
        {
          "name": "time",
          "type": "uint256"
        }
      ],
      "name": "hasPrice",
      "outputs": [
        {
          "name": "_hasPrice",
          "type": "bool"
        }
      ],
      "payable": false,
      "stateMutability": "view",
      "type": "function"
    },
    {
      "constant": true,
      "inputs": [
        {
          "name": "identifier",
          "type": "bytes32"
        },
        {
          "name": "time",
          "type": "uint256"
        }
      ],
      "name": "getPrice",
      "outputs": [
        {
          "name": "",
          "type": "int256"
        }
      ],
      "payable": false,
      "stateMutability": "view",
      "type": "function"
    },
    {
      "constant": true,
      "inputs": [],
      "name": "getPendingRequests",
      "outputs": [
        {
          "components": [
            {
              "name": "identifier",
              "type": "bytes32"
            },
            {
              "name": "time",
              "type": "uint256"
            }
          ],
          "name": "pendingRequests",
          "type": "tuple[]"
        }
      ],
      "payable": false,
      "stateMutability": "view",
      "type": "function"
    },
    {
      "constant": true,
      "inputs": [],
      "name": "getVotePhase",
      "outputs": [
        {
          "name": "",
          "type": "uint8"
        }
      ],
      "payable": false,
      "stateMutability": "view",
      "type": "function"
    },
    {
      "constant": true,
      "inputs": [],
      "name": "getCurrentRoundId",
      "outputs": [
        {
          "name": "",
          "type": "uint256"
        }
      ],
      "payable": false,
      "stateMutability": "view",
      "type": "function"
    },
    {
      "constant": true,
      "inputs": [
        {
          "name": "identifier",
          "type": "bytes32"
        },
        {
          "name": "time",
          "type": "uint256"
        }
      ],
      "name": "hasRevealedVote",
      "outputs": [
        {
          "name": "",
          "type": "bool"
        }
      ],
      "payable": false,
      "stateMutability": "view",
      "type": "function"
    },
    {
      "constant": false,
      "inputs": [
        {
          "name": "identifier",
          "type": "bytes32"
        },
        {
          "name": "time",
          "type": "uint256"
        },
        {
          "name": "hash",
          "type": "bytes32"
        }
      ],
      "name": "commitVote",
      "outputs": [],
      "payable": false,
      "stateMutability": "nonpayable",
      "type": "function"
    },
    {
      "constant": false,
      "inputs": [
        {
          "name": "identifier",
          "type": "bytes32"
        },
        {
          "name": "time",
          "type": "uint256"
        },
        {
          "name": "price",
          "type": "int256"
        },
        {
          "name": "salt",
          "type": "int256"
        }
      ],
      "name": "revealVote",
      "outputs": [],
      "payable": false,
      "stateMutability": "nonpayable",
      "type": "function"
    },
    {
      "constant": false,
      "inputs": [
        {
          "name": "identifier",
          "type": "bytes32"
        },
        {
          "name": "time",
          "type": "uint256"
        },
        {
          "name": "hash",
          "type": "bytes32"
        },
        {
          "name": "encryptedVote",
          "type": "bytes"
        }
      ],
      "name": "commitAndPersistEncryptedVote",
      "outputs": [],
      "payable": false,
      "stateMutability": "nonpayable",
      "type": "function"
    },
    {
      "constant": false,
      "inputs": [
        {
          "components": [
            {
              "name": "rawValue",
              "type": "uint256"
            }
          ],
          "name": "_inflationRate",
          "type": "tuple"
        }
      ],
      "name": "setInflationRate",
      "outputs": [],
      "payable": false,
      "stateMutability": "nonpayable",
      "type": "function"
    },
    {
      "constant": false,
      "inputs": [],
      "name": "retrieveRewards",
      "outputs": [],
      "payable": false,
      "stateMutability": "nonpayable",
      "type": "function"
    },
    {
      "constant": false,
      "inputs": [
        {
          "name": "phaseLength",
          "type": "uint256"
        },
        {
          "components": [
            {
              "name": "rawValue",
              "type": "uint256"
            }
          ],
          "name": "_gatPercentage",
          "type": "tuple"
        },
        {
          "components": [
            {
              "name": "rawValue",
              "type": "uint256"
            }
          ],
          "name": "_inflationRate",
          "type": "tuple"
        }
      ],
      "name": "initializeOnce",
      "outputs": [],
      "payable": false,
      "stateMutability": "nonpayable",
      "type": "function"
    }
  ],
  "bytecode": "0x60806040523480156200001157600080fd5b5060405160c08062006667833981018060405262000033919081019062000633565b80806000806101000a81548160ff02191690831515021790555080156200005c57426001819055505b5062000070868686620000fe60201b60201c565b82600c60006101000a81548173ffffffffffffffffffffffffffffffffffffffff021916908373ffffffffffffffffffffffffffffffffffffffff16021790555081600e60006101000a81548173ffffffffffffffffffffffffffffffffffffffff021916908373ffffffffffffffffffffffffffffffffffffffff16021790555050505050505062000a90565b600e60149054906101000a900460ff161562000151576040517f08c379a0000000000000000000000000000000000000000000000000000000008152600401620001489062000997565b60405180910390fd5b6001600e60146101000a81548160ff02191690831515021790555062000199600060018111156200017e57fe5b600060018111156200018c57fe5b336200026260201b60201c565b620001c5600180811115620001aa57fe5b60006001811115620001b857fe5b336200026260201b60201c565b620001e0836006620003d160201b6200381a1790919060201c565b620001fb600183620003f260201b6200383b1790919060201c565b6200023d576040517f08c379a0000000000000000000000000000000000000000000000000000000008152600401620002349062000975565b60405180910390fd5b81600a6000820151816000015590505080600b60008201518160000155905050505050565b82600060028111156200027157fe5b6002600083815260200190815260200160002060010160009054906101000a900460ff166002811115620002a157fe5b14620002e4576040517f08c379a0000000000000000000000000000000000000000000000000000000008152600401620002db9062000931565b60405180910390fd5b600060026000868152602001908152602001600020905060018160010160006101000a81548160ff021916908360028111156200031d57fe5b02179055508381600001819055506200034883826002016200041760201b620040241790919060201c565b600060028111156200035657fe5b6002600086815260200190815260200160002060010160009054906101000a900460ff1660028111156200038657fe5b1415620003ca576040517f08c379a0000000000000000000000000000000000000000000000000000000008152600401620003c190620008ed565b60405180910390fd5b5050505050565b80826002018190555060018260000181905550600082600101819055505050565b600062000405826200042d60201b60201c565b60000151836000015110905092915050565b6200042982826200046e60201b60201c565b5050565b620004376200059e565b604051806020016040528062000464670de0b6b3a7640000856200052860201b62003f261790919060201c565b8152509050919050565b600073ffffffffffffffffffffffffffffffffffffffff168173ffffffffffffffffffffffffffffffffffffffff161415620004e1576040517f08c379a0000000000000000000000000000000000000000000000000000000008152600401620004d89062000953565b60405180910390fd5b808260000160006101000a81548173ffffffffffffffffffffffffffffffffffffffff021916908373ffffffffffffffffffffffffffffffffffffffff1602179055505050565b6000808314156200053d576000905062000598565b60008284029050828482816200054f57fe5b041462000593576040517f08c379a00000000000000000000000000000000000000000000000000000000081526004016200058a906200090f565b60405180910390fd5b809150505b92915050565b6040518060200160405280600081525090565b600081519050620005c28162000a42565b92915050565b600081519050620005d98162000a5c565b92915050565b600060208284031215620005f257600080fd5b620005fe6020620009b9565b9050600062000610848285016200061c565b60008301525092915050565b6000815190506200062d8162000a76565b92915050565b60008060008060008060c087890312156200064d57600080fd5b60006200065d89828a016200061c565b96505060206200067089828a01620005df565b95505060406200068389828a01620005df565b94505060606200069689828a01620005b1565b9350506080620006a989828a01620005b1565b92505060a0620006bc89828a01620005c8565b9150509295509295509295565b6000620006d8603c83620009e7565b91507f417474656d7074656420746f2075736520616e20696e76616c696420726f6c6560008301527f20746f206d616e61676520616e206578636c757369766520726f6c65000000006020830152604082019050919050565b600062000740602183620009e7565b91507f536166654d6174683a206d756c7469706c69636174696f6e206f766572666c6f60008301527f77000000000000000000000000000000000000000000000000000000000000006020830152604082019050919050565b6000620007a8601e83620009e7565b91507f43616e6e6f74207573652061207072652d6578697374696e6720726f6c6500006000830152602082019050919050565b6000620007ea602383620009e7565b91507f43616e6e6f742073657420616e206578636c757369766520726f6c6520746f2060008301527f30783000000000000000000000000000000000000000000000000000000000006020830152604082019050919050565b600062000852601d83620009e7565b91507f4741542070657263656e74616765206d757374206265203c20313030250000006000830152602082019050919050565b600062000894602c83620009e7565b91507f4f6e6c792074686520636f6e7374727563746f722073686f756c642063616c6c60008301527f2074686973206d6574686f6400000000000000000000000000000000000000006020830152604082019050919050565b600060208201905081810360008301526200090881620006c9565b9050919050565b600060208201905081810360008301526200092a8162000731565b9050919050565b600060208201905081810360008301526200094c8162000799565b9050919050565b600060208201905081810360008301526200096e81620007db565b9050919050565b60006020820190508181036000830152620009908162000843565b9050919050565b60006020820190508181036000830152620009b28162000885565b9050919050565b6000604051905081810181811067ffffffffffffffff82111715620009dd57600080fd5b8060405250919050565b600082825260208201905092915050565b600062000a058262000a18565b9050919050565b60008115159050919050565b600073ffffffffffffffffffffffffffffffffffffffff82169050919050565b6000819050919050565b62000a4d81620009f8565b811462000a5957600080fd5b50565b62000a678162000a0c565b811462000a7357600080fd5b50565b62000a818162000a38565b811462000a8d57600080fd5b50565b615bc78062000aa06000396000f3fe608060405234801561001057600080fd5b50600436106101fb5760003560e01c806377ce140f1161011a578063a03e881a116100ad578063cbd579671161007c578063cbd57967146105bc578063d8651ad0146105d8578063d97c05be146105f4578063ef74e0ac14610610578063fa7229ee14610640576101fb565b8063a03e881a14610510578063ab3545e514610540578063c9280f0614610570578063cac42c99146105a0576101fb565b806383c6aaca116100e957806383c6aaca1461048a5780638e34ec46146104a657806390978d1b146104c25780639381a345146104f2576101fb565b806377ce140f146103dc5780637cdc1cb91461040c5780637cefdd5d1461043c57806380a1f7121461046c576101fb565b80635727e25d116101925780636be7658b116101615780636be7658b1461036a57806370a0cf2c1461038657806374d0a676146103a257806374dd278c146103be576101fb565b80635727e25d146102f65780635b5671ea146103145780636852eea01461031e57806368ad8ae31461033a576101fb565b80631bc9bf7d116101ce5780631bc9bf7d1461028457806322f8e566146102a057806329cb924d146102bc5780634c7a2603146102da576101fb565b806305454616146102005780630cd7546a1461021c57806310a7e201146102385780631904ff0e14610254575b600080fd5b61021a600480360361021591908101906145cf565b61065c565b005b61023660048036036102319190810190614401565b6106c8565b005b610252600480360361024d919081019061451b565b610787565b005b61026e60048036036102699190810190614389565b61085f565b60405161027b9190615392565b60405180910390f35b61029e600480360361029991908101906143c5565b61092c565b005b6102ba60048036036102b5919081019061472a565b6109e1565b005b6102c4610a03565b6040516102d19190615829565b60405180910390f35b6102f460048036036102ef919081019061464a565b610a2a565b005b6102fe610d9d565b60405161030b9190615829565b60405180910390f35b61031c610dbf565b005b610338600480360361033391908101906144ad565b6112b2565b005b610354600480360361034f9190810190614544565b611335565b6040516103619190615829565b60405180910390f35b610384600480360361037f919081019061477c565b6116b3565b005b6103a0600480360361039b9190810190614468565b6117bd565b005b6103bc60048036036103b7919081019061477c565b611a7d565b005b6103c6611b87565b6040516103d3919061542f565b60405180910390f35b6103f660048036036103f19190810190614544565b611ba9565b6040516104039190615392565b60405180910390f35b6104266004803603610421919081019061477c565b611c60565b6040516104339190615392565b60405180910390f35b610456600480360361045191908101906143c5565b611d5c565b604051610463919061540d565b60405180910390f35b610474611e55565b6040516104819190615370565b60405180910390f35b6104a4600480360361049f9190810190614701565b611fec565b005b6104c060048036036104bb91908101906147b8565b612055565b005b6104dc60048036036104d7919081019061451b565b612191565b6040516104e99190615392565b60405180910390f35b6104fa6121bb565b6040516105079190615392565b60405180910390f35b61052a60048036036105259190810190614544565b6121cd565b6040516105379190615392565b60405180910390f35b61055a6004803603610555919081019061472a565b61235b565b6040516105679190615311565b60405180910390f35b61058a60048036036105859190810190614544565b612400565b604051610597919061544a565b60405180910390f35b6105ba60048036036105b591908101906146ad565b6125dc565b005b6105d660048036036105d19190810190614337565b61268f565b005b6105f260048036036105ed9190810190614580565b61272a565b005b61060e6004803603610609919081019061477c565b6129ab565b005b61062a600480360361062591908101906143c5565b612ab6565b604051610637919061540d565b60405180910390f35b61065a60048036036106559190810190614337565b612baf565b005b61066784848461272a565b6000610684610674610a03565b6006612c4a90919063ffffffff16565b9050600085858360405160200161069d939291906153d6565b6040516020818303038152906040528051906020012090506106c03382856106c8565b505050505050565b6000600360008573ffffffffffffffffffffffffffffffffffffffff1673ffffffffffffffffffffffffffffffffffffffff1681526020019081526020016000209050610715338561085f565b610754576040517f08c379a000000000000000000000000000000000000000000000000000000000815260040161074b906154b0565b60405180910390fd5b818160000160008581526020019081526020016000206001019080519060200190610780929190614067565b5050505050565b60018081111561079357fe5b61079d8133611c60565b6107dc576040517f08c379a00000000000000000000000000000000000000000000000000000000081526004016107d390615650565b60405180910390fd5b6009600083815260200190815260200160002060009054906101000a900460ff1661085b5760016009600084815260200190815260200160002060006101000a81548160ff021916908315150217905550817fa0ca1076d765c13772089a90b5121cf6ddf63c9f7891c4e5031adbc85936b27660405160405180910390a25b5050565b6000600360008373ffffffffffffffffffffffffffffffffffffffff1673ffffffffffffffffffffffffffffffffffffffff16815260200190815260200160002060010160008473ffffffffffffffffffffffffffffffffffffffff1673ffffffffffffffffffffffffffffffffffffffff16815260200190815260200160002060009054906101000a900460ff168061092457508273ffffffffffffffffffffffffffffffffffffffff168273ffffffffffffffffffffffffffffffffffffffff16145b905092915050565b6000600360008473ffffffffffffffffffffffffffffffffffffffff1673ffffffffffffffffffffffffffffffffffffffff1681526020019081526020016000209050610979338461085f565b6109b8576040517f08c379a00000000000000000000000000000000000000000000000000000000081526004016109af90615570565b60405180910390fd5b80600001600083815260200190815260200160002060010160006109dc91906140e7565b505050565b6000809054906101000a900460ff166109f957600080fd5b8060018190555050565b60008060009054906101000a900460ff1615610a23576001549050610a27565b4290505b90565b6000610a34610a03565b9050600180811115610a4257fe5b610a56826006612c6190919063ffffffff16565b6001811115610a6157fe5b14610aa1576040517f08c379a0000000000000000000000000000000000000000000000000000000008152600401610a9890615709565b60405180910390fd5b6000610ab7826006612c4a90919063ffffffff16565b90506000610ac58787612ca0565b90506000816002016000848152602001908152602001600020905060008160000160003373ffffffffffffffffffffffffffffffffffffffff1673ffffffffffffffffffffffffffffffffffffffff16815260200190815260200160002090506000801b81600001541415610b6f576040517f08c379a0000000000000000000000000000000000000000000000000000000008152600401610b6690615590565b60405180910390fd5b80600001548787604051602001610b87929190615465565b6040516020818303038152906040528051906020012014610bdd576040517f08c379a0000000000000000000000000000000000000000000000000000000008152600401610bd4906157c9565b60405180910390fd5b80600001600090556000610bf085612cc6565b9050610bfa61412f565b6040518060200160405280600c60009054906101000a900473ffffffffffffffffffffffffffffffffffffffff1673ffffffffffffffffffffffffffffffffffffffff16634ee2cd7e33866040518363ffffffff1660e01b8152600401610c62929190615347565b60206040518083038186803b158015610c7a57600080fd5b505afa158015610c8e573d6000803e3d6000fd5b505050506040513d601f19601f82011682018060405250610cb29190810190614753565b815250905088604051602001610cc8919061544a565b604051602081830303815290604052805190602001208360010181905550610cfe898286600101612da39092919063ffffffff16565b60008b8b88604051602001610d15939291906153d6565b604051602081830303815290604052805190602001209050610d37338261092c565b8b873373ffffffffffffffffffffffffffffffffffffffff167fd04931ad32b4f942a0f169443ebd7f85a7d42c8b4310b4792243a065348836078e8e8760000151604051610d879392919061586d565b60405180910390a4505050505050505050505050565b6000610dba610daa610a03565b6006612c4a90919063ffffffff16565b905090565b6000610dc9610a03565b90506000600d60003373ffffffffffffffffffffffffffffffffffffffff1673ffffffffffffffffffffffffffffffffffffffff168152602001908152602001600020549050610e23826006612c4a90919063ffffffff16565b811415610e315750506112b0565b610e3a82612eca565b60006004600083815260200190815260200160002090506000816001015490506000811415610e6c57505050506112b0565b610e7461412f565b6040518060200160405280600c60009054906101000a900473ffffffffffffffffffffffffffffffffffffffff1673ffffffffffffffffffffffffffffffffffffffff16634ee2cd7e33866040518363ffffffff1660e01b8152600401610edc929190615347565b60206040518083038186803b158015610ef457600080fd5b505afa158015610f08573d6000803e3d6000fd5b505050506040513d601f19601f82011682018060405250610f2c9190810190614753565b8152509050610f3961412f565b6040518060200160405280600c60009054906101000a900473ffffffffffffffffffffffffffffffffffffffff1673ffffffffffffffffffffffffffffffffffffffff1663981b24d0866040518263ffffffff1660e01b8152600401610f9f9190615829565b60206040518083038186803b158015610fb757600080fd5b505afa158015610fcb573d6000803e3d6000fd5b505050506040513d601f19601f82011682018060405250610fef9190810190614753565b8152509050610ffc61412f565b611027828660020160405180602001604052908160008201548152505061315d90919063ffffffff16565b905061103161412f565b604051806020016040528060008152509050600086600001905060008090505b818054905081101561117c5760006005600084848154811061106f57fe5b90600052602060002001548152602001908152602001600020905060008160020160008c8152602001908152602001600020905060008160000160003373ffffffffffffffffffffffffffffffffffffffff1673ffffffffffffffffffffffffffffffffffffffff16815260200190815260200160002090506111028160010154836001016131a790919063ffffffff16565b156111645761110f61412f565b61111b836001016131de565b905061112561412f565b61114a8261113c8b8e61315d90919063ffffffff16565b61321b90919063ffffffff16565b905061115f818961326e90919063ffffffff16565b975050505b80600101600090555050508080600101915050611051565b506111916000836132a790919063ffffffff16565b156112a657600c60009054906101000a900473ffffffffffffffffffffffffffffffffffffffff1673ffffffffffffffffffffffffffffffffffffffff166340c10f193384600001516040518363ffffffff1660e01b81526004016111f7929190615347565b602060405180830381600087803b15801561121157600080fd5b505af1158015611225573d6000803e3d6000fd5b505050506040513d601f19601f8201168201806040525061124991908101906144f2565b61125257600080fd5b873373ffffffffffffffffffffffffffffffffffffffff167f469b5dd9fedbdef2f9e9c6013915593dc37bce87e28c05b88511be895d24274c846000015160405161129d9190615829565b60405180910390a35b5050505050505050505b565b60008090505b82829050811015611330576113238383838181106112d257fe5b905060800201600001358484848181106112e857fe5b905060800201602001358585858181106112fe57fe5b9050608002016040013586868681811061131457fe5b90506080020160600135610a2a565b80806001019150506112b8565b505050565b600080600e60009054906101000a900473ffffffffffffffffffffffffffffffffffffffff1673ffffffffffffffffffffffffffffffffffffffff1663aafd5e406040518163ffffffff1660e01b815260040161139190615670565b60206040518083038186803b1580156113a957600080fd5b505afa1580156113bd573d6000803e3d6000fd5b505050506040513d601f19601f820116820180604052506113e19190810190614360565b90508073ffffffffffffffffffffffffffffffffffffffff16638a3ca36b336040518263ffffffff1660e01b815260040161141c919061532c565b60206040518083038186803b15801561143457600080fd5b505afa158015611448573d6000803e3d6000fd5b505050506040513d601f19601f8201168201806040525061146c91908101906144f2565b6114ab576040517f08c379a00000000000000000000000000000000000000000000000000000000081526004016114a290615809565b60405180910390fd5b60006114b5610a03565b90508084106114c357600080fd5b6009600086815260200190815260200160002060009054906101000a900460ff16611523576040517f08c379a000000000000000000000000000000000000000000000000000000000815260040161151a906157e9565b60405180910390fd5b61152c81612eca565b6000611542826006612c4a90919063ffffffff16565b9050600061155087876132c4565b905060006005600083815260200190815260200160002090506000816003015490508381106115995761158d8160066132f790919063ffffffff16565b965050505050506116ac565b600081146115af576000965050505050506116ac565b60006115c560018661337590919063ffffffff16565b905060405180606001604052808b81526020018a815260200182815250600560008681526020019081526020016000206000820151816000015560208201518160010155604082015181600301559050506004600082815260200190815260200160002060000184908060018154018082558091505090600182039060005260206000200160009091929091909150555089817f5d80f93c41e95cacea0b9ce9bb825092d709fa503a70bb26ea3f536bf16946bd8b6040516116879190615829565b60405180910390a36116a38160066132f790919063ffffffff16565b97505050505050505b5092915050565b816002808111156116c057fe5b6002600083815260200190815260200160002060010160009054906101000a900460ff1660028111156116ef57fe5b1461172f576040517f08c379a000000000000000000000000000000000000000000000000000000000815260040161172690615610565b60405180910390fd5b82611750600260008381526020019081526020016000206000015433611c60565b61178f576040517f08c379a000000000000000000000000000000000000000000000000000000000815260040161178690615789565b60405180910390fd5b6117b783600260008781526020019081526020016000206003016133ca90919063ffffffff16565b50505050565b60008090505b82829050811015611a785760008383838181106117dc57fe5b90506020028101803560016080038336030381126117f957600080fd5b80830192505050806060018035600160200383360303811261181a57600080fd5b8083019250508135905060208201915067ffffffffffffffff81111561183f57600080fd5b60018102360382131561185157600080fd5b90501415611902576118fd83838381811061186857fe5b905060200281018035600160800383360303811261188557600080fd5b808301925050506000013584848481811061189c57fe5b90506020028101803560016080038336030381126118b957600080fd5b80830192505050602001358585858181106118d057fe5b90506020028101803560016080038336030381126118ed57600080fd5b808301925050506040013561272a565b611a6b565b611a6a83838381811061191157fe5b905060200281018035600160800383360303811261192e57600080fd5b808301925050506000013584848481811061194557fe5b905060200281018035600160800383360303811261196257600080fd5b808301925050506020013585858581811061197957fe5b905060200281018035600160800383360303811261199657600080fd5b80830192505050604001358686868181106119ad57fe5b90506020028101803560016080038336030381126119ca57600080fd5b8083019250505080606001803560016020038336030381126119eb57600080fd5b8083019250508135905060208201915067ffffffffffffffff811115611a1057600080fd5b600181023603821315611a2257600080fd5b8080601f016020809104026020016040519081016040528093929190818152602001838380828437600081840152601f19601f8201169050808301925050505050505061065c565b5b80806001019150506117c3565b505050565b81600280811115611a8a57fe5b6002600083815260200190815260200160002060010160009054906101000a900460ff166002811115611ab957fe5b14611af9576040517f08c379a0000000000000000000000000000000000000000000000000000000008152600401611af090615610565b60405180910390fd5b82611b1a600260008381526020019081526020016000206000015433611c60565b611b59576040517f08c379a0000000000000000000000000000000000000000000000000000000008152600401611b5090615789565b60405180910390fd5b611b81836002600087815260200190815260200160002060030161342890919063ffffffff16565b50505050565b6000611ba4611b94610a03565b6006612c6190919063ffffffff16565b905090565b600080611bb68484612ca0565b90508060030154611bd8611bc8610a03565b6006612c4a90919063ffffffff16565b14611be7576000915050611c5a565b600081600201600083600301548152602001908152602001600020905060008160000160003373ffffffffffffffffffffffffffffffffffffffff1673ffffffffffffffffffffffffffffffffffffffff16815260200190815260200160002090506000801b8160010154141593505050505b92915050565b60008060026000858152602001908152602001600020905060016002811115611c8557fe5b8160010160009054906101000a900460ff166002811115611ca257fe5b1415611cc657611cbe838260020161348690919063ffffffff16565b915050611d56565b600280811115611cd257fe5b8160010160009054906101000a900460ff166002811115611cef57fe5b1415611d1357611d0b83826003016134e390919063ffffffff16565b915050611d56565b6000611d54576040517f08c379a0000000000000000000000000000000000000000000000000000000008152600401611d4b906157a9565b60405180910390fd5b505b92915050565b6060600360008473ffffffffffffffffffffffffffffffffffffffff1673ffffffffffffffffffffffffffffffffffffffff16815260200190815260200160002060000160008381526020019081526020016000206000018054600181600116156101000203166002900480601f016020809104026020016040519081016040528092919081815260200182805460018160011615610100020316600290048015611e485780601f10611e1d57610100808354040283529160200191611e48565b820191906000526020600020905b815481529060010190602001808311611e2b57829003601f168201915b5050505050905092915050565b60606000611e61610a03565b9050600060046000611e7d846006612c4a90919063ffffffff16565b8152602001908152602001600020600001905060008180549050905060606000611ea68561353c565b91509150808301604051908082528060200260200182016040528015611ee657816020015b611ed3614142565b815260200190600190039081611ecb5790505b50955060008090505b83811015611f6657600060056000878481548110611f0957fe5b9060005260206000200154815260200190815260200160002090506040518060400160405280826000015481526020018260010154815250888381518110611f4d57fe5b6020026020010181905250508080600101915050611eef565b5060008090505b81811015611fe357600060056000858481518110611f8757fe5b60200260200101518152602001908152602001600020905060405180604001604052808260000154815260200182600101548152508886840181518110611fca57fe5b6020026020010181905250508080600101915050611f6d565b50505050505090565b600180811115611ff857fe5b6120028133611c60565b612041576040517f08c379a000000000000000000000000000000000000000000000000000000000815260040161203890615650565b60405180910390fd5b81600b600082015181600001559050505050565b600e60149054906101000a900460ff16156120a5576040517f08c379a000000000000000000000000000000000000000000000000000000000815260040161209c90615769565b60405180910390fd5b6001600e60146101000a81548160ff0219169083151502179055506120e3600060018111156120d057fe5b600060018111156120dd57fe5b336136bd565b6121056001808111156120f257fe5b600060018111156120ff57fe5b336136bd565b61211983600661381a90919063ffffffff16565b61212d60018361383b90919063ffffffff16565b61216c576040517f08c379a000000000000000000000000000000000000000000000000000000000815260040161216390615729565b60405180910390fd5b81600a6000820151816000015590505080600b60008201518160000155905050505050565b60006009600083815260200190815260200160002060009054906101000a900460ff169050919050565b6000809054906101000a900460ff1681565b600080600e60009054906101000a900473ffffffffffffffffffffffffffffffffffffffff1673ffffffffffffffffffffffffffffffffffffffff1663aafd5e406040518163ffffffff1660e01b815260040161222990615670565b60206040518083038186803b15801561224157600080fd5b505afa158015612255573d6000803e3d6000fd5b505050506040513d601f19601f820116820180604052506122799190810190614360565b90508073ffffffffffffffffffffffffffffffffffffffff16638a3ca36b336040518263ffffffff1660e01b81526004016122b4919061532c565b60206040518083038186803b1580156122cc57600080fd5b505afa1580156122e0573d6000803e3d6000fd5b505050506040513d601f19601f8201168201806040525061230491908101906144f2565b612343576040517f08c379a000000000000000000000000000000000000000000000000000000000815260040161233a90615809565b60405180910390fd5b61234d8484613858565b905050809250505092915050565b6000816001600281111561236b57fe5b6002600083815260200190815260200160002060010160009054906101000a900460ff16600281111561239a57fe5b146123da576040517f08c379a00000000000000000000000000000000000000000000000000000000081526004016123d1906155b0565b60405180910390fd5b6123f860026000858152602001908152602001600020600201613a59565b915050919050565b600080600e60009054906101000a900473ffffffffffffffffffffffffffffffffffffffff1673ffffffffffffffffffffffffffffffffffffffff1663aafd5e406040518163ffffffff1660e01b815260040161245c90615670565b60206040518083038186803b15801561247457600080fd5b505afa158015612488573d6000803e3d6000fd5b505050506040513d601f19601f820116820180604052506124ac9190810190614360565b90508073ffffffffffffffffffffffffffffffffffffffff16638a3ca36b336040518263ffffffff1660e01b81526004016124e7919061532c565b60206040518083038186803b1580156124ff57600080fd5b505afa158015612513573d6000803e3d6000fd5b505050506040513d601f19601f8201168201806040525061253791908101906144f2565b612576576040517f08c379a000000000000000000000000000000000000000000000000000000000815260040161256d90615809565b60405180910390fd5b60008060606125858787613858565b9250925092508281906125ce576040517f08c379a00000000000000000000000000000000000000000000000000000000081526004016125c5919061548e565b60405180910390fd5b508194505050505092915050565b6040825114612620576040517f08c379a000000000000000000000000000000000000000000000000000000000815260040161261790615749565b60405180910390fd5b81600360003373ffffffffffffffffffffffffffffffffffffffff1673ffffffffffffffffffffffffffffffffffffffff1681526020019081526020016000206000016000838152602001908152602001600020600001908051906020019061268a929190614067565b505050565b6000600360003373ffffffffffffffffffffffffffffffffffffffff1673ffffffffffffffffffffffffffffffffffffffff16815260200190815260200160002060010160008373ffffffffffffffffffffffffffffffffffffffff1673ffffffffffffffffffffffffffffffffffffffff16815260200190815260200160002060006101000a81548160ff02191690831515021790555050565b6000801b811415612770576040517f08c379a0000000000000000000000000000000000000000000000000000000008152600401612767906154d0565b60405180910390fd5b600061277a610a03565b90506000600181111561278957fe5b61279d826006612c6190919063ffffffff16565b60018111156127a857fe5b146127e8576040517f08c379a00000000000000000000000000000000000000000000000000000000081526004016127df90615530565b60405180910390fd5b6127f181612eca565b6000612807826006612c4a90919063ffffffff16565b905060006128158686612ca0565b90508181600301541461285d576040517f08c379a0000000000000000000000000000000000000000000000000000000008152600401612854906154f0565b60405180910390fd5b60008160020160008481526020019081526020016000209050848160000160003373ffffffffffffffffffffffffffffffffffffffff1673ffffffffffffffffffffffffffffffffffffffff1681526020019081526020016000206000018190555082600d60003373ffffffffffffffffffffffffffffffffffffffff1673ffffffffffffffffffffffffffffffffffffffff16815260200190815260200160002054146129525761290d610dbf565b82600d60003373ffffffffffffffffffffffffffffffffffffffff1673ffffffffffffffffffffffffffffffffffffffff168152602001908152602001600020819055505b86833373ffffffffffffffffffffffffffffffffffffffff167f879c67d036f174a10ea491cf7281d05af9b906660b4f26727d866aec0cf9147c8960405161299a9190615829565b60405180910390a450505050505050565b81600160028111156129b957fe5b6002600083815260200190815260200160002060010160009054906101000a900460ff1660028111156129e857fe5b14612a28576040517f08c379a0000000000000000000000000000000000000000000000000000000008152600401612a1f906155b0565b60405180910390fd5b82612a49600260008381526020019081526020016000206000015433611c60565b612a88576040517f08c379a0000000000000000000000000000000000000000000000000000000008152600401612a7f90615789565b60405180910390fd5b612ab08360026000878152602001908152602001600020600201613a8790919063ffffffff16565b50505050565b6060600360008473ffffffffffffffffffffffffffffffffffffffff1673ffffffffffffffffffffffffffffffffffffffff16815260200190815260200160002060000160008381526020019081526020016000206001018054600181600116156101000203166002900480601f016020809104026020016040519081016040528092919081815260200182805460018160011615610100020316600290048015612ba25780601f10612b7757610100808354040283529160200191612ba2565b820191906000526020600020905b815481529060010190602001808311612b8557829003601f168201915b5050505050905092915050565b6001600360003373ffffffffffffffffffffffffffffffffffffffff1673ffffffffffffffffffffffffffffffffffffffff16815260200190815260200160002060010160008373ffffffffffffffffffffffffffffffffffffffff1673ffffffffffffffffffffffffffffffffffffffff16815260200190815260200160002060006101000a81548160ff02191690831515021790555050565b6000612c568383613b3e565b508091505092915050565b6000612c8d6002612c7f856002015485613be590919063ffffffff16565b613c4190919063ffffffff16565b6001811115612c9857fe5b905092915050565b600060056000612cb085856132c4565b8152602001908152602001600020905092915050565b600080600460008481526020019081526020016000209050600081600101541415612d9657600c60009054906101000a900473ffffffffffffffffffffffffffffffffffffffff1673ffffffffffffffffffffffffffffffffffffffff16639711715a6040518163ffffffff1660e01b8152600401602060405180830381600087803b158015612d5557600080fd5b505af1158015612d69573d6000803e3d6000fd5b505050506040513d601f19601f82011682018060405250612d8d9190810190614753565b81600101819055505b8060010154915050919050565b612dce818460010160405180602001604052908160008201548152505061326e90919063ffffffff16565b8360010160008201518160000155905050612e1b8184600001600085815260200190815260200160002060405180602001604052908160008201548152505061326e90919063ffffffff16565b8360000160008481526020019081526020016000206000820151816000015590505082600201548214158015612eb65750612eb583600001600085600201548152602001908152602001600020604051806020016040529081600082015481525050846000016000858152602001908152602001600020604051806020016040529081600082015481525050613c9890919063ffffffff16565b5b15612ec5578183600201819055505b505050565b612ede816006613cad90919063ffffffff16565b612ee75761315a565b6000612ef36006613cce565b905060006004600083815260200190815260200160002090506000612f22846006612c4a90919063ffffffff16565b905060008090505b826000018054905081101561311c576000836000018281548110612f4a57fe5b90600052602060002001549050600060056000838152602001908152602001600020905085816003015414612fb4576040517f08c379a0000000000000000000000000000000000000000000000000000000008152600401612fab90615510565b60405180910390fd5b60008160020160008881526020019081526020016000209050600080612fee612fdc8a613cdc565b84600101613e1790919063ffffffff16565b91509150816130c2576004600088815260200190815260200160002060000185908060018154018082558091505090600182039060005260206000200160009091929091909150555086846003018190555087600001868154811061304f57fe5b9060005260206000200160009055826001016000600182016000808201600090555050600282016000905550508360000154877f0b1788ae12db2b1e3b09e514d18faad0b034cd8ca3e9def0e71b6bf11fb86bad86600101546040516130b59190615829565b60405180910390a361310a565b836000015484600301547f67565e6a3e804c4e180134cb2885e32142229de3ca125701318af11658ee4988866001015484604051613101929190615844565b60405180910390a35b50505050508080600101915050612f2a565b50600b6004600083815260200190815260200160002060020160008201548160000155905050613156846006613f0090919063ffffffff16565b5050505b50565b61316561412f565b6040518060200160405280670de0b6b3a764000061319485600001518760000151613f2690919063ffffffff16565b8161319b57fe5b04815250905092915050565b600082600201546040516020016131be919061544a565b604051602081830303815290604052805190602001208214905092915050565b6131e661412f565b816000016000836002015481526020019081526020016000206040518060200160405290816000820154815250509050919050565b61322361412f565b60405180602001604052806132638460000151613255670de0b6b3a76400008860000151613f2690919063ffffffff16565b613be590919063ffffffff16565b815250905092915050565b61327661412f565b604051806020016040528061329c8460000151866000015161337590919063ffffffff16565b815250905092915050565b60006132b282613f96565b60000151836000015111905092915050565b600082826040516020016132d99291906153ad565b60405160208183030381529060405280519060200120905092915050565b6000806133246001613316866000015486613fce90919063ffffffff16565b61337590919063ffffffff16565b9050600061334060028660020154613f2690919063ffffffff16565b905061336b6133588284613f2690919063ffffffff16565b866001015461337590919063ffffffff16565b9250505092915050565b6000808284019050838110156133c0576040517f08c379a00000000000000000000000000000000000000000000000000000000081526004016133b790615550565b60405180910390fd5b8091505092915050565b60008260000160008373ffffffffffffffffffffffffffffffffffffffff1673ffffffffffffffffffffffffffffffffffffffff16815260200190815260200160002060006101000a81548160ff0219169083151502179055505050565b60018260000160008373ffffffffffffffffffffffffffffffffffffffff1673ffffffffffffffffffffffffffffffffffffffff16815260200190815260200160002060006101000a81548160ff0219169083151502179055505050565b60008173ffffffffffffffffffffffffffffffffffffffff168360000160009054906101000a900473ffffffffffffffffffffffffffffffffffffffff1673ffffffffffffffffffffffffffffffffffffffff1614905092915050565b60008260000160008373ffffffffffffffffffffffffffffffffffffffff1673ffffffffffffffffffffffffffffffffffffffff16815260200190815260200160002060009054906101000a900460ff16905092915050565b60606000613554836006613cad90919063ffffffff16565b61359a5760006040519080825280602002602001820160405280156135885781602001602082028038833980820191505090505b506000819150809050915091506136b8565b60006135a66006613cce565b90506000600460008381526020019081526020016000206000019050600081805490509050806040519080825280602002602001820160405280156135fa5781602001602082028038833980820191505090505b5094506000935060008090505b818110156136b357600083828154811061361d57fe5b90600052602060002001549050600060056000838152602001908152602001600020905060008160020160008881526020019081526020016000209050600061367a61366889613cdc565b83600101613e1790919063ffffffff16565b509050806136a257838a8a806001019b508151811061369557fe5b6020026020010181815250505b505050508080600101915050613607565b505050505b915091565b82600060028111156136cb57fe5b6002600083815260200190815260200160002060010160009054906101000a900460ff1660028111156136fa57fe5b1461373a576040517f08c379a0000000000000000000000000000000000000000000000000000000008152600401613731906156c9565b60405180910390fd5b600060026000868152602001908152602001600020905060018160010160006101000a81548160ff0219169083600281111561377257fe5b0217905550838160000181905550613796838260020161402490919063ffffffff16565b600060028111156137a357fe5b6002600086815260200190815260200160002060010160009054906101000a900460ff1660028111156137d257fe5b1415613813576040517f08c379a000000000000000000000000000000000000000000000000000000000815260040161380a90615689565b60405180910390fd5b5050505050565b80826002018190555060018260000181905550600082600101819055505050565b600061384682613f96565b60000151836000015110905092915050565b600080606060006138698686612ca0565b905060008160030154905060006138806006613cce565b90508082101561393c5760008214156138dd576000808090506040518060400160405280601981526020017f507269636520776173206e657665722072657175657374656400000000000000815250955095509550505050613a52565b60008360020160008481526020019081526020016000209050600061391661390485613cdc565b83600101613e1790919063ffffffff16565b915050600181604051806020016040528060008152509750975097505050505050613a52565b80821461397057600080809050604051806060016040528060218152602001615b4760219139955095509550505050613a52565b8061398c61397c610a03565b6006612c4a90919063ffffffff16565b14156139bf57600080809050604051806060016040528060268152602001615b6860269139955095509550505050613a52565b600083600201600084815260200190815260200160002090506000806139f96139e786613cdc565b84600101613e1790919063ffffffff16565b9150915081613a3257600080809050604051806080016040528060518152602001615af660519139985098509850505050505050613a52565b600181604051806020016040528060008152509850985098505050505050505b9250925092565b60008160000160009054906101000a900473ffffffffffffffffffffffffffffffffffffffff169050919050565b600073ffffffffffffffffffffffffffffffffffffffff168173ffffffffffffffffffffffffffffffffffffffff161415613af7576040517f08c379a0000000000000000000000000000000000000000000000000000000008152600401613aee906156e9565b60405180910390fd5b808260000160006101000a81548173ffffffffffffffffffffffffffffffffffffffff021916908373ffffffffffffffffffffffffffffffffffffffff1602179055505050565b60008060008460010154905084600101548411613b6957846000015485600101549250925050613bde565b6000613b8360028760020154613f2690919063ffffffff16565b9050613baa81613b9c8388613be590919063ffffffff16565b613f2690919063ffffffff16565b925081831115613bd357613bcc6001876000015461337590919063ffffffff16565b9350613bdb565b856000015493505b50505b9250929050565b6000808211613c29576040517f08c379a0000000000000000000000000000000000000000000000000000000008152600401613c20906155f0565b60405180910390fd5b6000828481613c3457fe5b0490508091505092915050565b600080821415613c86576040517f08c379a0000000000000000000000000000000000000000000000000000000008152600401613c7d90615630565b60405180910390fd5b818381613c8f57fe5b06905092915050565b60008160000151836000015111905092915050565b600080613cba8484613b3e565b509050808460000154141591505092915050565b600081600001549050919050565b613ce461412f565b6000600460008481526020019081526020016000206001015490506000811415613d21576040518060200160405280600019815250915050613e12565b613d2961412f565b6040518060200160405280600c60009054906101000a900473ffffffffffffffffffffffffffffffffffffffff1673ffffffffffffffffffffffffffffffffffffffff1663981b24d0856040518263ffffffff1660e01b8152600401613d8f9190615829565b60206040518083038186803b158015613da757600080fd5b505afa158015613dbb573d6000803e3d6000fd5b505050506040513d601f19601f82011682018060405250613ddf9190810190614753565b8152509050613e0d600a6040518060200160405290816000820154815250508261315d90919063ffffffff16565b925050505b919050565b600080613e2261412f565b613e3f6064613e316032613f96565b61403290919063ffffffff16565b9050613e6c8486600101604051806020016040529081600082015481525050613c9890919063ffffffff16565b8015613ede5750613edd81613ecf876001016040518060200160405290816000820154815250508860000160008a60020154815260200190815260200160002060405180602001604052908160008201548152505061321b90919063ffffffff16565b613c9890919063ffffffff16565b5b15613ef3576001925084600201549150613ef8565b600092505b509250929050565b613f0a8282613b3e565b8360000160008560010160008491905055839190505550505050565b600080831415613f395760009050613f90565b6000828402905082848281613f4a57fe5b0414613f8b576040517f08c379a0000000000000000000000000000000000000000000000000000000008152600401613f82906156a9565b60405180910390fd5b809150505b92915050565b613f9e61412f565b6040518060200160405280613fc4670de0b6b3a764000085613f2690919063ffffffff16565b8152509050919050565b600082821115614013576040517f08c379a000000000000000000000000000000000000000000000000000000000815260040161400a906155d0565b60405180910390fd5b600082840390508091505092915050565b61402e8282613a87565b5050565b61403a61412f565b604051806020016040528061405c848660000151613be590919063ffffffff16565b815250905092915050565b828054600181600116156101000203166002900490600052602060002090601f016020900481019282601f106140a857805160ff19168380011785556140d6565b828001600101855582156140d6579182015b828111156140d55782518255916020019190600101906140ba565b5b5090506140e3919061415f565b5090565b50805460018160011615610100020316600290046000825580601f1061410d575061412c565b601f01602090049060005260206000209081019061412b919061415f565b5b50565b6040518060200160405280600081525090565b604051806040016040528060008019168152602001600081525090565b61418191905b8082111561417d576000816000905550600101614165565b5090565b90565b60008135905061419381615a82565b92915050565b6000815190506141a881615a82565b92915050565b60008083601f8401126141c057600080fd5b8235905067ffffffffffffffff8111156141d957600080fd5b6020830191508360808202830111156141f157600080fd5b9250929050565b60008083601f84011261420a57600080fd5b8235905067ffffffffffffffff81111561422357600080fd5b60208301915083608082028301111561423b57600080fd5b9250929050565b60008151905061425181615a99565b92915050565b60008135905061426681615ab0565b92915050565b600082601f83011261427d57600080fd5b813561429061428b826158d1565b6158a4565b915080825260208301602083018583830111156142ac57600080fd5b6142b7838284615a22565b50505092915050565b6000813590506142cf81615ac7565b92915050565b6000602082840312156142e757600080fd5b6142f160206158a4565b905060006143018482850161430d565b60008301525092915050565b60008135905061431c81615ade565b92915050565b60008151905061433181615ade565b92915050565b60006020828403121561434957600080fd5b600061435784828501614184565b91505092915050565b60006020828403121561437257600080fd5b600061438084828501614199565b91505092915050565b6000806040838503121561439c57600080fd5b60006143aa85828601614184565b92505060206143bb85828601614184565b9150509250929050565b600080604083850312156143d857600080fd5b60006143e685828601614184565b92505060206143f785828601614257565b9150509250929050565b60008060006060848603121561441657600080fd5b600061442486828701614184565b935050602061443586828701614257565b925050604084013567ffffffffffffffff81111561445257600080fd5b61445e8682870161426c565b9150509250925092565b6000806020838503121561447b57600080fd5b600083013567ffffffffffffffff81111561449557600080fd5b6144a1858286016141ae565b92509250509250929050565b600080602083850312156144c057600080fd5b600083013567ffffffffffffffff8111156144da57600080fd5b6144e6858286016141f8565b92509250509250929050565b60006020828403121561450457600080fd5b600061451284828501614242565b91505092915050565b60006020828403121561452d57600080fd5b600061453b84828501614257565b91505092915050565b6000806040838503121561455757600080fd5b600061456585828601614257565b92505060206145768582860161430d565b9150509250929050565b60008060006060848603121561459557600080fd5b60006145a386828701614257565b93505060206145b48682870161430d565b92505060406145c586828701614257565b9150509250925092565b600080600080608085870312156145e557600080fd5b60006145f387828801614257565b94505060206146048782880161430d565b935050604061461587828801614257565b925050606085013567ffffffffffffffff81111561463257600080fd5b61463e8782880161426c565b91505092959194509250565b6000806000806080858703121561466057600080fd5b600061466e87828801614257565b945050602061467f8782880161430d565b9350506040614690878288016142c0565b92505060606146a1878288016142c0565b91505092959194509250565b600080604083850312156146c057600080fd5b600083013567ffffffffffffffff8111156146da57600080fd5b6146e68582860161426c565b92505060206146f785828601614257565b9150509250929050565b60006020828403121561471357600080fd5b6000614721848285016142d5565b91505092915050565b60006020828403121561473c57600080fd5b600061474a8482850161430d565b91505092915050565b60006020828403121561476557600080fd5b600061477384828501614322565b91505092915050565b6000806040838503121561478f57600080fd5b600061479d8582860161430d565b92505060206147ae85828601614184565b9150509250929050565b6000806000606084860312156147cd57600080fd5b60006147db8682870161430d565b93505060206147ec868287016142d5565b92505060406147fd868287016142d5565b9150509250925092565b600061481383836152c4565b60408301905092915050565b614828816159da565b82525050565b6148378161596b565b82525050565b60006148488261590a565b6148528185615938565b935061485d836158fd565b8060005b8381101561488e5781516148758882614807565b97506148808361592b565b925050600181019050614861565b5085935050505092915050565b6148a48161597d565b82525050565b6148b381615989565b82525050565b6148c281615989565b82525050565b60006148d382615915565b6148dd8185615949565b93506148ed818560208601615a31565b6148f681615a64565b840191505092915050565b61490a816159ec565b82525050565b614919816159a6565b82525050565b600061492a82615920565b614934818561595a565b9350614944818560208601615a31565b61494d81615a64565b840191505092915050565b600061496560288361595a565b91507f4e6f7420617574686f72697a656420746f2073656e6420746f2074686973207260008301527f6563697069656e740000000000000000000000000000000000000000000000006020830152604082019050919050565b60006149cb603a8361595a565b91507f436f6d6d69747465642068617368206f66203020697320646973616c6c6f776560008301527f642c2063686f6f7365206120646966666572656e742073616c740000000000006020830152604082019050919050565b6000614a31603d8361595a565b91507f54686973202874696d652c206964656e7469666965722920706169722069732060008301527f6e6f74206265696e6720766f746564206f6e207468697320726f756e640000006020830152604082019050919050565b6000614a97603a8361595a565b91507f466f756e64207072696365207265717565737420746861742077617320696e6360008301527f6f72726563746c7920706c6163656420696e206120726f756e640000000000006020830152604082019050919050565b6000614afd60278361595a565b91507f43616e6e6f7420636f6d6d6974207768696c6520696e2074686520726576656160008301527f6c207068617365000000000000000000000000000000000000000000000000006020830152604082019050919050565b6000614b63601b8361595a565b91507f536166654d6174683a206164646974696f6e206f766572666c6f7700000000006000830152602082019050919050565b6000614ba360208361595a565b91507f4e6f7420617574686f72697a656420746f2072656d6f7665206d6573736167656000830152602082019050919050565b6000614be360388361595a565b91507f43616e6e6f742072657665616c20616e20756e636f6d6d6974746564206f722060008301527f70726576696f75736c792072657665616c6564206861736800000000000000006020830152604082019050919050565b6000614c49602f8361595a565b91507f4d7573742062652063616c6c6564206f6e20616e20696e697469616c697a656460008301527f204578636c757369766520726f6c6500000000000000000000000000000000006020830152604082019050919050565b6000614caf601e8361595a565b91507f536166654d6174683a207375627472616374696f6e206f766572666c6f7700006000830152602082019050919050565b6000614cef601a8361595a565b91507f536166654d6174683a206469766973696f6e206279207a65726f0000000000006000830152602082019050919050565b6000614d2f602c8361595a565b91507f4d7573742062652063616c6c6564206f6e20616e20696e697469616c697a656460008301527f2053686172656420726f6c6500000000000000000000000000000000000000006020830152604082019050919050565b6000614d9560188361595a565b91507f536166654d6174683a206d6f64756c6f206279207a65726f00000000000000006000830152602082019050919050565b6000614dd560228361595a565b91507f53656e64657220646f6573206e6f7420686f6c6420726571756972656420726f60008301527f6c650000000000000000000000000000000000000000000000000000000000006020830152604082019050919050565b7f5265676973747279000000000000000000000000000000000000000000000000815250565b6000614e61603c8361595a565b91507f417474656d7074656420746f2075736520616e20696e76616c696420726f6c6560008301527f20746f206d616e61676520616e206578636c757369766520726f6c65000000006020830152604082019050919050565b6000614ec760218361595a565b91507f536166654d6174683a206d756c7469706c69636174696f6e206f766572666c6f60008301527f77000000000000000000000000000000000000000000000000000000000000006020830152604082019050919050565b6000614f2d601e8361595a565b91507f43616e6e6f74207573652061207072652d6578697374696e6720726f6c6500006000830152602082019050919050565b6000614f6d60238361595a565b91507f43616e6e6f742073657420616e206578636c757369766520726f6c6520746f2060008301527f30783000000000000000000000000000000000000000000000000000000000006020830152604082019050919050565b6000614fd360278361595a565b91507f43616e6e6f742072657665616c207768696c6520696e2074686520636f6d6d6960008301527f74207068617365000000000000000000000000000000000000000000000000006020830152604082019050919050565b6000615039601d8361595a565b91507f4741542070657263656e74616765206d757374206265203c20313030250000006000830152602082019050919050565b6000615079601e8361595a565b91507f5075626c6963206b6579206973207468652077726f6e67206c656e67746800006000830152602082019050919050565b60006150b9602c8361595a565b91507f4f6e6c792074686520636f6e7374727563746f722073686f756c642063616c6c60008301527f2074686973206d6574686f6400000000000000000000000000000000000000006020830152604082019050919050565b600061511f60248361595a565b91507f43616e206f6e6c792062652063616c6c6564206279206120726f6c65206d616e60008301527f61676572000000000000000000000000000000000000000000000000000000006020830152604082019050919050565b6000615185600e8361595a565b91507f496e76616c696420726f6c6549640000000000000000000000000000000000006000830152602082019050919050565b60006151c560348361595a565b91507f436f6d6d6974746564206861736820646f65736e2774206d617463682072657660008301527f65616c656420707269636520616e642073616c740000000000000000000000006020830152604082019050919050565b600061522b60288361595a565b91507f5072696365207265717565737420666f7220756e737570706f7274656420696460008301527f656e7469666965720000000000000000000000000000000000000000000000006020830152604082019050919050565b6000615291601d8361595a565b91507f4d757374206265207265676973746572656420646572697661746976650000006000830152602082019050919050565b6040820160008201516152da60008501826148aa565b5060208201516152ed60208501826152f3565b50505050565b6152fc816159d0565b82525050565b61530b816159d0565b82525050565b6000602082019050615326600083018461482e565b92915050565b6000602082019050615341600083018461481f565b92915050565b600060408201905061535c600083018561481f565b6153696020830184615302565b9392505050565b6000602082019050818103600083015261538a818461483d565b905092915050565b60006020820190506153a7600083018461489b565b92915050565b60006040820190506153c260008301856148b9565b6153cf6020830184615302565b9392505050565b60006060820190506153eb60008301866148b9565b6153f86020830185615302565b6154056040830184615302565b949350505050565b6000602082019050818103600083015261542781846148c8565b905092915050565b60006020820190506154446000830184614901565b92915050565b600060208201905061545f6000830184614910565b92915050565b600060408201905061547a6000830185614910565b6154876020830184614910565b9392505050565b600060208201905081810360008301526154a8818461491f565b905092915050565b600060208201905081810360008301526154c981614958565b9050919050565b600060208201905081810360008301526154e9816149be565b9050919050565b6000602082019050818103600083015261550981614a24565b9050919050565b6000602082019050818103600083015261552981614a8a565b9050919050565b6000602082019050818103600083015261554981614af0565b9050919050565b6000602082019050818103600083015261556981614b56565b9050919050565b6000602082019050818103600083015261558981614b96565b9050919050565b600060208201905081810360008301526155a981614bd6565b9050919050565b600060208201905081810360008301526155c981614c3c565b9050919050565b600060208201905081810360008301526155e981614ca2565b9050919050565b6000602082019050818103600083015261560981614ce2565b9050919050565b6000602082019050818103600083015261562981614d22565b9050919050565b6000602082019050818103600083015261564981614d88565b9050919050565b6000602082019050818103600083015261566981614dc8565b9050919050565b600060208201905061568460008301614e2e565b919050565b600060208201905081810360008301526156a281614e54565b9050919050565b600060208201905081810360008301526156c281614eba565b9050919050565b600060208201905081810360008301526156e281614f20565b9050919050565b6000602082019050818103600083015261570281614f60565b9050919050565b6000602082019050818103600083015261572281614fc6565b9050919050565b600060208201905081810360008301526157428161502c565b9050919050565b600060208201905081810360008301526157628161506c565b9050919050565b60006020820190508181036000830152615782816150ac565b9050919050565b600060208201905081810360008301526157a281615112565b9050919050565b600060208201905081810360008301526157c281615178565b9050919050565b600060208201905081810360008301526157e2816151b8565b9050919050565b600060208201905081810360008301526158028161521e565b9050919050565b6000602082019050818103600083015261582281615284565b9050919050565b600060208201905061583e6000830184615302565b92915050565b60006040820190506158596000830185615302565b6158666020830184614910565b9392505050565b60006060820190506158826000830186615302565b61588f6020830185614910565b61589c6040830184615302565b949350505050565b6000604051905081810181811067ffffffffffffffff821117156158c757600080fd5b8060405250919050565b600067ffffffffffffffff8211156158e857600080fd5b601f19601f8301169050602081019050919050565b6000602082019050919050565b600081519050919050565b600081519050919050565b600081519050919050565b6000602082019050919050565b600082825260208201905092915050565b600082825260208201905092915050565b600082825260208201905092915050565b6000615976826159b0565b9050919050565b60008115159050919050565b6000819050919050565b60008190506159a182615a75565b919050565b6000819050919050565b600073ffffffffffffffffffffffffffffffffffffffff82169050919050565b6000819050919050565b60006159e5826159fe565b9050919050565b60006159f782615993565b9050919050565b6000615a0982615a10565b9050919050565b6000615a1b826159b0565b9050919050565b82818337600083830152505050565b60005b83811015615a4f578082015181840152602081019050615a34565b83811115615a5e576000848401525b50505050565b6000601f19601f8301169050919050565b60028110615a7f57fe5b50565b615a8b8161596b565b8114615a9657600080fd5b50565b615aa28161597d565b8114615aad57600080fd5b50565b615ab981615989565b8114615ac457600080fd5b50565b615ad0816159a6565b8114615adb57600080fd5b50565b615ae7816159d0565b8114615af257600080fd5b5056fe507269636520776173206e6f74207265736f6c766564207468697320766f74696e6720726f756e642e2049742077696c6c207265717569726520616e6f7468657220726f756e64206f6620766f74696e675265717565737420686173206e6f7420796574206265656e20766f746564206f6e5468652063757272656e7420766f74696e6720726f756e6420686173206e6f7420656e646564a265627a7a72305820219e6ef4f9812e2dcc648b95622ce4b981e48aa4f936c7b2a8c0c7b0063afa7b6c6578706572696d656e74616cf50037",
  "source": "pragma solidity ^0.5.0;\n\npragma experimental ABIEncoderV2;\n\nimport \"./EncryptedSender.sol\";\nimport \"./Finder.sol\";\nimport \"./FixedPoint.sol\";\nimport \"./MultiRole.sol\";\nimport \"./OracleInterface.sol\";\nimport \"./Registry.sol\";\nimport \"./ResultComputation.sol\";\nimport \"./Testable.sol\";\nimport \"./VoteTiming.sol\";\nimport \"./VotingToken.sol\";\nimport \"./VotingInterface.sol\";\n\nimport \"openzeppelin-solidity/contracts/math/SafeMath.sol\";\n\n\n/**\n * @title Voting system for Oracle.\n * @dev Handles receiving and resolving price requests via a commit-reveal voting scheme.\n */\ncontract Voting is Testable, MultiRole, OracleInterface, VotingInterface, EncryptedSender {\n    using FixedPoint for FixedPoint.Unsigned;\n    using SafeMath for uint;\n    using VoteTiming for VoteTiming.Data;\n    using ResultComputation for ResultComputation.Data;\n\n    // Identifies a unique price request for which the Oracle will always return the same value.\n    // Tracks ongoing votes as well as the result of the vote.\n    struct PriceRequest {\n        bytes32 identifier;\n        uint time;\n\n        // A map containing all votes for this price in various rounds.\n        mapping(uint => VoteInstance) voteInstances;\n\n        // If in the past, this was the voting round where this price was resolved. If current or the upcoming round,\n        // this is the voting round where this price will be voted on, but not necessarily resolved.\n        uint lastVotingRound;\n    }\n\n    struct VoteInstance {\n        // Maps (voterAddress) to their submission.\n        mapping(address => VoteSubmission) voteSubmissions;\n\n        // The data structure containing the computed voting results.\n        ResultComputation.Data resultComputation;\n    }\n\n    struct VoteSubmission {\n        // A bytes32 of `0` indicates no commit or a commit that was already revealed.\n        bytes32 commit;\n\n        // The hash of the value that was revealed.\n        // Note: this is only used for computation of rewards.\n        bytes32 revealHash;\n    }\n\n    // Captures the necessary data for making a commitment.\n    // Used as a parameter when making batch commitments.\n    // Not used as a data structure for storage.\n    struct Commitment {\n        bytes32 identifier;\n\n        uint time;\n\n        bytes32 hash;\n\n        bytes encryptedVote;\n    }\n\n    // Captures the necessary data for revealing a vote.\n    // Used as a parameter when making batch reveals.\n    // Not used as a data structure for storage.\n    struct Reveal {\n        bytes32 identifier;\n\n        uint time;\n\n        int price;\n\n        int salt;\n    }\n\n    struct Round {\n        // The list of price requests that were/are being voted on this round.\n        bytes32[] priceRequestIds;\n\n        // Voting token snapshot ID for this round. If this is 0, no snapshot has been taken.\n        uint snapshotId;\n\n        // Inflation rate set for this round.\n        FixedPoint.Unsigned inflationRate;\n    }\n\n    // Maps round numbers to the rounds.\n    mapping(uint => Round) private rounds;\n\n    // Maps price request IDs to the PriceRequest struct.\n    mapping(bytes32 => PriceRequest) private priceRequests;\n\n    VoteTiming.Data private voteTiming;\n\n    // The set of identifiers the oracle can provide verified prices for.\n    mapping(bytes32 => bool) private supportedIdentifiers;\n\n    // Percentage of the total token supply that must be used in a vote to create a valid price resolution.\n    // 1 == 100%.\n    FixedPoint.Unsigned private gatPercentage;\n\n    // Global setting for the rate of inflation per vote. This is the percentage of the snapshotted total supply that\n    // should be split among the correct voters. Note: this value is used to set per-round inflation at the beginning\n    // of each round.\n    // 1 = 100%\n    FixedPoint.Unsigned private inflationRate;\n\n    // Reference to the voting token.\n    VotingToken private votingToken;\n\n    // Voter address -> last round that they voted in.\n    mapping(address => uint) private votersLastRound;\n\n    // Reference to the Finder.\n    Finder private finder;\n\n    enum Roles {\n        // Can set the writer.\n        Governance,\n        // Can change parameters and whitelists, such as adding new supported identifiers or changing the inflation\n        // rate.\n        // TODO: consider splitting this role into smaller roles with narrower permissions.\n        Writer\n    }\n\n    bool private initialized;\n\n    // Max value of an unsigned integer.\n    uint constant private UINT_MAX = ~uint(0);\n\n    /**\n     * @notice Construct the Voting contract.\n     * @param phaseLength length of the commit and reveal phases in seconds.\n     * @param _gatPercentage percentage of the total token supply that must be used in a vote to create a valid price\n     * resolution.\n     * @param _isTest whether this contract is being constructed for the purpose of running automated tests.\n     */\n    constructor(\n        uint phaseLength,\n        FixedPoint.Unsigned memory _gatPercentage,\n        FixedPoint.Unsigned memory _inflationRate,\n        address _votingToken,\n        address _finder,\n        bool _isTest\n    ) public Testable(_isTest) {\n        initializeOnce(phaseLength, _gatPercentage, _inflationRate);\n        votingToken = VotingToken(_votingToken);\n        finder = Finder(_finder);\n    }\n\n    modifier onlyRegisteredDerivative() {\n        Registry registry = Registry(finder.getImplementationAddress(\"Registry\"));\n        require(registry.isDerivativeRegistered(msg.sender), \"Must be registered derivative\");\n        _;\n    }\n\n    function requestPrice(bytes32 identifier, uint time)\n        external\n        onlyRegisteredDerivative()\n        returns (uint expectedTime)\n    {\n        // TODO: we may want to allow future price requests and/or add a delay so that the price has enough time to be\n        // widely distributed and agreed upon before the vote.\n        uint blockTime = getCurrentTime();\n        require(time < blockTime);\n        require(supportedIdentifiers[identifier], \"Price request for unsupported identifier\");\n\n        // Must ensure the round is updated here so the requested price will be voted on in the next commit cycle.\n        // It's preferred to offload this cost to voters, but since the logic currently requires the rollover to be\n        // done when adding new requests, it must be here.\n        // TODO: look into how to elminate this call or require it only for a subset of the if cases below.\n        // TODO: this may be an expensive operation - may make sense to have a public updateRound() method to handle\n        // extreme cases.\n        _updateRound(blockTime);\n\n        uint currentRoundId = voteTiming.computeCurrentRoundId(blockTime);\n\n        bytes32 priceRequestId = _encodePriceRequest(identifier, time);\n        PriceRequest storage priceRequest = priceRequests[priceRequestId];\n        uint priceResolutionRound = priceRequest.lastVotingRound;\n\n        // Price is already slated to be resolved.\n        if (priceResolutionRound >= currentRoundId) {\n            return voteTiming.computeEstimatedRoundEndTime(priceResolutionRound);\n        }\n\n        // Price has been resolved\n        if (priceResolutionRound != 0) {\n            return 0;\n        }\n\n        // Price has never been requested.\n\n        // Price requests always go in the next round, so add 1 to the computed current round.\n        uint nextRoundId = currentRoundId.add(1);\n\n        priceRequests[priceRequestId] = PriceRequest({\n            identifier: identifier,\n            time: time,\n            lastVotingRound: nextRoundId\n        });\n\n        // Add price request to the next round.\n        rounds[nextRoundId].priceRequestIds.push(priceRequestId);\n        emit PriceRequestAdded(nextRoundId, identifier, time);\n\n        // Estimate the end of next round and return the time.\n        return voteTiming.computeEstimatedRoundEndTime(nextRoundId);\n    }\n\n    function batchCommit(Commitment[] calldata commits) external {\n        for (uint i = 0; i < commits.length; i++) {\n            if (commits[i].encryptedVote.length == 0) {\n                commitVote(commits[i].identifier, commits[i].time, commits[i].hash);\n            } else {\n                commitAndPersistEncryptedVote(\n                    commits[i].identifier,\n                    commits[i].time,\n                    commits[i].hash,\n                    commits[i].encryptedVote);\n            }\n        }\n    }\n\n    function batchReveal(Reveal[] calldata reveals) external {\n        for (uint i = 0; i < reveals.length; i++) {\n            revealVote(reveals[i].identifier, reveals[i].time, reveals[i].price, reveals[i].salt);\n        }\n    }\n\n    /**\n     * @notice Adds the provided identifier as a supported identifier.\n     */\n    function addSupportedIdentifier(bytes32 identifier) external onlyRoleHolder(uint(Roles.Writer)) {\n        if (!supportedIdentifiers[identifier]) {\n            supportedIdentifiers[identifier] = true;\n            emit SupportedIdentifierAdded(identifier);\n        }\n    }\n\n    function isIdentifierSupported(bytes32 identifier) external view returns (bool) {\n        return supportedIdentifiers[identifier];\n    }\n\n    function hasPrice(bytes32 identifier, uint time) external view onlyRegisteredDerivative() returns (bool _hasPrice) {\n        (_hasPrice, ,) = _getPriceOrError(identifier, time);\n    }\n\n    function getPrice(bytes32 identifier, uint time) external view onlyRegisteredDerivative() returns (int) {\n        (bool _hasPrice, int price, string memory message) = _getPriceOrError(identifier, time);\n\n        // If the price wasn't available, revert with the provided message.\n        require(_hasPrice, message);\n        return price;\n    }\n\n    function getPendingRequests() external view returns (PendingRequest[] memory pendingRequests) {\n        uint blockTime = getCurrentTime();\n\n        // Grab the pending price requests that were already slated for this round.\n        bytes32[] storage preexistingPriceRequests = rounds[\n            voteTiming.computeCurrentRoundId(blockTime)].priceRequestIds;\n        uint numPreexistingPriceRequests = preexistingPriceRequests.length;\n\n        // Get the rollover price requests.\n        (bytes32[] memory rolloverPriceRequests, uint numRolloverPriceRequests) = _getRolloverPriceRequests(\n            blockTime);\n\n        // Allocate the array to return.\n        pendingRequests = new PendingRequest[](numPreexistingPriceRequests + numRolloverPriceRequests);\n\n        // Add preexisting price requests to the array.\n        for (uint i = 0; i < numPreexistingPriceRequests; i++) {\n            PriceRequest storage priceRequest = priceRequests[preexistingPriceRequests[i]];\n            pendingRequests[i] = PendingRequest({ identifier: priceRequest.identifier, time: priceRequest.time });\n        }\n\n        // Add rollover price requests to the array.\n        for (uint i = 0; i < numRolloverPriceRequests; i++) {\n            PriceRequest storage priceRequest = priceRequests[rolloverPriceRequests[i]];\n            pendingRequests[i + numPreexistingPriceRequests] = PendingRequest({\n                identifier: priceRequest.identifier,\n                time: priceRequest.time\n            });\n        }\n    }\n\n    function getVotePhase() external view returns (VoteTiming.Phase) {\n        return voteTiming.computeCurrentPhase(getCurrentTime());\n    }\n\n    function getCurrentRoundId() external view returns (uint) {\n        return voteTiming.computeCurrentRoundId(getCurrentTime());\n    }\n\n    /**\n     * @notice Whether the caller has a revealed vote for the current round for an (identifier, time).\n     * @dev If the price request was resolved in a previous round, this function will return `false` even if the caller\n     * did reveal a vote.\n     */\n    function hasRevealedVote(bytes32 identifier, uint time) external view returns (bool) {\n        PriceRequest storage priceRequest = _getPriceRequest(identifier, time);\n        // This price request was last touched in a previous round, so the caller couldn't have revealed for the current\n        // round.\n        if (voteTiming.computeCurrentRoundId(getCurrentTime()) != priceRequest.lastVotingRound) {\n            return false;\n        }\n        VoteInstance storage voteInstance = priceRequest.voteInstances[priceRequest.lastVotingRound];\n        VoteSubmission storage voteSubmission = voteInstance.voteSubmissions[msg.sender];\n\n        return voteSubmission.revealHash != bytes32(0);\n    }\n\n    function commitVote(bytes32 identifier, uint time, bytes32 hash) public {\n        require(hash != bytes32(0), \"Committed hash of 0 is disallowed, choose a different salt\");\n\n        // Current time is required for all vote timing queries.\n        uint blockTime = getCurrentTime();\n        require(voteTiming.computeCurrentPhase(blockTime) == VoteTiming.Phase.Commit,\n            \"Cannot commit while in the reveal phase\");\n\n        // Should only update the round in the commit phase because a new round that's already in the reveal phase\n        // would be wasted.\n        _updateRound(blockTime);\n\n        // At this point, the computed and last updated round ID should be equal.\n        uint currentRoundId = voteTiming.computeCurrentRoundId(blockTime);\n\n        PriceRequest storage priceRequest = _getPriceRequest(identifier, time);\n\n        // This price request must be slated for this round.\n        require(priceRequest.lastVotingRound == currentRoundId,\n            \"This (time, identifier) pair is not being voted on this round\");\n\n        VoteInstance storage voteInstance = priceRequest.voteInstances[currentRoundId];\n        voteInstance.voteSubmissions[msg.sender].commit = hash;\n\n        if (votersLastRound[msg.sender] != currentRoundId) {\n            retrieveRewards();\n            votersLastRound[msg.sender] = currentRoundId;\n        }\n\n        emit VoteCommitted(msg.sender, currentRoundId, identifier, time);\n    }\n\n    function revealVote(bytes32 identifier, uint time, int price, int salt) public {\n        uint blockTime = getCurrentTime();\n        require(voteTiming.computeCurrentPhase(blockTime) == VoteTiming.Phase.Reveal,\n            \"Cannot reveal while in the commit phase\");\n\n        // Note: computing the current round is required to disallow people from revealing an old commit after the\n        // round is over.\n        uint roundId = voteTiming.computeCurrentRoundId(blockTime);\n\n        PriceRequest storage priceRequest = _getPriceRequest(identifier, time);\n        VoteInstance storage voteInstance = priceRequest.voteInstances[roundId];\n        VoteSubmission storage voteSubmission = voteInstance.voteSubmissions[msg.sender];\n\n        // 0 hashes are disallowed in the commit phase, so they indicate a different error.\n        require(voteSubmission.commit != bytes32(0), \"Cannot reveal an uncommitted or previously revealed hash\");\n        require(keccak256(abi.encode(price, salt)) == voteSubmission.commit,\n                \"Committed hash doesn't match revealed price and salt\");\n        delete voteSubmission.commit;\n\n        // Get or create a snapshot for this round.\n        uint snapshotId = _getOrCreateSnapshotId(roundId);\n\n        // Get the voter's snapshotted balance. Since balances are returned pre-scaled by 10**18, we can directly\n        // initialize the Unsigned value with the returned uint.\n        FixedPoint.Unsigned memory balance = FixedPoint.Unsigned(votingToken.balanceOfAt(msg.sender, snapshotId));\n\n        // Set the voter's submission.\n        voteSubmission.revealHash = keccak256(abi.encode(price));\n\n        // Add vote to the results.\n        voteInstance.resultComputation.addVote(price, balance);\n\n        // Remove the stored message for this price request, if it exsts.\n        bytes32 topicHash = keccak256(abi.encode(identifier, time, roundId));\n        removeMessage(msg.sender, topicHash);\n\n        emit VoteRevealed(msg.sender, roundId, identifier, time, price, balance.rawValue);\n    }\n\n    function commitAndPersistEncryptedVote(\n        bytes32 identifier,\n        uint time,\n        bytes32 hash,\n        bytes memory encryptedVote\n    ) public {\n        commitVote(identifier, time, hash);\n\n        uint roundId = voteTiming.computeCurrentRoundId(getCurrentTime());\n        bytes32 topicHash = keccak256(abi.encode(identifier, time, roundId));\n        sendMessage(msg.sender, topicHash, encryptedVote);\n    }\n\n    /**\n     * @notice Resets the inflation rate. Note: this change only applies to rounds that have not yet begun.\n     * @dev This method is public because calldata structs are not currently supported by solidity.\n     */\n    function setInflationRate(FixedPoint.Unsigned memory _inflationRate) public onlyRoleHolder(uint(Roles.Writer)) {\n        inflationRate = _inflationRate;\n    }\n\n    function retrieveRewards() public {\n        uint blockTime = getCurrentTime();\n        uint roundId = votersLastRound[msg.sender];\n\n        if (roundId == voteTiming.computeCurrentRoundId(blockTime)) {\n            // If the last round the voter participated in is the current round, rewards cannot be dispatched until the\n            // round is over.\n            return;\n        }\n\n        // Round must be updated (if possible) for the voter to retrieve rewards.\n        // Note: this could be done only when the voter is trying to retrieve a reward for the most recently completed\n        // round, but it makes the logic a bit simpler to just do it in all cases.\n        _updateRound(blockTime);\n\n        Round storage round = rounds[roundId];\n        uint snapshotId = round.snapshotId;\n\n        // If no snapshot has been created for this round, there are no rewards to dispatch.\n        if (snapshotId == 0) {\n            return;\n        }\n\n        // Get the voter's snapshotted balance.\n        FixedPoint.Unsigned memory snapshotBalance = FixedPoint.Unsigned(\n            votingToken.balanceOfAt(msg.sender, snapshotId));\n\n        // Compute the total amount of reward that will be issued for each of the votes in the round.\n        FixedPoint.Unsigned memory snapshotTotalSupply = FixedPoint.Unsigned(votingToken.totalSupplyAt(snapshotId));\n        FixedPoint.Unsigned memory totalRewardPerVote = round.inflationRate.mul(snapshotTotalSupply);\n\n        // Keep track of the voter's accumulated token reward.\n        FixedPoint.Unsigned memory totalRewardToIssue = FixedPoint.Unsigned(0);\n\n        // Loop over all price requests in the round to check for rewards.\n        bytes32[] storage priceRequestIds = round.priceRequestIds;\n        for (uint i = 0; i < priceRequestIds.length; i++) {\n            PriceRequest storage priceRequest = priceRequests[priceRequestIds[i]];\n            VoteInstance storage voteInstance = priceRequest.voteInstances[roundId];\n            VoteSubmission storage voteSubmission = voteInstance.voteSubmissions[msg.sender];\n\n            // Note: wasVoteCorrect effectively checks three conditions:\n            // 1. That the voter revealed their vote. If they did not, the hash will be 0x0 and there is no known input\n            //    to generate that hash output, so the whatever the resultComputation compares it to will be false.\n            // 2. That the vote was resolved. If the vote was not resolved, priceRequestIds[i] is 0x0, which means that\n            //    voteHash will be 0x0 (since that priceId was never used). As seen in 1, a 0x0 voteHash will always\n            //    produce a false output.\n            // 3. That the reveal was correct. If the reveal was incorrect, resultComputation should detect a hash\n            //    mismatch and return false.\n            if (voteInstance.resultComputation.wasVoteCorrect(voteSubmission.revealHash)) {\n                // The price was successfully resolved during the voter's last voting round, the voter revealed and was\n                // correct, so they are elgible for a reward.\n                FixedPoint.Unsigned memory correctTokens = voteInstance.resultComputation.\n                    getTotalCorrectlyVotedTokens();\n\n                // Compute the reward and add to the cumulative reward.\n                FixedPoint.Unsigned memory reward = snapshotBalance.mul(totalRewardPerVote).div(correctTokens);\n                totalRewardToIssue = totalRewardToIssue.add(reward);\n            }\n\n            // Delete the submission to capture any refund and clean up storage.\n            delete voteSubmission.revealHash;\n        }\n\n        // Issue any accumulated rewards.\n        if (totalRewardToIssue.isGreaterThan(0)) {\n            require(votingToken.mint(msg.sender, totalRewardToIssue.rawValue));\n            emit RewardsRetrieved(msg.sender, roundId, totalRewardToIssue.rawValue);\n        }\n    }\n\n    /*\n     * @notice Do not call this function externally.\n     * @dev Only called from the constructor, and only extracted to a separate method to make the coverage tool work.\n     * Will revert if called again.\n     */\n    function initializeOnce(\n        uint phaseLength,\n        FixedPoint.Unsigned memory _gatPercentage,\n        FixedPoint.Unsigned memory _inflationRate\n    )\n        public\n    {\n        require(!initialized, \"Only the constructor should call this method\");\n        initialized = true;\n        _createExclusiveRole(uint(Roles.Governance), uint(Roles.Governance), msg.sender);\n        _createExclusiveRole(uint(Roles.Writer), uint(Roles.Governance), msg.sender);\n        voteTiming.init(phaseLength);\n        require(_gatPercentage.isLessThan(1), \"GAT percentage must be < 100%\");\n        gatPercentage = _gatPercentage;\n        inflationRate = _inflationRate;\n    }\n\n    /*\n     * @dev Checks to see if there is a price that has or can be resolved for an (identifier, time) pair.\n     * @returns a boolean noting whether a price is resolved, the price, and an error string if necessary.\n     */\n    function _getPriceOrError(bytes32 identifier, uint time)\n        private\n        view\n        returns (bool _hasPrice, int price, string memory err)\n    {\n        PriceRequest storage priceRequest = _getPriceRequest(identifier, time);\n        uint resolutionVotingRound = priceRequest.lastVotingRound;\n        uint lastActiveVotingRound = voteTiming.getLastUpdatedRoundId();\n\n        if (resolutionVotingRound < lastActiveVotingRound) {\n            // Price must have been requested in the past.\n            if (resolutionVotingRound == 0) {\n                return (false, 0, \"Price was never requested\");\n            }\n\n            // Grab the resolution voting round to compute the resolved price.\n            VoteInstance storage voteInstance = priceRequest.voteInstances[resolutionVotingRound];\n            (, int pastResolvedPrice) = voteInstance.resultComputation.getResolvedPrice(\n                _computeGat(resolutionVotingRound));\n\n            // Price has been resolved.\n            return (true, pastResolvedPrice, \"\");\n        } else {\n            // Price has not yet been resolved.\n\n            // Price must have been voted on this round for an immediate resolution to be attempted.\n            if (resolutionVotingRound != lastActiveVotingRound) {\n                return (false, 0, \"Request has not yet been voted on\");\n            }\n\n            // If the current voting round has not ended, we cannot immediately resolve the vote.\n            if (voteTiming.computeCurrentRoundId(getCurrentTime()) == lastActiveVotingRound) {\n                return (false, 0, \"The current voting round has not ended\");\n            }\n\n            // Attempt to resolve the vote immediately since the round has ended.\n            VoteInstance storage voteInstance = priceRequest.voteInstances[resolutionVotingRound];\n\n            (bool isResolved, int resolvedPrice) = voteInstance.resultComputation.getResolvedPrice(\n                _computeGat(resolutionVotingRound));\n            if (!isResolved) {\n                return (false, 0, \"Price was not resolved this voting round. It will require another round of voting\");\n            }\n\n            return (true, resolvedPrice, \"\");\n        }\n    }\n\n    /**\n     * @dev Gets a list of price requests that need to be rolled over from the last round. If a rollover doesn't need\n     * to happen immediately, the array will be empty. The array may be longer than the number of populated elements,\n     * so numRolloverPriceRequests gives the true number of elements.\n     */\n    function _getRolloverPriceRequests(uint blockTime)\n        private\n        view\n        returns (bytes32[] memory rolloverPriceRequests, uint numRolloverPriceRequests)\n    {\n        // Return nothing if it is not yet time to roll votes over.\n        if (!voteTiming.shouldUpdateRoundId(blockTime)) {\n            return (new bytes32[](0), 0);\n        }\n\n        uint roundId = voteTiming.getLastUpdatedRoundId();\n        bytes32[] storage allPriceRequests = rounds[roundId].priceRequestIds;\n        uint numPriceRequests = allPriceRequests.length;\n\n        // Allocate enough space for all of the price requests to be rolled over and just track the length\n        // separately.\n        rolloverPriceRequests = new bytes32[](numPriceRequests);\n        numRolloverPriceRequests = 0;\n\n        // Note: the code here is very similar to that in _updateRound(). The reason I decided not use this method\n        // there is that there is some complexity in this method wrt creating potentially large in-memory arrays that's\n        // unnecessary when changing storage. To preserve the gas-efficiency of _updateRound(), I didn't want to\n        // include that same complexity there.\n        for (uint i = 0; i < numPriceRequests; i++) {\n            bytes32 priceRequestId = allPriceRequests[i];\n            PriceRequest storage priceRequest = priceRequests[priceRequestId];\n            VoteInstance storage voteInstance = priceRequest.voteInstances[roundId];\n\n            (bool isResolved,) = voteInstance.resultComputation.getResolvedPrice(_computeGat(roundId));\n            if (!isResolved) {\n                rolloverPriceRequests[numRolloverPriceRequests++] = priceRequestId;\n            }\n        }\n    }\n\n    function _getPriceRequest(bytes32 identifier, uint time) private view returns (PriceRequest storage) {\n        return priceRequests[_encodePriceRequest(identifier, time)];\n    }\n\n    function _encodePriceRequest(bytes32 identifier, uint time) private pure returns (bytes32) {\n        return keccak256(abi.encode(identifier, time));\n    }\n\n    /**\n     * @notice Updates the round if necessary. After this method is run voteTiming.getLastUpdatedRoundId() and\n     * and voteTiming.computeCurrentRoundId(blockTime) should return the same value.\n     * @dev The method loops through all price requests for the last voting round and rolls them over to the next round\n     * if required.\n     */\n    function _updateRound(uint blockTime) private {\n        if (!voteTiming.shouldUpdateRoundId(blockTime)) {\n            return;\n        }\n\n        // Only do the rollover if the next round has started.\n        uint lastActiveVotingRoundId = voteTiming.getLastUpdatedRoundId();\n        Round storage lastActiveVotingRound = rounds[lastActiveVotingRoundId];\n\n        uint nextVotingRoundId = voteTiming.computeCurrentRoundId(blockTime);\n\n        for (uint i = 0; i < lastActiveVotingRound.priceRequestIds.length; i++) {\n            bytes32 priceRequestId = lastActiveVotingRound.priceRequestIds[i];\n            PriceRequest storage priceRequest = priceRequests[priceRequestId];\n\n            // TODO: we should probably take this assert out before we move to production to keep the voting\n            // contract from locking in the case of a bug. This would be an assert, but asserts don't allow\n            // messages.\n            require(priceRequest.lastVotingRound == lastActiveVotingRoundId,\n                \"Found price request that was incorrectly placed in a round\");\n\n            VoteInstance storage voteInstance = priceRequest.voteInstances[lastActiveVotingRoundId];\n\n            (bool isResolved, int price) = voteInstance.resultComputation.getResolvedPrice(\n                _computeGat(lastActiveVotingRoundId));\n\n            if (!isResolved) {\n                // If the vote cannot be resolved, push the request into the current round.\n                rounds[nextVotingRoundId].priceRequestIds.push(priceRequestId);\n\n                // Set the price resolution round number to the provided round.\n                priceRequest.lastVotingRound = nextVotingRoundId;\n\n                // Zero out the price request to reduce gas costs.\n                delete lastActiveVotingRound.priceRequestIds[i];\n\n                // Delete the result computation since it's no longer needed.\n                delete voteInstance.resultComputation;\n\n                emit PriceRequestRolledOver(nextVotingRoundId, priceRequest.identifier, priceRequest.time);\n            } else {\n                emit PriceResolved(priceRequest.lastVotingRound, priceRequest.identifier, priceRequest.time, price);\n            }\n        }\n\n        // Set the round inflation rate to the current global inflation rate.\n        rounds[nextVotingRoundId].inflationRate = inflationRate;\n\n        // Update the stored round to the current one.\n        voteTiming.updateRoundId(blockTime);\n    }\n\n    function _getOrCreateSnapshotId(uint roundId) private returns (uint) {\n        Round storage round = rounds[roundId];\n        if (round.snapshotId == 0) {\n            // There is no snapshot ID set, so create one.\n            round.snapshotId = votingToken.snapshot();\n        }\n\n        return round.snapshotId;\n    }\n\n    function _computeGat(uint roundId) private view returns (FixedPoint.Unsigned memory) {\n        uint snapshotId = rounds[roundId].snapshotId;\n        if (snapshotId == 0) {\n            // No snapshot - return max value to err on the side of caution.\n            return FixedPoint.Unsigned(UINT_MAX);\n        }\n\n        // Grab the snaphotted supply from the voting token. It's already scaled by 10**18, so we can directly\n        // initialize the Unsigned value with the returned uint.\n        FixedPoint.Unsigned memory snapshottedSupply = FixedPoint.Unsigned(votingToken.totalSupplyAt(snapshotId));\n\n        // Multiply the total supply at the snapshot by the gatPercentage to get the GAT in number of tokens.\n        return snapshottedSupply.mul(gatPercentage);\n    }\n\n    event VoteCommitted(address indexed voter, uint indexed roundId, bytes32 indexed identifier, uint time);\n\n    event VoteRevealed(\n        address indexed voter,\n        uint indexed roundId,\n        bytes32 indexed identifier,\n        uint time,\n        int price,\n        uint numTokens\n    );\n\n    event RewardsRetrieved(address indexed voter, uint indexed rewardsRoundId, uint numTokens);\n\n    event PriceRequestAdded(uint indexed votingRoundId, bytes32 indexed identifier, uint time);\n\n    event PriceRequestRolledOver(uint indexed newRoundId, bytes32 indexed identifier, uint time);\n\n    event PriceResolved(uint indexed resolutionRoundId, bytes32 indexed identifier, uint time, int price);\n\n    event SupportedIdentifierAdded(bytes32 indexed identifier);\n}\n",
  "sourcePath": "/Users/kendrick/Development/Ethereum/defi-dy/contracts/uma/core/contracts/Voting.sol",
  "compiler": {
    "name": "solc",
    "version": "0.5.8+commit.23d335f2.Emscripten.clang"
  },
  "schemaVersion": "3.0.10",
  "updatedAt": "2019-11-09T21:42:53.510Z",
  "devdoc": {
    "details": "Handles receiving and resolving price requests via a commit-reveal voting scheme.",
    "methods": {
      "addMember(uint256,address)": {
        "details": "Reverts if `roleId` does not represent an initialized, shared role or if the caller is not a member of the managing role for `roleId`."
      },
      "constructor": {
        "params": {
          "_gatPercentage": "percentage of the total token supply that must be used in a vote to create a valid price resolution.",
          "_isTest": "whether this contract is being constructed for the purpose of running automated tests.",
          "phaseLength": "length of the commit and reveal phases in seconds."
        }
      },
      "getMember(uint256)": {
        "details": "Reverts if `roleId` does not represent an initialized, exclusive role."
      },
      "getMessage(address,bytes32)": {
        "details": "To decrypt messages (this requires access to the recipient's private keys), use the decryptMessage() function in common/Crypto.js."
      },
      "getPublicKey(address,bytes32)": {
        "details": "Senders may need this public key to encrypt messages that only the `recipient` can read. If the public key is communicated offchain, this field may be left empty."
      },
      "hasRevealedVote(bytes32,uint256)": {
        "details": "If the price request was resolved in a previous round, this function will return `false` even if the caller did reveal a vote."
      },
      "holdsRole(uint256,address)": {
        "details": "Reverts if roleId does not correspond to an initialized role."
      },
      "removeMember(uint256,address)": {
        "details": "Reverts if `roleId` does not represent an initialized, shared role or if the caller is not a member of the managing role for `roleId`."
      },
      "resetMember(uint256,address)": {
        "details": "Reverts if the caller is not a member of the managing role for `roleId` or if `roleId` is not an initialized, exclusive role."
      },
      "sendMessage(address,bytes32,bytes)": {
        "details": "To construct an encrypted message, use the encryptMessage() in common/Crypto.js. The public key for the recipient can be obtained using the getPublicKey() method."
      },
      "setCurrentTime(uint256)": {
        "details": "Will revert if not running in test mode."
      },
      "setInflationRate((uint256))": {
        "details": "This method is public because calldata structs are not currently supported by solidity."
      },
      "setPublicKey(bytes,bytes32)": {
        "details": "Note: setting the public key is optional - if the publicKey is communicated or can be derived offchain by the sender, there is no need to set it here. Because there are no specific requirements for the publicKey, there is also no verification of its validity other than its length."
      }
    },
    "title": "Voting system for Oracle."
  },
  "userdoc": {
    "methods": {
      "addAuthorizedSender(address)": {
        "notice": "Authorizes `sender` to send messages to the caller."
      },
      "addMember(uint256,address)": {
        "notice": "Adds `newMember` to the shared role, `roleId`."
      },
      "addSupportedIdentifier(bytes32)": {
        "notice": "Adds the provided identifier as a supported identifier."
      },
      "constructor": "Construct the Voting contract.",
      "getCurrentTime()": {
        "notice": "Gets the current time. Will return the last time set in `setCurrentTime` if running in test mode. Otherwise, it will return the block timestamp."
      },
      "getMember(uint256)": {
        "notice": "Gets the current holder of the exclusive role, `roleId`."
      },
      "getMessage(address,bytes32)": {
        "notice": "Gets the current stored message corresponding to `recipient` and `topicHash`."
      },
      "getPublicKey(address,bytes32)": {
        "notice": "Gets the stored public key for a particular `recipient` and `topicHash`. Return value will be 0 length if no public key has been set."
      },
      "hasRevealedVote(bytes32,uint256)": {
        "notice": "Whether the caller has a revealed vote for the current round for an (identifier, time)."
      },
      "holdsRole(uint256,address)": {
        "notice": "Whether `memberToCheck` is a member of roleId."
      },
      "isAuthorizedSender(address,address)": {
        "notice": "Returns true if the `sender` is authorized to send to the `recipient`."
      },
      "removeAuthorizedSender(address)": {
        "notice": "Revokes `sender`'s authorization to send messages to the caller."
      },
      "removeMember(uint256,address)": {
        "notice": "Removes `memberToRemove` from the shared role, `roleId`."
      },
      "resetMember(uint256,address)": {
        "notice": "Changes the exclusive role holder of `roleId` to `newMember`."
      },
      "sendMessage(address,bytes32,bytes)": {
        "notice": "Sends `message` to `recipient_` categorized by a particular `topicHash`. This will overwrite any previous messages sent to this `recipient` with this `topicHash`."
      },
      "setCurrentTime(uint256)": {
        "notice": "Sets the current time."
      },
      "setInflationRate((uint256))": {
        "notice": "Resets the inflation rate. Note: this change only applies to rounds that have not yet begun."
      },
      "setPublicKey(bytes,bytes32)": {
        "notice": "Sets the public key for this caller and topicHash."
      }
    }
  }
}