{
  "contractName": "VotingToken",
  "abi": [
    {
      "constant": true,
      "inputs": [],
      "name": "name",
      "outputs": [
        {
          "name": "",
          "type": "string"
        }
      ],
      "payable": false,
      "stateMutability": "view",
      "type": "function"
    },
    {
      "constant": false,
      "inputs": [
        {
          "name": "spender",
          "type": "address"
        },
        {
          "name": "value",
          "type": "uint256"
        }
      ],
      "name": "approve",
      "outputs": [
        {
          "name": "",
          "type": "bool"
        }
      ],
      "payable": false,
      "stateMutability": "nonpayable",
      "type": "function"
    },
    {
      "constant": true,
      "inputs": [],
      "name": "totalSupply",
      "outputs": [
        {
          "name": "",
          "type": "uint256"
        }
      ],
      "payable": false,
      "stateMutability": "view",
      "type": "function"
    },
    {
      "constant": false,
      "inputs": [
        {
          "name": "sender",
          "type": "address"
        },
        {
          "name": "recipient",
          "type": "address"
        },
        {
          "name": "amount",
          "type": "uint256"
        }
      ],
      "name": "transferFrom",
      "outputs": [
        {
          "name": "",
          "type": "bool"
        }
      ],
      "payable": false,
      "stateMutability": "nonpayable",
      "type": "function"
    },
    {
      "constant": true,
      "inputs": [],
      "name": "decimals",
      "outputs": [
        {
          "name": "",
          "type": "uint8"
        }
      ],
      "payable": false,
      "stateMutability": "view",
      "type": "function"
    },
    {
      "constant": false,
      "inputs": [
        {
          "name": "spender",
          "type": "address"
        },
        {
          "name": "addedValue",
          "type": "uint256"
        }
      ],
      "name": "increaseAllowance",
      "outputs": [
        {
          "name": "",
          "type": "bool"
        }
      ],
      "payable": false,
      "stateMutability": "nonpayable",
      "type": "function"
    },
    {
      "constant": true,
      "inputs": [
        {
          "name": "account",
          "type": "address"
        },
        {
          "name": "snapshotId",
          "type": "uint256"
        }
      ],
      "name": "balanceOfAt",
      "outputs": [
        {
          "name": "",
          "type": "uint256"
        }
      ],
      "payable": false,
      "stateMutability": "view",
      "type": "function"
    },
    {
      "constant": false,
      "inputs": [
        {
          "name": "roleId",
          "type": "uint256"
        },
        {
          "name": "memberToRemove",
          "type": "address"
        }
      ],
      "name": "removeMember",
      "outputs": [],
      "payable": false,
      "stateMutability": "nonpayable",
      "type": "function"
    },
    {
      "constant": true,
      "inputs": [
        {
          "name": "account",
          "type": "address"
        }
      ],
      "name": "balanceOf",
      "outputs": [
        {
          "name": "",
          "type": "uint256"
        }
      ],
      "payable": false,
      "stateMutability": "view",
      "type": "function"
    },
    {
      "constant": false,
      "inputs": [
        {
          "name": "roleId",
          "type": "uint256"
        },
        {
          "name": "newMember",
          "type": "address"
        }
      ],
      "name": "addMember",
      "outputs": [],
      "payable": false,
      "stateMutability": "nonpayable",
      "type": "function"
    },
    {
      "constant": true,
      "inputs": [
        {
          "name": "roleId",
          "type": "uint256"
        },
        {
          "name": "memberToCheck",
          "type": "address"
        }
      ],
      "name": "holdsRole",
      "outputs": [
        {
          "name": "",
          "type": "bool"
        }
      ],
      "payable": false,
      "stateMutability": "view",
      "type": "function"
    },
    {
      "constant": true,
      "inputs": [],
      "name": "symbol",
      "outputs": [
        {
          "name": "",
          "type": "string"
        }
      ],
      "payable": false,
      "stateMutability": "view",
      "type": "function"
    },
    {
      "constant": false,
      "inputs": [],
      "name": "snapshot",
      "outputs": [
        {
          "name": "",
          "type": "uint256"
        }
      ],
      "payable": false,
      "stateMutability": "nonpayable",
      "type": "function"
    },
    {
      "constant": true,
      "inputs": [
        {
          "name": "snapshotId",
          "type": "uint256"
        }
      ],
      "name": "totalSupplyAt",
      "outputs": [
        {
          "name": "",
          "type": "uint256"
        }
      ],
      "payable": false,
      "stateMutability": "view",
      "type": "function"
    },
    {
      "constant": false,
      "inputs": [
        {
          "name": "spender",
          "type": "address"
        },
        {
          "name": "subtractedValue",
          "type": "uint256"
        }
      ],
      "name": "decreaseAllowance",
      "outputs": [
        {
          "name": "",
          "type": "bool"
        }
      ],
      "payable": false,
      "stateMutability": "nonpayable",
      "type": "function"
    },
    {
      "constant": false,
      "inputs": [
        {
          "name": "recipient",
          "type": "address"
        },
        {
          "name": "amount",
          "type": "uint256"
        }
      ],
      "name": "transfer",
      "outputs": [
        {
          "name": "",
          "type": "bool"
        }
      ],
      "payable": false,
      "stateMutability": "nonpayable",
      "type": "function"
    },
    {
      "constant": true,
      "inputs": [
        {
          "name": "roleId",
          "type": "uint256"
        }
      ],
      "name": "getMember",
      "outputs": [
        {
          "name": "",
          "type": "address"
        }
      ],
      "payable": false,
      "stateMutability": "view",
      "type": "function"
    },
    {
      "constant": false,
      "inputs": [
        {
          "name": "roleId",
          "type": "uint256"
        },
        {
          "name": "newMember",
          "type": "address"
        }
      ],
      "name": "resetMember",
      "outputs": [],
      "payable": false,
      "stateMutability": "nonpayable",
      "type": "function"
    },
    {
      "constant": true,
      "inputs": [
        {
          "name": "owner",
          "type": "address"
        },
        {
          "name": "spender",
          "type": "address"
        }
      ],
      "name": "allowance",
      "outputs": [
        {
          "name": "",
          "type": "uint256"
        }
      ],
      "payable": false,
      "stateMutability": "view",
      "type": "function"
    },
    {
      "inputs": [],
      "payable": false,
      "stateMutability": "nonpayable",
      "type": "constructor"
    },
    {
      "anonymous": false,
      "inputs": [
        {
          "indexed": false,
          "name": "id",
          "type": "uint256"
        }
      ],
      "name": "Snapshot",
      "type": "event"
    },
    {
      "anonymous": false,
      "inputs": [
        {
          "indexed": true,
          "name": "from",
          "type": "address"
        },
        {
          "indexed": true,
          "name": "to",
          "type": "address"
        },
        {
          "indexed": false,
          "name": "value",
          "type": "uint256"
        }
      ],
      "name": "Transfer",
      "type": "event"
    },
    {
      "anonymous": false,
      "inputs": [
        {
          "indexed": true,
          "name": "owner",
          "type": "address"
        },
        {
          "indexed": true,
          "name": "spender",
          "type": "address"
        },
        {
          "indexed": false,
          "name": "value",
          "type": "uint256"
        }
      ],
      "name": "Approval",
      "type": "event"
    },
    {
      "constant": false,
      "inputs": [
        {
          "name": "recipient",
          "type": "address"
        },
        {
          "name": "value",
          "type": "uint256"
        }
      ],
      "name": "mint",
      "outputs": [
        {
          "name": "",
          "type": "bool"
        }
      ],
      "payable": false,
      "stateMutability": "nonpayable",
      "type": "function"
    },
    {
      "constant": false,
      "inputs": [
        {
          "name": "value",
          "type": "uint256"
        }
      ],
      "name": "burn",
      "outputs": [],
      "payable": false,
      "stateMutability": "nonpayable",
      "type": "function"
    }
  ],
  "bytecode": "0x60806040523480156200001157600080fd5b506200003f600060028111156200002457fe5b600060028111156200003257fe5b336200010060201b60201c565b6200009d600160028111156200005157fe5b600060028111156200005f57fe5b6000604051908082528060200260200182016040528015620000905781602001602082028038833980820191505090505b50620002b560201b60201c565b620000fa600280811115620000ae57fe5b60006002811115620000bc57fe5b6000604051908082528060200260200182016040528015620000ed5781602001602082028038833980820191505090505b50620002b560201b60201c565b620005f6565b82600060028111156200010f57fe5b6007600083815260200190815260200160002060010160009054906101000a900460ff1660028111156200013f57fe5b14620001b3576040517f08c379a000000000000000000000000000000000000000000000000000000000815260040180806020018281038252601e8152602001807f43616e6e6f74207573652061207072652d6578697374696e6720726f6c65000081525060200191505060405180910390fd5b600060076000868152602001908152602001600020905060018160010160006101000a81548160ff02191690836002811115620001ec57fe5b02179055508381600001819055506200021783826002016200046a60201b620022e71790919060201c565b600060028111156200022557fe5b6007600086815260200190815260200160002060010160009054906101000a900460ff1660028111156200025557fe5b1415620002ae576040517f08c379a000000000000000000000000000000000000000000000000000000000815260040180806020018281038252603c81526020018062002ad8603c913960400191505060405180910390fd5b5050505050565b8260006002811115620002c457fe5b6007600083815260200190815260200160002060010160009054906101000a900460ff166002811115620002f457fe5b1462000368576040517f08c379a000000000000000000000000000000000000000000000000000000000815260040180806020018281038252601e8152602001807f43616e6e6f74207573652061207072652d6578697374696e6720726f6c65000081525060200191505060405180910390fd5b600060076000868152602001908152602001600020905060028160010160006101000a81548160ff02191690836002811115620003a157fe5b0217905550838160000181905550620003cc83826003016200048060201b620022f51790919060201c565b60006002811115620003da57fe5b6007600086815260200190815260200160002060010160009054906101000a900460ff1660028111156200040a57fe5b141562000463576040517f08c379a000000000000000000000000000000000000000000000000000000000815260040180806020018281038252603881526020018062002b376038913960400191505060405180910390fd5b5050505050565b6200047c8282620004c960201b60201c565b5050565b60008090505b8151811015620004c457620004b683838381518110620004a257fe5b60200260200101516200059860201b60201c565b808060010191505062000486565b505050565b600073ffffffffffffffffffffffffffffffffffffffff168173ffffffffffffffffffffffffffffffffffffffff16141562000551576040517f08c379a000000000000000000000000000000000000000000000000000000000815260040180806020018281038252602381526020018062002b146023913960400191505060405180910390fd5b808260000160006101000a81548173ffffffffffffffffffffffffffffffffffffffff021916908373ffffffffffffffffffffffffffffffffffffffff1602179055505050565b60018260000160008373ffffffffffffffffffffffffffffffffffffffff1673ffffffffffffffffffffffffffffffffffffffff16815260200190815260200160002060006101000a81548160ff0219169083151502179055505050565b6124d280620006066000396000f3fe608060405234801561001057600080fd5b50600436106101375760003560e01c806370a08231116100b8578063981b24d01161007c578063981b24d014610644578063a457c2d714610686578063a9059cbb146106ec578063ab3545e514610752578063d97c05be146107c0578063dd62ed3e1461080e57610137565b806370a082311461049757806374d0a676146104ef5780637cdc1cb91461053d57806395d89b41146105a35780639711715a1461062657610137565b806339509351116100ff57806339509351146102ed57806340c10f191461035357806342966c68146103b95780634ee2cd7e146103e75780636be7658b1461044957610137565b806306fdde031461013c578063095ea7b3146101bf57806318160ddd1461022557806323b872dd14610243578063313ce567146102c9575b600080fd5b610144610886565b6040518080602001828103825283818151815260200191508051906020019080838360005b83811015610184578082015181840152602081019050610169565b50505050905090810190601f1680156101b15780820380516001836020036101000a031916815260200191505b509250505060405180910390f35b61020b600480360360408110156101d557600080fd5b81019080803573ffffffffffffffffffffffffffffffffffffffff169060200190929190803590602001909291905050506108bf565b604051808215151515815260200191505060405180910390f35b61022d6108d6565b6040518082815260200191505060405180910390f35b6102af6004803603606081101561025957600080fd5b81019080803573ffffffffffffffffffffffffffffffffffffffff169060200190929190803573ffffffffffffffffffffffffffffffffffffffff169060200190929190803590602001909291905050506108e0565b604051808215151515815260200191505060405180910390f35b6102d1610991565b604051808260ff1660ff16815260200191505060405180910390f35b6103396004803603604081101561030357600080fd5b81019080803573ffffffffffffffffffffffffffffffffffffffff16906020019092919080359060200190929190505050610996565b604051808215151515815260200191505060405180910390f35b61039f6004803603604081101561036957600080fd5b81019080803573ffffffffffffffffffffffffffffffffffffffff16906020019092919080359060200190929190505050610a3b565b604051808215151515815260200191505060405180910390f35b6103e5600480360360208110156103cf57600080fd5b8101908080359060200190929190505050610abe565b005b610433600480360360408110156103fd57600080fd5b81019080803573ffffffffffffffffffffffffffffffffffffffff16906020019092919080359060200190929190505050610b37565b6040518082815260200191505060405180910390f35b6104956004803603604081101561045f57600080fd5b8101908080359060200190929190803573ffffffffffffffffffffffffffffffffffffffff169060200190929190505050610ba7565b005b6104d9600480360360208110156104ad57600080fd5b81019080803573ffffffffffffffffffffffffffffffffffffffff169060200190929190505050610cdd565b6040518082815260200191505060405180910390f35b61053b6004803603604081101561050557600080fd5b8101908080359060200190929190803573ffffffffffffffffffffffffffffffffffffffff169060200190929190505050610d25565b005b6105896004803603604081101561055357600080fd5b8101908080359060200190929190803573ffffffffffffffffffffffffffffffffffffffff169060200190929190505050610e5b565b604051808215151515815260200191505060405180910390f35b6105ab610f8a565b6040518080602001828103825283818151815260200191508051906020019080838360005b838110156105eb5780820151818401526020810190506105d0565b50505050905090810190601f1680156106185780820380516001836020036101000a031916815260200191505b509250505060405180910390f35b61062e610fc3565b6040518082815260200191505060405180910390f35b6106706004803603602081101561065a57600080fd5b810190808035906020019092919050505061101b565b6040518082815260200191505060405180910390f35b6106d26004803603604081101561069c57600080fd5b81019080803573ffffffffffffffffffffffffffffffffffffffff1690602001909291908035906020019092919050505061104c565b604051808215151515815260200191505060405180910390f35b6107386004803603604081101561070257600080fd5b81019080803573ffffffffffffffffffffffffffffffffffffffff169060200190929190803590602001909291905050506110f1565b604051808215151515815260200191505060405180910390f35b61077e6004803603602081101561076857600080fd5b8101908080359060200190929190505050611108565b604051808273ffffffffffffffffffffffffffffffffffffffff1673ffffffffffffffffffffffffffffffffffffffff16815260200191505060405180910390f35b61080c600480360360408110156107d657600080fd5b8101908080359060200190929190803573ffffffffffffffffffffffffffffffffffffffff1690602001909291905050506111c3565b005b6108706004803603604081101561082457600080fd5b81019080803573ffffffffffffffffffffffffffffffffffffffff169060200190929190803573ffffffffffffffffffffffffffffffffffffffff1690602001909291905050506112fa565b6040518082815260200191505060405180910390f35b6040518060400160405280601381526020017f554d4120566f74696e6720546f6b656e2076310000000000000000000000000081525081565b60006108cc338484611381565b6001905092915050565b6000600254905090565b60006108ed848484611578565b610986843361098185600160008a73ffffffffffffffffffffffffffffffffffffffff1673ffffffffffffffffffffffffffffffffffffffff16815260200190815260200160002060003373ffffffffffffffffffffffffffffffffffffffff1673ffffffffffffffffffffffffffffffffffffffff1681526020019081526020016000205461159a90919063ffffffff16565b611381565b600190509392505050565b601281565b6000610a313384610a2c85600160003373ffffffffffffffffffffffffffffffffffffffff1673ffffffffffffffffffffffffffffffffffffffff16815260200190815260200160002060008973ffffffffffffffffffffffffffffffffffffffff1673ffffffffffffffffffffffffffffffffffffffff1681526020019081526020016000205461162390919063ffffffff16565b611381565b6001905092915050565b600060016002811115610a4a57fe5b610a548133610e5b565b610aa9576040517f08c379a00000000000000000000000000000000000000000000000000000000081526004018080602001828103825260228152602001806123d46022913960400191505060405180910390fd5b610ab384846116ab565b600191505092915050565b600280811115610aca57fe5b610ad48133610e5b565b610b29576040517f08c379a00000000000000000000000000000000000000000000000000000000081526004018080602001828103825260228152602001806123d46022913960400191505060405180910390fd5b610b3333836116ca565b5050565b6000806000610b8484600360008873ffffffffffffffffffffffffffffffffffffffff1673ffffffffffffffffffffffffffffffffffffffff1681526020019081526020016000206116e9565b9150915081610b9b57610b9685610cdd565b610b9d565b805b9250505092915050565b81600280811115610bb457fe5b6007600083815260200190815260200160002060010160009054906101000a900460ff166002811115610be357fe5b14610c39576040517f08c379a000000000000000000000000000000000000000000000000000000000815260040180806020018281038252602c8152602001806123a8602c913960400191505060405180910390fd5b82610c5a600760008381526020019081526020016000206000015433610e5b565b610caf576040517f08c379a00000000000000000000000000000000000000000000000000000000081526004018080602001828103825260248152602001806124836024913960400191505060405180910390fd5b610cd7836007600087815260200190815260200160002060030161184390919063ffffffff16565b50505050565b60008060008373ffffffffffffffffffffffffffffffffffffffff1673ffffffffffffffffffffffffffffffffffffffff168152602001908152602001600020549050919050565b81600280811115610d3257fe5b6007600083815260200190815260200160002060010160009054906101000a900460ff166002811115610d6157fe5b14610db7576040517f08c379a000000000000000000000000000000000000000000000000000000000815260040180806020018281038252602c8152602001806123a8602c913960400191505060405180910390fd5b82610dd8600760008381526020019081526020016000206000015433610e5b565b610e2d576040517f08c379a00000000000000000000000000000000000000000000000000000000081526004018080602001828103825260248152602001806124836024913960400191505060405180910390fd5b610e5583600760008781526020019081526020016000206003016118a190919063ffffffff16565b50505050565b60008060076000858152602001908152602001600020905060016002811115610e8057fe5b8160010160009054906101000a900460ff166002811115610e9d57fe5b1415610ec157610eb983826002016118ff90919063ffffffff16565b915050610f84565b600280811115610ecd57fe5b8160010160009054906101000a900460ff166002811115610eea57fe5b1415610f0e57610f06838260030161195c90919063ffffffff16565b915050610f84565b6000610f82576040517f08c379a000000000000000000000000000000000000000000000000000000000815260040180806020018281038252600e8152602001807f496e76616c696420726f6c65496400000000000000000000000000000000000081525060200191505060405180910390fd5b505b92915050565b6040518060400160405280600381526020017f554d41000000000000000000000000000000000000000000000000000000000081525081565b6000610fcf60066119b5565b6000610fdb60066119cb565b90507f8030e83b04d87bef53480e26263266d6ca66863aa8506aca6f2559d18aa1cb67816040518082815260200191505060405180910390a18091505090565b600080600061102b8460046116e9565b91509150816110415761103c6108d6565b611043565b805b92505050919050565b60006110e733846110e285600160003373ffffffffffffffffffffffffffffffffffffffff1673ffffffffffffffffffffffffffffffffffffffff16815260200190815260200160002060008973ffffffffffffffffffffffffffffffffffffffff1673ffffffffffffffffffffffffffffffffffffffff1681526020019081526020016000205461159a90919063ffffffff16565b611381565b6001905092915050565b60006110fe338484611578565b6001905092915050565b6000816001600281111561111857fe5b6007600083815260200190815260200160002060010160009054906101000a900460ff16600281111561114757fe5b1461119d576040517f08c379a000000000000000000000000000000000000000000000000000000000815260040180806020018281038252602f815260200180612379602f913960400191505060405180910390fd5b6111bb600760008581526020019081526020016000206002016119d9565b915050919050565b81600160028111156111d157fe5b6007600083815260200190815260200160002060010160009054906101000a900460ff16600281111561120057fe5b14611256576040517f08c379a000000000000000000000000000000000000000000000000000000000815260040180806020018281038252602f815260200180612379602f913960400191505060405180910390fd5b82611277600760008381526020019081526020016000206000015433610e5b565b6112cc576040517f08c379a00000000000000000000000000000000000000000000000000000000081526004018080602001828103825260248152602001806124836024913960400191505060405180910390fd5b6112f48360076000878152602001908152602001600020600201611a0790919063ffffffff16565b50505050565b6000600160008473ffffffffffffffffffffffffffffffffffffffff1673ffffffffffffffffffffffffffffffffffffffff16815260200190815260200160002060008373ffffffffffffffffffffffffffffffffffffffff1673ffffffffffffffffffffffffffffffffffffffff16815260200190815260200160002054905092915050565b600073ffffffffffffffffffffffffffffffffffffffff168373ffffffffffffffffffffffffffffffffffffffff161415611407576040517f08c379a000000000000000000000000000000000000000000000000000000000815260040180806020018281038252602481526020018061245f6024913960400191505060405180910390fd5b600073ffffffffffffffffffffffffffffffffffffffff168273ffffffffffffffffffffffffffffffffffffffff16141561148d576040517f08c379a00000000000000000000000000000000000000000000000000000000081526004018080602001828103825260228152602001806123576022913960400191505060405180910390fd5b80600160008573ffffffffffffffffffffffffffffffffffffffff1673ffffffffffffffffffffffffffffffffffffffff16815260200190815260200160002060008473ffffffffffffffffffffffffffffffffffffffff1673ffffffffffffffffffffffffffffffffffffffff168152602001908152602001600020819055508173ffffffffffffffffffffffffffffffffffffffff168373ffffffffffffffffffffffffffffffffffffffff167f8c5be1e5ebec7d5bd14f71427d1e84f3dd0314c0f7b2291e5b200ac8c7c3b925836040518082815260200191505060405180910390a3505050565b61158183611ad4565b61158a82611ad4565b611595838383611b27565b505050565b600082821115611612576040517f08c379a000000000000000000000000000000000000000000000000000000000815260040180806020018281038252601e8152602001807f536166654d6174683a207375627472616374696f6e206f766572666c6f77000081525060200191505060405180910390fd5b600082840390508091505092915050565b6000808284019050838110156116a1576040517f08c379a000000000000000000000000000000000000000000000000000000000815260040180806020018281038252601b8152602001807f536166654d6174683a206164646974696f6e206f766572666c6f77000000000081525060200191505060405180910390fd5b8091505092915050565b6116b482611ad4565b6116bc611dc3565b6116c68282611dd7565b5050565b6116d382611ad4565b6116db611dc3565b6116e58282611f92565b5050565b60008060008411611762576040517f08c379a00000000000000000000000000000000000000000000000000000000081526004018080602001828103825260168152602001807f4552433230536e617073686f743a20696420697320300000000000000000000081525060200191505060405180910390fd5b61176c60066119cb565b8411156117e1576040517f08c379a000000000000000000000000000000000000000000000000000000000815260040180806020018281038252601d8152602001807f4552433230536e617073686f743a206e6f6e6578697374656e7420696400000081525060200191505060405180910390fd5b60006117f9858560000161213090919063ffffffff16565b9050836000018054905081141561181a57600080809050925092505061183c565b600184600101828154811061182b57fe5b906000526020600020015492509250505b9250929050565b60008260000160008373ffffffffffffffffffffffffffffffffffffffff1673ffffffffffffffffffffffffffffffffffffffff16815260200190815260200160002060006101000a81548160ff0219169083151502179055505050565b60018260000160008373ffffffffffffffffffffffffffffffffffffffff1673ffffffffffffffffffffffffffffffffffffffff16815260200190815260200160002060006101000a81548160ff0219169083151502179055505050565b60008173ffffffffffffffffffffffffffffffffffffffff168360000160009054906101000a900473ffffffffffffffffffffffffffffffffffffffff1673ffffffffffffffffffffffffffffffffffffffff1614905092915050565b60008260000160008373ffffffffffffffffffffffffffffffffffffffff1673ffffffffffffffffffffffffffffffffffffffff16815260200190815260200160002060009054906101000a900460ff16905092915050565b6001816000016000828254019250508190555050565b600081600001549050919050565b60008160000160009054906101000a900473ffffffffffffffffffffffffffffffffffffffff169050919050565b600073ffffffffffffffffffffffffffffffffffffffff168173ffffffffffffffffffffffffffffffffffffffff161415611a8d576040517f08c379a00000000000000000000000000000000000000000000000000000000081526004018080602001828103825260238152602001806124176023913960400191505060405180910390fd5b808260000160006101000a81548173ffffffffffffffffffffffffffffffffffffffff021916908373ffffffffffffffffffffffffffffffffffffffff1602179055505050565b611b24600360008373ffffffffffffffffffffffffffffffffffffffff1673ffffffffffffffffffffffffffffffffffffffff168152602001908152602001600020611b1f83610cdd565b6121e5565b50565b600073ffffffffffffffffffffffffffffffffffffffff168373ffffffffffffffffffffffffffffffffffffffff161415611bad576040517f08c379a000000000000000000000000000000000000000000000000000000000815260040180806020018281038252602581526020018061243a6025913960400191505060405180910390fd5b600073ffffffffffffffffffffffffffffffffffffffff168273ffffffffffffffffffffffffffffffffffffffff161415611c33576040517f08c379a00000000000000000000000000000000000000000000000000000000081526004018080602001828103825260238152602001806123346023913960400191505060405180910390fd5b611c84816000808673ffffffffffffffffffffffffffffffffffffffff1673ffffffffffffffffffffffffffffffffffffffff1681526020019081526020016000205461159a90919063ffffffff16565b6000808573ffffffffffffffffffffffffffffffffffffffff1673ffffffffffffffffffffffffffffffffffffffff16815260200190815260200160002081905550611d17816000808573ffffffffffffffffffffffffffffffffffffffff1673ffffffffffffffffffffffffffffffffffffffff1681526020019081526020016000205461162390919063ffffffff16565b6000808473ffffffffffffffffffffffffffffffffffffffff1673ffffffffffffffffffffffffffffffffffffffff168152602001908152602001600020819055508173ffffffffffffffffffffffffffffffffffffffff168373ffffffffffffffffffffffffffffffffffffffff167fddf252ad1be2c89b69c2b068fc378daa952ba7f163c4a11628f55a4df523b3ef836040518082815260200191505060405180910390a3505050565b611dd56004611dd06108d6565b6121e5565b565b600073ffffffffffffffffffffffffffffffffffffffff168273ffffffffffffffffffffffffffffffffffffffff161415611e7a576040517f08c379a000000000000000000000000000000000000000000000000000000000815260040180806020018281038252601f8152602001807f45524332303a206d696e7420746f20746865207a65726f20616464726573730081525060200191505060405180910390fd5b611e8f8160025461162390919063ffffffff16565b600281905550611ee6816000808573ffffffffffffffffffffffffffffffffffffffff1673ffffffffffffffffffffffffffffffffffffffff1681526020019081526020016000205461162390919063ffffffff16565b6000808473ffffffffffffffffffffffffffffffffffffffff1673ffffffffffffffffffffffffffffffffffffffff168152602001908152602001600020819055508173ffffffffffffffffffffffffffffffffffffffff16600073ffffffffffffffffffffffffffffffffffffffff167fddf252ad1be2c89b69c2b068fc378daa952ba7f163c4a11628f55a4df523b3ef836040518082815260200191505060405180910390a35050565b600073ffffffffffffffffffffffffffffffffffffffff168273ffffffffffffffffffffffffffffffffffffffff161415612018576040517f08c379a00000000000000000000000000000000000000000000000000000000081526004018080602001828103825260218152602001806123f66021913960400191505060405180910390fd5b61202d8160025461159a90919063ffffffff16565b600281905550612084816000808573ffffffffffffffffffffffffffffffffffffffff1673ffffffffffffffffffffffffffffffffffffffff1681526020019081526020016000205461159a90919063ffffffff16565b6000808473ffffffffffffffffffffffffffffffffffffffff1673ffffffffffffffffffffffffffffffffffffffff16815260200190815260200160002081905550600073ffffffffffffffffffffffffffffffffffffffff168273ffffffffffffffffffffffffffffffffffffffff167fddf252ad1be2c89b69c2b068fc378daa952ba7f163c4a11628f55a4df523b3ef836040518082815260200191505060405180910390a35050565b6000808380549050141561214757600090506121df565b60008090506000848054905090505b8082101561219f57600061216a8383612268565b90508486828154811061217957fe5b9060005260206000200154111561219257809150612199565b6001810192505b50612156565b6000821180156121c75750838560018403815481106121ba57fe5b9060005260206000200154145b156121d95760018203925050506121df565b81925050505b92915050565b60006121f160066119cb565b905080612200846000016122aa565b10156122635782600001819080600181540180825580915050906001820390600052602060002001600090919290919091505550826001018290806001815401808255809150509060018203906000526020600020016000909192909190915055505b505050565b6000600280838161227557fe5b066002858161228057fe5b06018161228957fe5b046002838161229457fe5b046002858161229f57fe5b040101905092915050565b600080828054905014156122c157600090506122e2565b816001838054905003815481106122d457fe5b906000526020600020015490505b919050565b6122f18282611a07565b5050565b60008090505b815181101561232e576123218383838151811061231457fe5b60200260200101516118a1565b80806001019150506122fb565b50505056fe45524332303a207472616e7366657220746f20746865207a65726f206164647265737345524332303a20617070726f766520746f20746865207a65726f20616464726573734d7573742062652063616c6c6564206f6e20616e20696e697469616c697a6564204578636c757369766520726f6c654d7573742062652063616c6c6564206f6e20616e20696e697469616c697a65642053686172656420726f6c6553656e64657220646f6573206e6f7420686f6c6420726571756972656420726f6c6545524332303a206275726e2066726f6d20746865207a65726f206164647265737343616e6e6f742073657420616e206578636c757369766520726f6c6520746f2030783045524332303a207472616e736665722066726f6d20746865207a65726f206164647265737345524332303a20617070726f76652066726f6d20746865207a65726f206164647265737343616e206f6e6c792062652063616c6c6564206279206120726f6c65206d616e61676572a165627a7a723058208623a382b566c29c19a7771b1c7dc5a75dab4ae710867794f7505a0d399bb6500029417474656d7074656420746f2075736520616e20696e76616c696420726f6c6520746f206d616e61676520616e206578636c757369766520726f6c6543616e6e6f742073657420616e206578636c757369766520726f6c6520746f20307830417474656d7074656420746f2075736520616e20696e76616c696420726f6c6520746f206d616e61676520612073686172656420726f6c65",
  "source": "pragma solidity ^0.5.0;\n\nimport \"./MultiRole.sol\";\nimport \"./ExpandedIERC20.sol\";\n\nimport \"openzeppelin-solidity/contracts/drafts/ERC20Snapshot.sol\";\n\n\n/**\n * @title Ownership of this token allows a voter to respond to price requests.\n * @dev Supports snapshotting and allows the Oracle to mint new tokens as rewards.\n */\ncontract VotingToken is ExpandedIERC20, ERC20Snapshot, MultiRole {\n\n    enum Roles {\n        // Can set the minter and burner.\n        Governance,\n        // Addresses that can mint new tokens.\n        Minter,\n        // Addresses that can burn tokens that address owns.\n        Burner\n    }\n\n    // Standard ERC20 metadata.\n    string public constant name = \"UMA Voting Token v1\"; // solhint-disable-line const-name-snakecase\n    string public constant symbol = \"UMA\"; // solhint-disable-line const-name-snakecase\n    uint8 public constant decimals = 18; // solhint-disable-line const-name-snakecase\n\n    constructor() public {\n        _createExclusiveRole(uint(Roles.Governance), uint(Roles.Governance), msg.sender);\n        _createSharedRole(uint(Roles.Minter), uint(Roles.Governance), new address[](0));\n        _createSharedRole(uint(Roles.Burner), uint(Roles.Governance), new address[](0));\n    }\n\n    /**\n     * @dev Mints `value` tokens to `recipient`, returning true on success.\n     */\n    function mint(address recipient, uint value) external onlyRoleHolder(uint(Roles.Minter)) returns (bool) {\n        _mint(recipient, value);\n        return true;\n    }\n\n    /**\n     * @dev Burns `value` tokens owned by `msg.sender`.\n     */\n    function burn(uint value) external onlyRoleHolder(uint(Roles.Burner)) {\n        _burn(msg.sender, value);\n    }\n}\n",
  "sourcePath": "/Users/kendrick/Development/Ethereum/defi-dy/contracts/uma/core/contracts/VotingToken.sol",
  "compiler": {
    "name": "solc",
    "version": "0.5.8+commit.23d335f2.Emscripten.clang"
  },
  "schemaVersion": "3.0.10",
  "updatedAt": "2019-11-09T21:35:14.268Z",
  "devdoc": {
    "details": "Supports snapshotting and allows the Oracle to mint new tokens as rewards.",
    "methods": {
      "addMember(uint256,address)": {
        "details": "Reverts if `roleId` does not represent an initialized, shared role or if the caller is not a member of the managing role for `roleId`."
      },
      "allowance(address,address)": {
        "details": "See `IERC20.allowance`."
      },
      "approve(address,uint256)": {
        "details": "See `IERC20.approve`.     * Requirements:     * - `spender` cannot be the zero address."
      },
      "balanceOf(address)": {
        "details": "See `IERC20.balanceOf`."
      },
      "burn(uint256)": {
        "details": "Burns `value` tokens owned by `msg.sender`."
      },
      "decreaseAllowance(address,uint256)": {
        "details": "Atomically decreases the allowance granted to `spender` by the caller.     * This is an alternative to `approve` that can be used as a mitigation for problems described in `IERC20.approve`.     * Emits an `Approval` event indicating the updated allowance.     * Requirements:     * - `spender` cannot be the zero address. - `spender` must have allowance for the caller of at least `subtractedValue`."
      },
      "getMember(uint256)": {
        "details": "Reverts if `roleId` does not represent an initialized, exclusive role."
      },
      "holdsRole(uint256,address)": {
        "details": "Reverts if roleId does not correspond to an initialized role."
      },
      "increaseAllowance(address,uint256)": {
        "details": "Atomically increases the allowance granted to `spender` by the caller.     * This is an alternative to `approve` that can be used as a mitigation for problems described in `IERC20.approve`.     * Emits an `Approval` event indicating the updated allowance.     * Requirements:     * - `spender` cannot be the zero address."
      },
      "mint(address,uint256)": {
        "details": "Mints `value` tokens to `recipient`, returning true on success."
      },
      "removeMember(uint256,address)": {
        "details": "Reverts if `roleId` does not represent an initialized, shared role or if the caller is not a member of the managing role for `roleId`."
      },
      "resetMember(uint256,address)": {
        "details": "Reverts if the caller is not a member of the managing role for `roleId` or if `roleId` is not an initialized, exclusive role."
      },
      "totalSupply()": {
        "details": "See `IERC20.totalSupply`."
      },
      "transfer(address,uint256)": {
        "details": "See `IERC20.transfer`.     * Requirements:     * - `recipient` cannot be the zero address. - the caller must have a balance of at least `amount`."
      },
      "transferFrom(address,address,uint256)": {
        "details": "See `IERC20.transferFrom`.     * Emits an `Approval` event indicating the updated allowance. This is not required by the EIP. See the note at the beginning of `ERC20`;     * Requirements: - `sender` and `recipient` cannot be the zero address. - `sender` must have a balance of at least `value`. - the caller must have allowance for `sender`'s tokens of at least `amount`."
      }
    },
    "title": "Ownership of this token allows a voter to respond to price requests."
  },
  "userdoc": {
    "methods": {
      "addMember(uint256,address)": {
        "notice": "Adds `newMember` to the shared role, `roleId`."
      },
      "getMember(uint256)": {
        "notice": "Gets the current holder of the exclusive role, `roleId`."
      },
      "holdsRole(uint256,address)": {
        "notice": "Whether `memberToCheck` is a member of roleId."
      },
      "removeMember(uint256,address)": {
        "notice": "Removes `memberToRemove` from the shared role, `roleId`."
      },
      "resetMember(uint256,address)": {
        "notice": "Changes the exclusive role holder of `roleId` to `newMember`."
      }
    }
  }
}