{
  "contractName": "WithdrawableTest",
  "abi": [
    {
      "constant": false,
      "inputs": [
        {
          "name": "amount",
          "type": "uint256"
        }
      ],
      "name": "withdraw",
      "outputs": [],
      "payable": false,
      "stateMutability": "nonpayable",
      "type": "function"
    },
    {
      "constant": false,
      "inputs": [
        {
          "name": "roleId",
          "type": "uint256"
        },
        {
          "name": "memberToRemove",
          "type": "address"
        }
      ],
      "name": "removeMember",
      "outputs": [],
      "payable": false,
      "stateMutability": "nonpayable",
      "type": "function"
    },
    {
      "constant": false,
      "inputs": [
        {
          "name": "roleId",
          "type": "uint256"
        },
        {
          "name": "newMember",
          "type": "address"
        }
      ],
      "name": "addMember",
      "outputs": [],
      "payable": false,
      "stateMutability": "nonpayable",
      "type": "function"
    },
    {
      "constant": true,
      "inputs": [
        {
          "name": "roleId",
          "type": "uint256"
        },
        {
          "name": "memberToCheck",
          "type": "address"
        }
      ],
      "name": "holdsRole",
      "outputs": [
        {
          "name": "",
          "type": "bool"
        }
      ],
      "payable": false,
      "stateMutability": "view",
      "type": "function"
    },
    {
      "constant": true,
      "inputs": [
        {
          "name": "roleId",
          "type": "uint256"
        }
      ],
      "name": "getMember",
      "outputs": [
        {
          "name": "",
          "type": "address"
        }
      ],
      "payable": false,
      "stateMutability": "view",
      "type": "function"
    },
    {
      "constant": false,
      "inputs": [
        {
          "name": "erc20Address",
          "type": "address"
        },
        {
          "name": "amount",
          "type": "uint256"
        }
      ],
      "name": "withdrawErc20",
      "outputs": [],
      "payable": false,
      "stateMutability": "nonpayable",
      "type": "function"
    },
    {
      "constant": false,
      "inputs": [
        {
          "name": "roleId",
          "type": "uint256"
        },
        {
          "name": "newMember",
          "type": "address"
        }
      ],
      "name": "resetMember",
      "outputs": [],
      "payable": false,
      "stateMutability": "nonpayable",
      "type": "function"
    },
    {
      "inputs": [],
      "payable": false,
      "stateMutability": "nonpayable",
      "type": "constructor"
    },
    {
      "constant": false,
      "inputs": [],
      "name": "pay",
      "outputs": [],
      "payable": true,
      "stateMutability": "payable",
      "type": "function"
    }
  ],
  "bytecode": "0x60806040523480156200001157600080fd5b506200003f600060018111156200002457fe5b600060018111156200003257fe5b336200007160201b60201c565b6200006b6001808111156200005057fe5b600060018111156200005e57fe5b336200022360201b60201c565b62000327565b82600060028111156200008057fe5b60008083815260200190815260200160002060010160009054906101000a900460ff166002811115620000af57fe5b1462000123576040517f08c379a000000000000000000000000000000000000000000000000000000000815260040180806020018281038252601e8152602001807f43616e6e6f74207573652061207072652d6578697374696e6720726f6c65000081525060200191505060405180910390fd5b6000806000868152602001908152602001600020905060018160010160006101000a81548160ff021916908360028111156200015b57fe5b02179055508381600001819055506200018683826002016200024260201b62000d011790919060201c565b600060028111156200019457fe5b60008086815260200190815260200160002060010160009054906101000a900460ff166002811115620001c357fe5b14156200021c576040517f08c379a000000000000000000000000000000000000000000000000000000000815260040180806020018281038252603c81526020018062001136603c913960400191505060405180910390fd5b5050505050565b826001819055506200023d8383836200007160201b60201c565b505050565b6200025482826200025860201b60201c565b5050565b600073ffffffffffffffffffffffffffffffffffffffff168173ffffffffffffffffffffffffffffffffffffffff161415620002e0576040517f08c379a0000000000000000000000000000000000000000000000000000000008152600401808060200182810382526023815260200180620011726023913960400191505060405180910390fd5b808260000160006101000a81548173ffffffffffffffffffffffffffffffffffffffff021916908373ffffffffffffffffffffffffffffffffffffffff1602179055505050565b610dff80620003376000396000f3fe60806040526004361061007b5760003560e01c80637cdc1cb91161004e5780637cdc1cb91461017b578063ab3545e5146101ee578063bd1f4b5214610269578063d97c05be146102c45761007b565b80631b9265b8146100805780632e1a7d4d1461008a5780636be7658b146100c557806374d0a67614610120575b600080fd5b61008861031f565b005b34801561009657600080fd5b506100c3600480360360208110156100ad57600080fd5b810190808035906020019092919050505061032e565b005b3480156100d157600080fd5b5061011e600480360360408110156100e857600080fd5b8101908080359060200190929190803573ffffffffffffffffffffffffffffffffffffffff1690602001909291905050506103db565b005b34801561012c57600080fd5b506101796004803603604081101561014357600080fd5b8101908080359060200190929190803573ffffffffffffffffffffffffffffffffffffffff16906020019092919050505061050e565b005b34801561018757600080fd5b506101d46004803603604081101561019e57600080fd5b8101908080359060200190929190803573ffffffffffffffffffffffffffffffffffffffff169060200190929190505050610641565b604051808215151515815260200191505060405180910390f35b3480156101fa57600080fd5b506102276004803603602081101561021157600080fd5b810190808035906020019092919050505061076f565b604051808273ffffffffffffffffffffffffffffffffffffffff1673ffffffffffffffffffffffffffffffffffffffff16815260200191505060405180910390f35b34801561027557600080fd5b506102c26004803603604081101561028c57600080fd5b81019080803573ffffffffffffffffffffffffffffffffffffffff16906020019092919080359060200190929190505050610828565b005b3480156102d057600080fd5b5061031d600480360360408110156102e757600080fd5b8101908080359060200190929190803573ffffffffffffffffffffffffffffffffffffffff169060200190929190505050610960565b005b6000341161032c57600080fd5b565b60015461033b8133610641565b610390576040517f08c379a0000000000000000000000000000000000000000000000000000000008152600401808060200182810382526022815260200180610d6b6022913960400191505060405180910390fd5b3373ffffffffffffffffffffffffffffffffffffffff166108fc839081150290604051600060405180830381858888f193505050501580156103d6573d6000803e3d6000fd5b505050565b816002808111156103e857fe5b60008083815260200190815260200160002060010160009054906101000a900460ff16600281111561041657fe5b1461046c576040517f08c379a000000000000000000000000000000000000000000000000000000000815260040180806020018281038252602c815260200180610d3f602c913960400191505060405180910390fd5b8261048c6000808381526020019081526020016000206000015433610641565b6104e1576040517f08c379a0000000000000000000000000000000000000000000000000000000008152600401808060200182810382526024815260200180610db06024913960400191505060405180910390fd5b61050883600080878152602001908152602001600020600301610a9490919063ffffffff16565b50505050565b8160028081111561051b57fe5b60008083815260200190815260200160002060010160009054906101000a900460ff16600281111561054957fe5b1461059f576040517f08c379a000000000000000000000000000000000000000000000000000000000815260040180806020018281038252602c815260200180610d3f602c913960400191505060405180910390fd5b826105bf6000808381526020019081526020016000206000015433610641565b610614576040517f08c379a0000000000000000000000000000000000000000000000000000000008152600401808060200182810382526024815260200180610db06024913960400191505060405180910390fd5b61063b83600080878152602001908152602001600020600301610af290919063ffffffff16565b50505050565b60008060008085815260200190815260200160002090506001600281111561066557fe5b8160010160009054906101000a900460ff16600281111561068257fe5b14156106a65761069e8382600201610b5090919063ffffffff16565b915050610769565b6002808111156106b257fe5b8160010160009054906101000a900460ff1660028111156106cf57fe5b14156106f3576106eb8382600301610bad90919063ffffffff16565b915050610769565b6000610767576040517f08c379a000000000000000000000000000000000000000000000000000000000815260040180806020018281038252600e8152602001807f496e76616c696420726f6c65496400000000000000000000000000000000000081525060200191505060405180910390fd5b505b92915050565b6000816001600281111561077f57fe5b60008083815260200190815260200160002060010160009054906101000a900460ff1660028111156107ad57fe5b14610803576040517f08c379a000000000000000000000000000000000000000000000000000000000815260040180806020018281038252602f815260200180610d10602f913960400191505060405180910390fd5b610820600080858152602001908152602001600020600201610c06565b915050919050565b6001546108358133610641565b61088a576040517f08c379a0000000000000000000000000000000000000000000000000000000008152600401808060200182810382526022815260200180610d6b6022913960400191505060405180910390fd5b60008390508073ffffffffffffffffffffffffffffffffffffffff1663a9059cbb33856040518363ffffffff1660e01b8152600401808373ffffffffffffffffffffffffffffffffffffffff1673ffffffffffffffffffffffffffffffffffffffff16815260200182815260200192505050602060405180830381600087803b15801561091657600080fd5b505af115801561092a573d6000803e3d6000fd5b505050506040513d602081101561094057600080fd5b810190808051906020019092919050505061095a57600080fd5b50505050565b816001600281111561096e57fe5b60008083815260200190815260200160002060010160009054906101000a900460ff16600281111561099c57fe5b146109f2576040517f08c379a000000000000000000000000000000000000000000000000000000000815260040180806020018281038252602f815260200180610d10602f913960400191505060405180910390fd5b82610a126000808381526020019081526020016000206000015433610641565b610a67576040517f08c379a0000000000000000000000000000000000000000000000000000000008152600401808060200182810382526024815260200180610db06024913960400191505060405180910390fd5b610a8e83600080878152602001908152602001600020600201610c3490919063ffffffff16565b50505050565b60008260000160008373ffffffffffffffffffffffffffffffffffffffff1673ffffffffffffffffffffffffffffffffffffffff16815260200190815260200160002060006101000a81548160ff0219169083151502179055505050565b60018260000160008373ffffffffffffffffffffffffffffffffffffffff1673ffffffffffffffffffffffffffffffffffffffff16815260200190815260200160002060006101000a81548160ff0219169083151502179055505050565b60008173ffffffffffffffffffffffffffffffffffffffff168360000160009054906101000a900473ffffffffffffffffffffffffffffffffffffffff1673ffffffffffffffffffffffffffffffffffffffff1614905092915050565b60008260000160008373ffffffffffffffffffffffffffffffffffffffff1673ffffffffffffffffffffffffffffffffffffffff16815260200190815260200160002060009054906101000a900460ff16905092915050565b60008160000160009054906101000a900473ffffffffffffffffffffffffffffffffffffffff169050919050565b600073ffffffffffffffffffffffffffffffffffffffff168173ffffffffffffffffffffffffffffffffffffffff161415610cba576040517f08c379a0000000000000000000000000000000000000000000000000000000008152600401808060200182810382526023815260200180610d8d6023913960400191505060405180910390fd5b808260000160006101000a81548173ffffffffffffffffffffffffffffffffffffffff021916908373ffffffffffffffffffffffffffffffffffffffff1602179055505050565b610d0b8282610c34565b505056fe4d7573742062652063616c6c6564206f6e20616e20696e697469616c697a6564204578636c757369766520726f6c654d7573742062652063616c6c6564206f6e20616e20696e697469616c697a65642053686172656420726f6c6553656e64657220646f6573206e6f7420686f6c6420726571756972656420726f6c6543616e6e6f742073657420616e206578636c757369766520726f6c6520746f2030783043616e206f6e6c792062652063616c6c6564206279206120726f6c65206d616e61676572a165627a7a7230582026f405c660c3807fcc877c146b6e9444b31a998bf2946d820b956e7cb4957e310029417474656d7074656420746f2075736520616e20696e76616c696420726f6c6520746f206d616e61676520616e206578636c757369766520726f6c6543616e6e6f742073657420616e206578636c757369766520726f6c6520746f20307830",
  "source": "pragma solidity ^0.5.0;\n\nimport \"../Withdrawable.sol\";\n\n\n// WithdrawableTest is derived from the abstract contract Withdrawable for testing purposes.\ncontract WithdrawableTest is Withdrawable {\n\n    enum Roles {\n        Governance,\n        Withdraw\n    }\n\n    // solhint-disable-next-line no-empty-blocks\n    constructor() public {\n        _createExclusiveRole(uint(Roles.Governance), uint(Roles.Governance), msg.sender);\n        createWithdrawRole(uint(Roles.Withdraw), uint(Roles.Governance), msg.sender);\n    }\n\n    function pay() external payable {\n        require(msg.value > 0);\n    }\n}\n",
  "sourcePath": "/Users/kendrick/Development/Ethereum/defi-dy/contracts/uma/core/contracts/test/WithdrawableTest.sol",
  "compiler": {
    "name": "solc",
    "version": "0.5.8+commit.23d335f2.Emscripten.clang"
  },
  "schemaVersion": "3.0.10",
  "updatedAt": "2019-11-09T13:45:25.749Z",
  "devdoc": {
    "methods": {
      "addMember(uint256,address)": {
        "details": "Reverts if `roleId` does not represent an initialized, shared role or if the caller is not a member of the managing role for `roleId`."
      },
      "getMember(uint256)": {
        "details": "Reverts if `roleId` does not represent an initialized, exclusive role."
      },
      "holdsRole(uint256,address)": {
        "details": "Reverts if roleId does not correspond to an initialized role."
      },
      "removeMember(uint256,address)": {
        "details": "Reverts if `roleId` does not represent an initialized, shared role or if the caller is not a member of the managing role for `roleId`."
      },
      "resetMember(uint256,address)": {
        "details": "Reverts if the caller is not a member of the managing role for `roleId` or if `roleId` is not an initialized, exclusive role."
      }
    }
  },
  "userdoc": {
    "methods": {
      "addMember(uint256,address)": {
        "notice": "Adds `newMember` to the shared role, `roleId`."
      },
      "getMember(uint256)": {
        "notice": "Gets the current holder of the exclusive role, `roleId`."
      },
      "holdsRole(uint256,address)": {
        "notice": "Whether `memberToCheck` is a member of roleId."
      },
      "removeMember(uint256,address)": {
        "notice": "Removes `memberToRemove` from the shared role, `roleId`."
      },
      "resetMember(uint256,address)": {
        "notice": "Changes the exclusive role holder of `roleId` to `newMember`."
      },
      "withdraw(uint256)": {
        "notice": "Withdraws ETH from the contract."
      },
      "withdrawErc20(address,uint256)": {
        "notice": "Withdraws ERC20 tokens from the contract."
      }
    }
  }
}